:020000040800F2
:1000000040570020AD040008890400088D04000852
:1000100091040008950400089904000800000000FD
:100020000000000000000000000000009D04000827
:10003000A104000800000000A5040008A9040008AD
:10004000C7040008C7040008C7040008C704000864
:10005000C7040008C7040008C7040008C704000854
:10006000C7040008C7040008C7040008C704000844
:10007000C7040008C7040008C7040008C704000834
:10008000C7040008C7040008C7040008C704000824
:10009000C7040008C7040008C7040008C704000814
:1000A000C7040008C7040008C7040008C704000804
:1000B00061230008D92100089D210008C704000819
:1000C000C7040008C7040008C7040008C7040008E4
:1000D000C7040008C7040008C7040008C7040008D4
:1000E000C7040008C7040008C7040008C7040008C4
:1000F000C7040008C7040008C7040008C7040008B4
:10010000C7040008C7040008C7040008C7040008A3
:10011000C7040008C7040008C7040008C704000893
:100120003D200008C7040008C7040008C7040008F1
:10013000C7040008C7040008C7040008C704000873
:10014000C7040008C7040008C7040008C704000863
:10015000C7040008C7040008C70400085164000869
:10016000C7040008C7040008C7040008C704000843
:10017000C7040008C7040008C7040008C704000833
:10018000C7040008C704000800F002F800F0F6F801
:100190000AA090E8000C82448344AAF10107DA45E2
:1001A00001D100F0EBF8AFF2090EBAE80F0013F03E
:1001B000010F18BFFB1A43F001031847ECFB0000C6
:1001C0000CFC0000103A24BF78C878C1FAD8520756
:1001D00024BF30C830C144BF04680C6070470000C1
:1001E0000023002400250026103A28BF78C1FBD840
:1001F000520728BF30C148BF0B6070474B1C012B12
:1002000098BF70472DE9F003911C9B08B1F804805A
:10021000B1F802900A8831F802CC8044814402444B
:100220008444D9F80070D8F800601568DCF8004004
:10023000C9F80060C8F80070CCF800501460D9F814
:100240000470D8F804605568DCF80440C9F804600C
:10025000C8F80470CCF80450546008315B1ED5D146
:10026000BDE8F00370474B1C012B98BF70472DE988
:10027000F003911C9B08B1F80480B1F802900A8841
:1002800031F802CC00EB580800EB590900EB5202A0
:1002900000EB5C0CD9F80070D8F800601568DCF849
:1002A0000040C9F80060C8F80070CCF80050146035
:1002B00008315B1EDFD1BDE8F00370476E2907F0FF
:1002C0005886702907F0378466290AF0A3866529C5
:1002D0000AF0A08667290AF09D8661290AF09C86AB
:1002E00003681B0A28BF41F08001692907F01283C7
:1002F000642907F00F83752907F00C836F2907F035
:10030000C583782907F00384E92908F03580E429BA
:1003100008F03280F52908F02F80EF2907F0C2831A
:10032000F82907F002840368DB0928BF41F0800147
:10033000632907F0FE87732908F00380E32908F09A
:100340000E80F32908F01380002070471FB50AF0D3
:10035000A3FD9DE8030007F04BFD08F07BF80400C7
:100360000020002109F00EFB401C606000200021ED
:1003700009F0F2FAE0601FBD10B510BD08F083FB74
:100380001146FFF7E3FF00F00BF808F033FD03B46C
:10039000FFF7F2FF03BC08F0A9FD00000000000019
:1003A0004FF4A06002F024FE05F076FD00F0D6FECA
:1003B00002F0CAF94FF4E13005F0F0FF01F050FC13
:1003C00001F068FD01F0B4FD0920052101F058FF9E
:1003D00002F0A8FC05F020FF9FED070B0020012193
:1003E000002205F089FF642005F060FF01F0E4FFC2
:1003F00002F098FDFAE700BF000000000088B3405B
:1004000070B588B042F20F7042F2CF0101F09AFE4F
:100410004FF6FF70032101F031FE40F2C400C2F23A
:100420000000006864250DF1020400FB05F60A20B7
:100430006E211822234601F0FFF944F2A320C0F2F6
:100440000F00864284BF48F2A065C0F2010505A0F6
:1004500009A1B6FBF5F288BF0146204607F0E2F994
:1004600008B070BD667265713A25646B687A2020A9
:100470002020202000000000667265713A2564206B
:100480002020202020000000704700BFFEE700BFB2
:10049000FEE700BFFEE700BFFEE700BF704700BFFA
:1004A000704700BF704700BF704700000948804791
:1004B00009480047FEE7FEE7FEE7FEE7FEE7FEE746
:1004C000FEE7FEE7FEE7FEE704480549054A064B5E
:1004D00070470000ED040008890100084046002034
:1004E00040570020404800204048002082B04EF68F
:1004F000885CCEF2000CDCF8002043F6000142F4E8
:100500007002C4F20201CCF800200A684FF6FF70B6
:1005100042F001020A6000228A600B68CFF6F660A2
:100520001840086043F21000C2F2004048600868BA
:1005300020F480200860CA6001920092086840F4AC
:1005400080300860086800F40030009001980130A5
:100550000190009818B90198B0F5A04FF2D1086841
:10056000800354BF002001200090009801284BD147
:10057000086C40F08050086447F20000C4F20000AC
:10058000026842F44042026088688860886840F4EB
:1005900000408860886840F4A050886045F20840B8
:1005A000C0F240704860086840F0807008600868D9
:1005B000800109D4086880015CBF08685FEA801088
:1005C00002D408688001F2D540F20570C1F8000439
:1005D000886820F003008860886840F00200886026
:1005E000886800F00C0008280ED0886800F00C0025
:1005F000082809D0886800F00C00082804D0886812
:1006000000F00C000828EBD14FF000604CF8800C93
:1006100002B0704743F60400C4F20200416801F0E2
:100620000C0242F20041082AC0F2F40106D0042A6A
:100630001DD141F20021C0F27A0118E0026803687E
:10064000520241F20022C0F27A0203F03F0358BF87
:100650000A460168B2FBF3F20368C1F38811514303
:10066000C3F30142022303EB4202B1FBF2F140F279
:100670000402C2F20002116040684EF2FE03C0F3B1
:100680000310C0F60003185C21FA00F010607047F8
:1006900081B0ADF80200ADF80010BDF8020041F6DF
:1006A000FE71C6F600410880BDF8000042F200016C
:1006B000C6F60041088001B0704700BF80B582B027
:1006C000ADF80600BDF8060041F6FE71C6F6004121
:1006D0000880042005F0EEFB42F20000C6F6004060
:1006E000008802B080BD00BF81B08DF80300FFE735
:1006F0009DF80300411E8DF8031008B1FFE7F7E7EE
:1007000001B0704744F23460C2F20000008841F644
:10071000FE71C6F600410880704700BF41F6FE71C9
:10072000C6F6004129200880704700BF41F6FE71DF
:10073000C6F6004128200880704700BF84B0ADF89D
:100740000E00ADF80C10ADF80A20ADF80830BDF879
:100750000E00BDF80A1008440138ADF80A00BDF8D3
:100760000C00BDF8081008440138ADF8080041F24B
:100770002020C2F200000078002857D1FFE744F2A1
:100780002A20C2F20000008841F6631188424DD150
:10079000FFE744F22C20C2F200000088BDF80A10E6
:1007A000401ABDF80E10401AADF80E00BDF80C004E
:1007B000BDF8081008440138ADF8080044F22E20B6
:1007C000C2F20000008841F6FE72C6F600421080B8
:1007D0009DF80F0042F20001C6F600410191088029
:1007E0009DF80E000880BDF80E00BDF80A301844D0
:1007F0000138000A0880BDF80E00BDF80A30184420
:100800000138C0B2088044F23020C2F200000088F3
:1008100010809DF80D0008809DF80C0008809DF860
:10082000090008809DF8080008802DE044F22E2081
:10083000C2F20000008841F6FE72C6F60042108047
:100840009DF80F0042F20001C6F6004100910880B9
:100850009DF80E0008809DF80B0008809DF80A00A6
:10086000088044F23020C2F20000008810809DF819
:100870000D0008809DF80C0008809DF80900088094
:100880009DF808000880FFE704B0704780B584B089
:100890008DF80F000020ADF80C00ADF80A0041F211
:1008A0002020C2F20000007801280AD1FFE744F2BC
:1008B0002A20C2F20000008849F24131884212D059
:1008C000FFE741F22020C2F200000078002838D172
:1008D000FFE744F22A20C2F20000008841F66311CB
:1008E00088422ED1FFE79DF80F00014601910728AD
:1008F00026D80199DFE801F004080C1014181C2018
:1009000006208DF80F001BE007208DF80F0017E080
:1009100004208DF80F0013E005208DF80F000FE084
:1009200001208DF80F000BE000208DF80F0007E08C
:1009300003208DF80F0003E002208DF80F00FFE781
:10094000FFE79DF80F0001460091072838D800996D
:10095000DFE801F004050C131A21282F30E0BDF860
:100960000C0040F08000ADF80C0029E0BDF80C0050
:1009700040F04000ADF80C0022E0BDF80C0040F063
:10098000C000ADF80C001BE0BDF80C0040F02000EA
:10099000ADF80C0014E0BDF80C0040F06000ADF8BC
:1009A0000C000DE0BDF80C0040F0A000ADF80C000C
:1009B00006E0BDF80C0040F0E000ADF80C00FFE7E9
:1009C0003620ADF80A0044F22A20C2F20000008866
:1009D00049F24131884207D1FFE7BDF80C0040F0F1
:1009E0000800ADF80C00FFE7BDF80A00BDF80C10D8
:1009F000FFF74EFE44F22C20C2F20000028844F2BF
:100A00002820C2F20000038800210846FFF796FE66
:100A100004B080BD80B582B08DF807009DF8070056
:100A200000285DD1FFE741F22021C2F20001002041
:100A3000087044F22A20C2F20000008849F24131D5
:100A4000884220D1FFE744F23461C2F200012C2039
:100A5000088044F22E21C2F200012A20088044F2CC
:100A60003021C2F200012B20088044F22C21C2F276
:100A70000001F020088044F22821C2F200014FF466
:100A8000A07008802BE044F22A20C2F20000008807
:100A900041F66311884221D1FFE744F23461C2F28A
:100AA00000012C20088044F22E21C2F200012B20EC
:100AB000088044F23021C2F200012A20088044F26A
:100AC0002C21C2F200014FF4F070088044F228217A
:100AD000C2F200014FF448700880FFE7FFE75CE0D6
:100AE00041F22021C2F200010120087044F22A20C4
:100AF000C2F20000008849F24131884220D1FFE76C
:100B000044F23461C2F200012C20088044F22E210C
:100B1000C2F200012A20088044F23021C2F2000112
:100B20002B20088044F22C21C2F200014FF4A07067
:100B3000088044F22821C2F20001F02008802BE056
:100B400044F22A20C2F20000008841F66311884274
:100B500021D1FFE744F23461C2F200012C20088069
:100B600044F22E21C2F200012A20088044F23021F2
:100B7000C2F200012B20088044F22C21C2F20001B5
:100B80004FF44870088044F22821C2F200014FF46B
:100B9000F0700880FFE7FFE7FFE70020FFF776FE31
:100BA00002B080BD81B0ADF80200ADF8001044F293
:100BB0002A20C2F20000008849F24131884221D146
:100BC000FFE744F22E20C2F20000008841F6FE72D8
:100BD000C6F6004210809DF8030042F20001C6F6FE
:100BE000004108809DF80200088044F23020C2F2E3
:100BF0000000008810809DF8010008809DF800002A
:100C0000088076E044F22A20C2F20000008841F613
:100C1000631188426CD1FFE741F22020C2F200004C
:100C2000007818BBFFE744F22C20C2F200000188D4
:100C3000BDF80200C0430844ADF8020044F22E2083
:100C4000C2F20000008841F6FE71C6F6004108803D
:100C500042F20001C6F600410020088008809DF89D
:100C6000030008809DF80200088020E044F22E2056
:100C7000C2F20000008841F6FE71C6F6004108800D
:100C80009DF8030042F20001C6F6004108809DF87D
:100C90000200088044F22C20C2F200000288013ACF
:100CA000120A0A8000880138C0B20880FFE744F2C7
:100CB0003020C2F20000008841F6FE71C6F6004105
:100CC00008809DF8010042F20001C6F6004108804C
:100CD0009DF80000088044F22820C2F2000002883B
:100CE000013A120A0A8000880138C0B20880FFE782
:100CF000FFE701B0704700BF80B584B0ADF80C00CD
:100D0000ADF80A100020ADF80800ADF80600ADF807
:100D10000400BDF80C00BDF80A10FFF743FF41F6D0
:100D2000FE71C6F600412E20088042F20000C6F691
:100D300000400088ADF8080044F22A20C2F200000A
:100D4000008841F66311884205D1FFE7BDF808002D
:100D5000ADF80E0025E00220FFF7C6FC42F20000CD
:100D6000C6F600400088ADF80400BDF80800C0B227
:100D7000ADF80600BDF806000002ADF80600BDF8AB
:100D8000080000F47840BDF806204FF4FC6101EA49
:100D900052110844BDF8041040EAD120ADF80E000D
:100DA000FFE7BDF80E0004B080BD00BF80B582B083
:100DB000ADF80600ADF80410BDF80600BDF804104B
:100DC000FFF7F0FEFFF79EFC41F2F800C2F20000D0
:100DD000008842F20001C6F60041088002B080BDE2
:100DE00080B582B0ADF80600ADF80410ADF8022071
:100DF000BDF80600BDF80410FFF7D8FF44F23460D8
:100E0000C2F20000008841F6FE71C6F6004108807B
:100E1000BDF8020042F20001C6F60041088002B0AF
:100E200080BD00BF81B08DF8030041F6FE71C6F6AB
:100E30000041BE20088042F20001C6F600410520B4
:100E400008809DF80300088001200880FF200880AA
:100E500000200880088001B0704700BF80B584B0D2
:100E6000ADF80E00002100910291019144F22C2076
:100E7000C2F20000008844F22822C2F20002128866
:100E8000504301900846FFF78DFEFFF73BFC0098AA
:100E90000290FFE70298019988420CD2FFE7BDF863
:100EA0000E0042F20001C6F600410880FFE70298FA
:100EB00001300290EEE704B080BD00BF10B5B2B0C3
:100EC00078200121129102F039FE1299084602F0B1
:100ED0004DFE12984FF4806130918DF8C4000021CE
:100EE00010918DF8C610022109918DF8C5108DF86A
:100EF000C70041F20040C4F2020030A9029102F0A2
:100F000005F90299099B109A12984CF2337CCDF89E
:100F1000C0C08DF8C4308DF8C620032201928DF830
:100F2000C5208DF8C70040F60040C4F202000490CE
:100F300002F0ECF8019A0299DDF824C0109B129897
:100F40004FF6807ECDF8C0E08DF8C4C08DF8C63075
:100F50008DF8C5208DF8C70041F20000C4F20200F0
:100F6000089002F0D3F8019A0299DDF824C0109B92
:100F700012984FF0040ECDF80CE0CDF8C0E08DF8DB
:100F8000C4C08DF8C6308DF8C5208DF8C70041F675
:100F90000000C4F202000A9002F0B8F8019B029926
:100FA0000A98DDF840C0129ADDF824E04FF480542E
:100FB0000F9430948DF8C4E08DF8C6C08DF8C5301C
:100FC0008DF8C72002F0A2F8049810990C220B9219
:100FD00002F058F904980B9A129902F053F9039908
:100FE00004980B9A02F04EF904980B9A052102F02E
:100FF00049F904980B9A08210D9102F043F90498DD
:101000000B9A0921059102F03DF904980B9A0A21E7
:10101000069102F037F904980B9A0E21079102F01D
:1010200031F904980B9A0F210C9102F02BF90898D2
:101030000B9A07210E9102F025F908980B9A0D9949
:1010400002F020F9059908980B9A02F01BF906990D
:1010500008980B9A02F016F908980B9A0B2102F0E7
:1010600011F908980B9A114602F00CF908980B9A9E
:101070000D2102F007F9079908980B9A02F002F97E
:1010800008980B9A0C9902F0FDF809990A980B9AA6
:1010900002F0F8F80A980B9A114602F0F3F8DDF81E
:1010A00030C00D9B0E9A0F991098CDF868C01B9018
:1010B0004FF03C0CCDF870C01D901E901F902090FA
:1010C0001393149015921690179018901990062269
:1010D0001192219222902390102224922590279001
:1010E0002690289029902A912B904FF480412C91A2
:1010F0002D901AA82E9013A82F9021A802F0F0F896
:101100001198129902F066F9322004F035FF32B0DE
:1011100010BD00BF81B041F6FE71C6F60041D3207C
:10112000088042F20000C6F600400188ADF80210C7
:101130000188ADF802100188ADF80210BDF8021068
:101140000902ADF802100188BDF802000843ADF8AD
:101150000200BDF8020001B0704700BFF0B58DB0CD
:10116000FFF7ACFEFFF7D6FF014644F22A20C2F299
:1011700000000180008849F24131884228D0FFE711
:1011800041F6FE71C6F60041A120088042F200013E
:10119000C6F600410A8844F22A20C2F2000002800A
:1011A0000A8802800288120202800A88018811439C
:1011B0000180008845F26171884208D1FFE744F25E
:1011C0002A21C2F2000141F663100880FFE7FFE721
:1011D00044F22A20C2F20000008849F241318842DC
:1011E00016D1FFE740F21C11CAF200010C91086809
:1011F00020F00F000860086820F47060086008683C
:1012000040F003000860086840F400700860FFE7E1
:1012100044F22A20C2F20000008849F2413188429B
:1012200040F0D480FFE741F6FE71C6F600410A9116
:10123000CF20088042F20003C6F600430893002244
:1012400009921A804FF0C10CA3F800C0302018801A
:101250004FF0ED0EA1F800E04FF0640EA3F800E0AF
:101260004FF0030EA3F800E04FF0120EA3F800E0D9
:101270004FF0810EA3F800E04FF0E80EA1F800E077
:101280004FF0850EA3F800E04FF0100EA3F800E039
:101290007A241C80CB240C8039241C802C241C80B4
:1012A0001A8034241C8002241C80F7240C80202403
:1012B0001C80EA240C801A801A80C0240C801B2415
:1012C0001C80A1F800C001240B941C804FF0C50CB9
:1012D000A1F800C018801880C7200880B7201880A7
:1012E00036200880482018803A2008805520188031
:1012F000B12008801A801A201880B62008800A20A1
:1013000018804FF0A20CA3F800C04FF0F20CA1F827
:1013100000C01A804FF0260CA1F800C01C804FF0CE
:10132000E00CA1F800C00F261E804FF02A0CA3F895
:1013300000C028251D8008251D800E271F801D80C8
:1013400054251D80A9251D8043251D8018801E80E1
:101350001A801A801A801A80E12008801A801520CD
:101360001880172018800720188011201880062563
:101370001D802B251D8056271F803C271F80052799
:101380001F80A3F800E01E804FF03F0EA3F800E09E
:10139000A3F800E01E800D801A801A801C80A3F83C
:1013A00000E0A1F800C01A801A801A80EF221A808B
:1013B0000880782004F0E0FD0A9A0B98292111801A
:1013C00048F2A821C4F242210860ACE044F22A208D
:1013D000C2F20000008841F66311884240F0A2800A
:1013E000FFE741F6FE71C6F600410491E220088055
:1013F00042F20000C6F6004005901D210180022443
:10140000048004250580642004F054FD049A0599A5
:10141000E020019010800120069008800A200290B0
:1014200004F0AAFD0198049A059910800320039006
:1014300008800C2004F0A0FD0298049A06991180FF
:1014400004F09AFD039BDDF810C0059A0699E6208A
:10145000ACF800002F201080FF20108010804FF08B
:10146000B00EACF800E04FF0200EA2F800E04FF014
:10147000000ECDF81CE0A2F800E0138040F21F3609
:101480001680118040F2DF161680A2F800E0B42624
:10149000ACF80060158040F21F451580A2F800E00E
:1014A0002E251580A2F800E0A2F800E0A2F800E0E6
:1014B000A2F800E0B625ACF8005014804FF4037495
:1014C0001480A2F800E01724148015241480A2F8D8
:1014D00000E0A2F800E0F024ACF8004013802924DA
:1014E000ACF80040D024ACF80040A2F800E0BE24E4
:1014F000ACF8004005241480FE2414801180A2F86A
:1015000000E0A2F800E0A2F800E04FF0B80EACF85E
:1015100000E013801180BA23ACF800301180FFF78F
:1015200081FCFFE7FFE70020FFF774FA4FF6FF703A
:10153000FFF794FC0DB0F0BD80B584B084460698EA
:10154000ADF80EC0ADF80C10ADF80A20ADF80830BB
:10155000ADF806000020ADF80000BDF80A00BDF8A7
:101560000E10401A0130ADF80000BDF80C00ADF8C7
:101570000400FFE7BDF80400BDF80810884228DC2D
:10158000FFE7BDF80E00BDF80410FFF70BFBFFF7F7
:10159000B9F80020ADF80200FFE7BDF80200BDF881
:1015A000001088420EDAFFE7BDF8060042F20001A3
:1015B000C6F600410880FFE7BDF802000130ADF833
:1015C0000200EAE7FFE7BDF804000130ADF80400CF
:1015D000D0E704B080BD00BF80B584B0DDF818C08E
:1015E000ADF80E00ADF80C10ADF80A20ADF80830DB
:1015F000BDF80A00BDF80E10401A0130ADF8040025
:10160000BDF80800BDF80C10401A0130ADF8060016
:101610000020ADF80200FFE7BDF80200BDF806109B
:10162000884235DAFFE7BDF80E00BDF80C10BDF8B2
:101630000220114489B2FFF7B5FAFFF763F80020E2
:10164000ADF80000FFE7BDF80000BDF804108842C7
:1016500017DAFFE70698BDF80210BDF80620BDF8BE
:10166000003001FB023130F8110042F20001C6F6F1
:1016700000410880FFE7BDF800000130ADF8000030
:10168000E1E7FFE7BDF802000130ADF80200C3E773
:1016900004B080BD80B584B0ADF80E00ADF80C107C
:1016A0008DF80B208DF80A30BDF80E00ADF804005F
:1016B0009DF80A000C2804D1FFE70C208DF80900E2
:1016C00014E09DF80A00102804D1FFE710208DF8DF
:1016D00009000AE09DF80A00182804D1FFE730202D
:1016E0008DF8090000E0A4E0FFE7FFE79DF80B009C
:1016F00020388DF80B0000208DF80600FFE79DF8DC
:1017000006009DF80910884280F29380FFE79DF85B
:101710000A000C2810D1FFE79DF80B0000EB4001F8
:101720004EF23C10C0F6000000EB81009DF8061060
:10173000405C8DF8080029E09DF80A0010280ED1C1
:10174000FFE79DF80B104EF2B050C0F6000000EB22
:1017500001109DF80610405C8DF8080015E09DF81A
:101760000A00182810D1FFE79DF80B0000EB40019C
:101770004EF6A030C0F6000000EB01109DF80610F8
:10178000405C8DF80800FFE7FFE7FFE700208DF8D9
:101790000700FFE79DF80700072843DCFFE79DF8F7
:1017A0000800C00760B1FFE7BDF80E00BDF80C10DF
:1017B00041F2F802C2F200021288FFF711FB0BE0BF
:1017C000BDF80E00BDF80C1040F20002C2F200029B
:1017D0001288FFF705FBFFE79DF8080040088DF829
:1017E0000800BDF80E000130ADF80E00BDF80E0087
:1017F000BDF80410401A9DF80A10B0EB510F0AD141
:10180000FFE7BDF80400ADF80E00BDF80C00013094
:10181000ADF80C0006E0FFE79DF8070001308DF8F9
:101820000700B7E7FFE79DF8060001308DF80600D6
:1018300065E704B080BD00BF80B584B0ADF80E0090
:10184000ADF80C108DF80B200193FFE7019801789B
:1018500000202029009008DBFFE701980178002094
:101860007F29B8BF01200090FFE70098C00708B3A8
:10187000FFE7BDF80E00BDF80C10019A12789DF834
:101880000B30FFF707FF9DF80B10BDF80E0000EBC3
:101890005100ADF80E00BDF80E0044F22C21C2F24A
:1018A00000010988884201DBFFE703E0019801306D
:1018B0000190CBE704B080BD10B588B08C46864659
:1018C0000B980A99ADF81EE0ADF81CC08DF81B20EE
:1018D0000593ADF81210ADF8100041F2F802C2F213
:1018E000000201921088ADF80E0040F20001C2F231
:1018F000000102910888ADF80C00BDF812001080BC
:10190000BDF810000880BDF81E00BDF81C109DF841
:101910001B20059BFFF790FF019A0299BDF80E006E
:101920001080BDF80C00088008B010BD82B08DF8A2
:1019300007008DF8061001200090FFE79DF80600D3
:10194000411E8DF8061030B1FFE79DF80710009892
:1019500048430090F2E7009802B0704710B586B097
:101960008C46864609980899ADF816E0ADF814C083
:1019700004928DF80F308DF80E108DF80D0004983C
:10198000019000208DF80A00FFE7019880B1FFE781
:1019900001984CF6CD41CCF6CC41A0FB0110C0081B
:1019A0000190FFE79DF80A0001308DF80A00ECE78E
:1019B0009DF80A009DF80F1088420DDDFFE7BDF885
:1019C0001600BDF814109DF80E204FF67053C0F6A7
:1019D0000003FFF731FF71E000208DF80C00FFE7F6
:1019E0009DF80C009DF80F10884266DAFFE79DF81D
:1019F0000C009DF80F109DF80A20891A884225DAFC
:101A0000FFE79DF80D0080B1FFE7BDF816209DF8B7
:101A10000E3058089DF80C1010FB0120BDF8141072
:101A200080B23022FFF736FE0FE0BDF816209DF899
:101A30000E3058089DF80C1010FB0120BDF8141052
:101A400080B22022FFF726FEFFE72FE004980090E7
:101A50009DF80F109DF80C00C0430844C1B20A2045
:101A6000FFF764FF01460098B0FBF1F04CF6CD4162
:101A7000CCF6CC41A0FB0121C90801EB8101A0EB10
:101A800041008DF80B00BDF816209DF80E30580867
:101A90009DF80C1010FB0120BDF814109DF80B20D0
:101AA000303280B2D2B2FFF7F5FDFFE7FFE79DF8D5
:101AB0000C0001308DF80C0092E7FFE706B010BD76
:101AC00070B58AB09C4696460C460546119810990A
:101AD0000F9A0E9BADF82650ADF82440CDF820E0CB
:101AE0008DF81FC08DF81E308DF81D20ADF81A102E
:101AF000ADF8180041F2F802C2F200020392108819
:101B0000ADF8160040F20001C2F20001049108880D
:101B1000ADF81400BDF81A001080BDF81800088058
:101B2000BDF82600BDF82410089A9DF81F309DF8D6
:101B30001EC09DF81D40EE46CEF80440CEF800C011
:101B4000FFF70CFF039A0499BDF816001080BDF84A
:101B5000140008800AB070BD80B58AB084460C9825
:101B6000ADF826C0ADF82410ADF82220ADF8203035
:101B7000ADF81E00BDF82200BDF82610401A06F090
:101B8000A9F8ADF81C00BDF82000BDF82410401ADB
:101B900006F0A0F8ADF81A00BDF82610BDF8222016
:101BA0004FF0FF3091420146B8BF01210591BDF8C9
:101BB0002410BDF820209142B8BF01200490BDF848
:101BC0001C00BDF81A10401A0390FFE7BDF826105C
:101BD000BDF8222001209142019009D1FFE7BDF814
:101BE0002400BDF82010401A18BF01200190FFE723
:101BF0000198C00788B3FFE7BDF82600BDF82410A0
:101C0000BDF81E20FFF7ECF8039840000290029800
:101C1000BDF81A10494288420CDDFFE7BDF81A10E2
:101C20000398401A03900599BDF826000844ADF8C2
:101C30002600FFE70298BDF81C1088420CDAFFE787
:101C4000BDF81C100398084403900499BDF82400C3
:101C50000844ADF82400FFE7B8E70AB080BD0000F3
:101C600010B582B020200121012401F067FF4FF45C
:101C7000707000904FF44070ADF8040041F20040E5
:101C8000C4F2020069468DF8074001F03FFA02B045
:101C900010BD00BF40F2B80C48F21822C2F2000C8E
:101CA0000023C4F242228CF80130D368B3B19368A8
:101CB000A3B1536893B1136883B1BCF8040003283F
:101CC00024BF9CF802008CF8010000208CF803006F
:101CD000ACF804008CF80000704700BFD3688BB1EB
:101CE00093688BB153688BB112688AB19CF802205B
:101CF0009CF803309A4212D00020ACF804008CF813
:101D000003207047012204E0022202E0032200E0E7
:101D100004228CF802209CF803309A42ECD1BCF8E3
:101D20000430013399B201291146ACF8043088BF60
:101D30000021002818BF11468CF8001070470000E1
:101D400070B58CB001200121012501F0F7FE4FF4A0
:101D50008070012101F022FFC02042F200040A90AD
:101D60000320C4F201048DF82C00002604F5604025
:101D70000AA98DF82F6001F0C9F94FF48070012194
:101D800001F048FF4FF48070002101F043FF4FF451
:101D9000A060CDE908604FF48030079006A8069651
:101DA00002F0FCF9694620460096ADF80460029600
:101DB00004968DF8145002F0BBF92046012102F080
:101DC0000DFA0CB070BD00BF10B542F20004C4F2B1
:101DD0000104014620460122042302F037FA20467E
:101DE00002F066FA2046022102F044FB0028F9D0F6
:101DF0002046BDE8104002F08DBA00BF10B590B08B
:101E000046F210444FF480000121C4F2020401F0B4
:101E100095FE204603F084FC204603F033FE0028A4
:101E2000FAD142F24C01C4F20101029140F6F801EC
:101E30000020C2F20001CDE903104FF48061CDE92A
:101E4000051007914FF4006108914FF4005109917A
:101E50004FF480710A914FF40031CDE90B1001214C
:101E60000190CDE90D100F9001A9204603F092FDDD
:101E700020461021012203F04FFE2046012103F0ED
:101E8000C3FD3820C0F201100090684601F0BAF896
:101E900010B010BD70B58CB0FFF7B0FF012001216C
:101EA000012501F04BFE4FF48070012101F076FE18
:101EB000C02042F200040A900320C4F201048DF80D
:101EC0002C00002604F560400AA98DF82F6001F06F
:101ED0001DF94FF4A060CDE908604FF48030079001
:101EE00006A8069602F05AF94FF0C06003904FF032
:101EF00080500290694620460096ADF80460049632
:101F00008DF8145002F014F9204606210122012315
:101F100002F09CF92046012102F010FA204601212E
:101F200002F002FA2046012102F058F90CB070BD0F
:101F3000F0B59BB046F240454FF480000121C4F259
:101F4000020501F0FBFD284603F0EAFB284603F0FA
:101F500099FD0028FAD142F200144FF00070C4F24B
:101F600001040C9004F14C000D9040F2F800C2F214
:101F700000000E9000264FF48060CDE9100612900C
:101F80004FF4006013904FF4005014904FF48070A1
:101F900015904FF40030CDE9160601270CA928460C
:101FA0000F96CDE918761A9603F0F4FC2846012125
:101FB00003F02AFD04200121042501F0BFFD4FF4A8
:101FC0000070012101F0EAFD03208DF82C0004F5DA
:101FD00067400AA90A958DF82F6001F097F84FF431
:101FE000A060CDE908604FF48030079006A80696FF
:101FF00002F0D4F84FF0C06003904FF08050029090
:10200000694620460096ADF8046004968DF8147079
:1020100002F08EF820460C210122012302F016F96D
:102020002046012102F08AF92046012102F07CF9C4
:102030002046012102F0D2F81BB0F0BDB0B546F247
:10204000104448F22005C4F20204C1F20005204603
:10205000294603F083FD002808BFB0BDA5F5004167
:10206000204603F039FD2046294603F0ABFD4FF032
:1020700080400021BDE8B04002F006BFB0B588B096
:1020800005464FF4C0600C4600F0B2FF1E20C0F2BF
:102090000010059005A800F0B5FF0420012101F013
:1020A00071FDADF8144040F60004C4F2000406953A
:1020B000002505A92046ADF81C50ADF816508DF846
:1020C0001E5002F04FFE0120C0F20C00039002A946
:1020D00020460295ADF8105003F0B0F820460121DB
:1020E00003F038FA20460221002203F023FA2046AA
:1020F00050210022002303F06DFA2046002102F057
:102100008DFE20460121012203F014FA2046012110
:1021100002F0BAFE0220012101F010FD04F5FE34A8
:1021200020460621022201F0ADF84020009040F246
:102130000230C0F2002001906946204600F0E6FF20
:1021400008B0B0BDB0B584B00C46054602200121F0
:1021500001F018FDADF8044040F200440020C4F244
:102160000004ADF80600ADF80C0001A92046029568
:1021700002F0F8FD20460121012203F0DBF92046A0
:10218000012102F081FE40F21D10C0F20310009008
:10219000684600F037FF04B0B0BD00BF10B540F690
:1021A0000004C4F200042046012103F0D7F90028FE
:1021B00008BF10BD40F2C002C2F200021068012147
:1021C000431C42F21070834288BF002320461360F4
:1021D000BDE8104003F0CEB910B540F20044C4F29F
:1021E00000042046012103F0B9F9002808BF10BD02
:1021F00040F6240240F2C001C4F20002C2F2000123
:1022000010680B6800EB03408000002348606362A5
:102210000B60204601211360BDE8104003F0AAB90D
:10222000B0B584B00C4605460120012101F0AAFC9E
:102230000020ADF80600ADF80C0001A94FF0804079
:102240000295ADF8044002F08DFD4FF08040202152
:1022500003F028FA4FF080400121012203F06AF9CF
:102260004FF08040012102F00FFE40F21C10C0F23E
:1022700003100090684600F0C5FE04B0B0BD00BF7A
:10228000B0B584B00C4605460120012101F07AFC6E
:102290000020ADF80600ADF80C0001A94FF0804019
:1022A0000295ADF8044002F05DFD4FF08040202122
:1022B00003F0F8F94FF080400121012203F03AF9D0
:1022C0004FF08040012102F0DFFD04B0B0BD00BF3F
:1022D00091ED001A91ED043A91ED054A31EE033A81
:1022E00033EE044A83EE043A00EE100A91ED022A1E
:1022F000B8EE400A9FED175A9FED176A32EE404A3A
:102300009FED167AB0EEC44A22EE055A20EE066A18
:1023100030EE420A36EE055AB4EE474A23EE000A82
:10232000F1EE10FAB8BFB0EE425A30EE050AB7EE41
:10233000002A32EE432A81ED020ABCEEC00A21EEE9
:10234000021A10EE100A81ED001A81ED011A81EDDA
:10235000033A70471904D63EF4FD143F000048428A
:1023600080B54FF08040012103F0F8F8012818BF34
:1023700080BD0620FFF728FD41F20411C2F20001E2
:102380000A8840F6F803C2F2000323F81200501C3A
:1023900082B2B2F5806F088007D30020088040F633
:1023A000F800C2F2000000F0CBF84FF080400121AD
:1023B000BDE8804003F0DEB880B50020FFF76AFC7E
:1023C000002002F05DFA41F2FC0044F22C21C2F23E
:1023D0000000C2F2000100880988884210D241F250
:1023E0000011C2F200010988B1F58C7F08D9632879
:1023F00022D840F2B800C2F200000221017013E0BE
:1024000040F2B800C2F200000078032824D002286D
:102410000AD0012818BF80BD41F22220C2F200007C
:1024200001880131018080BD41F22220C2F200000A
:1024300001880139018080BDB32807D840F2B80077
:10244000C2F2000001210170E6E700BF40F2B800CF
:10245000C2F200000321017040F20800C2F2000045
:1024600001684A1C0229C8BF0122026080BD00BF6A
:1024700040F2B800C2F20000007803280CD0022815
:1024800016D0012818BF704741F22220C2F2000086
:10249000018801310180704740F20800C2F200005B
:1024A00001684A1C0229C8BF01220260704700BFB0
:1024B00041F22220C2F200000188013901807047F8
:1024C00080B52DED028B013801EE100A9FED1A2A1E
:1024D000B8EEC11A9FED193A21EE021A81EE031AE5
:1024E000B0EE408A11EE100A08F01EFC41EC100B11
:1024F00006F0A6FD51EC100B9FED0B0B53EC102BCF
:1025000007F044FF9FED0A0B53EC102B07F0BEFBC6
:1025100007F05AFA00EE100A20EE080ABDEC028B12
:1025200080BD00BF00BF00BF000000000000E0BF92
:10253000000000000000E03FDA0FC9400080FF43C8
:1025400070B541F228221E300021C2F200020023A1
:1025500030F81E6CD51800EE106A30F81C6CB8EE1E
:10256000400A85ED000A00EE106A30F81A6CB8EEE9
:10257000400A85ED020A00EE106A30F8186CB8EED9
:10258000400A85ED040A00EE106A30F8166CB8EEC9
:10259000400A85ED060A00EE106A30F8146CB8EEB9
:1025A000400A85ED080A00EE106A30F8126CB8EEA9
:1025B000400A85ED0A0A00EE106A30F8106CB8EE99
:1025C000400A85ED0C0A00EE106A30F80E6CB8EE89
:1025D000400A85ED0E0A00EE106A30F80C6CB8EE79
:1025E000400A85ED100A00EE106A30F80A6CB8EE69
:1025F000400A85ED120A00EE106A30F8086CB8EE59
:10260000400A85ED140A00EE106A30F8066CB8EE48
:10261000400A85ED160A00EE106A30F8046CB8EE38
:10262000400A85ED180A00EE106A30F8026CB8EE28
:10263000400A85ED1A0A00EE106A30F8206BB8EEF9
:10264000400A85ED1C0A00EE106A8033B8EE400A9D
:10265000B3F5005F6960E9606961E9616962E96237
:102660006963E9636964E9646965E9656966E966FE
:10267000696785ED1E0AE9677FF46AAF41F2282594
:102680004BF24C10C2F20005C0F6000029460022B1
:102690000123002604F06CFD43F22824C2F200045A
:1026A000284621464FF4806204F0F8F99FED250A90
:1026B00040F6FC70A11991ED011A91ED022A91EDFD
:1026C000033A21EE001A91ED044A81ED011A22EE3F
:1026D000001A81ED021A23EE001A91ED052A81ED10
:1026E000031A24EE001A81ED041A22EE001A91ED6D
:1026F000062A81ED051A22EE001A91ED072A81EDD6
:10270000061A22EE001A91ED082A81ED071A22EE30
:10271000001A91ED092A81ED081A22EE001A91EDB6
:102720000A2A81ED091A22EE001A91ED0B2A2C36A5
:1027300081ED0A1A22EE001A864281ED0B1AB9D1F8
:1027400070BD00BF0000003B44F22A20C2F200002E
:10275000008849F24131884208BF02F059B97047F8
:1027600010B54FF6FF70FEF779FB41F2F804C2F2A4
:1027700000041F20208044F22C2044F22821C2F2C1
:102780000000C2F2000100880988283812394FF68B
:10279000765380B289B2C0F600031022FFF74CF8DE
:1027A0004FF47840208010BD2DE9F047044641F2F7
:1027B000F800C2F20000028020460D46661CA71CED
:1027C00004F1030AFEF7F2FA1FFA86F8404629469A
:1027D000FEF7ECFA1FFA87F948462946FEF7E6FAB3
:1027E0001FFA8AF630462946FEF7E0FA681C87B2DF
:1027F00020463946FEF7DAFA40463946FEF7D6FA61
:1028000048463946FEF7D2FA30463946FEF7CEFA48
:10281000A81C87B220463946FEF7C8FA404639461A
:10282000FEF7C4FA48463946FEF7C0FA3046394644
:10283000FEF7BCFAE81C85B220462946FEF7B6FA38
:1028400040462946FEF7B2FA48462946FEF7AEFA58
:1028500030462946BDE8F047FEF7A8BA40F28C247E
:1028600041F2FC0944F22C2841F2001A44F2282BD0
:102870000027C4F24224C2F20009C2F20008C2F2E8
:10288000000AC2F2000B00BF002001F0F9FFB9F806
:102890000050B8F80000854280F09480BAF80060DB
:1028A000BBF800108E4280F08D802838A84221DAD3
:1028B000A1F11200B0421DDA4FF6FF70FEF7CEFA1A
:1028C00041F2F805C2F200051F202880B8F8000088
:1028D000BBF80010283812394FF6765380B289B20F
:1028E0001022C0F60003FEF7A7FF4FF478402880BF
:1028F00068E000BF41F2F800C2F200004FF47841F6
:102900000180284631466C1C05F1020A05F1030BD3
:10291000FEF74CFA1FFA84F948463146FEF746FAAC
:102920001FFA8AFA50463146FEF740FA1FFA8BFB2F
:1029300058463146FEF73AFA701C84B228462146C2
:10294000FEF734FA48462146FEF730FA5046214653
:10295000FEF72CFA58462146FEF728FAB01C84B23E
:1029600028462146FEF722FA48462146FEF71EFA7F
:1029700050462146FEF71AFA58462146FEF716FA47
:10298000F01C84B228462146FEF710FA484641F270
:10299000FC092146C2F20009FEF708FA504641F24E
:1029A000001A2146C2F2000AFEF700FA584644F225
:1029B000282B214640F28C24C2F2000BC4F24224A0
:1029C000FEF7F4F901376FF032007843C1B289089D
:1029D00041EA8010C0B20C283FF656AF2068B0FA2A
:1029E00080F0400920604FE7F0B583B004460088CE
:1029F000A2886188E38802440B44013A2589013B9F
:102A000092B29BB24FF6FF760095FEF795FD2088B7
:102A1000A388627C61880344002AA3F101022DD0BF
:102A2000002592B20B460095FFF796F86188E28880
:102A300020880A44013A93B202460095FFF78CF8C9
:102A40002088A188E2880844618801380A44013A54
:102A500080B293B202460096FFF77EF86188E28862
:102A600020881144A28801390244013A89B292B205
:102A70000B460096FFF770F82CE000BF92B20B46B1
:102A80000096FFF769F86188E28820880A44013AD5
:102A900093B202460096FFF75FF82088A188E2888B
:102AA0000844618801380A44013A80B2002593B293
:102AB00002460095FFF750F86188E28820881144AB
:102AC000A28801390244013A89B292B20B460095BC
:102AD000FFF742F8E5682688A788284605F022F91E
:102AE000227C6388510801FB1070617CE788A1EBB0
:102AF00081011944BB1A03EBD37306EB50002789FD
:102B000001EB53010023009380B289B22B46019759
:102B1000FEF7D2FE03B0F0BD10B5044641F2FC0052
:102B2000C2F200000088218888420FD3A288114495
:102B300081420BD341F20010C2F20000008861888C
:102B4000884203D3E2881144814209D2607C012883
:102B500008D1002120466174BDE81040FFF744BF52
:102B6000607C08B110BD00BF012060742046FFF7F3
:102B70003BFF6169002908BF10BD208BBDE81040F4
:102B8000084700BFF0B583B004460088A28861887A
:102B90002589024492B20B460095FEF7DDFF61885D
:102BA000E28820881144A2882589024489B292B221
:102BB0000B460095FEF7D0FF6188E28820882589C2
:102BC0000A4493B202460095FEF7C6FF2088A1880A
:102BD000E2880844618825890A4480B293B202469B
:102BE0000095FEF7B9FF2088A38800F1010C6288E8
:102BF0001844E388511C1A4401386589531E82B277
:102C00009BB21FFA8CF089B20095FEF795FC2569FE
:102C10002688A788284605F085F8A27B6388510896
:102C200001FB1070E18806EB5000891A01EBD171AD
:102C3000A789668903EB510180B289B22B460097C0
:102C40000196FEF739FE03B0F0BD00BF10B582B0AB
:102C500004460088A388A0F1010C62881844E38828
:102C6000511E1A440130531C4FF6FF7E82B29BB2B4
:102C70001FFA8CF089B2CDF800E0FEF75DFC20462B
:102C800002B0BDE81040FFF77DBF000080B584B002
:102C900008200121019100F081FF0198402102915B
:102CA00002218DF80D108DF80C0000208DF80E001B
:102CB00040F60040C4F2020002A900F027FA04B076
:102CC00080BD00BF80B582B0019000200090FFE77A
:102CD00000981F281ED8FFE701980099C1F11F0135
:102CE000C840C00738B1FFE740F61841C4F20201FE
:102CF0004020088006E040F61A41C4F2020140205C
:102D00000880FFE70A2003F0D5F8FFE700980130BC
:102D10000090DDE740F61A41C4F20201402008802D
:102D200002B080BD80B584B0FFF7B0FF00208DF801
:102D30000F00FFE79DF80F0008287EDCFFE79DF8F5
:102D40000F004AF6AB21CAF6AA21A0FB01325208B5
:102D500002EB4202821A02EB82021201C0EBC003B4
:102D600041F20810C2F20000029020F823209DF8E2
:102D70000F30A3FB01214A0846214FF0320C12FB11
:102D80000C12C3EBC30300EB83035A809DF80F20A2
:102D9000C2EBC20200EB820291809DF80F10C1EBE2
:102DA000C10100EB81022821D1809DF80F10C1EBF9
:102DB000C10100EB81024AF67D7111819DF80F205F
:102DC00040F22401C2F2000151F82210C2EBC2020B
:102DD00000EB8202D1609DF80F10C1EBC10100EB46
:102DE0008102102111749DF80F10C1EBC10100EB9D
:102DF0008102002151749DF80F20511CC2EBC202C8
:102E000000EB820211839DF80F10C1EBC10100EBB2
:102E1000810242F6A961C0F6000151619DF80F10D0
:102E2000C1EBC10100EB8100FFF7DEFDFFE79DF87C
:102E30000F0001308DF80F007CE741F20420C2F250
:102E4000000078210180FA214180502181802821D1
:102E5000C1804EF61D4101814FF69F51C0F6000121
:102E6000C16010210174002141740A21018342F6DE
:102E7000A961C0F600014161FFF7B6FD0F2004F023
:102E80008BFC014640F20C00C2F20000019001618F
:102E900000694FF68E51C0F6000104F01FFF019843
:102EA000FFF770FE04B080BD80B586B0ADF81600A7
:102EB000BDF816000A280DD0FFE741F22421C2F226
:102EC0000001086800EB8002BDF8160000EB42002C
:102ED00008600BE041F22420C2F20000029000687A
:102EE000FFF7F0FE029900200860FFE741F224207E
:102EF000C2F2000002684FF69C51C0F6000103A820
:102F0000009004F079FC009940F20C00C2F200003D
:102F10000190006904F0E2FE0198FFF797FE06B009
:102F200080BD00BF80B588B041F2FA00C2F2000057
:102F30000188013101800088642807DBFFE741F246
:102F4000FA01C2F2000100200880FFE741F2F80117
:102F5000C2F200014FF47840088041F2FA00C2F258
:102F60000000008808B9FFE7FFE740F20800C2F25E
:102F70000000006801282BD1FFE741F2FA00C2F2FD
:102F80000000008818BBFFE700208DF80100FFE774
:102F90009DF80100082813DCFFE79DF80100C0EB55
:102FA000C00141F20810C2F2000000EB8100FFF7FF
:102FB000B3FDFFE79DF8010001308DF80100E7E760
:102FC00041F20420C2F20000FFF7A6FDFFE70AE08D
:102FD00040F20800C2F200000068022801D1FFE7B9
:102FE00000E0FFE7FFE708B080BD00BF70470000CA
:102FF00040F080604EF60C5140F0FD70CEF20001C2
:103000000860704710B5C17800294EF20011CEF269
:1030100000011DD04EF60C52CEF2000212680723BA
:1030200023EA12220F23C2F1040C23FA02FE427893
:1030300084785FFA8CF390F800C09A4004EA0E039B
:103040001A43120101EB0C0383F8002301E000BFD7
:1030500080310078012300F01F0203FA02F2C0F36E
:10306000421041F8202010BD4FF68072C1F6FF7269
:10307000114008434EF60851CEF200010860704737
:1030800000294EF61051CEF200010A680CBF22EA68
:1030900000001043086070474EF21001CEF20001AC
:1030A0000A68042822F0040208BF04320A6070474C
:1030B00000F13E4000F1FF704FEAB0200A2888BFBF
:1030C000704710B506A151F820400121204600F0BC
:1030D00071FD20460021BDE8104000F06BBD00BF2F
:1030E00001000000020000000400000008000000D1
:1030F00010000000200000004000000080000000E0
:103100000001000000020000000400002DE9F0476B
:10311000D1F800C0002302224FF0010E4FF0030847
:1031200010E000BFC46804EA0904C460CC79C56833
:1031300094402C43C4600233102B02F1040208BFF8
:10314000BDE8F0870EFA03F71CEA070F30D0A2F1B2
:10315000020A066808FA0AF46FEA040926EA040477
:1031600004600C79066804FA0AF5013C3543012C29
:10317000056013D8846804EA090484604C798D7969
:10318000866804FA0AF4344384604468BC434460AB
:1031900005FA03F44568A4B22C434460C46804EA09
:1031A0000904C460CC79C56804FA0AF42C43C460ED
:1031B0005D1C0EFA05F71CEA070FBCD0066808FA7A
:1031C00002F46FEA040926EA040404600C79D0F8DA
:1031D00000A004FA02F6013C46EA0A06012C066049
:1031E000A0D8846804EA090484604C7991F806A0A8
:1031F00086689440344384604468BC4344600AFA5F
:1032000005F44568A4B22C4344608BE74FF6FF7188
:103210000022C0E90012704781B04FF48032009262
:10322000009A0A430092009AC261C1610099C1618B
:10323000C1690091C069009001B070470069084001
:1032400018BF0120704700BF006980B2704700BFFF
:103250004069084018BF0120704700BF406980B234
:10326000704700BF0183704741837047002A0CBF3D
:1032700041830183704700BF4161704742695140FB
:10328000416170471C2303EA810C6FF0030303EADA
:10329000510108440F23016A03FA0CF399430162B8
:1032A000016A02FA0CF21143016270474FF02041AB
:1032B000002819BF43F2D20241F8202043F2DB027A
:1032C0000A600421CAF200016FF0704241F8202028
:1032D00040F20411CAF2000141F82020704700BFFB
:1032E00070B5D0E900CED0E9023200F1100672CEFE
:1032F00043EA0E031A43114321432943314300F1AA
:1033000020064CCED0E90B541143194331432943D5
:1033100041EA04024FF0204141F82C208268082A3B
:1033200006D1026851F8223043F0400341F82230C0
:10333000416BD0F800C0D1E900E6D1E902544EEA71
:103340000616D1E9042346EA052646EA04468969B9
:1033500046EA025242EA036211430422CAF2000220
:1033600042F82C10C16AB1F5804F0FD1816B91E802
:103370004C00D1E9045442EA031242EA0622896968
:1033800042EA055242EA0462114301E06FF07041E3
:10339000006840F20412CAF2000242F8201070BD28
:1033A00000210222C0E900124EF220124FF4805C8C
:1033B0004FF40053C0F60002C0E90211C0E9041145
:1033C000C0E90611C0E9081CC0E90A31C0E90C12C5
:1033D0008263704780B54FF0204E5EF820304FF684
:1033E000FE7C43F00102C0F20F0C002908BF03EA83
:1033F0000C024EF8202080BD60231028CAF2000382
:1034000008D11821184640F80C1B191D03F10802B9
:1034100008E000BF1820186203F1240103F128021C
:1034200003F12C0040230B604FF0FC311160016070
:10343000704700BF2DE9F043D0E90092D0E9023790
:10344000D0E904651A433A43D0E906413243066A9B
:1034500042EA452240F2600C42EA4437D1E900E3F7
:10346000D1F80880C86874CECAF2000CB9F1100F08
:1034700047F0080106D1674647F80C1B0CF108011C
:1034800006E000BFCCF820100CF128010CF12C074D
:1034900042EA04224EEA032342EA054243EA084391
:1034A00042EA066243EA006008603A60BDE8F083E1
:1034B00010210022C0E90012C0E90222C0E9042262
:1034C0008261D0E90710FC22C1E90022C1E9022291
:1034D000C0E90022C0E90222704700BF51B11028A4
:1034E00040F26000CAF2000012D1016841F004010C
:1034F00001607047602110284FF6FB70CAF200018E
:10350000C0F20F000AD10A6810400860704700BF7F
:10351000016A41F004010162704700BF0A6A10406D
:103520000862704751B1102840F26000CAF20000F2
:1035300012D1016841F040010160704760211028FC
:103540004FF6BF70CAF20001C0F20F000AD10A683C
:1035500010400860704700BF016A41F040010162FD
:10356000704700BF0A6A1040086270477421CAF2AF
:1035700000012031102804BF7421CAF2000108683C
:10358000704700BFA020CAF200001821016000218E
:1035900041604FF0FC318160C1600161704700BF44
:1035A00080B5D0E900C2D0E902314CEA422242EAB9
:1035B000433240F2A00C42F01002CAF2000CCCF8E8
:1035C0000020D1E900E3D1E902214EEA032343EAD6
:1035D000024242EA0161CCF808100169D1E900E336
:1035E000D1E902214EEA032343EA024242EA0161A1
:1035F000CCF80C10406990E80E00C06841EA022146
:1036000041EA034141EA0060CCF8100080BD00BFF0
:103610000021C0E900118160D0E903124069FC2358
:10362000C1E90033C1E90233C2E90033C2E9023320
:10363000C0E90033C0E90233704700BFA021CAF2DD
:1036400000010A684FF6FB7C42F00403C0F20F0C45
:10365000002808BF02EA0C030B60704762B1B0F5A6
:10366000807F17D010281DD16420CAF200000268A4
:1036700011430160704700BFB0F5807F1AD0102859
:1036800020D16420CAF20000026822EA0101016030
:10369000704700BF6420CAF20000026A1143016251
:1036A000704700BF6420CAF20000026C114301643D
:1036B000704700BF6420CAF20000026A22EA0101DA
:1036C000016270476420CAF20000026C22EA010124
:1036D0000164704764221028CAF2000204D0B0F5D9
:1036E000807F14BF403220321068084018BF01208C
:1036F000704700BF64221028CAF2000204D0B0F55F
:10370000807F14BF403220321068884310607047B9
:1037100064221028CAF2000204D0B0F5807F14BFE2
:1037200040322032106810EA010200EAD10018BFCE
:103730000122002818BF0120104070476422102881
:10374000CAF2000204D0B0F5807F14BF40322032AC
:10375000106820EAD10010607047000043F60000B6
:10376000C4F2020001684FF6FF7341F001010160ED
:10377000002181600268CEF6F6231A40026043F20F
:103780001002C2F20042426043F20002C2F20002A2
:10379000C0F8842002F18062C0F88820026822F418
:1037A00080220260C160C0F88C10704743F60201AD
:1037B000C4F2020100220A700870704781B043F61B
:1037C0000000C4F202000021009100BF0168009ACD
:1037D00001320092009AB2F5A04F23D011F40031CB
:1037E00020D10168009A01320092009AB2F5A04FF0
:1037F00018D011F4003115D10168009A01320092FD
:10380000009AB2F5A04F0DD011F400310AD1016831
:10381000009A01320092009AB2F5A04F02D011F442
:103820000031D3D00068C0F3404001B0704700BF02
:10383000420943F60001012AC4F2020103D0022A20
:1038400014BF74317031096800F01F0021FA00F0D4
:1038500000F00100704700BF43F60001C4F202010E
:103860000A6822F0F80242EAC0000860704700BF10
:103870000021C4F247210860704700BF43F6700181
:10388000C4F20201002201280A700A7006D004283E
:1038900018BF704705200870704700BF01200870EE
:1038A000704700BF40F68061C4F24721086070474E
:1038B00080B540F2000EDDF808C0CFF6FF7E084369
:1038C0000EEBC33340EA82106FF30F0340EA0C6043
:1038D00043F604011843C4F20201086080BD00BF32
:1038E0006021C4F247210860704700BF090741EA20
:1038F000801043F68401C4F202010860704700BFE3
:103900006821C4F247210860704700BF090641EAF8
:10391000801043F6880140EA0270C4F20201086098
:10392000704700BF7021C4F247210860704700BF94
:103930004C21C4F247210860704700BF43F60802DB
:10394000C4F202021368084323F0EC6318431060CA
:10395000704700BF43F60802C4F20202136808432E
:1039600023F0784318431060704700BF43F6080106
:10397000C4F202010A6822F0030210430860704793
:1039800043F60800C4F20200006800F00C00704723
:1039900043F60801C4F202010A6822F0F002104363
:1039A0000860704743F60801C4F202010A6822F475
:1039B000E05210430860704743F60801C4F2020168
:1039C0000A6822F4604242EAC0000860704700BF03
:1039D00010B543F60404C4F20204626802F00C035A
:1039E00042F20042082BC0F2F40207D0042B21D18E
:1039F00041F20022C0F27A021CE000BFD4F800C0FD
:103A0000236803F03F0E5FEA4C2341F20023C0F22B
:103A10007A0358BF13462268B3FBFEFC2368C2F347
:103A2000881202FB0CFCC3F30143022202EB4302A7
:103A3000BCFBF2F2026063684EF20E11C3F3031393
:103A4000C0F60001CB5CDA4042606368C3F38223B6
:103A5000CB5C22FA03F383606368C3F34233C95C2F
:103A600022FA01F1C16010BD00F44071B1F5407F50
:103A700043F60801C4F2020109D10A684FF6FF4378
:103A8000C0F6FF7322F4F81203401A430A608A6EEC
:103A90006FF31F3010438866704700BF40F63C61EB
:103AA000C4F247210860704740F64061C4F24721E4
:103AB0000860704740F25C11C4F24721086070470B
:103AC00043F68C01C4F202010A68013822F01F0299
:103AD00010430860704700BF43F68C01C4F2020136
:103AE0000A686FF0FF0322F4F85203EB0020104342
:103AF0000860704743F68C01C4F202010A6822F4A0
:103B0000401210430860704743F68C01C4F2020172
:103B10000A6822F4400210430860704743F68C01A3
:103B2000C4F202010A6822F4403210430860704770
:103B300041F2E011C4F2472108607047002943F6C2
:103B40003001C4F202010A680CBF22EA00001043EF
:103B500008607047002943F63401C4F202010A6884
:103B60000CBF22EA0000104308607047002943F6AA
:103B70003801C4F202010A680CBF22EA00001043B7
:103B800008607047002943F64001C4F202010A6848
:103B90000CBF22EA0000104308607047002943F67A
:103BA0004401C4F202010A680CBF22EA000010437B
:103BB00008607047002943F61001C4F202010A6848
:103BC0000CBF22EA0000104308607047002943F64A
:103BD0001401C4F202010A680CBF22EA000010437B
:103BE00008607047002943F61801C4F202010A6810
:103BF0000CBF22EA0000104308607047002943F61A
:103C00002001C4F202010A680CBF22EA000010433E
:103C100008607047002943F62401C4F202010A68D3
:103C20000CBF22EA0000104308607047002943F6E9
:103C30005001C4F202010A680CBF22EA00001043DE
:103C400008607047002943F65401C4F202010A6873
:103C50000CBF22EA0000104308607047002943F6B9
:103C60005801C4F202010A680CBF22EA00001043A6
:103C700008607047002943F66001C4F202010A6837
:103C80000CBF22EA0000104308607047002943F689
:103C90006401C4F202010A680CBF22EA000010436A
:103CA0000860704743F67001C4F202010A680128F7
:103CB00022F0080208BF08320A607047002943F664
:103CC0000D01C4F202010A780CBF22EA0000104381
:103CD0000870704743F67400C4F20200016841F0B6
:103CE00080710160704700BF43F60C01C4F202010D
:103CF0000968084018BF0120704700BF43F60E0155
:103D0000C4F202010870704780B547F2FF71C4F237
:103D1000000188421EDC44F6FF31C4F200018842F3
:103D200036DC44F20041C4F20001884260D044F61F
:103D30000001C4F20001884240F088804FF48020E6
:103D40000121FFF75BFF4FF480200021BDE8804098
:103D5000FFF754BF40F6FF71C4F2010188422FDC27
:103D600047F60001C4F2000188424DD047F60041F9
:103D7000C4F20001884269D14FF000400121FFF7F1
:103D80003DFF4FF000400021BDE88040FFF736BF07
:103D900044F60041C4F20001884241D045F20001DE
:103DA000C4F20001884251D14FF480100121FFF785
:103DB00025FF4FF480100021BDE88040FFF71EBFB3
:103DC00041F20041C4F20101884235D041F20001C4
:103DD000C4F20101884218BF80BD10200121FFF705
:103DE00019FF10200021BDE88040FFF713BF00BF7E
:103DF0004FF400300121FFF701FF4FF400300021A4
:103E0000BDE88040FFF7FABE4FF080400121FFF788
:103E1000F5FE4FF080400021BDE88040FFF7EEBE88
:103E20004FF400200121FFF7E9FE4FF400200021AC
:103E3000BDE88040FFF7E2BE20200121FFF7EAFE47
:103E400020200021BDE88040FFF7E4BE80BD00BF18
:103E500070B584B00446008A0D46C98820F44050ED
:103E600008432082A0894EF6F3110840A9882A89C8
:103E70006B89084310431843A081A08AA98920F4C4
:103E8000407008436E46A0823046FFF7A1FD41F224
:103E9000004144F48060C4F20101884214BF06F17D
:103EA000080006F10C000068B4F90C100122B1F111
:103EB000FF3FC8BF02222B681921484303FA02F1D1
:103EC000B0FBF1F048F21F51C5F2EB11A0FB01234A
:103ED0005A096FF0630302FB0300B4F90C300326A8
:103EE000B3F1FF3FC8BF042600FA06F000F132002C
:103EF000A0FB01014FF00700C8BF0F2000EA5110DE
:103F000040EA0210208104B070BD00BF4FF416518A
:103F100000224FF4402380E80E008281704700BFEA
:103F200080B5028A0B8822F4706C4A88B1F804E0EC
:103F300043EA0C03C9881A4342EA0E021143018284
:103F400080BD00BF00214160016070478289002967
:103F500018BF012122F4005242EA413181817047A9
:103F6000028B22F0FF020283028B11430183704710
:103F70008289002918BF01216FF3DF3242EAC13183
:103F800081817047828A002918BF012122F40062D2
:103F900042EAC121818270476FF35F2181807047BF
:103FA00080886FF35F207047028A22F00F0202823E
:103FB000028A1143018270478289002918BF0121BA
:103FC00022F0020242EA410181817047828922F493
:103FD000006282818289114381817047028A22F0C6
:103FE00020020282028A114301827047028A00295C
:103FF00018BF012122F4804242EA813101827047D8
:10400000818941F001018181704700BF828A0029C6
:1040100018BF012122F0080242EAC10181827047E3
:10402000028BD2B20283028B42EA012101837047E4
:10403000828A002918BF012122F0200242EA4111A0
:1040400081827047828A002918BF012122F0100264
:1040500042EA011181827047828A22F00402828240
:10406000828A114381827047828A002918BF012108
:1040700022F0020242EA410181827047002A828ACC
:104080000CBF22EA0101114381827047C1F3421340
:1040900001F01F0C1421022B08BF1021012B4FF03F
:1040A000010308BF0C21002A03FA0CF243580CBF8D
:1040B00023EA02021A434250704700BF00880840BA
:1040C00018BF0120704700BFC9430180704700BF7F
:1040D000C1F34212022A07D0012A14BF00F11402D0
:1040E00000F10C0202E000BF00F11002128800880B
:1040F00001F01F03090ADA40C840104000F0010037
:10410000704700BF090A012202FA01F1C943018088
:104110007047000080B54FF480700121FFF77AFDF1
:104120004FF480700021BDE88040FFF773BD00BFF1
:1041300010B542684FF6FF63CFF6FF4302EA030C67
:104140000B680A7943EA0C0343EA02224260826860
:104150004FF2FD73CCF2FF0302EA030E0A69D1E9C4
:1041600002C342EA0E024C791A4342EA0C0242EAC6
:1041700044028260C26A097D22F470020139C9B228
:1041800042EA0151C16210BD002101608180C0E995
:104190000211016101210175704700BF80B542F233
:1041A000043CC4F2010CDCF8002043F2E003CFF63B
:1041B000FC7302EA030ED0E90031D0E9022043EAA1
:1041C0000E03194311430843CCF8000080BD00BF23
:1041D0000021C0E90011C0E902117047826800297E
:1041E00022F0010218BF01328260704742684FF628
:1041F000FF53CFF63F731A4011434160704700BF31
:1042000041628262704700BF426822F01F02114380
:104210004160704742F20431C4F201010A6800288B
:1042200022F4000218BF02F500020A60704700BFC6
:1042300042F20431C4F201010A68002822F480022B
:1042400018BF02F580020A60704700BFB0B501EBED
:10425000410C4FF0100E092988BFACF11E0C88BF2D
:104260004FF00C0E50F80E40072505FA0CF5AC4344
:1042700003FA0CF32343062A40F80E3004D83430F6
:104280006FF0040308E000BF0C2A87BF2C306FF0EA
:10429000400330306FF0220302EB820205681A44BB
:1042A0001F23934025EA0303914019430160B0BDE9
:1042B000816841F080418160704700BF8068C0F331
:1042C000807070478268002922F4806218BF02F56E
:1042D00080628260704700BF8268002922F002027B
:1042E00018BF02328260704742684EF20003CFF678
:1042F000FF7322F4604203EB413111434160704788
:104300004268002922F4006218BF02F50062426090
:10431000704700BFC06C80B2704700BF42F20830E7
:10432000C4F20100006870478268002922F480729C
:1043300018BF02F580728260704700BF8268002952
:1043400022F4007218BF02F500728260704700BF4D
:1043500042F20431C4F201010A68002822F400523A
:1043600018BF02F500520A60704700BFB0B501EBFC
:10437000410C4FF0100E092988BFACF11E0C88BF0C
:104380004FF00C0E50F80E40072505FA0CF5AC4323
:1043900003FA0CF3234340F80E30836BFC2565EAE7
:1043A00013552A440332D5B2AD0055FA82F21F25C7
:1043B0009540AB43914019438163B0BD826B0023AC
:1043C000CFF6F07322F4401203EB015111438163E5
:1043D000704700BF81B0002300930090009808440C
:1043E00000900098026001B0704700BF826822F41C
:1043F0007022114381607047826822F44012114399
:1044000081607047816841F480018160704700BF1E
:104410008068C0F3805070474268002922F48062AF
:1044200018BF02F580624260704700BF42680029F1
:1044300022F4805218BF02F580524260704700BFDC
:1044400081B000220092009000980844283000902B
:104450000098006880B201B0704700BFC9B2012364
:1044600003FA01F1002A42680CBF22EA010111435C
:10447000416070470068084018BF0120704700BFC6
:10448000C9430160704700BF42680068CBB200EAD0
:104490001120002818BF012022FA03F108407047BC
:1044A0006FEA11210160704780B584B08DF80F006C
:1044B00000208DF80E008DF80E00FFE79DF80E002D
:1044C00007282EDCFFE79DF80F000006002807D51F
:1044D000FFE748F28421C4F240210120086006E091
:1044E00048F28421C4F2402100200860FFE79DF8D3
:1044F0000F0040008DF80F0040F29421C4F24021DB
:104500000191002008600120029001F0D3FC019984
:1045100002980860FFE79DF80E0001308DF80E004C
:10452000CCE704B080BD00BF80B586B08DF8170021
:10453000002004908DF81600ADF8140040F294218C
:10454000C4F240210391086048F28421C4F2402162
:10455000086048F28021C4F2402108609DF81700ED
:10456000FFF7A2FF062001F0A5FC0399049808605C
:104570000120029001F09EFC02980399086001F06E
:1045800099FC0399049808608DF81600FFE79DF8E0
:1045900016000F2827DCFFE7BDF814004000ADF837
:1045A000140040F29421C4F24021009100200860E0
:1045B0000120019001F07EFC00990198086048F20A
:1045C0000820C4F24020006830B1FFE7BDF81400B5
:1045D0000130ADF81400FFE7FFE79DF81600013049
:1045E0008DF81600D3E7BDF814000009ADF81400EB
:1045F00048F28021C4F2402101200860BDF8140077
:1046000006B080BD80B586B08DF817000020ADF8EB
:104610000600ADF81400FFE7BDF81400042810DC14
:10462000FFE79DF81700FFF77FFFBDF8142002A9F0
:1046300021F81200FFE7BDF814000130ADF81400B6
:10464000EAE70020ADF81400FFE7BDF814000328E6
:104650003BDCFFE7BDF814000130ADF81200FFE7C6
:10466000BDF81200042829DCFFE7BDF8140002A9F8
:1046700031F81000BDF8122031F81210884216DD12
:10468000FFE7BDF8140002A931F81000ADF80400EE
:10469000BDF8120031F81000BDF8142021F8120006
:1046A000BDF80400BDF8122021F81200FFE7FFE773
:1046B000BDF812000130ADF81200D1E7FFE7BDF8F8
:1046C00014000130ADF81400BFE70020ADF806007B
:1046D0000120ADF81400FFE7BDF81400032811DC39
:1046E000FFE7BDF8141002A830F81110BDF806005D
:1046F0000844ADF80600FFE7BDF814000130ADF83E
:104700001400E9E7BDF806004AF6AB21CAF6AA2173
:10471000A0FB01104008ADF80400BDF8040006B08D
:1047200080BD00BF80B584B00290019140F20200CC
:10473000C2F200000078FFF765FFADF8020040F21A
:104740000300C2F200000078FFF75CFFADF8000044
:10475000BDF80200322805DBFFE7BDF80000312874
:1047600004DCFFE700208DF80F000BE0BDF802002D
:1047700002990880BDF800000199088001208DF899
:104780000F00FFE79DF80F0004B080BD80B586B034
:10479000049003910DF10A0002A9FFF7C3FF8DF801
:1047A00003009DF8030020B9FFE700208DF81700F3
:1047B00062E00DF1060001A9FFF7B4FF8DF80300D8
:1047C0009DF8030020B9FFE700208DF8170053E0A3
:1047D000BDF80600BDF80A10884208DCFFE7BDF806
:1047E0000A00BDF80610323188420FDBFFE7BDF842
:1047F0000A00BDF8061088423ADCFFE7BDF8060063
:10480000BDF80A103231884232DAFFE7BDF8040001
:10481000BDF80810884208DCFFE7BDF80800BDF8C5
:104820000410323188420FDBFFE7BDF80800BDF805
:10483000041088421CDCFFE7BDF80400BDF8081036
:104840003231884214DAFFE7BDF80A00BDF80610DD
:104850000844400804990880BDF80800BDF8041019
:10486000084440080399088001208DF8170003E0F0
:1048700000208DF81700FFE79DF8170006B080BDF7
:1048800080B582B08DF8070041F2FE01C2F200014E
:104890004FF6FF70088041F20211C2F20001088059
:1048A00048F22C20C4F24220006800287ED1FFE7A5
:1048B0009DF8070058B1FFE744F23660C2F20000ED
:1048C00044F23861C2F20001FFF760FF52E044F2A7
:1048D0003660C2F2000044F23861C2F20001FFF714
:1048E00055FF002845D0FFE740F24800C2F2000023
:1048F00090ED000A44F23661C2F20001088801EE30
:10490000100AB8EEC12A40F24C00C2F20000B0F921
:10491000000001EE100AB8EEC11A20EE020A30EED5
:10492000010ABDEEC00A10EE100A088040F25000E5
:10493000C2F2000090ED000A44F23861C2F20001B8
:10494000088801EE100AB8EEC12A40F25400C2F203
:104950000000B0F9000001EE100AB8EEC11A20EE16
:10496000020A30EE010ABDEEC00A10EE100A0880FD
:10497000FFE7FFE744F23660C2F20000008841F230
:10498000FC01C2F20001088044F23860C2F200006B
:10499000008841F20011C2F20001088044F2322185
:1049A000C2F200010878013008702FE044F2322092
:1049B000C2F200000078032815DBFFE744F23660FE
:1049C000C2F20000008841F2FE01C2F2000108803C
:1049D00044F23860C2F20000008841F20211C2F2D3
:1049E00000010880FFE744F23221C2F200010020FA
:1049F000087041F2FC01C2F200014FF6FF7008801E
:104A000041F20011C2F200010880FFE702B080BD50
:104A100080B586B0272001210191FFF78FF801981A
:104A20000421049100218DF814108DF81610032133
:104A300000918DF815108DF8170040F20040C4F277
:104A40000200029004A90391FEF760FB03994FF462
:104A50000060049041F20040C4F20200FEF756FBF1
:104A6000009B019A0298039904938DF81420FEF795
:104A70004DFB0399202004900020C4F20200FEF7B1
:104A800045FB41F22020C2F20000007868B3FFE746
:104A900040F20201C2F200019020087040F20301CE
:104AA000C2F20001D020087040F24801C2F20001B9
:104AB00045F26420CBF6BC50086040F25001C2F2CF
:104AC00000014FF27B50C3F68950086040F24C0160
:104AD000C2F200014FF4AE70088040F25401C2F2FD
:104AE00000014FF6ED7008802CE040F20201C2F2A6
:104AF0000001D020087040F20301C2F200019020B2
:104B0000087040F24801C2F2000149F6DA70C3F6BB
:104B10008850086040F25001C2F200014BF63A2082
:104B2000C3F6BA50086040F24C01C2F200014FF6E1
:104B3000F570088040F25401C2F200014FF6EE70A9
:104B40000880FFE706B080BD80B541F6FF31C4F2B2
:104B50000001884224DC40F6FF31C4F200018842A3
:104B600044DD41F2FF31C4F20001884274DC40F6BA
:104B70000041C4F20001884200F09E8041F2000131
:104B8000C4F20001884240F0EB8010200121FFF7C1
:104B900035F810200021BDE88040FFF72FB800BF96
:104BA00040F2FF31C4F20101884239DD44F2FF31A5
:104BB000C4F20101884265DC40F20041C4F2010107
:104BC000884200F0838044F20001C4F2010188426F
:104BD00040F0C6804FF480300121FFF71BF84FF4FE
:104BE00080300021BDE88040FFF714B8B0F1804F5D
:104BF00076D040F20041C4F2000188427AD040F6FB
:104C00000001C4F20001884240F0AA800420012182
:104C1000FEF7F4FF04200021BDE88040FEF7EEBF60
:104C200041F60041C4F2000188426DD042F2000119
:104C3000C4F20001884271D00021C4F2010188420F
:104C400040F08E8001200121FEF7E4FF01200021C9
:104C5000BDE88040FEF7DEBF41F20041C4F2000132
:104C6000884267D041F60001C4F20001884277D142
:104C700040200121FEF7C2FF40200021BDE8804016
:104C8000FEF7BCBF44F20041C4F2010188425BD090
:104C900044F60001C4F20101884218BF80BD4FF400
:104CA00080200121FEF7B6FF4FF480200021BDE8EF
:104CB0008040FEF7AFBF00BF08200121FEF79EFF36
:104CC00008200021BDE88040FEF798BF02200121A6
:104CD000FEF7A0FF02200021BDE88040FEF79ABF4A
:104CE00001200121FEF78AFF01200021BDE880405C
:104CF000FEF784BF02200121FEF780FF0220002181
:104D0000BDE88040FEF77ABF80200121FEF776FFE4
:104D100080200021BDE88040FEF770BF4FF4807016
:104D20000121FEF76BFF4FF480700021BDE8804049
:104D3000FEF764BF20200121FEF760FF2020002144
:104D4000BDE88040FEF75ABF4FF400300121FEF766
:104D500061FF4FF400300021BDE88040FEF75ABFEC
:104D600080BD00BF10B540F6FF32B0F800E0C4F2DD
:104D7000000240F2004C9042C4F2010C10DCB0F191
:104D8000804F1AD040F20042C4F20002904214D088
:104D900040F60002C4F2000290420ED012E000BFC2
:104DA00040F60042C4F20002904206D0604504D0B2
:104DB0000022C4F20102904204D14A882EF070030E
:104DC00042EA030E41F2004340F48062C4F2000361
:104DD0009A4204D00C892EF4407344EA030EA0F8E2
:104DE00000E04B686245C3620B88038504BF897A83
:104DF00001860121818210BD4FF0FF310022C0E900
:104E0000002102818272704701858282704700BF53
:104E1000028822F07002114301807047416270479E
:104E2000C1627047406A7047008D70470288002950
:104E300018BF012122F0020242EA410101807047BD
:104E40000288002918BF012122F0040242EA8101F0
:104E5000018070470288002918BF012122F08002DA
:104E600042EAC11101807047028822F008020280E4
:104E70000288114301807047028822F44072028048
:104E800002881143018070470288002918BF012160
:104E900022F0010211440180704700BFB0B5028CBE
:104EA00040F2004522F001020284038C40F4806449
:104EB000C4F201058288B0F818C0AC428C8923F096
:104EC00002034D88B1F800E043EA040343EA050316
:104ED0000DD1CC8923F00C0324F004048D882343E6
:104EE0000C8A2B4322F440724D8A22432A432CF031
:104EF000730545EA0E058280058389684163038452
:104F0000B0BD00BFB0B5028C40F2004522F01002E7
:104F10000284038C40F48064C4F201058288B0F8F6
:104F200018C0AC428C8923F020034D88B1F800E012
:104F300043EA041343EA051312D1CC896FF040050C
:104F400023F0C00305EA04148D8823430C8A43EA46
:104F5000051322F440624D8A42EA840242EA850245
:104F60002CF4E64545EA0E25828005838968816335
:104F70000384B0BDB0B5028C40F2004522F48072CB
:104F80000284038C40F48064C4F201058288B0F886
:104F90001CC0AC428C8923F400734D88B1F800E04A
:104FA00043EA042343EA052312D1CC8940F2FF45AA
:104FB000240223F44063AC438D8823430C8A43EAE4
:104FC000052322F440524D8A42EA041242EA0512B5
:104FD0002CF0730545EA0E05828085838968C163DC
:104FE0000384B0BDF0B5028C40F2004722F4805239
:104FF0000284048C8288838BB1F800E08D89B1F83B
:1050000002C040F48066C4F20107BE4204D10E8A99
:1050100022F4804242EA861223F4E64343EA0E2356
:1050200024F400548280838344EA0534896844EA86
:105030000C3201640284F0BD002101608180C0E96E
:1050400002110161704700BF10B54FF0010C048CD4
:105050000CFA01F324EA03036FF0080400F1180EC0
:10506000214203840ED0081F80B241085EF801304F
:1050700048F6FF740EEB5000234012024EF8013048
:105080000AE000BF4B080EEB510053F80E104FF62C
:105090008F74214043F80E10016892B211430160F1
:1050A00010BD00BF4163704781637047C1637047A3
:1050B00001647047028B22F0700211430183704734
:1050C000028B22F4E04242EA01210183704700BFD3
:1050D000828B22F07002114381837047828B22F40D
:1050E000E04242EA01218183704700BF028B22F037
:1050F0000802114301837047028B22F4006242EAE6
:1051000001210183704700BF828B22F00802114306
:1051100081837047828B22F4006242EA01218183FD
:10512000704700BF028B22F00402114301837047D5
:10513000028B22F4806242EA01210183704700BFA2
:10514000828B22F00402114381837047828B22F408
:10515000806242EA01218183704700BF028B22F006
:105160008002114301837047028B6FF3DF3242EA02
:1051700001210183704700BF828B22F0800211431E
:1051800081837047828B6FF3DF3242EA0121818392
:10519000704700BF028C22F0020211430184704765
:1051A000028C22F00802114301847047028C22F025
:1051B000200242EA01110184704700BF028C22F0F4
:1051C000800242EA01110184704700BF028C22F480
:1051D000007242EA01210184704700BF028C22F470
:1051E000006242EA01210184704700BF028C22F470
:1051F000005242EA01310184704700BF80B54FF090
:10520000010CB0F820E00CFA01F32EEA030303844A
:10521000038C02FA01F11943018480BD80B54FF07F
:10522000040CB0F820E00CFA01F32EEA0303038427
:10523000038C02FA01F11943018480BD70B50A881C
:10524000082A1FD0042A3BD0002A57D1B1F802C047
:10525000B1F804E00B89028C4EEA031322F001023C
:105260000284024632F8184F058C24F0F30425F02E
:105270000A0545EA0C05234345F001051380058422
:1052800019E000BFB1F802C08E880D89028C46EA91
:10529000051622F480720284024632F81C4F038CF9
:1052A00024F0F30423F4306343EA0C23264343F44D
:1052B000807316800384C888118821F00C013FE0B8
:1052C000B1F802C0B1F804E00C89028C40F6FF4648
:1052D00022F010020284024632F8183F058C334057
:1052E00025F0A00643EA043346EA0C1643EA0E23EF
:1052F00046F01006138006841DE000BFB1F802C01E
:10530000B1F804E00D89028C40F6FF4622F4805289
:105310000284024632F81C4F038C2D03344045EAC8
:105320000E2644F6FF752B4043EA0C33264343F424
:10533000805316800384C8881188000221F44061DC
:10534000118011880843108070BD00BF028B22F0CD
:105350000C020283028B114301837047028B22F4FB
:1053600040620283028B42EA01210183704700BF41
:10537000828B22F00C028283828B114381837047DF
:10538000828B22F440628283828B42EA01218183F4
:10539000704700BF00210122016042600181704717
:1053A0002DE9F0414C888D880127B4FA84F2012D53
:1053B00008BF02270E885309B1F808E0028C4FEAB3
:1053C000430CDEB322F010020284024632F8183F8A
:1053D00040F6FF46B0F82080334043EA0E3343EAFC
:1053E000052328F0A00545EA041444F010041380B6
:1053F0000484C988138847EA0E1723F44063138096
:10540000138843EA01231380038C23F001030384F0
:105410001388048C23F0F3033B4324F00A0747EA84
:105420000C0747F0010713800784108820F00C0058
:105430001080108808431080BDE8F08122F001023E
:105440000284024632F8183F068C23F0F30345EA43
:105450000E152B4326F00A052C4344F0010413805B
:105460000484C988138840F6FF4523F00C03138099
:1054700013880B431380038C090223F01003038469
:105480001388048C2B4043EA0E3343EA072324F0AD
:10549000A00747EA0C1747F010071380078410880D
:1054A00020F440601080108808431080BDE8F0812F
:1054B000406B7047806B7047C06B7047006C7047E3
:1054C000B1F800C04B888A8843EA0C0343EA020C17
:1054D000CB880A8943EA0C031A434B8989891A430A
:1054E0001143A0F844107047002181818160416020
:1054F00001607047B0F84420002918BF01216FF304
:10550000DF3242EAC131A0F8441070478288002996
:1055100018BF012122F0040242EA81018180704714
:105520008288002918BF012122F0010211448180E4
:10553000704700BF002A82890CBF22EA0101114393
:105540008181704781827047008A084018BF01201E
:10555000704700BFC9430182704700BF028A80893B
:105560000A4000EA010018BF0122002818BF0120EC
:1055700010407047C9430182704700BF1143A0F833
:1055800048107047002A82890CBF22EA01011143AA
:10559000818170478288002918BF012122F008020A
:1055A00042EAC10181807047018921F00701018130
:1055B000704700BF028922F0700211430181018906
:1055C00041F0070101817047028922F07002114306
:1055D0000181704710B5B0F820C0602918D12CF0B7
:1055E000100CA0F820C0B0F818C0B0F820E040F6C9
:1055F000FF4404EA0C0444EA03332EF0A00403F54C
:10560000807344EA021242F01002038312E000BFEA
:105610002CF001040484048BB0F820C024F0F204C0
:1056200044EA03132CF00A04224343F0010342F03E
:10563000010203830284028922F070021143018176
:10564000018941F00701018110BD00BFB0F808C019
:1056500011435FFA8CFC41EA032141EA0C0101810C
:10566000018941F077010181704700BFB0F808C09F
:1056700011435FFA8CFC41EA032141EA0C010181EC
:10568000704700BFB0F808C011435FFA8CFC41EAD4
:10569000032141EA0C010181018941F4804101812A
:1056A000704700BF828822F0700282808288114396
:1056B00081807047028922F007020281028911432A
:1056C00001817047028922F0800202810289114320
:1056D00001817047B0B5B0F808C0B0F818E0058C8B
:1056E0002CF0070421434FF6FC4404EA0E0425F095
:1056F000220542EA031204F201142A4301810483C1
:105700000284B0BD8288002918BF012122F08002E6
:1057100042EAC11181807047A0F850107047000024
:10572000016821F001010160002101604160816098
:10573000C160016146F20F41C4F2020188424FF09C
:105740002101416122DC46F26F01C4F2020188426C
:1057500040DC46F23F01C4F20201884276DC46F2A8
:105760001001C4F20201884200F0CA8046F228010A
:10577000C4F20201884201BF46F20800C4F20200EE
:105780004FF47461016008BF704701E146F26F4158
:10579000C4F2020188423BDC46F23F41C4F20201FE
:1057A000884269DC46F21041C4F20201884200F0EE
:1057B000AF8046F22841C4F20201884201BF46F29E
:1057C0000800C4F202004FF47461C0F8001408BF6E
:1057D0007047DDE046F29F01C4F20201884263DCBB
:1057E00046F27001C4F20201884200F0998046F24C
:1057F0008801C4F20201884240F0CA8046F20800E3
:10580000C4F2020040F64071C2F2000141607047EC
:1058100046F29F41C4F2020188425BDC46F27041CD
:10582000C4F20201884200F0858046F28841C4F249
:105830000201884218BF704746F20C40C4F20200D1
:1058400040F64071C2F200010160704746F240012B
:10585000C4F20201884277D046F25801C4F2020134
:10586000884201BF46F20800C4F202004FF07461A2
:10587000016008BF70478BE046F24041C4F202016C
:10588000884269D046F25841C4F20201884201BF01
:1058900046F20800C4F202004FF07461C0F8001430
:1058A00008BF704774E000BF46F2A001C4F20201D5
:1058B00088425BD046F2B801C4F20201884201BFBF
:1058C00046F20800C4F202004FF03D51416008BFAB
:1058D00070475DE046F2A041C4F2020188424FD019
:1058E00046F2B841C4F20201884201BF46F20C40C0
:1058F000C4F202004FF03D51016008BF704747E01D
:1059000046F20800C4F202003D210160704700BF6A
:1059100046F20800C4F202003D21C0F800147047AE
:1059200046F20800C4F202003D21C2F200014160CB
:10593000704700BF46F20C40C4F202003D21C2F2A3
:1059400000010160704700BF46F20800C4F2020087
:105950004FF474110160704746F20800C4F202006F
:105960004FF47411C0F80014704700BF46F20800ED
:105970000021C4F20200C2F23D014160704700BF45
:1059800046F20C400021C4F20200C2F23D01016067
:10599000704700BF2DE9F04F026848F23F03CFF295
:1059A0001C03D1F800901A40D1E9038E01F1140CC8
:1059B0009CE8F01042EA090242EA080222432A4324
:1059C00032438B6A3A43D1E90DAB42EA0C021A43E7
:1059D00042EA0A0242EA0B0202604269D1E90B374D
:1059E00022F007021A433A434261C0F804E04A68D1
:1059F00082608968C160BDE8F08F00BF80B53C213E
:105A000002F0AFF980BD00BF0268002922F0010258
:105A100018BF0132026070470268002922F4004278
:105A200018BF02F500420260704700BF02680029FB
:105A300022F0200218BF2032026070474160704798
:105A4000406880B2704700BF0368002A23F4002337
:105A500018BF03F500230360016170470268002945
:105A600022F4802218BF02F580220260704700BF36
:105A70001023002A08BF0C23C15070470068C0F3F0
:105A8000C0407047006800F001007047406900F0B6
:105A90003800704746F20442C4F2020246F2000C9B
:105AA00002F10C03C4F2020C98420CF5806038BF7E
:105AB0000CF104023CBF46F20000C4F202008B006D
:105AC00048BF10460068084040F67D71C0F67D7101
:105AD000084018BF0120704710B546F20C4340F64D
