:020000040800F2
:10000000D813002079020008F1200008B51100087B
:10001000ED200008790D0008F12A0008000000001A
:10002000000000000000000000000000F9240008AB
:10003000B90F000800000000F52000083D28000866
:10004000930200089302000893020008930200083C
:10005000930200089302000893020008930200082C
:10006000930200089302000893020008930200081C
:10007000930200089302000893020008930200080C
:1000800093020008930200089302000893020008FC
:1000900093020008930200089302000893020008EC
:1000A00093020008930200089302000893020008DC
:1000B000A5290008312A0008692A000893020008CF
:1000C00093020008930200089302000893020008BC
:1000D00093020008930200089302000893020008AC
:1000E000930200089302000893020008930200089C
:1000F000930200089302000893020008930200088C
:10010000930200089302000893020008930200087B
:10011000930200089302000893020008930200086B
:10012000890F000893020008930200089302000858
:10013000930200089302000893020008930200084B
:10014000930200089302000893020008930200083B
:10015000930200089302000893020008A52A0008F1
:10016000930200089302000893020008930200081B
:10017000930200089302000893020008930200080B
:10018000930200089302000800F002F800F065F8FE
:100190000AA090E8000C82448344AAF10107DA45E2
:1001A00001D100F05AF8AFF2090EBAE80F0013F0CF
:1001B000010F18BFFB1A43F001031847347E0000FB
:1001C000547E0000103A24BF78C878C1FAD852078C
:1001D00024BF30C830C144BF04680C6070470000C1
:1001E0000023002400250026103A28BF78C1FBD840
:1001F000520728BF30C148BF0B607047692900F023
:100200000181642900F0FE80752900F0FB806F29D0
:1002100000F09281782900F0B9810368DB0928BFDA
:1002200041F08001632900F0F083E32900F00384AA
:10023000002070471FB505F0B7FE9DE8030000F0F1
:10024000FBFA00F081FC04000020002104F084FD92
:10025000401C60601FBD10B510BD00F04FFC114682
:10026000FFF7E8FF03F000F800F072FC03B4FFF7BB
:10027000F2FF03BC00F0A2FC094880470948004790
:10028000FEE7FEE7FEE7FEE7FEE7FEE7FEE7FEE746
:10029000FEE7FEE704480549054A064B70470000A3
:1002A0007D28000889010008D8020020D81300200A
:1002B000D8040020D804002070B5064600F0A0FA4B
:1002C000056806F10B0020F00704B4429CBF002033
:1002D00070BD2B466A68BAB11068A04210D304F111
:1002E000080188423CBF5068586007D35168101914
:1002F00041601168091B016058601460101D70BDD9
:1003000013465268002AE7D12146284600F080FAB9
:100310000028DED170BD00000FB41CB5074B06AA43
:100320007B4469460090059800F04DFB002069462B
:1003300000F05CFB1CBC5DF814FB0000C90600006B
:1003400070B5044685690068C10601D5302600E015
:100350002026C00707D070BDD4E901213046904760
:10036000206A401C20626D1EF6D570BD70B5044633
:1003700085690078C00707D170BDD4E9012120202C
:100380009047206A401C20626D1EF6D570BD09683A
:100390004A0501D540B27047C905FCD500B2704787
:1003A00009684A0501D5C0B27047C905FCD580B2BD
:1003B000704770B50C460546012A05D0287880069E
:1003C00000D5EA69002302E0012305E05B1C9342AB
:1003D00002D2E05C0028F9D1A869E618C01AA86129
:1003E000286A184428622846FFF7AAFF04E0D5E9E6
:1003F000012114F8010B9047B442F8D32846FFF7C7
:10040000B5FF70BD2DE9F04106460024106875293E
:10041000314616A510D0FFF7BAFF002802DA404295
:1004200013A507E031688A0701D512A502E0490744
:1004300004D511A5012401E0FFF7B2FF00210A2233
:1004400006F1240709E0B0FBF2FCB0FBF2F302FB7B
:100450001C00303078541846491C0028F3D123463C
:100460002A463046BDE8F04100F04EBA00000000D8
:100470002D0000002B000000200000002DE9FF5F90
:1004800015468A460446DFF8AC80F8440027D8E9D0
:1004900000103E46CDE9001010E03AF816106A460A
:1004A00002A800F0D4FA411C07D02178890603D5B0
:1004B000E269391891420DD80744761C20788006ED
:1004C00002D5E069B84205DDAE42E6DB3AF8160037
:1004D0000028E2D1A069C01BA0612046FFF730FFD1
:1004E000D8E90010CDE90010002017E03AF8181004
:1004F0006A4602A800F0ABFAB0F1FF3F81460BD08C
:1005000000250DF1080B05E0D4E901211BF80500D9
:1005100090476D1C4D45F7D308F10100B04280466D
:10052000E4DB206A384420622046FFF71FFFBDE865
:10053000FF9F00009E5D000070B5044621461068D4
:10054000FFF72EFF002104F1240505E000F007026B
:100550003032C0086A54491C0028F7D120680023B3
:1005600008A2050708D500F02000084304D0E06980
:10057000012305A2401EE0612046BDE8704000F066
:10058000C3B90000000000003000000070B5044650
:100590000D4621461068FFF703FF2188090502D5A3
:1005A0000F4A7A4402E00E4A7A440E32002104F1E6
:1005B000240305E000F00F060009965D5E54491C17
:1005C0000028F7D120780023000704D5702D02D031
:1005D00009B1022311322046BDE8704000F094B901
:1005E0008E5C00002DE9F05F894604464FF0000A5A
:1005F000DFF874B1FB44C0F820A02046E1688847CA
:10060000002874D0252806D0D4E901219047206A1B
:10061000401C2062F1E700265F462046E1688847DB
:100620002028054607DB312D05D2781910F8200C5B
:1006300008B10643F1E7B00701D526F00406C4F877
:100640001CA00027C4F818A02A2D09D0284604F0C1
:100650006FFB38B304EB8708303DC8F8185019E039
:1006600059F8041B204604EB87029161E168884732
:10067000012F054618D1E069002820DA26F020066F
:100680001DE0D8F8180000EB800005EB4000303882
:10069000C8F818002046E1688847054604F048FB82
:1006A0000028EED1012F0AD02E2D08D12046E16876
:1006B00088477F1C0546022F46F02006C4DBA06950
:1006C000002803DA404246F00106A061F00701D09D
:1006D00026F010066C2D0BD0682D09D04C2D39D08A
:1006E0006A2D35D0742D35D07A2D33D016E038E010
:1006F000E1682F4620468847B842054609D16C2F4D
:1007000026D04FF48060E1680643204688470546BE
:1007100004E06C2F1AD04FF4807006430DB3A5F19E
:100720004100192802D8203546F400664A46294679
:10073000204626604E46FFF761FD80B101280BD0B0
:10074000F61D26F0070000F1080956E74020E4E70F
:100750008020D8E70020D6E706F104094DE72846B7
:1007600052E7206ABDE8F09F645C0000002800DAD0
:100770004042704740EA0103024630B59B0710D162
:100780004FF0013400E008C208C91D1B9D4315EA63
:10079000C41FF8D013F0FF0102F8011B0DD01B0A93
:1007A000F8E711F8013B002B02F8013B05D011F8E6
:1007B000013B002B02F8013BF3D130BD10B5431CC7
:1007C00002E010F8011B71B18107FAD14FF001323C
:1007D00002C88C1A8C4314EAC211F9D0C01A0A0656
:1007E00003D0C01E10BDC01A10BD0A0401D0801E67
:1007F00010BD0902FCD0401E10BD70477047704705
:1008000000487047180000207047704770477047D5
:1008100038B504460A4600206946AFF30080002838
:1008200008BF38BD02460099204600F045F9012076
:1008300038BD012000F05AB9F8B5AFF30080054685
:1008400000200C46102000BF0646A819A0420DD972
:10085000324669460020AFF30080070008BF00F071
:1008600045F90098A04218BF0546C419FFF7C8FF14
:1008700005600746F01D20F007004619284600F0E5
:100880000AF8B44208BFF8BDA21B31463868BDE87B
:10089000F84000F011B900210160C0E90110704773
:1008A0001020704770B50446051FFFF7A9FF0068C8
:1008B000002C14BF446870BD002C18BFAC423CBF74
:1008C00020466468F8D301680A18AA4218BF456038
:1008D00003D12A6805461144016028684119A142E4
:1008E0001CBF6C6070BD6168696021680844286045
:1008F00070BD10B500F0DCF8006810BD10B50446FE
:1009000000F0D6F8046010BD2DE9F0470D46994679
:100910009246044600F124080168880604D5E0697F
:1009200021F01001216000E00120A84201DD471BF9
:1009300000E00027A1697A1902EB0900081AA061FA
:100940002078C00602D42046FFF7FAFC002608E013
:10095000D4E901211AF806009047206A401C761C51
:1009600020624E45F4DB2078C0060AD52046FFF70A
:10097000E7FC06E0D4E9012130209047206A401CC2
:100980002062381EA7F10107F4DC07E0D4E9012159
:1009900018F805009047206A401C2062281EA5F127
:1009A0000105F3DC2046FFF7E1FC2078000602D5C4
:1009B0000220BDE8F0870120FBE7000001694A1C26
:1009C00002610878704700B58FB0CDE90131002190
:1009D000059105497944CDE9031011466846FFF7B2
:1009E00001FE0FB000BD0000E5FFFFFF0A6802F83E
:1009F000010B0A60704710B5436913B1AFF3008073
:100A000001E0FFF7D6FC012010BD127800F12401AF
:100A10000A7000224A700122EDE711684FF0FF32A0
:100A2000E9E710B5436913B1AFF3008001E0FFF7C8
:100A300025FD012010BD128800F1240182840022CE
:100A4000C2840122EDE711684FF0FF32E9E72DE99A
:100A5000F04116460C46054600F022F8036893F86C
:100A60000101012807D0FF2C12D8185D80B10120A8
:100A70002C70BDE8F081D3F807013246214603F21D
:100A80000713C7182846BC46BDE8F041002360475D
:100A90004FF0FF30EDE700000048704710000020E5
:100AA00010B500F051F8001D10BD00BFAD420000B0
:100AB0000048704710000020034640688C4600281C
:100AC00018BF88423CBF03464068F8D318681844F2
:100AD000884207D00CF1030020F00700001D411AE6
:100AE000521A0146081D0A60FFF7DCBE10B500F07F
:100AF0003DF8BDE8104000F034B870477546FFF788
:100B0000CBFFAE4605006946534620F007008546F8
:100B100018B020B5FFF7BEFBBDE820404FF000063F
:100B20004FF000074FF000084FF0000BAC46ACE868
:100B3000C009ACE8C009ACE8C009ACE8C00921F0C4
:100B400007018D46704700000048704730000020C4
:100B500010B50446AFF300802046BDE81040FFF713
:100B600085BB002801D000F029B8704710B50128D6
:100B700005D0002103A000F027F8012010BD09A135
:100B8000F8E7000053494752544D454D3A204F7500
:100B900074206F662068656170206D656D6F727975
:100BA000000000003A2048656170206D656D6F722D
:100BB0007920636F72727570746564000149182042
:100BC000ABBEFEE72600020070B505460C460A20C3
:100BD00000E06D1C00F052F835B128780028F8D1FB
:100BE00002E0641C00F04AF814B120780028F8D123
:100BF000BDE870400A2000F041B80000000000008D
:100C000030B44FF0013C50F8042B51F8043BCCFABF
:100C100052F4D51A20D1FCB950F8042B51F8043BFA
:100C2000CCFA52F4D51A17D1B4B950F8042B51F8B4
:100C3000043BCCFA52F4D51A0ED16CB950F8042BFF
:100C400051F8043BCCFA52F4D51A05D1002CDAD075
:100C500030BC4FF00000704729BAB1FA81F111F0B1
:100C60001801D1F120008440F2D1CA40CB4012F0EB
:100C7000FF0213F0FF0330BCD01A704708B5694675
:100C80008DF800000320ABBE08BD00001FB584B086
:100C900000200A9C06AB04AA02A90094AFF30080CE
:100CA00018B1DDE9020108B010BD0348204000F092
:100CB0005BF800200146F6E70000207C10B5022812
:100CC00003D0410103D50DA112E0002010BD0101A8
:100CD00001D50FA10CE0C10001D511A108E08100F0
:100CE00001D512A104E0400001D513A100E00021CC
:100CF00015A0FFF769FF012010BD0000496E766165
:100D00006C6964204F7065726174696F6E000000D9
:100D1000446976696465204279205A65726F0000E3
:100D20004F766572666C6F7700000000556E6465E3
:100D300072666C6F77000000496E6578616374209D
:100D4000526573756C7400005349474650453A200C
:100D500041726974686D6574696320657863657054
:100D600074696F6E3A20000010B5FFF7A7FFBDE869
:100D70001040FFF7F6BE0000FEE70000F0B585B0BA
:100D800040F2B01C0A28C2F2000C40F0D18040F2C0
:100D9000CC20C2F200004EF2100240F61A4E037848
:100DA000DCF8004040F28C01CEF20002C4F2020EE8
:100DB00000204025C2F200010026002B18BF41F69A
:100DC0009C0308E01768043627F00107202E1760FF
:100DD000906000F0B48004FA06F7FF0F07BFAEF88A
:100DE000005000272EF8025C01270F6053609060CE
:100DF000176847F001071760176807F00117012F00
:100E00000ED1176807F00117012F09D1176807F0F5
:100E10000117012F04D1176807F00117012FEBD03C
:100E2000176827F00107176046F0010704FA07F773
:100E3000FF0F906007BFAEF8005000272EF8025C4D
:100E400001270F6053609060176847F00107176033
:100E5000176807F00117012F0ED1176807F0011767
:100E6000012F09D1176807F00117012F04D1176866
:100E700007F00117012FEBD0176827F00107176063
:100E800046F0020704FA07F7FF0F906007BFAEF8BD
:100E9000005000272EF8025C01270F60536090601D
:100EA000176847F001071760176807F00117012F4F
:100EB0000ED1176807F00117012F09D1176807F045
:100EC0000117012F04D1176807F00117012FEBD08C
:100ED000176827F00107176046F0030704FA07F7C1
:100EE000FF0F906007BFAEF8005000272EF8025C9D
:100EF00001270F6053609060176847F00107176083
:100F0000176807F00117012F7FF45CAF176807F02F
:100F10000117012F7FF456AF176807F00117012F53
:100F20007FF450AF176807F00117012FE8D049E7A9
:100F3000DCF8001001EB810100EB410204E04020ED
:100F40000022AEF800000A600DF10A040DA120464F
:100F5000CCF80020FFF7E0F940F29000C2F2000068
:100F600000682146FFF706FC4FF6FF7711200B21A2
:100F7000DB223F23009700F057FD05B0BDE8F040AD
:100F800000F00EBC2564000046F20840C4F20200E6
:100F9000816850F8082C92060CD511F0100108BF9A
:100FA00070472021016001604FF08040018821F0EE
:100FB0000101018070470000704700001820CAF24C
:100FC0000000016841F001010160704770B5D0E98F
:100FD00000CED0E9023200F1100672CE43EA0E03D1
:100FE0001A43114321432943314300F120064CCEDB
:100FF000D0E90B54114319433143294341EA040218
:101000004FF0204141F82C208268082A06D102685E
:1010100051F8223043F0400341F82230416BD0F8C0
:1010200000C0D1E900E6D1E902544EEA0616D1E942
:10103000042346EA052646EA0446896946EA02523E
:1010400042EA036211430422CAF2000242F82C1061
:10105000C16AB1F5804F0FD1816B91E84C00D1E9A5
:10106000045442EA031242EA0622896942EA05521E
:1010700042EA0462114301E06FF07041006840F2FF
:101080000412CAF2000242F8201070BD2DE9F04FA0
:10109000D1F8008000234FF0010C4FF0030E002424
:1010A00011E000BFC26802EA0902C260CA79C568DD
:1010B00002FA0AF22A43C2600234102C03F104033C
:1010C00008BFBDE8F08F0CFA04F218EA020F2DD029
:1010D00007680EFA03F66FEA060927EA06060660B5
:1010E0000E79076806FA03F5013E3D43012E0560BF
:1010F00013D8856805EA090585604D798E7987687A
:101100009D403D438560456825EA0202426006FA3B
:1011100004F2456892B22A434260C26802EA0902B8
:10112000C260CA79C5689A402A43C26004F1010BC3
:101130000CFA0BF218EA020FBED003F1020A05689E
:101140000EFA0AF7BD4305600D796FEA07090768D3
:1011500005FA0AF6013D3E43012D0660A2D88568D6
:1011600005EA090585604D798E79876805FA0AF5E3
:101170003D438560456825EA0202426006FA0BF2AB
:10118000456892B22A4342608CE700001C2303EAC0
:10119000810C6FF0030303EA510108440F23016A35
:1011A00003FA0CF399430162016A02FA0CF211434B
:1011B00001627047FEE7000081B041F6FE70C6F69E
:1011C0000040D321018042F20000C6F600400188B1
:1011D000ADF802100188ADF802100188ADF80210D8
:1011E000BDF802100902ADF802100088BDF8021027
:1011F0000843ADF80200BDF8020001B070470000DE
:1012000010B584B04FF6FF70ADF80E0000240294C4
:10121000019440F28800C2F20000008840F2B4114C
:10122000C2F200010988484301900020002100F02B
:101230008FFE00F037FF0294FFE702980199884281
:101240000CD2FFE7BDF80E0042F20001C6F60041E5
:101250000880FFE7029801300290EEE704B010BD6D
:1012600080B582B0ADF80600ADF80410ADF80220EC
:10127000BDF80600BDF8041000F078FA40F27200E4
:10128000C2F200000078002818BF2C2041F6FE7141
:10129000C6F600410880BDF8020042F20001C6F621
:1012A0000041088002B080BD80B584B0ADF80E006A
:1012B000ADF80C108DF80B208DF80A30BDF80E003B
:1012C000ADF804009DF80A000C2804D1FFE70C20BB
:1012D0008DF8090014E09DF80A00102804D1FFE7FA
:1012E00010208DF809000AE09DF80A00182804D1A2
:1012F000FFE730208DF8090000E0A6E0FFE7FFE7F8
:101300009DF80B0020388DF80B0000208DF80600AA
:10131000FFE79DF806009DF80910884280F294804E
:10132000FFE79DF80A000C2810D1FFE79DF80B009D
:1013300000EB400046F29831C0F6000101EB80005E
:101340009DF80610405C8DF8080029E09DF80A0021
:1013500010280ED1FFE79DF80B0046F60C01C0F6F1
:10136000000101EB00109DF80610405C8DF80800AC
:1013700015E09DF80A00182810D1FFE79DF80B0032
:1013800000EB400046F6FC51C0F6000101EB0010F6
:101390009DF80610405C8DF80800FFE7FFE7FFE7C7
:1013A00000208DF80700FFE79DF80700072843DCC1
:1013B000FFE79DF80800C00760B1FFE7BDF80E0029
:1013C000BDF80C1040F2AC12C2F200021288FFF716
:1013D00047FF0BE0BDF80E00BDF80C1040F2000214
:1013E000C2F200021288FFF73BFFFFE79DF80800FA
:1013F00040088DF80800BDF80E000130ADF80E0071
:10140000BDF80E00BDF80410401A9DF80A10B0EBAC
:10141000510F0AD1FFE7BDF80400ADF80E00BDF88A
:101420000C000130ADF80C0007E0FFE79DF8070065
:1014300001308DF80700B7E7FFE7FFE79DF80600EA
:1014400001308DF8060064E7FFE704B080BD0000BE
:1014500080B584B0ADF80E00ADF80C108DF80B20FF
:101460000193FFE7019801780020202907DBFFE7BF
:101470000198017800207F29B8BF0120FFE7C0074D
:1014800008B3FFE7BDF80E00BDF80C10019A127802
:101490009DF80B30FFF708FF9DF80B00BDF80E100C
:1014A00001EB5000ADF80E00BDF80E0040F28801CF
:1014B000C2F200010988884201DBFFE704E00198DD
:1014C00001300190CEE7FFE704B080BDB0B586B033
:1014D000DDF82CC0DDF828E0ADF81600ADF81410EA
:1014E0008DF813200393ADF80AE0ADF808C040F280
:1014F000AC14C2F200042088ADF8060040F20005EA
:10150000C2F200052888ADF80400BDF80A0020806A
:10151000BDF808002880BDF81600BDF814109DF82D
:101520001320039BFFF794FFBDF806002080BDF851
:101530000400288006B0B0BDF0B583B00446008832
:10154000A2886188E38802440B44013A2589013B63
:1015500092B29BB24FF6FF76009500F065FA2088B4
:10156000A388627C61880344002AA3F101022CD085
:10157000002592B20B46009500F076F86188E2886B
:1015800020880A44013A93B20246009500F06CF8B4
:101590002088A188E2880844618801380A44013A19
:1015A00080B293B20246009600F05EF86188E2884D
:1015B00020881144A28801390244013A89B292B2CA
:1015C0000B46009600F050F82BE092B20B460096C6
:1015D00000F04AF86188E28820880A44013A93B210
:1015E0000246009600F040F82088A188E28808446E
:1015F000618801380A44013A80B2002593B202465C
:10160000009500F031F86188E28820881144A288B2
:1016100001390244013A89B292B20B46009500F0BA
:1016200023F8E5682688A7882846FFF7C7F8227CB4
:101630006388510801FB1070617CE788A1EB810190
:101640001944BB1A03EBD37306EB5000278901EB57
:1016500053010023009380B289B22B460197FFF714
:1016600035FF03B0F0BD000080B588B0DDF828C0BC
:10167000ADF81E00ADF81C10ADF81A20ADF818300A
:10168000ADF816C0BDF81A00BDF81E10401AFFF7DD
:101690006DF8ADF81400BDF81800BDF81C10401A24
:1016A000FFF764F8ADF81200BDF81E00BDF81A107F
:1016B0004FF0FF3288424FF0FF30B8BF0120039057
:1016C000BDF81C00BDF818108842B8BF0122029274
:1016D000BDF81400BDF81210401A0190FFE7BDF8E4
:1016E0001E10BDF81A200120914208D1FFE7BDF875
:1016F0001C00BDF81810401A18BF0120FFE7C007F2
:1017000088B3FFE7BDF81E00BDF81C10BDF8162019
:10171000FFF7A6FD0198400000900098BDF8121058
:10172000494288420CDDFFE7BDF812000199081A12
:1017300001900398BDF81E100844ADF81E00FFE7A5
:101740000098BDF8141088420CDAFFE7BDF81400C9
:101750000199084401900298BDF81C100844ADF8A6
:101760001C00FFE7BBE708B080BD000080B582B079
:10177000ADF80600ADF80410BDF80600BDF8041081
:1017800000F0E6FB00F08EFC40F2AC10C2F200006C
:10179000008842F20001C6F60041088002B080BD18
:1017A000F0B583B0002512200C21DA220C2300951D
:1017B0001226FFF759FF12203E21DA223E23009520
:1017C000FFF752FF12200C2112223E230095FFF753
:1017D0004BFFDA200C21DA223E230095FFF744FF6D
:1017E0004EF23F7713200D21D9223D23009700F0C0
:1017F0001BF940F29000C2F2000004682046FEF798
:10180000DDFFA0EB8000C82101EB800006EB50005B
:1018100080B219211822234600950197FFF756FE42
:1018200003B0F0BD2DE9F04F9FB0782000F064FCCC
:1018300000F06AFC4FF480601D9001248DF8784020
:1018400000258DF87A5002278DF879708DF87B404D
:1018500041F20040C4F202000DF1740A5146FFF754
:1018600015FC4CF233701D908DF878708DF87A501D
:101870004FF003098DF879908DF87B4040F60046D3
:10188000C4F2020630465146FFF700FC4FF6807066
:101890001D908DF878708DF87A508DF879908DF8CC
:1018A0007B4041F2000BC4F2020B58465146FFF751
:1018B000EDFB04201D908DF878708DF87A508DF82E
:1018C00079908DF87B4041F60008C4F2020840464A
:1018D0005146FFF7DBFB4FF480501D908DF8787078
:1018E0008DF87A508DF879908DF87B4040465146BE
:1018F000FFF7CCFB304600210C22FFF747FC3046B7
:1019000001210C22FFF742FC304604210C22FFF794
:101910003DFC304605210C22FFF738FC4FF0080A49
:10192000304608210C22FFF731FC304609210C22F9
:10193000FFF72CFC30460A210C22FFF727FC30462B
:101940000E210C22FFF722FC0F2730460F210C221C
:10195000FFF71CFC0726584607210C22FFF716FC50
:10196000584608210C22FFF711FC584609210C2289
:10197000FFF70CFC58460A210C22FFF707FC5846DB
:101980000B210C22FFF702FC58460C210C22FFF71A
:10199000FDFB58460D210C22FFF7F8FB58460E219F
:1019A0000C22FFF7F3FB58460F210C22FFF7EEFB4A
:1019B000404602210C22FFF7E9FB40460C210C2295
:1019C000FFF7E4FB079708953C2009900A950B95D3
:1019D0000C950D95CDF800A0019502960395049500
:1019E0000595069506200E900F95109510201190E4
:1019F000129514951395159516954FF480501790E0
:101A000018954FF4804019901A9507A81B906846C6
:101A10001C900EA8FFF7DAFAFFF7D0FA322001F097
:101A2000C1FB1FB0BDE8F08F80B584B0DDF818C0F1
:101A3000ADF80E00ADF80C10ADF80A20ADF8083086
:101A4000ADF806C00020ADF80000BDF80A00BDF8F2
:101A50000E10401A0130ADF80000BDF80C00ADF8D2
:101A60000400FFE7BDF80400BDF80810884228DC38
:101A7000FFE7BDF80E00BDF8041000F069FA00F0B1
:101A800011FB0020ADF80200FFE7BDF80200BDF831
:101A9000001088420EDAFFE7BDF8060042F20001AE
:101AA000C6F600410880FFE7BDF802000130ADF83E
:101AB0000200EAE7FFE7BDF804000130ADF80400DA
:101AC000D0E704B080BD00002DE9F04381B0FFF7FE
:101AD000A9FEFFF771FB40F28601C2F20001088007
:101AE000088849F24131884228D0FFE741F6FE706C
:101AF000C6F60040A121018042F20000C6F6004077
:101B0000018840F28602C2F2000211800188118031
:101B100011880902118000881188084310801088FC
:101B200045F26171884208D1FFE740F28600C2F2B7
:101B3000000041F663110180FFE7FFE740F28600F5
:101B4000C2F20000008849F24131884215D1FFE716
:101B500040F21C10CAF20000016821F00F01016080
:101B6000016821F470610160016841F003010160C6
:101B7000016841F400710160FFE740F28600C2F2A3
:101B80000000008849F24131884240F0B180FFE70F
:101B900041F6FE74C6F60044CF20208042F20000D9
:101BA000C6F6004000210180C12707803023038052
:101BB000ED2222806422028003220280122202800F
:101BC00081220280E8222280852202804FF0100CC0
:101BD000A0F800C07A260680CB262680392606800B
:101BE0002C26068001803426068002260680F726F1
:101BF000268020260680EA26268001800180C026D5
:101C000026801B26068027804FF00108A0F8008060
:101C1000C527278003800380C7232380B723038041
:101C200036232380482303803A23238055230380CF
:101C3000B123238001801A230380B62323800A2640
:101C40000680A2230380F2232380018026232380A1
:101C5000A0F80080E02323800F2707802A23038039
:101C600028220280082202800E250580028054224C
:101C70000280A92202804322028006800780018020
:101C8000018001800180E1222280018015220280F2
:101C90001722028007220280112606800622028077
:101CA0002B220280562505803C25058005250580D0
:101CB000A0F800C007803F250580058007802280AE
:101CC00001800180A0F800800580238001800180D0
:101CD0000180EF2101802680782001F063FA29201D
:101CE000208048F2A820C4F24220C0F8008080E0A2
:101CF00040F28600C2F20000008841F6631188427B
:101D000076D1FFE741F6FE74C6F60044E22020805B
:101D100042F20005C6F600451D2028804FF002085B
:101D2000A5F800804FF00409A5F80090642001F0A8
:101D30006BFAE027278001262E800A2001F032FA74
:101D4000278003272F800C2001F02CFA26800A2000
:101D500001F028FAE62020802F202880FF2028800C
:101D60002880B020208020202880002028802F80FC
:101D700040F21F3129802E8040F2DF112980288017
:101D8000B4212180A5F8009040F21F4129802880CD
:101D90002E2129802880288028802880B621218033
:101DA000A5F800804FF4037129802880172129802D
:101DB0001521298028802880F02121802F80292149
:101DC0002180D02121802880BE21218005212980E9
:101DD000FE2129802E80288028802880B82020801D
:101DE0002F802E80BA2020802E8000F00BFDFFE790
:101DF000FFE700F083FBFFF703FA01B0BDE8F083D3
:101E000082B00022ADF80620ADF80420ADF8020043
:101E1000ADF80010BDF80600BDF802100844013806
:101E2000ADF80200BDF80400BDF800100844013808
:101E3000ADF8000040F2C720C2F200000078002890
:101E400056D1FFE740F28600C2F20000008841F65A
:101E5000631188424CD1FFE740F28800C2F20000D3
:101E60000088BDF80210401ABDF80610401AADF8FF
:101E70000600BDF80400BDF8001008440138ADF8B4
:101E8000000040F27400C2F20000008841F6FE71CA
:101E9000C6F6004108809DF8070042F20002C6F62F
:101EA000004210809DF806001080BDF80600BDF8C5
:101EB000023018440138000A1080BDF80600BDF851
:101EC000023018440138C0B2108040F27600C2F2ED
:101ED0000000008808809DF8050010809DF804002F
:101EE00010809DF8010010809DF8000010802CE00B
:101EF00040F27400C2F20000008841F6FE71C6F69E
:101F0000004108809DF8070042F20002C6F6004238
:101F100010809DF8060010809DF8030010809DF849
:101F20000200108040F27600C2F2000000880880B3
:101F30009DF8050010809DF8040010809DF80100B8
:101F400010809DF800001080FFE702B0704700008D
:101F500081B0ADF80200ADF8001040F28600C2F288
:101F60000000008849F24131884221D1FFE740F268
:101F70007400C2F20000008841F6FE71C6F600410E
:101F800008809DF8030042F20002C6F6004210806D
:101F90009DF80200108040F27600C2F20000008836
:101FA00008809DF8010010809DF80000108076E008
:101FB00040F28600C2F20000008841F663118842B8
:101FC0006CD1FFE740F2C720C2F20000007818BBD6
:101FD000FFE740F28800C2F200000088BDF802105E
:101FE000C9430844ADF8020040F27400C2F2000098
:101FF000008841F6FE71C6F60041088042F20000FA
:10200000C6F600400021018001809DF80310018088
:102010009DF80210018020E040F27400C2F200003E
:10202000008841F6FE71C6F6004108809DF8030065
:1020300042F20001C6F6004108809DF802000880C7
:1020400040F28800C2F200000288013A120A0A80B7
:1020500000880138C0B20880FFE740F27600C2F283
:102060000000008841F6FE71C6F6004108809DF828
:10207000010042F20001C6F6004108809DF8000010
:10208000088040F2B410C2F200000288013A120A3D
:102090000A8000880138C0B20880FFE7FFE701B07E
:1020A0007047000040F27200C2F200000078002881
:1020B00018BF2C2041F6FE71C6F60041088070471B
:1020C00081B0ADF80200ADF80010BDF8020041F695
:1020D000FE71C6F600410880BDF8000042F2000122
:1020E000C6F60041088001B070470000FEE700001E
:1020F000704700007047000043F63001C4F202014F
:102100000A6810430860704743F63800C4F20200C2
:10211000016841F0010101607047000080B584B0A2
:102120000290019140F2BC20C2F200000178D02060
:10213000002918BF902000F0AFF8ADF8020040F27F
:10214000BD20C2F2000001789020002918BFD020E5
:1021500000F0A2F8ADF80000BDF80200322805DB5F
:10216000FFE7BDF80000312804DCFFE700208DF810
:102170000F000BE0BDF8020002990880BDF80000D6
:102180000199088001208DF80F00FFE79DF80F00EE
:1021900004B080BD80B586B040F2C220C2F200001B
:1021A000049040F2C420C2F2000003900DF10A0036
:1021B00002A9FFF7B3FF8DF803009DF8030020B9D3
:1021C000FFE700208DF8170062E00DF1060001A97D
:1021D000FFF7A4FF8DF803009DF8030020B9FFE787
:1021E00000208DF8170053E0BDF80600BDF80A1076
:1021F000884208DCFFE7BDF80A00BDF8061032315E
:1022000088420FDBFFE7BDF80A00BDF806108842E0
:102210003ADCFFE7BDF80600BDF80A10323188420B
:1022200032DAFFE7BDF80400BDF80810884208DC88
:10223000FFE7BDF80800BDF80410323188420FDB1B
:10224000FFE7BDF80800BDF8041088421CDCFFE77A
:10225000BDF80400BDF808103231884214DAFFE7F7
:10226000BDF80A00BDF8061008444008049908802B
:10227000BDF80800BDF80410084440080399088020
:1022800001208DF8170003E000208DF81700FFE70C
:102290009DF8170006B080BD80B586B08DF8170098
:1022A0000020ADF80600ADF81400FFE7BDF81400FB
:1022B000042810DCFFE79DF8170000F07DF8BDF85A
:1022C000141002AA22F81100FFE7BDF81400013033
:1022D000ADF81400EAE70020ADF81400FFE7BDF800
:1022E000140003283BDCFFE7BDF814000130ADF813
:1022F0001200FFE7BDF81200042829DCFFE7BDF853
:10230000140002A931F81000BDF8122031F81210A3
:10231000884216DDFFE7BDF8140002A931F810006D
:10232000ADF80400BDF8120031F81000BDF814201B
:1023300021F81200BDF80400BDF8122021F81200A7
:10234000FFE7FFE7BDF812000130ADF81200D1E75A
:10235000FFE7BDF814000130ADF81400BFE700201E
:10236000ADF806000120ADF81400FFE7BDF8140039
:10237000032811DCFFE7BDF8140002A931F81000B2
:10238000BDF806100844ADF80600FFE7BDF81400DC
:102390000130ADF81400E9E7BDF806004AF6AB21BC
:1023A000CAF6AA21A0FB01014808ADF80400BDF857
:1023B000040006B080BD000070B582B08DF8070043
:1023C00000248DF80640ADF8044040F29425C4F294
:1023D00040252C6048F28420C4F24020046048F27A
:1023E0008020C4F2402004609DF8070000F048F807
:1023F000062000F009FF2C600126012000F004FFF8
:102400002E60012000F000FF2C608DF80640FFE7F1
:102410009DF806000F2824DCFFE7BDF8040040000B
:10242000ADF8040040F29424C4F24024002020605F
:102430000125012000F0E8FE256048F20820C4F2E2
:102440004020006830B1FFE7BDF804000130ADF86E
:102450000400FFE7FFE79DF8060001308DF8060055
:10246000D6E7BDF804000009ADF8040048F280206A
:10247000C4F2402001210160BDF8040002B070BD2B
:10248000B0B582B08DF8070000208DF806008DF8F9
:102490000600FFE79DF8060007282BDCFFE79DF804
:1024A00007000006002807D5FFE748F28420C4F2A1
:1024B00040200121016006E048F28420C4F240205F
:1024C00000210160FFE79DF8070040008DF807003C
:1024D00040F29424C4F24024002020600125012011
:1024E00000F092FE2560FFE79DF8060001308DF8B0
:1024F0000600CFE702B0B0BD7047000080B582B0E3
:1025000000208DF807009DF8070000285DD1FFE747
:1025100040F2C720C2F200000021017040F28600A4
:10252000C2F20000008849F24131884220D1FFE721
:1025300040F27200C2F200000121017040F274000A
:10254000C2F200002A21018040F27600C2F20000AF
:102550002B21018040F28800C2F20000F0210180AE
:1025600040F2B410C2F200004FF4A07101802BE0E1
:1025700040F28600C2F20000008841F663118842F2
:1025800021D1FFE740F27200C2F200000121017088
:1025900040F27400C2F200002B21018040F276006C
:1025A000C2F200002A21018040F28800C2F200003D
:1025B0004FF4F071018040F2B410C2F200004FF409
:1025C00048710180FFE7FFE75CE040F2C720C2F2FC
:1025D00000000121017040F28600C2F20000008874
:1025E00049F24131884220D1FFE740F27200C2F245
:1025F00000000121017040F27400C2F200002A21A3
:10260000018040F27600C2F200002B21018040F2EE
:102610008800C2F200004FF4A071018040F2B410B3
:10262000C2F20000F02101802BE040F28600C2F2ED
:102630000000008841F66311884221D1FFE740F293
:102640007200C2F200000121017040F27400C2F277
:1026500000002A21018040F27600C2F200002B2106
:10266000018040F28800C2F200004FF448710180FE
:1026700040F2B410C2F200004FF4F0710180FFE7A5
:10268000FFE7FFE700F002F802B080BD80B582B03E
:1026900000208DF80700ADF80400ADF8020040F20C
:1026A000C720C2F20000007801280AD1FFE740F2FB
:1026B0008600C2F20000008849F24131884212D0FF
:1026C000FFE740F2C720C2F200000078002835D1B1
:1026D000FFE740F28600C2F20000008841F6631175
:1026E00088422BD1FFE79DF80700072825D8DFE8AF
:1026F00000F004080C1014181C2006208DF80700A8
:102700001BE007208DF8070017E004208DF8070074
:1027100013E005208DF807000FE001208DF8070079
:102720000BE000208DF8070007E003208DF807007C
:1027300003E002208DF80700FFE7FFE79DF80700A0
:10274000072837D8DFE800F004050C131A21282FDA
:1027500030E0BDF8040040F08000ADF8040029E04E
:10276000BDF8040040F04000ADF8040022E0BDF8E0
:10277000040040F0C000ADF804001BE0BDF8040008
:1027800040F02000ADF8040014E0BDF8040040F073
:102790006000ADF804000DE0BDF8040040F0A000BA
:1027A000ADF8040006E0BDF8040040F0E000ADF82C
:1027B0000400FFE73620ADF8020040F28600C2F2C6
:1027C0000000008849F24131884207D1FFE7BDF897
:1027D000040040F00800ADF80400FFE7BDF8020077
:1027E000BDF80410FFF76CFC40F28800C2F2000054
:1027F000008840F2B411C2F200010988FFF700FB23
:1028000002B080BD81B0FF208DF8030041F6FE715B
:10281000C6F60041BE220A8042F20001C6F600411F
:1028200005220A809DF803200A8001220A80088080
:1028300000200880088001B07047000040F2C820E6
:10284000C2F20000016811B101680139016040F273
:102850007000C2F20000018840F2E73301318AB211
:102860009A42018038BF704740F2CF21C2F2000186
:1028700001220A70002101807047000082B04EF6EC
:10288000885CCEF2000CDCF8002043F6000142F434
:102890007002C4F20201CCF800200A684FF6FF7003
:1028A00042F001020A6000228A600B68CFF6F660EF
:1028B0001840086043F21000C2F200404860086807
:1028C00020F480200860CA6001920092086840F4F9
:1028D00080300860086800F40030009001980130F2
:1028E0000190009818B90198B0F5A04FF2D108688E
:1028F000800354BF002001200090009801284BD194
:10290000086C40F08050086447F20000C4F20000F8
:10291000026842F44042026088688860886840F437
:1029200000408860886840F4A050886045F2084004
:10293000C0F240704860086840F080700860086825
:10294000800109D4086880015CBF08685FEA8010D4
:1029500002D408688001F2D540F20570C1F8000485
:10296000886820F003008860886840F00200886072
:10297000886800F00C0008280ED0886800F00C0071
:10298000082809D0886800F00C00082804D088685E
:1029900000F00C000828EBD14FF000604CF8800CE0
:1029A00002B0704780B581B01020C4F200000288E8
:1029B00030F8041CD20718BF11F0010101D101B099
:1029C00080BD40F28002C2F20002118840F2B61CC3
:1029D0004B1CC2F2000C9CF80010138040F2B8129D
:1029E000C2F200024B1C32F8111040F28C02C2F20B
:1029F000000212884FF0000E514347F20042C4F229
:102A000000028CF80030CDF800E00092009A89B204
:102A100008320092009A5BB211604FF6FE71B3F17A
:102A2000FF3FD8BF8CF800E0018001B080BD0000FE
:102A300040F21040C4F20000028830F8041CD207B3
:102A400018BF11F0010100D17047D0F8141440F202
:102A50007C020021C2F2000241611160C0F814142E
:102A60004FF6FE710180704740F61000C4F200007E
:102A7000028830F8041CD20718BF11F0010100D100
:102A8000704740F27C01C2F200010A6842F2107302
:102A900001329A4288BF00220A604FF6FE7101801F
:102AA0007047000041F20040C4F2010082890188B1
:102AB000920618D511F0200115D040F2D42CC2F2A4
:102AC000000C8188DCF8002000230132B3EB922F48
:102AD00040F2D023C2F2000318BF00221968CCF8DC
:102AE0000020013119604FF6DF710180704700004E
:102AF000FEE700002DE9F04140F61A4E40F6184C72
:102B00004FF60204C4F2020EC4F2020C4FF48055D8
:102B1000CFF6FF740226AEF800502CF804604FF494
:102B20000054AEF80050AEF80040ACF80050460635
:102B3000AEF8005054BFAEF80040ACF800404FF47F
:102B40008054ACF80040AEF800404FF400548506C5
:102B500054BFAEF80040ACF800404FF48054ACF8DD
:102B60000040AEF800404FF40054C50654BFAEF824
:102B70000040ACF800404FF48054ACF80040AEF890
:102B800000404FF40054050754BFAEF80040ACF8C5
:102B900000404FF48054ACF80040AEF800404FF4D1
:102BA0000054450754BFAEF80040ACF800404FF465
:102BB0008054ACF800408507AEF800404FF4005454
:102BC00054BFAEF80040ACF800404FF48054C0074A
:102BD000ACF80040AEF800404FF400500CBFAEF827
:102BE0000000ACF800004FF48054012901F0010806
:102BF000ACF80040AEF8004001D10021B5E001F092
:102C0000FE0500214FF400565756AEF80040B7F1CC
:102C1000FF3FFFB2CCBFAEF80060ACF800607806B2
:102C2000ACF80040AEF8004054BFAEF80060ACF81D
:102C30000060B806ACF80040AEF8004054BFAEF8F3
:102C40000060ACF80060F806ACF80040AEF8004058
:102C500054BFAEF80060ACF800603807ACF8004034
:102C6000AEF8004054BFAEF80060ACF800607807E2
:102C7000ACF80040AEF8004054BFAEF80060ACF8CD
:102C80000060B807ACF80040AEF8004054BFAEF8A2
:102C90000060ACF80060F807ACF80040AEF8004007
:102CA0000CBFAEF80060ACF80060ACF80040AEF8C5
:102CB0000040501890F90170AEF80040B7F1FF3FA6
:102CC000FFB2CCBFAEF80060ACF800607806ACF89C
:102CD0000040AEF8004054BFAEF80060ACF80060B1
:102CE000B806ACF80040AEF8004054BFAEF8006043
:102CF000ACF80060F806ACF80040AEF8004054BFF5
:102D0000AEF80060ACF800603807ACF80040AEF8F0
:102D1000004054BFAEF80060ACF800607807ACF833
:102D20000040AEF8004054BFAEF80060ACF8006060
:102D3000B807ACF80040AEF8004054BFAEF80060F1
:102D4000ACF80060F80701F10201ACF80040AEF801
:102D500000400CBFAEF80060ACF800608D42ACF8EB
:102D60000040AEF800407FF44FAFB8F1000F76D0CE
:102D700051564FF48052C8B2B1F1FF3F4FF40051A9
:102D8000AEF80020CCBFAEF80010ACF800104FF445
:102D90008051ACF80010AEF800104FF4005142061C
:102DA00054BFAEF80010ACF800104FF48051ACF8EE
:102DB0000010AEF800104FF40051820654BFAEF878
:102DC0000010ACF800104FF48051ACF80010AEF8D1
:102DD00000104FF40051C20654BFAEF80010ACF81A
:102DE00000104FF48051ACF80010AEF800104FF412
:102DF0000051020754BFAEF80010ACF800104FF4B9
:102E00008051ACF800104207AEF800104FF40051AA
:102E100054BFAEF80010ACF800104FF48051820798
:102E2000ACF80010AEF800104FF4005154BFAEF8EB
:102E30000010ACF80010C0074FF480514FF4005060
:102E4000ACF80010AEF800100CBFAEF80000ACF803
:102E500000004FF48050ACF80000AEF80000012BE9
:102E600065D141F21A40C4F202004FF4006140F211
:102E7000CE220180C2F2000213784EF21001CEF28F
:102E80000001002B1CBF4DF66003C0F203034B6032
:102E900000238B600B6843F001030B600B6803F0A9
:102EA0000113012B0ED10B6803F00113012B09D183
:102EB0000B6803F00113012B04D10B6803F001131D
:102EC000012BEBD00B684FF4006723F001030B607C
:102ED00000238B6020F8027C1278002A1CBF4BF282
:102EE000C002C0F207024A608B600A6842F0010229
:102EF0000A6000BF0A6802F00112012A0ED10A68B6
:102F000002F00112012A09D10A6802F00112012A15
:102F100004D10A6802F00112012AEBD00A6822F0FB
:102F200001020A6000228A604FF4006101804FF6BE
:102F30000000CFF6FF7002212CF80010BDE8F081F0
:102F4000F0B583B02720FFF7D7F8042001900020C8
:102F50008DF808008DF80A0003268DF80960012716
:102F60008DF80B7040F20044C4F2020401AD20461B
:102F70002946FEF78BF84FF40060019041F20040C3
:102F8000C4F202002946FEF781F801968DF8087018
:102F900020462946FEF77AF8202001900020C4F24E
:102FA00002002946FEF772F840F2C720C2F2000084
:102FB0000078012828D1FFE740F2BC20C2F20000CF
:102FC0000121017040F2BD20C2F20000017040F208
:102FD0000800C2F2000045F26422CBF6BC52026047
:102FE00040F20C00C2F200004FF27B52C3F689524D
:102FF000026040F2BE20C2F20000017040F2C02028
:10300000C2F20000017027E040F2BC20C2F20000D2
:103010000021017040F2BD20C2F20000017040F2B8
:103020000800C2F2000049F6DA72C3F68852026064
:1030300040F20C00C2F200004BF63A22C3F6BA523C
:10304000026040F2BE20C2F20000017040F2C020D7
:10305000C2F200000170FFE703B0F0BD80B582B09E
:1030600000208DF8070048F22C20C4F242200068AE
:10307000002878D1FFE79DF8070018B1FFE7FFF7B8
:1030800089F854E0FFF786F800284FD0FFE740F2B8
:103090000800C2F2000090ED000A40F2C220C2F225
:1030A0000000018801EE101AB8EEC11A40F2BE21EC
:1030B000C2F2000109786FF00A02002918BF4FF42C
:1030C000AE7202EE102AB8EEC22A20EE010A30EEED
:1030D000020ABDEEC00A10EE101A018040F20C0088
:1030E000C2F2000090ED000A40F2C420C2F20000DB
:1030F000018801EE101AB8EEC11A40F2C021C2F2E6
:10310000000109786FF01102002918BF6FF0120258
:1031100002EE102AB8EEC22A20EE010A30EE020AB0
:10312000BDEEC00A10EE101A0180FFE7FFE740F283
:10313000C220C2F20000008840F2B821C2F20001B1
:10314000088040F2C420C2F20000008840F2BA2198
:10315000C2F20001088040F2C620C2F200000178ED
:10316000013101701BE040F2C620C2F2000000787D
:10317000032801DBFFE7FFE740F2C620C2F20000B0
:103180000021017040F2B820C2F200004FF6FF713A
:10319000018040F2BA20C2F200000180FFE702B0D5
:1031A00080BD000040F2CE21C2F200010A784EF24A
:1031B0001001CEF20001002A18BF45F20822504348
:1031C000486000208860086840F00100086000BF87
:1031D000086800F0011001280ED1086800F0011005
:1031E000012809D1086800F00110012804D10868FD
:1031F00000F001100128EBD0086820F00100086001
:10320000002088607047000040F2CC21C2F200012B
:103210000A784EF21001CEF20001002A18BF1522E2
:103220005043486000208860086840F00100086052
:10323000086800F0011001280ED1086800F00110A4
:10324000012809D1086800F00110012804D108689C
:1032500000F001100128EBD0086820F001000860A0
:10326000002088607047000088B040F200304EF6C1
:103270000C51C0F2FA50CEF200014EF2100600F5E9
:103280000070CEF200060860306840F2CC2120F0D9
:1032900004003060C2F200010120087040F2CE212B
:1032A000C2F200010870FEF70FFC40F28600C2F285
:1032B0000000008849F24131884208BFFFF740FE14
:1032C00043F6300BC4F2020BDBF8140040F6200981
:1032D00040F02000CBF81400DBF80000C4F2020933
:1032E00040F00400CBF80000402040F20235A9F184
:1032F000200802AC41F20C4742F2004A0290C0F2B0
:10330000001540462146C4F20107C0F2F40A0395B5
:10331000FDF7BCFE8020CDE90180404621460395A3
:10332000FDF7B4FED9F800004EF6F31120F07060FE
:10333000C9F80000D9F8000040F00060C9F80000AA
:10334000D9F8000020F07040C9F80000D9F800005A
:1033500040F00040C9F80000B88820F44050B88020
:10336000388808400C303880388920F44070388123
:103370005BF8280C00F00C0008280DD0042828D198
:1033800041F2002AC0F27A0A23E000BFDB0F493D78
:1033900000000000000080405BF82C0C5BF82C1C47
:1033A000400241F20020C0F27A0058BF50465BF85C
:1033B0002C2C01F03F01B0FBF1F0C2F388115BF857
:1033C0002C2C4843C2F30141022202EB4101B0FB25
:1033D000F1FA5BF8280C47F6CC71C0F30310C0F685
:1033E0000001085C5BF8282C2AFA00F0C2F3822264
:1033F0008A5C5BF8282C0024C2F34232895C1922D3
:10340000C840B7F9001050434FF46132B1F1FF3FAB
:10341000C8BF4FF4E122B0FBF2F048F21F51C5F2F1
:10342000EB11A0FB01235A096FF06303B7F90050B9
:1034300012FB03000323B5F1FF3FC8BF042300FACA
:1034400003F000F13200A0FB01014FF00700C8BFFC
:103450000F2000EA511040EA021027F8040C6FF424
:10346000CC7000F5BC7027F80C0C38684EF60C5187
:1034700040F0200038603888CEF2000140F400505F
:10348000388040F20030C0F2FA50086008684FF20D
:103490003B70CFF6FF7000270F548020C6F8F8006D
:1034A000DBF8000041F2004340F02000CBF80000C0
:1034B0004FF47070C4F2020302904FF44070ADF804
:1034C0000C00012502A91846C4F202044FF00308BB
:1034D0008DF80F50FDF7DAFDDBF8000002A940F08F
:1034E0000100CBF80000DBF8100040F00050CBF8F2
:1034F00010001020029002208DF80F0020468DF859
:103500000C80FDF7C3FD47F20040C4F200000168E3
:103510001FED628A65F34B01016001681FED649B3A
:1035200041F00101016007970790079840F2B81831
:10353000083007900798C2F20008076000EE107A82
:10354000B8EEC00A20EE080A10EE100A02F074FC71
:1035500041EC100B00F074FF54EC195B51EC100BB4
:103560002A46234601F09AFF2A46234601F016FC1C
:1035700001F0F8FE28F81700781C00EE100AB8EEEB
:10358000C00A20EE080A10EE100A08EB470A02F003
:1035900053FC41EC100B00F053FF51EC100B2A468A
:1035A000234601F07BFF2A46234601F0F7FB01F09A
:1035B000D9FEAAF80200B81C00EE100AB8EEC00A44
:1035C00020EE080A10EE100A02F036FC41EC100B57
:1035D00000F036FF51EC100B2A46234601F05EFF47
:1035E0002A46234601F0DAFB01F0BCFEAAF80400EB
:1035F000F81C00EE100AB8EEC00A20EE080A10EE21
:10360000100A02F019FC41EC100B00F019FF51EC0C
:10361000100B2A46234601F041FF2A46234601F0BB
:10362000BDFB01F09FFE0437802FAAF8060085D16C
:10363000DBF8000040F61A4A40F00100CBF8000029
:10364000DBF8140002A940F48070CBF81400C0200D
:10365000029003208DF80C0000208DF80F00002050
:10366000C4F20200C4F2020A0024FDF70FFD5BF869
:103670000C0C43F2E00240F480704BF80C0C5BF849
:103680000C0CCFF6FC7220F480704BF80C0C42F25C
:103690000800C4F20100D0F8FC124EF60C531140A1
:1036A00041F4803141F4A061C0F8FC1250F8041CD0
:1036B0004FF6FF62CFF6FF42114040F8041C01684C
:1036C0004FF0FF310160416A312221F47001416203
:1036D0000168CEF2000341F001010160DBF8100047
:1036E000012740F00100CBF810004FF08040018826
:1036F00021F45C7101800421C4F200018A62052278
:103700008A8401220A820A8822F070020A800A88CA
:1037100042F020020A800A8942F001020A810188EF
:103720000F2241F0010101801868072121EA1020D1
:10373000C0F1040122FA00F0C9B207FA01F100F069
:10374000030008434FF210710001CFF6FF71585487
:103750004FF08050C6F8F000DBF8140002A940F0EA
:103760000800CBF814004020029040F20120ADF890
:103770000C0009F5787001278DF80E400090FDF7D8
:1037800085FC40F294044625C2F200044FF48C00FC
:10379000C0F22805C4E9000547F6DC70C0F6000059
:1037A000E0601020278340F67D5749F6317B208268
:1037B000C0F600072046A4F808B04FF01008676173
:1037C000FDF7BAFE5021C0F24601204640F81C1F0A
:1037D00047F6DE71C0F60001A16202212562A4F85D
:1037E00024B0A4F82C80A1862763FDF7A5FEA021B4
:1037F000C0F24601204640F8381F47F6E071C0F697
:10380000000161640321E563A4F840B0A4F8488096
:10381000A4F85010E764FDF78FFE4FF4F001204646
:1038200040F8541F47F6E271C0F6000121660421FA
:10383000A565A4F85CB0A4F86480A4F86C10A76631
:10384000FDF77AFE5021C0F27801204640F8701F43
:1038500047F6E471C0F60001E16705216567A4F849
:1038600078B0A4F88080A4F88810C4F88470FDF7BC
:1038700063FEA021C0F27801204640F88C1F47F675
:10388000E671C0F60001C4F898100621C4F8905003
:10389000A4F894B0A4F89C80A4F8A410C4F8A07074
:1038A000FDF74AFE4FF42A01204640F8A81F47F6CC
:1038B000E871C0F60001C4F8B4100721C4F8AC5098
:1038C000A4F8B0B0A4F8B880A4F8C010C4F8BC70D4
:1038D000FDF732FE5021C0F2AA01204640F8C41F75
:1038E00047F6EA71C0F60001C4F8D0100821C4F808
:1038F000C850A4F8CCB0A4F8D480A4F8DC10C4F864
:10390000D870FDF719FEA021C0F2AA01204640F8A8
:10391000E01F47F6EC71C0F60001C1600921456067
:10392000A0F808B0A0F8108001834761FDF704FEFD
:1039300040F2901078225021C2F20000C0F2FA0248
:10394000C0F22801C0E900214FF6676101810FF63E
:10395000B821C1600A21A0F8108001834761FDF7FA
:10396000EBFD1420FCF7A8FC40F29001C2F200012C
:10397000086046F24851C6F66C4142F26F0246F6C4
:103980007233C6F24412C7F2612380E80E0063214D
:103990008181FDF705FF43F63001C4F20201486959
:1039A00041F2004B40F0580048614FF40060029033
:1039B000002002AFC4F2020B40F201258DF80E0088
:1039C00058463946ADF80C50FDF760FB38200290A0
:1039D0000BF580603946ADF80C50FDF757FB4FF4FE
:1039E0006050029000983946ADF80C5040F2012525
:1039F000FDF74CFB40F200080320C4F202080290DD
:103A000008F580603946ADF80C50FDF73FFB3020DB
:103A1000029001983946FDF739FB4FF400454046C6
:103A200039460295FDF732FB0220A8F818044FF43E
:103A30008050AAF8000040F21A404FF400631022B0
:103A4000C4F20200012141F61A0CABF81A30A8F8B2
:103A50001A5029F8062C018020204FF40051C4F29E
:103A6000020C29F8060CAAF800100821ACF8001086
:103A7000ACF8002040F2CE22AAF80030ACF80000EA
:103A8000C2F20002107800281CBF4EF63040C0F28F
:103A9000010070600020B060306840F001003060CC
:103AA000306800F0011001280ED1306800F00110DC
:103AB000012809D1306800F00110012804D13068D4
:103AC00000F001100128EBD0306841F2004320F0F3
:103AD0000100306000202021C4F20203B060A3F88E
:103AE0001814117800291CBF40F62031C0F22001C3
:103AF0007160B060306840F001003060306800F004
:103B0000011001280ED1306800F00110012809D100
:103B1000306800F00110012804D1306800F0011075
:103B20000128EBD03068002520F00100306020270C
:103B30001020B560ACF800708DF8080002AA0020D3
:103B400001210023FEF7D6FF42F2003BD020C0F255
:103B5000350B069006AA012003210023CDF81CB0E6
:103B60004FF0D008FEF7C6FF07AA03200321002369
:103B7000FEF7C0FF47F61420C4F2E170029002AADB
:103B8000042004210123FEF7B5FF02AA0020012131
:103B900000238DF80870FEF7ADFF06AA012003216F
:103BA0000023CDE9068BD027FEF7A4FF07AA032048
:103BB00003210023FEF79EFF41F60560C5F2B81011
:103BC000029002AA042004210123FEF793FF4FF084
:103BD000400802AA0020012100238DF80880FEF78A
:103BE00089FF06AA012003210023CDE9067BFEF709
:103BF00081FF07AA032003210023FEF77BFF41F288
:103C0000FF60ADF8140076208DF8160005AA062096
:103C100003210023FEF76EFF47F61420C4F2E17083
:103C2000029002AA042004210123FEF763FF8020F2
:103C30008DF8080002AA002001210023FEF75AFF98
:103C400043F21F00079040F24030C0F2300006906F
:103C500040F20030C0F2FF00CDE9047004AA012058
:103C600003210023FEF746FF06AA032003210023B9
:103C7000FEF740FF05AA062003210023FEF73AFFC6
:103C800007AA0A2004210023FEF734FF48F6027039
:103C9000C2F65C00029002AA042004210123FEF770
:103CA00029FF40F2B82B40F28C07C2F2000BC2F29F
:103CB000000703E0417C002900F0968348F21821B8
:103CC000C4F24221C868A8B1886898B1486888B130
:103CD000086878B140F27B00C2F20000057040F243
:103CE0007800C2F20000058040F28200C2F20000BB
:103CF000057041E0C86878B1886878B1486840F2DA
:103D00007B02C2F20002A0B10868A0B140F27A00C2
:103D1000C2F20000007814E0012000E0022040F22E
:103D20007A01C2F2000140F27B020870C2F2000286
:103D300007E0032000E0042040F27A01C2F2000113
:103D400008701178884211D140F27803C2F2000362
:103D5000198801318AB2198040F28201C2F2000151
:103D6000012A88BF0020087006E000BF40F27801F9
:103D7000C2F200010D801070FFF770F940F2880167
:103D8000C2F20001BBF800000988884210D240F25C
:103D9000BA21C2F200010988B1F58C7F08D96328E5
:103DA0001AD840F28200C2F20000022101700BE03A
:103DB00040F28200C2F200000078032822D00228DC
:103DC00002D0012810D027E040F28401C2F20001A5
:103DD0000888013808801FE0B3280DD840F282011E
:103DE0000120C2F20001087040F28401C2F2000119
:103DF0000888013008800FE040F282010320C2F2FF
:103E00000001087040F20402C2F200021068411C76
:103E10000228C8BF0121116040F28A02C2F20002EA
:103E20001088013081B2632988BF0020108040F2E1
:103E3000AC10C2F200004FF47841018040F2CC2077
:103E400040F2B011C2F20000C2F20001007809682D
:103E50000022002818BF41F69C0008E033680432B5
:103E600023F00103202A3360B56000F0AD8001FA31
:103E700002F3DB0F07BFAAF800800023A9F8F8833C
:103E800001233B607060B560336843F00103336029
:103E9000336803F00113012B0ED1336803F00113D3
:103EA000012B09D1336803F00113012B04D13368CE
:103EB00003F00113012BEBD0336823F001033360CF
:103EC00042F0010301FA03F3DB0FB56007BFAAF864
:103ED00000800023A9F8F88301233B607060B5607F
:103EE000336843F001033360336803F00113012B9F
:103EF0000ED1336803F00113012B09D1336803F0AD
:103F00000113012B04D1336803F00113012BEBD013
:103F1000336823F00103336042F0020301FA03F334
:103F2000DB0FB56007BFAAF800800023A9F8F8836B
:103F300001233B607060B560336843F00103336078
:103F4000336803F00113012B0ED1336803F0011322
:103F5000012B09D1336803F00113012B04D133681D
:103F600003F00113012BEBD0336823F0010333601E
:103F700042F0030301FA03F3DB0FB56007BFAAF8B1
:103F800000800023A9F8F88301233B607060B560CE
:103F9000336843F001033360336803F00113012BEE
:103FA0007FF45CAF336803F00113012B7FF456AF4D
:103FB000336803F00113012B7FF450AF336803F033
:103FC0000113012BE8D049E7AAF80080BBF80000F4
:103FD00021883D60884211D3A288114481420DD3CB
:103FE00040F2BA20C2F2000000886188884205D3FE
:103FF000E2881144814280F0438100BF607C012847
:1040000003D120466574FDF797FABBF80000A18B39
:10401000884211D3228C114481420DD340F2BA2040
:10402000C2F200000088E18B884205D3628C114403
:10403000814280F0358100BF94F82D00012805D120
:1040400004F11C0084F82D50FDF776FABBF800004F
:10405000218F884210D3A28F114481420CD340F2A9
:10406000BA20C2F200000088618F884204D3E28F38
:104070001144814280F0278194F84900012805D13C
:1040800004F1380084F84950FDF756FABBF80000F7
:10409000B4F85410884213D3B4F858201144814224
:1040A0000ED340F2BA20C2F200000088B4F85610D5
:1040B000884205D3B4F85A201144814280F0178118
:1040C00094F86500012805D104F1540084F8655086
:1040D000FDF732FABBF80000B4F87010884213D331
:1040E000B4F87420114481420ED340F2BA20C2F2D7
:1040F00000000088B4F87210884205D3B4F8762026
:104100001144814280F0078194F88100012805D193
:1041100004F1700084F88150FDF70EFABBF800003E
:10412000B4F88C10884213D3B4F890201144814223
:104130000ED340F2BA20C2F200000088B4F88E100C
:10414000884205D3B4F892201144814280F0F8806F
:1041500094F89D00012805D104F18C0084F89D504D
:10416000FDF7EAF9BBF80000B4F8A810884213D3B1
:10417000B4F8AC20114481420ED340F2BA20C2F20E
:1041800000000088B4F8AA10884205D3B4F8AE2025
:104190001144814280F0E98094F8B900012805D1EA
:1041A00004F1A80084F8B950FDF7C6F9BBF8000087
:1041B000B4F8C410884213D3B4F8C8201144814223
:1041C0000ED340F2BA20C2F200000088B4F8C61044
:1041D000884205D3B4F8CA201144814280F0DA80C5
:1041E00094F8D500012805D104F1C40084F8D55015
:1041F000FDF7A2F9BBF80000B4F8E010884213D331
:10420000B4F8E420114481420ED340F2BA20C2F245
:1042100000000088B4F8E210884205D3B4F8E62024
:104220001144814280F0CB8094F8F100012805D13F
:1042300004F1E00084F8F150FDF77EF940F29010AF
:10424000C2F20000BBF8003001888B4210D3828894
:10425000114499420CD340F2BA21C2F200010B88FA
:1042600041888B4204D3C28811449942BFF422ADE5
:10427000417C01297FF422AD4574FDF75DF91DE510
:10428000607C00287FF4C1AE012060742046FDF7F9
:1042900053F9616900293FF4B8AE208B8847B4E632
:1042A00094F82D0000287FF4D1AE012084F82D0071
:1042B00004F11C00FDF740F9216B00293FF4C6AE64
:1042C000A08E8847C2E694F8490000287FF4DEAE4D
:1042D000012084F8490004F13800FDF72DF9E16C64
:1042E00000293FF4D3AEB4F850008847CEE694F8E6
:1042F000650000287FF4EEAE012084F8650004F12B
:104300005400FDF719F9A16E00293FF4E3AEB4F8AB
:104310006C008847DEE694F8810000287FF4FEAE4A
:10432000012084F8810004F17000FDF705F9D4F84C
:10433000841000293FF4F2AEB4F888008847EDE617
:1043400094F89D0000287FF40DAF012084F89D00B3
:1043500004F18C00FDF7F0F8D4F8A01000293FF428
:1043600001AFB4F8A4008847FCE694F8B90000282F
:104370007FF41CAF012084F8B90004F1A800FDF718
:10438000DBF8D4F8BC1000293FF410AFB4F8C0003B
:1043900088470BE794F8D50000287FF42BAF012065
:1043A00084F8D50004F1C400FDF7C6F8D4F8D8109D
:1043B00000293FF41FAFB4F8DC0088471AE794F8EF
:1043C000F10000287FF43AAF012084F8F10004F1F5
:1043D000E000FDF7B1F8D4F8F41000293FF42EAF57
:1043E000B4F8F800884729E701214174FDF7A4F8E3
:1043F00040F29010C2F20000416900293FF45EAC27
:10440000008B8847FFF75ABC537461727400000038
:1044100003B401984100009850EAC12018BF04205D
:104420004A0D18BF40F0010040F2FF72B2EB515F3D
:1044300008BF40F00200012808BF052002B0704705
:1044400010B52F499FED2C1B2DED020B84B0059864
:1044500020F000408842DCBF00209DED040B32DDDF
:104460002849884209D1049840B94FF00100FCF76F
:1044700045FA00F03DFC06B010BD05DB9DED040BD8
:1044800000F02AFC06B010BD68469DED040B00F05C
:104490003BF810F0030011D0012818D09DED021B4D
:1044A0009DED000B02281AD000F04AFA51EC100BD7
:1044B00000F068FC06B041EC100B10BD9DED021B36
:1044C0009DED000B012000F06FFB06B010BD9DEDCF
:1044D000021B9DED000B00F033FA06B010BD012069
:1044E00000F062FB51EC100B00F04CFC06B041EC0C
:1044F000100B10BD000000000000000000000000D4
:10450000FB21E93F0000F07F2DE9F14F04462DED3E
:10451000020B2DED088B8AB09FEDE70B80ED020BAF
:10452000139EE74826F0004585420ADC9DED120BFC
:10453000002084ED000B0AB0BDEC088B03B0BDE891
:10454000F08FE0489FEDE0AB9FEDE1BBA84247DD77
:10455000E14F9FEDE39B9FEDE48B9DED120B53EC40
:104560001A2B51EC100B002E1CDD01F061F941EC0F
:10457000100BBD4208D053EC1B2B51EC100B01F07B
:1045800057F9C4E900010BE053EC192B51EC100B67
:1045900001F04EF953EC182B01F04AF9C4E900017F
:1045A0000120C8E700F0FAFB41EC100BBD4208D037
:1045B00053EC1B2B51EC100B00F0F0FBC4E9000195
:1045C0000BE053EC192B51EC100B00F0E7FB53EC14
:1045D000182B00F0E3FBC4E900014FF0FF30AAE71D
:1045E000C348A84279DB9DED120B51EC100B00F093
:1045F000A6FB41EC180B9FEDC00B53EC102B00F009
:104600004DFF9FEDBF1B53EC112B00F0C7FB00F0DB
:10461000A9FE074600F00AFF41EC190B53EC1A2BD8
:1046200000F03CFF53EC182B01F0DAF841EC180BCA
:1046300053EC1B2B51EC190B00F030FFDFF8C8A234
:1046400041EC100B4FEA15580125FA4453EC102B9E
:1046500051EC180B01F0ECF8032DC4E900013DD03A
:10466000C1F30A5005EB4511A8EB00001139814256
:1046700034DA0AEB051BB0EE48AA9BED000BF0EE16
:1046800068AA53EC102B51EC190B00F007FF41EC1A
:104690001B0B51EC1A0B53EC1B2B01F0C9F841EC2E
:1046A000180B51EC1A0B53EC182B01F0C1F853EC1A
:1046B0001B2B01F0BDF89BED020B41EC1A0B53ECE8
:1046C000102B51EC190B00F0E9FE53EC1A2B01F002
:1046D000AFF841EC100B6D1CB8E70EE0002EA8BF40
:1046E0003846BFF628AF94ED000B51EC100B00F0EC
:1046F00049FBC4E9000178421DE7C6F3130040F40A
:10470000801EC6F30A50A0F2F530471100F01F05D5
:10471000C5F12000DDF848B0089000200690079011
:104720000520EC467949002D07EB0002794408BFCB
:1047300051F8221009D051F8223001EB8201AB4030
:104740004A68089922FA01F11943A1FB0E26A1FB40
:104750000B131A449A4234BF0123002303EB0608CB
:104760000CEB8003D3E901A60E448E4234BF012135
:10477000002192448A4411B1924502D903E0924546
:1047800001D2012100E00021C3E901A641444CF817
:104790002010011EA0F10100C4DC029800F10050BD
:1047A000850F0298DDE903678000DDF8148000F0D2
:1047B0003DFE41EC1A0B304600F05CFE9FED541BB1
:1047C00053EC112B00F06AFE41EC1B0B384600F055
:1047D00051FE9FED511B53EC112B00F05FFE41EC9D
:1047E000180B404600F046FE9FED4D1B53EC112B7D
:1047F00000F054FE41EC190B51EC180B53EC192B43
:1048000000F0CCFA53EC1B2B00F0C8FA53EC1A2B37
:1048100000F0C4FACDE90801002008909DED080BD6
:1048200053EC1A2B51EC100B01F002F853EC1B2B3C
:1048300000F0FEFF53EC182B00F0FAFF53EC192B9D
:1048400000F0CEFF9FED381B53EC112B00F026FE3D
:104850009FED370B41EC180B53EC102B9DED080B23
:1048600051EC100B00F01AFE53EC182B00F096FAE6
:104870009FED310B41EC180B53EC102B9DED080B09
:1048800051EC100B00F00AFE53EC182B00F086FAE6
:1048900041EC100B139810F0004F06D06D4251EC14
:1048A000100B00F06FFA41EC100B284684ED000B62
:1048B00041E60000000000000000000000000000D1
:1048C000FB21E93F7CD9024000004054FB21F93F25
:1048D0003163621A61B4D03DFB21F93F0000000052
:1048E0000000601A61B4D03D7370032E8A19A33B97
:1048F000FB2139410000000083C8C96D305FE43FEF
:10490000000000000000E03F521C0000A01B00005F
:10491000000000000000103E000000000000103CFD
:10492000000000000000103A182D4454FB21F93D0E
:104930003326A611460B113C00000054FB21F93D23
:1049400010B52DED040B2DED088B82B0B0EE419A21
:10495000F0EE619A0B9820F000449FED4BABB4F160
:10496000795F11DA9DED0A0B51EC100B00F0FAFCA7
:10497000002801BFB0EE4A0AF0EE6A0A02B0BDECB0
:10498000088B04BF04B010BD9DED0A0B53EC102B37
:1049900051EC100B00F082FD41EC180B3C48062155
:1049A000B0EE480AF0EE680A784400F081F853EC63
:1049B000182B51EC100B00F071FD9DED0A0B41EC32
:1049C0001B0B53EC192B51EC100B00F067FD41EC65
:1049D000190B53EC1B2B51EC180B00F05FFD53EC43
:1049E000192B00F025FF9FED2C0B41EC190B53EC1C
:1049F000102B51EC180B00F051FD41EC100B284826
:104A0000844210DA53EC192B51EC100B00F010FF1C
:104A100053EC1A2B00F0E4FE41EC100B02B0BDEC9D
:104A2000088B04B010BD1F48A042BCBF9FED1E1BE9
:104A30008DED001B06DBA4F5001001900020009016
:104A40009DED001B51EC100B53EC112B00F0F0FE10
:104A50009DED000B41EC180B53EC102B51EC1A0B95
:104A600000F0E6FE41EC1A0B53EC192B51EC180B3D
:104A700000F0DEFE53EC1A2B00F0B2FE41EC100BFE
:104A8000CCE7000000000000000000000000F03F44
:104A9000C418000000000000000000000000E03F1B
:104AA0003333D33F0000E93F000000000000D23F55
:104AB00070B504462DED028B4D1E00EBC500B0EE27
:104AC000408AF0EE608A90ED000B35F0060017D0BA
:104AD00053EC182B51EC100B00F0E0FC41EC100BE8
:104AE0006D1E04EBC50090ED001B51EC100B53EC58
:104AF000112B00F053F941EC100B35F00600E7D113
:104B0000022D36D0042D1CD0062D1CBFBDEC028B0F
:104B100070BD53EC182B51EC100B00F0BFFC94ED62
:104B20000A1B53EC112B00F039F953EC182B00F051
:104B3000B5FC94ED081B53EC112B00F02FF941EC60
:104B4000100B53EC182B51EC100B00F0A7FC94ED5C
:104B5000061B53EC112B00F021F953EC182B00F03D
:104B60009DFC94ED040B53EC102B00F017F941EC75
:104B7000100B53EC182B51EC100B00F08FFC94ED44
:104B8000021B53EC112B00F009F953EC182B00F029
:104B900085FC94ED001B53EC112B00F0FFF8BDECED
:104BA000028B41EC100B70BD31B504462DED040BAA
:104BB0002DED0A8BB0EE41BAF0EE61BA0B989DED87
:104BC0000A0B20F00040B0F1795F0DDA51EC100BC8
:104BD000FFF71EFC042808BF00F09AF89DED0A0BB1
:104BE000BDEC0A8B05B030BD53EC102B51EC100B13
:104BF00000F054FC41EC180B9DED0A0B53EC182B04
:104C000051EC100B00F04AFC41EC190B2C48B0EEB3
:104C1000480AF0EE680A05217844FFF749FF9FED46
:104C20002ACBB0EE40AAF0EE60AA9CB353EC1C2B4A
:104C300051EC190B00F032FC41EC1C0B53EC1A2B1D
:104C400051EC190B00F02AFC9FED210B41EC190BE4
:104C500053EC102B51EC1B0B00F020FC53EC192BE8
:104C600000F0E6FD53EC182B00F018FC53EC1B2B66
:104C700000F0DEFD53EC1C2B00F0DAFD9DED0A1B6D
:104C800053EC112B00F0ACFDBDEC0A8B05B041ECF0
:104C9000100B30BDFFE753EC1A2B51EC180B00F052
:104CA000FDFB53EC1C2B00F079F853EC192B00F0B2
:104CB000F5FB9DED0A1B53EC112B00F06FF8E3E7B9
:104CC0005417000000000000495555555555C5BF03
:104CD000000000000000E03F10B553EC102B51EC39
:104CE000100B00F05BF841EC100B10BD0000000051
:104CF0009FED050B10B553EC102B51EC100B00F091
:104D000073F941EC100B10BD000000000000000022
:104D10009FED050B10B553EC102B51EC100B00F070
:104D2000BDFB41EC100B10BD0000000000000010A6
:104D300030380A2801D2012070470020704782B025
:104D4000CDE9000121F0004001909DED000B02B083
:104D500051EC100B7047000010B500290AD00878FC
:104D6000002807D005487844FBF74AFF002801D007
:104D7000002010BD0248784410BD0000AA32000097
:104D8000A232000081F00041704780F0004070477F
:104D900021F00041704720F00040704710B5DFF867
:104DA00040E211F5801C13F580141EEA4C0F18BF69
:104DB0001EEA440F00F0C88091EA030F48BF83F059
:104DC000004300F14A85841A71EB030C05D21219D5
:104DD00043EB0C03001B61EB0C014FEA1154A4EBF5
:104DE000135C21EA045123EA6E0343F48013DCF1DF
:104DF000200E53D322FA0CFE10EB0E0023FA0CFE09
:104E000041EB0E01CCF1200E03FA0EFE10EB0E006A
:104E1000CCF1200E51F10001B1F5801F53D201EB0E
:104E2000045112FA0EF2BDE8104008BF7047F1EECF
:104E300010CA1CF4400F1ED192F0000F4FF0110C5D
:104E40004CF0804C40F10287401C38BF5FEA4202C0
:104E500040F0FC86002814BF20F0010041F1000161
:104E60004FEA410313F5001F24BF4CF0805CA1F111
:104E7000C04100F0EBBE11F0004F54BF1CF4000F16
:104E80001CF4800F4FF0110C4CF0804C40F0DE868B
:104E9000401CC0F0DB8641F10001E1E7012A43EB51
:104EA0000302ACF1200CDCF11F0E32BF4FF0000EFC
:104EB00023FA0CF310EB030041EB0451B4EB115F48
:104EC000AFD0A1EB045101F58011490801EB045169
:104ED0005FEA300002FA0EF242EA42025FEA320270
:104EE00013D0BDE81040F1EE10CA1CF4400F1AD1E7
:104EF00092F0000F4FF0110C4CF0804CB0D5401CDC
:104F000038BF5FEA4202ABD1A4E7BDE810404FEAE8
:104F1000410313F5001F38BF7047DFF8C8C0A1F187
:104F2000C04100F093BE11F0004F54BF1CF4000FBD
:104F30001CF4800F4FF0110C4CF0804C90D1401CB1
:104F40008ED341F100018BE74EF4001E3EEA41048E
:104F500018BF3EEA430439D091EA030F48BF83F0FB
:104F6000004300F17785841A71EB030C05D2121906
:104F700043EB0C03001B61EB0C014FEA1154A4EB53
:104F8000135C52EA430E13D05FEA445E21EA0451F7
:104F90001CBF23F00043ACF1010C7FF428AFBDE847
:104FA0001040801841EB03014FF0110C00F039BDA7
:104FB0005FEA445EBDE8104018BF704750EA410CFC
:104FC00008BF70474FF0110C00F02BBDBDE810403A
:104FD00070B500F043FB00BF64FBBE3E110000044F
:104FE0000000C0FF110000102DE9C04130B4DFF80F
:104FF00064C33CEA111418BF3CEA131400F04C815E
:105000001CEA111481EA030544EAD57418BF1CEAAE
:10501000131500F01E81A4EB050404F17F7404F560
:1050200000344FF0004545EAC12145EAC32341EA77
:10503000505143EA52534FEAC0204FEAC2229942EC
:1050400008BF904200F0D1804FEA13650FF20426AA
:10505000765D4FEA134506FB05F7C7F1807706FB3F
:1050600007F74FEAD737A7FB03687642A7FB06CEC0
:10507000C8F5803838BFA8F1010807FB08E6A6FB91
:10508000028C4FF0000EE6FB03CEDCF1000CCEF1FB
:10509000004E38BFAEF1010EA6FB0C584FF00007D2
:1050A000E6FB0E87A1FB08C6A0FB07CE16EB0E069B
:1050B0004FF0000545F10005E1FB076515F1E04EF5
:1050C0007EBFA4F580345FEA46066D4116F1800785
:1050D00045F100054FEA172747EA05674FEA15250E
:1050E000F1EE10CA1CF4400F37D14FEA4666A6F124
:1050F0005E46B6F1085F30D9B4F1FE6F2DD8384660
:1051000005EBC47124F0010C01EB0C11BCF1FE6F36
:10511000DFF844C202D8F0BCBDE8004140F29685F9
:1051200024425CBF01F5801E9EEAC47F02D4F0BC1D
:10513000BDE8004140F18A85244200F17880A1F168
:10514000C041DFF818C256EA080E18BF4CF0804C78
:10515000F0BCBDE8004100F079BD4FEAD02040EA44
:1051600041504FEAD1214FEAD22242EA43524FEA5C
:10517000D323A7FB028607FB036605FB02661EEA34
:105180000E0F58BFA6EB0056B6EB00564FEA520E74
:105190004EEAC37E18EB0E0E56EB530E05D518EBF8
:1051A00002085E417F1C55F1000556EA080E24D026
:1051B0001CF4400FA3D014F0010F18BF4FEA4C0CA1
:1051C0001CF4000F08D0364299D4B8EB02089E4177
:1051D0007F1E75F1000592E7364290D518EB020864
:1051E0005E417F1C55F1000589E74FF480154FF0B3
:1051F00000074FF000064FF00008384605EBC47179
:1052000024F0010C01EB0C11BCF1FE6F02D8F0BCD4
:10521000BDE800811CEA0C0F5CBF01F5801E9EEA10
:10522000C47F02D4F0BCBDE80081244287D501F1DF
:10523000C04156EA080C1CBF06F0004C4CF0804CF4
:105240004CF0005C4CF0140CF0BCBDE8004100F0E8
:105250003FBC0CEA131550EA410E0BD052EA430E44
:1052600013D000F07EFA641B240486EA460644EA62
:10527000D674D2E652EA430E00F0258081EA03019B
:1052800001F00041F0BCBDE80081F0BCBDE8004188
:10529000DFF8CCC000F0DABCF0BCBDE8004170B56E
:1052A00000F0DCF9097EFC3E1400000400F007B8B1
:1052B0004FF0000081EA030101F00041704781EAEC
:1052C000030100F086BAF0BCBDE800415FF828C0D9
:1052D00000F0BCBCFFFDFBF9F7F5F4F2F0EEEDEBEE
:1052E000E9E8E6E4E3E1E0DEDDDBDAD8D7D5D4D3E4
:1052F000D1D0CFCDCCCBCAC8C7C6C5C4C2C1C0BF30
:10530000BEBDBCBBBAB9B8B7B6B5B4B3B2B1B0AF35
:10531000AEADACABAAA9A8A8A7A6A5A4A3A3A2A119
:10532000A09F9F9E9D9C9C9B9A99999897979695D4
:1053300095949393929191908F8F8E8E8D8C8C8B70
:105340008B8A8989888887878685858484838382F8
:10535000828181800000FF071400004014000010CB
:105360001400000880B54FEA41034FEA5353A3F5F8
:105370008063D3F11E03C8BFD3F1210C1FDD4FF0B2
:10538000004242EAC12242EA505232FA03FC62FA77
:1053900003F787EA0C0757EAC0270BD032FA03FC61
:1053A0008CEAE17CACEBE170DFF878C0BDE88040CE
:1053B00000F04CBC8CEAE17CACEBE17080BD50EAC3
:1053C000410C00D180BD102B07DD4FF00000DFF84D
:1053D00054C0BDE8804000F039BC03F5787CBCF1D6
:1053E000FF3F14D0002B02BF7FEA210C5FEA013C93
:1053F0005FEA505C05D100284FF00040D4D100D1C5
:1054000080BDDFF824C0BDE8804000F01FBCBDE8CF
:10541000804070B500F022F9000000BFC80003040E
:1054200080B5DFE7C8000240C800020410F0004267
:1054300048BF4042B0FA80F310FA03F10AD0C3F13A
:105440001D0303F5806302EB03524FEA415002EB68
:10545000D12170474FF000007047B1FA81F201FA94
:1054600002F1C2F11D0203EB02534FEA415003EB7C
:10547000D1217047B0FA80F310FA03F10AD0C3F1DA
:105480001D0303F580634FEA03524FEA415002EBDC
:10549000D12170474FF000007047000070B5DFF871
:1054A000B4C11CEA111E1EBF1CEA13159EEA0C0FA4
:1054B00095EA0C0F00F0948081EA03044EEAD47E52
:1054C000AE4421EA4C1123EA4C1341F4801143F419
:1054D0008013AEF17F7EA1FB024CA0FB0365361961
:1054E00055EB0C05A1FB034C4CF10003A0FB021C87
:1054F00016EB0C06654153F10003094218BF46F054
:10550000010613F4007F0BD14FEA03314FEA053057
:1055100041EA155140EA165034036FF003020AE0E5
:105520004FEAC3214FEAC52041EA555140EA56509F
:10553000F4026FF0020202EB2E4201EB025585EA03
:10554000CE71264627D00546F1EE10CA1CF4400C59
:1055500014D15FEA440C18BF24F0004450F100005D
:1055600041F1000120EAD47040F2FD7C624517D27F
:10557000DFF8E4C0BDE8704000F068BB5FEACE74BD
:1055800054BF1CF4000F1CF4800F08BF10F1010081
:1055900041F10001E8E740F2FE7C624504D270BDB3
:1055A00008BF11F4801FE3D0A84214BF4FF080441D
:1055B0004FF04044002E08BF0024BEF1806FD8BFDA
:1055C00001F1C041A8BFA1F1C04144F0130CA8BF34
:1055D0004CF0805CBDE8704040F37A8200F036BB4E
:1055E0000CEA13159EEA0C0F18BF95EA0C0F19D0A0
:1055F00091EA030F48BF4EF0010E50EA410418BF74
:1056000052EA430409D000F0ACF864194FEA044EA2
:1056100086EA46064EEAD67E5BE74FF000004FEA88
:10562000CE7170BD00F01AF88900013E130000042D
:1056300000F005B800F007B852EA430C06D081EA42
:10564000030100F0C6B850EA410CF8D15FF824C05D
:1056500000F0FCBA0000FF07130000400EF1020E3C
:105660002EF0030E5EF8046B012841EB010414F5E3
:10567000001418BFB4F5801F23D3364208D4012A82
:1056800043EB030515F5001518BFB5F5801F18D3BA
:1056900001EB010C1CF5801F16D2364204D403EB3B
:1056A000030C1CF5801F0FD2002C10D14FEAD17CC7
:1056B0000CEB4C0C0CF1020C002D08BF4CEBD37C16
:1056C00007E04FF0090C04E04FF0080C01E04FEA4E
:1056D000D37C0CEB4C050EF1040E26FA05F606F011
:1056E0000706B6F1040C06D20EEB860CBDE870403E
:1056F0004CF0010C6047DFE80CF0222413025EF846
:1057000004CC1B2D08D1002C88BFB4F5801F34BFFA
:105710004CF4804C4CF4004CBDE8704000F096BA5C
:10572000002C88BFB4F5001F24BF1946104670BD79
:105730004FF00041A1F500214FF0000070BD194667
:105740001046012851EB010418BFD4F5001484BFA2
:105750005EF804CC2CF0806CBDE8704000F25582FD
:10576000704780B54FF003065C004FEA3606640DC3
:105770004FEA03334FEA133318BF43F480131CD1AD
:1057800004F1010453EA125E02BF13460022203CDA
:105790001B4202BF130B1205143CB3FA83FEAEF199
:1057A0000B0E03FA0EF3A4EB0E04CEF1200C22FA3A
:1057B0000CFC43EA0C0302FA0EF20FB40CBC03BC5F
:1057C00016F0010F18BF2546CED180BD80B5012649
:1057D000F3E70808A0F500114FEA31017047000017
:1057E00010B5DFF848E011F5801C13F580141EEAAF
:1057F0004C0F18BF1EEA440F09D091EA030F81F045
:1058000000413FF5E0AA83F0004300F026B881EAAA
:10581000030180EA020083EA010382EA000281EACE
:10582000030180EA020000F006B900BF0000C0FFDB
:1058300010B5DFF898E211F5801C13F580141EEA0C
:105840004C0F18BF1EEA440F00F0F58091EA030FD9
:1058500048BF83F000433FF5B6AA841A71EB030CEE
:1058600007D28CF0004C121943EB0C03001B61EBC8
:105870000C014FEA1154A4EB135C21EA045123EA12
:10588000AE035242C3EBAE0338BF5B1EDCF1200E09
:1058900048D322FA0CFE10EB0E0043FA0CFE41EB4B
:1058A0000E01CCF1200E03FA0EFE10EB0E00CCF12F
:1058B000200E51F100014CD401EB045112FA0EF20A
:1058C000BDE8104008BF7047F1EE10CA1CF4400F4D
:1058D00014D192F0000F4FF0120C4CF0804C40F1BC
:1058E000B581401C18BFB2F1004F40F0AF810028D5
:1058F0000CBF491C20F0010000F0A8B911F0004FC6
:1059000054BF1CF4000F1CF4800F4FF0120C4CF02D
:10591000804C40F09B81401C40F0988141F1000197
:1059200000F094B912EB020E43EB030218BF4FF0E4
:10593000010E4EEA4202ACF1200CDCF11E0E4BD9F6
:1059400043FA0CFE10EB0E00CCF11E0E51F1FF31AC
:10595000B2D50EF1010E12FA0EFE404141EB0101EB
:1059600001EB445C5FEA5C5C06D901EB04515FEA41
:105970000E02BDE81040A5E73DD24FEAD42C24F436
:10598000006411F500111AD0B1FA81F20B3AA41A91
:10599000A41ED2F12003914030FA03F31943904042
:1059A00001EBCC7101EB0451002CBDE81040A8BF05
:1059B000704701F1C0414FF0120C00F089B8B0FA05
:1059C00080F310FA03F101D1BDE810401BD0E41AB6
:1059D000173C4805C90AE3E7401E01EB045161F199
:1059E0000001BDE810405FF0FF326BE701EB0451AE
:1059F000BDE81040704749104FEA300001EB0451F8
:105A0000BDE810400BE04FF00001F1EE10CA0CF4BD
:105A1000400CBCF5000F08BF4FF0004170474FF03D
:105A2000120C4A0008BF0042EDD0B2F5001F28BF9B
:105A3000704700F0EAB84EF4001E3EEA410418BF79
:105A40003EEA430434D091EA030F48BF83F0004399
:105A50003FF589AA841A71EB030C07D28CF0004C35
:105A6000121943EB0C03001B61EB0C014FEA1154BC
:105A7000A4EB135C52EA033E14D05FEA445E21EAD1
:105A8000045109D023F00043ACF1010C5242C3F1A0
:105A9000000338BF5B1EF9E6801A61EB0301BDE825
:105AA0001040BCE7BDE8104050EA410CB7D1AAE76E
:105AB000BDE8104070B5FFF7D1FD00BF40DFF63EF6
:105AC00011000004104683F0004170470000C0FF41
:105AD000F1EE103A13F0807F1EBF01F0004100206C
