:020000040800F2
:100000008056002011040008F5030008F7030008DB
:10001000FB030008FF0300080304000800000000C1
:1000200000000000000000000000000007040008BD
:1000300009040008000000000B0400080D0400087B
:100040002B0400082B0400082B0400082B040008D4
:100050002B0400082B0400082B0400082B040008C4
:100060002B0400082B0400082B0400082B040008B4
:100070002B0400082B0400082B0400082B040008A4
:100080002B0400082B0400082B0400082B04000894
:100090002B0400082B0400082B0400082B04000884
:1000A0002B0400082B0400082B0400082B04000874
:1000B000751C0008891A0008571A00082B0400084C
:1000C0002B0400082B0400082B0400082B04000854
:1000D0002B0400082B0400082B0400082B04000844
:1000E0002B0400082B0400082B0400082B04000834
:1000F0002B0400082B0400082B0400082B04000824
:100100002B0400082B0400082B0400082B04000813
:100110002B0400082B0400082B0400082B04000803
:10012000C51800082B0400082B0400082B04000845
:100130002B0400082B0400082B0400082B040008E3
:100140002B0400082B0400082B0400082B040008D3
:100150002B0400082B0400082B040008156B000872
:100160002B0400082B0400082B0400082B040008B3
:100170002B0400082B0400082B0400082B040008A3
:100180002B0400082B04000800F002F800F0ACF883
:100190000AA090E8000C82448344AAF10107DA45E2
:1001A00001D100F0A1F8AFF2090EBAE80F0013F088
:1001B000010F18BFFB1A43F0010318471004010098
:1001C00030040100103A24BF78C878C1FAD8520729
:1001D00024BF30C830C144BF04680C6070470000C1
:1001E0000023002400250026103A28BF78C1FBD840
:1001F000520728BF30C148BF0B6070474B1C012B12
:1002000098BF70472DE9F003911C9B08B1F804805A
:10021000B1F802900A8831F802CC8044814402444B
:100220008444D9F80070D8F800601568DCF8004004
:10023000C9F80060C8F80070CCF800501460D9F814
:100240000470D8F804605568DCF80440C9F804600C
:10025000C8F80470CCF80450546008315B1ED5D146
:10026000BDE8F00370474B1C012B98BF70472DE988
:10027000F003911C9B08B1F80480B1F802900A8841
:1002800031F802CC00EB580800EB590900EB5202A0
:1002900000EB5C0CD9F80070D8F800601568DCF849
:1002A0000040C9F80060C8F80070CCF80050146035
:1002B00008315B1EDFD1BDE8F003704766290BF003
:1002C0008782642907F08485002070471FB50BF0F2
:1002D000C7F908F0FBF804000020002109F01CFE1B
:1002E000E0601FBD10B510BD08F00CFA1146FFF715
:1002F000EDFF00F009F808F02AFA03B4FFF7F2FF67
:1003000003BC08F0D1FA00004FF4A06003F0B8FA83
:1003100006F02DFA00F0F4FC01F0F0FD4FF4E130AE
:1003200006F08AFB01F0D0F801F0F4F901F040FA90
:100330000521092001F003FC06F096FA00220121B4
:1003400010469FED200B06F0FEFA642006F0D9FA65
:1003500003E001F0E5FC02F02EFAFAE730B589B0CF
:1003600042F2CF0142F20F7001F049FB03214FF638
:10037000FF7001F0E1FA0024002003E0134909684E
:100380000C44401C6428F9DB6420B4FBF0F401AB9E
:1003900018226E210A2000F061FF42F210708442A0
:1003A00009D94FF47A70B4FBF0F52A4608A101A8E8
:1003B00007F0FAFC04E022460AA101A807F0F4FCC9
:1003C00009B030BD000000000064E9402C000020AE
:1003D000667265713A25646B687A2020202020209F
:1003E00000000000667265713A25642020202020FC
:1003F00020000000704700BFFEE700BFFEE700BF1F
:10040000FEE700BFFEE77047704770477047000087
:100410000948804709480047FEE7FEE7FEE7FEE798
:10042000FEE7FEE7FEE7FEE7FEE7FEE704480549D4
:10043000054A064B704700002D0500088901000899
:100440008045002080560020804700208047002003
:100450000CB50020019000907648006840F4803090
:100460007449086000BF7348006800F400300090D1
:100470000198401C0190009818B90198B0F5A04F60
:10048000F1D16C48006800F4003010B101200090F8
:1004900001E0002000900098012846D165484030D6
:1004A000006840F08050634940310860624800684D
:1004B00040F44040604908605E48083000685D498B
:1004C000083108600846006840F4004008600846AB
:1004D000006840F4A05008605848091F0860081FD1
:1004E000006840F08070091F086000BF5148006834
:1004F00000F000700028F9D040F205705049086003
:100500004C480830006820F003004A490831086070
:100510000846006840F00200086000BF4548083007
:10052000006800F00C000828F8D10CBD10B5454853
:10053000006840F47000434908603E48006840F09D
:1005400001003C49086000203A49083108603948F8
:1005500000683D490840374908603C48091D08606B
:10056000081F006820F48020091F0860002031491E
:100570000C310860FFF76CFF4FF0006031498039A3
:10058000086010BD70B50020002202230024022163
:10059000284D08352D6805F00C0020B1042806D040
:1005A000082834D107E02A4D2A4E356033E02A4D21
:1005B000284E35602FE01F4D2D1D2D68C5F380544A
:1005C0001C4D2D1D2D6805F03F0154B1224DB5FB8A
:1005D000F1F5184E361D3668C6F3881605FB06F28F
:1005E00009E01B4DB5FBF1F5124E361D3668C6F31A
:1005F000881605FB06F20F4D2D1D2D68C5F301452C
:100600006D1C6B00B2FBF3F5124E356003E0104D2C
:10061000104E356000BF00BF064D08352D68C5F38C
:1006200003150E4E705D0B4D2D68C540094E3560AB
:1006300070BD0000003802400070004008544007C0
:10064000003C024088ED00E0FFFFF6FE1030002481
:100650000024F4000000002000127A0004000020B2
:10066000F64A1080921C1180704710B50446F3487A
:100670000480042006F090F8F048801C008810BD2B
:1006800000BF011EA0F10102D0B2FAD17047EC48C0
:100690000088EA49088070472920E84908807047A7
:1006A0002820E6490880704730B58418641EA2B23D
:1006B000CC18641EA3B2E34C24786CBBE24C2488B3
:1006C00041F66315AC4227D1E04C2488A41A241AC1
:1006D000A0B2CC18641EA3B2DD4C2488D74D2C8068
:1006E0000412AD1C2C80C4B22C808418641EC4F388
:1006F0000F242C808418641EE4B22C80D54C2488EE
:10070000AD1E2C800C12AD1C2C80CCB22C801C1287
:100710002C80DCB22C8019E0CD4C2488C74D2C8075
:100720000412AD1C2C80C4B22C8014122C80D4B2C4
:100730002C80C84C2488AD1E2C800C12AD1C2C8043
:10074000CCB22C801C122C80DCB22C8030BD70B559
:10075000054600240026BB480078012805D1BA4888
:10076000008849F24131884208D0B6480078F0B993
:10077000B548008841F66311884218D1082D15D27A
:10078000DFE805F00406080A0C0E101206250DE03D
:1007900007250BE0042509E0052507E0012505E014
:1007A000002503E0032501E0022500BF00BF082D5E
:1007B0001CD2DFE805F00406090C0F12151800BF63
:1007C00014E044F0800411E044F040040EE044F0F2
:1007D000C0040BE044F0200408E044F0600405E0AD
:1007E00044F0A00402E044F0E00400BF00BF36265D
:1007F0009548008849F24131884201D144F008040B
:1008000021463046FFF72CFF934803888F48028823
:1008100000210846FFF748FF70BD10B504468CBBA9
:100820000020884908708848008849F24131884290
:1008300010D12C20824908802A20854908802B204D
:1008400084490880F020814908804FF4A0708249D3
:10085000088049E07C48008841F66311884243D112
:100860002C20774908802B20794908802A20794953
:1008700008804FF4F070754908804FF4487076494D
:10088000088031E0FFE701206E4908706E4800885B
:1008900049F24131884210D12C20694908802A2030
:1008A0006B4908802B206B4908804FF4A070674982
:1008B0000880F0206849088016E06348008841F607
:1008C0006311884210D12C205D4908802A2060499C
:1008D00008802B205F4908804FF448705B490880EE
:1008E0004FF4F0705C4908800020FFF730FF10BD26
:1008F000554A128849F241339A4212D1544A128819
:100900004E4B1A8002129B1C1A80C2B21A80514AA6
:1009100012889B1E1A800A129B1C1A80CAB21A8067
:1009200042E0494A128841F663139A423CD1454A53
:1009300012788AB9454A1288521E121A90B2444A55
:1009400012883E4B1A8000229B1C1A801A800212C9
:100950001A80C2B21A8013E03D4A1288374B1A80BF
:1009600002129B1C1A80C2B21A80384A1288521E88
:10097000C2F30F221A80354A1278521ED2B21A8060
:10098000344A12882D4B1A800A129B1C1A80CAB254
:100990001A80314A1288521EC2F30F221A802E4A40
:1009A0001278521ED2B21A8070473EB504460D46E8
:1009B000002002900190009029462046FFF798FF02
:1009C0002E201E490880881C008802901E4800883E
:1009D00041F66311884202D1BDF808003EBD0220F5
:1009E000FFF74EFE1548801C00880090BDF80800F7
:1009F000C0B20190BDF804004FF6FF7101EA00207B
:100A00000190BDF80800C012C002BDF804108912A0
:100A100040EA4110BDF8001040EAE120DEE730B5C1
:100A200004460D4629462046FFF762FFFFF72FFEDA
:100A30000A4800880149891C088030BDFE1F006CEF
:100A4000200000201A000020180000201C000020B8
:100A500022000020240000201E000020140000209E
:100A600070B505460E46144631462846FFF7D7FFB7
:100A7000FE480088FE490880881C048070BDBE21A5
:100A8000FB4A11800521921C11801146088001212A
:100A90001180FF211180002111801180704770B5F5
:100AA000044600250026F3480088F349098800FB26
:100AB00001F600210846FFF71BFFFFF7E8FD00BF26
:100AC00003E0EB48801C04806D1CB542F9D370BD77
:100AD00000B59FB00121782003F04AFD01210846AE
:100AE00003F07EFD4FF480601D9001208DF87800AA
:100AF00000208DF87A0002208DF8790001208DF811
:100B00007B001DA9DD4802F0B1FF4CF233701D904F
:100B100002208DF8780000208DF87A0003208DF8EF
:100B2000790001208DF87B001DA9D54802F09EFFB9
:100B30004FF680701D9002208DF8780000208DF80F
:100B40007A0003208DF8790001208DF87B001DA923
:100B5000CC4802F08BFF04201D9002208DF8780015
:100B600000208DF87A0003208DF8790001208DF89F
:100B70007B001DA9C44802F079FF4FF480501D90FE
:100B800002208DF8780000208DF87A0003208DF87F
:100B9000790001208DF87B001DA9BB4802F066FF9B
:100BA0000C220021B64802F0ECFF0C220121B448CF
:100BB00002F0E7FF0C220421B14802F0E2FF0C2210
:100BC0000521AF4802F0DDFF0C220821AC4802F0FD
:100BD000D8FF0C220921AA4802F0D3FF0C220A21D7
:100BE000A74802F0CEFF0C220E21A54802F0C9FF53
:100BF0000C220F21A24802F0C4FF0C220721A148B9
:100C000002F0BFFF0C2208219E4802F0BAFF0C221E
:100C100009219C4802F0B5FF0C220A21994802F0F4
:100C2000B0FF0C220B21974802F0ABFF0C221146BB
:100C3000944802F0A6FF0C220D21924802F0A1FF79
:100C40000C220E218F4802F09CFF0C220F218D48B0
:100C500002F097FF0C2202218B4802F092FF0C2237
:100C60001146894802F08DFF0F2007900020089060
:100C70003C20099000200A900B900C900D900820C9
:100C80000090002001900720029000200390049023
:100C90000590069006200E9000200F9010901020D6
:100CA00011900020129014901390159016904FF40C
:100CB00080501790002018904FF480401990002029
:100CC0001A9007A81B90CDF870D00EA802F0ADFFC7
:100CD0000121062003F034F8322005F0A5FD1FB0F5
:100CE00000BDD321624A1180911C088808880888B9
:100CF0004FF6FF7101EA0020911C098808437047F4
:100D000010B5FFF7E5FEFFF7ECFF604908800846E5
:100D1000008849F24131884223D0A12054490880FB
:100D2000881C0088594908805148801C0088088028
:100D3000084600884FF6FF7101EA002053490880F9
:100D40004B48801C008809880843504908800846A1
:100D5000008845F26171884203D141F663104B4926
:100D600008804A48008849F2413188421CD14848ED
:100D7000006820F00F004FF02041C1F81C01084628
:100D8000D0F81C0120F47060C1F81C010846D0F8AE
:100D90001C0140F00300C1F81C010846D0F81C01FA
:100DA00040F40070C1F81C013848008849F2413114
:100DB00088426FD1CF202E4908800020891C0880EE
:100DC000C120088030200880ED20891E0880642022
:100DD000891C088003200880122008808120088058
:100DE000E820891E08808520891C08801020088042
:100DF0007A200880CB20891E08803920891C088031
:100E00002C200880002008803420088002200880E0
:100E1000F720891E08802020891C0880EA20891E6E
:100E200008800020891C08800880C020891E088056
:100E30001B20891C0880C120891E08800120891C74
:100E40000880C520891E08803020891C0880088001
:100E5000C720891E0880B720891C08803620891E7B
:100E600008804820891C08803A2014E020000020D7
:100E7000FE1F006C1C0000201E0000200014024019
:100E8000000C024000100240001802401800002030
:100E90001C0100A082E0891E08805520891C088062
:100EA000B120891E08800020891C08801A20088033
:100EB000B620891E08800A20891C0880A22008808C
:100EC000F220891E08800020891C08802620891EA7
:100ED00008800120891C0880E020891E08800F20DE
:100EE000891C08802A200880282008800820088083
:100EF0000E2008800820088054200880A92008803F
:100F0000432008800A2008800F20088000200880E5
:100F1000088008800880E120891E08800020891C44
:100F200008801520088017200880072008801120DD
:100F30000880062008802B200880562008803C204E
:100F4000088005200880102008800F2008803F209E
:100F5000088008800F2008802B20891E0880002030
:100F6000891C08800880012008803F2008802A20F2
:100F7000891E08800020891C088008800880EF20D6
:100F800008801120891E0880782005F04DFC29205A
:100F9000FA4908800120FA49086098E0F948008879
:100FA00041F663118842F8D1E220F44908801D20FF
:100FB000891C08800220088004200880642005F035
:100FC000EBFBE020ED4908800120891C08800A2005
:100FD00005F02AFCE020E94908800320891C0880EC
:100FE0000C2005F021FC0120E44908800A2005F0CE
:100FF0001BFCE620E14908802F20891C0880FF2087
:1010000008800880B020891E08802020891C088064
:10101000002008800320088040F21F300880012053
:10102000088040F2DF10088000200880B420891E6C
:1010300008800420891C088040F21F40088000209E
:1010400008802E2008800020088008800880088002
:10105000B620891E08800220891C08804FF4037086
:1010600008800020088017200880152008800020B4
:1010700008800880F020891E08800320891C0880D1
:101080002920891E0880D02008800020891C088023
:10109000BE20891E08800520891C0880FE2008804B
:1010A000012008800020088008800880B820891E60
:1010B00008800320891C088001200880BA20891E2E
:1010C00008800120891C0880FF20FFF7D8FC002041
:1010D000FFF7A3FB4FF6FF70FFF7E1FC10BD2DE912
:1010E000F04F05460E4617469846DDF824A04FF00F
:1010F000000B781B401C1FFA80FB344614E021468D
:101100002846FFF7F5FBFFF7C2FA4FF0000907E0AA
:101110009A48801CA0F800A009F101001FFA80F98C
:10112000D945F5DB601C84B24445E8DDBDE8F08FAD
:101130002DE9F84F07460D4690469946DDF828B050
:10114000A8EB0700401C80B20090A9EB0500401CF2
:101150001FFA80FA002416E0281981B23846FFF7FA
:10116000C7FBFFF794FA002608E004FB0A603BF88F
:1011700010008249891C0880701C86B20098864243
:10118000F3DB601C84B25445E6DBBDE8F88F2DE943
:10119000FF4F074616461C46BB460C2C01D198460D
:1011A0000AE0102C01D1A04606E0182C02D14FF025
:1011B000300801E0BDE8FF8FA6F12000C6B200258F
:1011C00048E00C2C07D106EB46006F4901EB80008C
:1011D00010F8059010E0102C05D16C4800EB0610BB
:1011E00010F8059008E0182C06D106EB4600684977
:1011F00001EB001010F805904FF0000A24E009F010
:10120000010030B16348028838460199FFF728FC95
:1012100005E06148028838460199FFF721FC4FEA52
:101220006909781C87B2A7EB0B0104EBD472B1EB10
:10123000620F05D15F460198401C80B2019006E024
:101240000AF1010000F0FF0ABAF1080FD7DB00BF76
:10125000681CC5B24545B4DB00BFABE7F0B5064638
:101260000F4615461C4611E022782B46394630467B
:10127000FFF78DFF284605EBD07106EB61018EB2BA
:1012800046480088864200DB06E0641C207820285F
:1012900002DB20787E28E7DD00BFF0BD2DE9F04FAE
:1012A00004460D4616461F46DDE909893948B0F85F
:1012B00000A03948B0F800B03648A0F800803648A1
:1012C000A0F800903B46324629462046FFF7C6FF6D
:1012D0003048A0F800A03048A0F800B0BDE8F08F7A
:1012E00010B50246012000E050430B1EA1F101049D
:1012F000E1B2F9D110BD2DE9FF4F81B0074690460C
:101300001E460E9CC3464FF0000906E00A20BBFBB8
:10131000F0FB09F1010000F0FF09BBF1000FF5D16E
:10132000B14508DD1EA3224638460299FFF796FF15
:1013300005B0BDE8F08F002553E0A6EB0900A842F8
:1013400032DD0F9860B104EBD471491001FB0571D7
:1013500088B22346302200940299FFF718FF3EE03E
:1013600004EBD471491001FB057188B22346202299
:1013700000940299FFF70BFF31E00000FE1F006CA4
:10138000A88242421800002004B9000878BD000875
:1013900068C3000814000020160000201C00002074
:1013A0004552524F52000000701B401EC1B20A202D
:1013B000FFF796FFB8FBF0F00A21B0FBF1F201FB5A
:1013C000120A04EBD471491001FB057188B20AF1CD
:1013D0003001CAB2234600940299FFF7D8FE681C78
:1013E000C5B2B542A9DB00BFA2E72DE9FF4F82B02D
:1013F00004460D461646DDE91189109F3048B0F8C5
:1014000000A03048B0F800B02D48A0F800802D486A
:10141000A0F800900F98CDE90007324629462046F3
:10142000059BFFF768FF2648A0F800A02548A0F814
:1014300000B006B0BDE8F08F2DE9FC4F04460D4624
:1014400016461F46301B002801DB014600E04142E2
:101450001FFA81F8781B002801DB014600E04142B9
:101460001FFA81F9B44201DA012001E04FF0FF30A8
:101470000190BD4201DA012001E04FF0FF30009001
:10148000A8EB090A16E0294620460B9AFFF7E8FA6E
:101490004FEA4A0BC9F10000834504DDAAEB090AB3
:1014A0000198204484B2C34503DAC244009828441A
:1014B00085B200BFB442E6D1BD42E4D1BDE8FC8FA5
:1014C00014000020160000201CB50121202003F08C
:1014D0004FF84FF47070009000208DF80400032046
:1014E0008DF8050001208DF807006946314802F0AB
:1014F000BDFA1CBD0021304A11703049096861B144
:101500002E49091F096841B12C490839096821B1E0
:101510002A490C39096800293CD12849096819B9B8
:101520000121274A117016E02449091F096819B9D9
:101530000221234A11700EE020490839096819B9BF
:1015400003211F4A117006E01C490C39096811B9C2
:1015500004211B4A11701A4909781A4A12789142DB
:1015600010D119490988491C174A11801449097872
:10157000164A1170E8B914490988012919DD0021BA
:10158000117016E00021104A11800D4909780D4AAA
:1015900011700EE00C490988022903DD0849097819
:1015A000054A11700021074A1170074A1180074A45
:1015B000117070470014024027000020248242422C
:1015C0002A0000202B0000202800002026000020F8
:1015D00000B58DB00121084602F0CAFF01210802C2
:1015E00003F020F8C0200B9003208DF8300000207D
:1015F0008DF833000BA9BD4802F038FA012108022A
:1016000003F065F800214FF4807003F060F80020CB
:1016100007904FF4A0600A90002009904FF48030AA
:10162000089007A803F05CFB002001908DF80800EB
:101630008DF809000390059001208DF8180001A98C
:10164000AB4803F01EFB0121A94803F060FB0DB07D
:1016500000BD10B50446042301222146A44803F02E
:1016600096FBA34803F0EFFB00BF0221A04803F064
:101670000BFD0028F9D09E4803F021FC10BD00B5F9
:1016800091B00121880502F073FF9A4804F08AFDA9
:1016900000BF984804F0AFFE0028FAD102909448A9
:1016A0004C30039094480490002005904FF48060E3
:1016B0000690002007904FF4806008904000099049
:1016C00080000A9040110B9040020C9000200D9079
:1016D00001200E9000200F90109002A9854804F080
:1016E00003FE01221021834804F0C5FE0121814838
:1016F00004F034FE38208DF8040000208DF8050039
:1017000001208DF806008DF8070001A802F0BDF851
:1017100011B000BD00B58DB0FFF7B1FF0121084643
:1017200002F026FF0121080202F07CFFC0200B908E
:1017300003208DF8300000208DF833000BA96B4892
:1017400002F094F9002007904FF4A0600A90002066
:1017500009904FF48030089007A803F0C1FA0020E8
:1017600001908DF808008DF809004FF0C0600490DA
:101770004FF0805003900020059001208DF8180054
:1017800001A95B4803F07DFA01231A460621584857
:1017900003F0FDFA0121564803F0A4FB012154484F
:1017A00003F095FB0121524803F0B1FA0DB000BDE2
:1017B00000B59BB00121880502F0DAFE4D483030BB
:1017C00004F0F0FC00BF4B48303004F014FE002859
:1017D000F9D14FF000700C9048480D9048480E9099
:1017E00000200F904FF480601090002011904FF473
:1017F000806012904000139080001490401115906A
:101800004002169000201790012018900020199097
:101810001A900CA93748303004F066FD0121354894
:10182000303004F09BFD0121042002F0A1FE0121D3
:10183000480202F0F7FE04200A9003208DF82C00E5
:1018400000208DF82F000AA92E4802F00FF9002081
:1018500006904FF4A0600990002008904FF480306B
:10186000079006A803F03CFA002000908DF80400D1
:101870008DF805004FF0C06003904FF0805002904B
:101880000020049001208DF8140069461B484C3854
:1018900003F0F7F901231A460C2118484C3803F0DD
:1018A00076FA012115484C3803F01CFB012113483E
:1018B0004C3803F00CFB012110484C3803F027FA98
:1018C0001BB000BD10B510490A4804F0F1FD60B12D
:1018D0000E49084804F0BBFD0B49064804F012FE0F
:1018E00000214FF0804003F041FF10BD0000024096
:1018F0000020014010640240200100204C210140E2
:101900002009002000080240208000102000001064
:1019100008B54FF4C06001F0B3FF1E208DF8000041
:1019200000208DF801008DF8020001208DF80300E1
:10193000684601F0AAFF08BD30B589B005460C46DF
:10194000FFF7E6FF0121042002F05BFE0795ADF8EA
:1019500018400020ADF82000ADF81A008DF82200E4
:1019600006A9594803F079FE0020ADF80C00ADF847
:101970000E000120ADF810000C20ADF81200002080
:10198000ADF8140003A9504804F03EFA01214E4876
:1019900004F018FB002202214B4804F0FFFA002358
:1019A0001A465021484804F059FB0021464803F0EC
:1019B0009DFE01221146444804F0F0FA01214248FC
:1019C00003F0D4FE0121022002F0D2FD0222062102
:1019D0003E4802F0D6F84020019002208DF8080021
:1019E00003208DF8090000208DF80A0002208DF8F0
:1019F0000B0001A9354802F039F809B030BD7FB5B8
:101A000005460C460121022002F0FBFD0295ADF8CF
:101A100004400020ADF80600ADF80C0001A92C48E8
:101A200003F01BFE01221146294804F0B7FA0121F8
:101A3000274803F09BFE1D208DF8000001208DF843
:101A4000010003208DF8020001208DF80300684694
:101A500001F01BFF7FBD10B501211B4804F0B5FA52
:101A600088B11C480068401C1A4908600846006894
:101A700042F21071884202D9002016490860012103
:101A8000114804F0B3FA10BD10B50121104804F05C
:101A90009CFAC0B10C48243000680E4909684FF424
:101AA000803202FB010080000B49086000200849D9
:101AB0002431086007490860034924310860012186
:101AC000034804F093FA10BD0008004000040240EF
:101AD00000040040380000202C0000207FB505469F
:101AE0000C460121084602F08CFD0295ADF8044039
:101AF0000020ADF80600ADF80C0001A94FF08040C1
:101B000003F0ABFD2021480604F000FB0122114642
:101B1000900704F043FA0121880703F027FE1C20F8
:101B20008DF8000001208DF8010003208DF80200DF
:101B300001208DF80300684601F0A7FE7FBD3EB589
:101B400005460C460121084602F05BFD0195ADF803
:101B500000400020ADF80200ADF8080069464FF0E3
:101B6000804003F07AFD2021480604F0CFFA0122DC
:101B70001146900704F012FA0121880703F0F6FDE0
:101B80003EBD70B52DED088B05460C4600EE105A93
:101B9000B8EE400AF0EE409AD4ED020A00EE105A78
:101BA000B8EE400A30EEC00A10EE101A084609F0EE
:101BB000A1FC41EC1B0BB0EE4B0AF0EE6B0A07F0F8
:101BC0004BFDB0EE40AAF0EE60AA9FED3C0B53EC4B
:101BD000102B51EC1A0B09F032F910D800EE105A04
:101BE000B8EE400ADFED370A20EE200AD4ED020AF3
:101BF0009FED351AB0EE408A00EE818A01E094ED47
:101C0000028AB0EE489A94ED000AD4ED040A30EE50
:101C1000200A84ED010A94ED010AD4ED050A30EEA4
:101C2000200AD4ED010A80EE801A84ED031A94EDA7
:101C3000030AD4ED020A79EEE00AF0EE498A40EE9A
:101C4000208A94ED030AF7EE000A30EEC00AD4EDC4
:101C5000000A20EE200A84ED010A94ED010A84EDC9
:101C6000000AC4ED028ABCEEE80A10EE100ABDECD0
:101C7000088B70BD10B50121880704F0A6F9012872
:101C80001AD10620FFF7E5FC1049114A128821F805
:101C900012000F480088401C0D4908800846008843
:101CA000B0F5806F04DB00200880084800F0AFF832
:101CB0000121880704F09AF910BD0000000000001F
:101CC00000004940F4FD143F1904D63E20010020D5
:101CD0004400002026480078012806D125480088C5
:101CE000401C00B22349088019E0214800780228EE
:101CF00006D120480088401E00B21E4908800EE030
:101D00001B48007803280AD11B480068401C1A4968
:101D1000086008460068032801DD0120086070475C
:101D200010B50020FFF7E6FB002003F0EAFA1348A5
:101D3000008813490988884217DA12480088B0F5EC
:101D40008C7F12DD0D480088642803DA02200849E0
:101D500008700AE009480088B42803DA0120044921
:101D6000087002E0032002490870FFF7B3FF10BDBE
:101D700026000020800000207C000020C8000020F9
:101D80001C000020CA00002070B52DED0A8B04460F
:101D9000B0EE408A601E00EE100AB8EEC00ADFED19
:101DA0004E0A20EE200ADFED4D0A80EE201A11EED9
:101DB000105A284609F09EFB41EC1C0BB0EE4C0A71
:101DC000F0EE6C0A07F0E4FBB0EE40BAF0EE60BA59
:101DD0009FED430B53EC102B51EC1B0B08F090FEC6
:101DE00041EC1A0B9FED3E0B53EC102B09F058F809
:101DF00041EC190B08F0B2F808EE900A28EE880AB8
:101E0000F0EE408AB0EE680ABDEC0A8B70BD70B58A
:101E10000546002014E035F8101000EE101AB8EE58
:101E2000400A314A02EBC00181ED000A9FED2F0A02
:101E3000012101EB400102EB810181ED000A401C10
:101E4000B0F5806FE7DB00240AE0274A02EBC4010B
:101E5000D1ED000AB0EE600AA0B2FFF795FF641C56
:101E6000B4F5806FF1DB012300221F49204805F003
:101E70000FFC4FF480621F491B4805F09FF80120BA
:101E80000EE01C4901EB800191ED000ADFED1A0A1A
:101E900080EE201A174901EB800181ED001A401CE9
:101EA000B0F5806FEDDB0126012011E0114901EB57
:101EB000860191ED000A0F4901EB8001D1ED000A86
:101EC000B4EEE00AF1EE10FA00D20646411C08B268
:101ED000B0F5806FEADB70BDDA0FC9400080FF43C8
:101EE000000000000000E03F201100200000000082
:101EF00054D50008203100200000004410B54248AD
:101F0000008849F24131884201D103F065FA10BDE1
:101F100010B54FF6FF70FEF7C2FD1F203B49088049
:101F20003B4A1288123A91B23A4A1288283A90B241
:101F300039A31022FFF792F94FF478403349088013
:101F400010BD2DE9F04106460D46174600242F48E6
:101F5000078000BF18E0281981B23046FEF75FFD08
:101F60002A1991B2721C90B2FEF759FD2A1991B24A
:101F7000B21C90B2FEF753FD2A1991B2F21C90B236
:101F8000FEF74DFD601CC4B2042CE4DBBDE8F0811B
:101F9000002437E0002003F0B4F9214800881D49EF
:101FA000098888421EDA1F48008819490988884232
:101FB00018DA18480088283819490988884209DA47
:101FC00013480088123817490988884202DAFFF757
:101FD0009FFF07E04FF478421248018810480088BC
:101FE000FFF7AFFF601CC4B2142094FBF0F100FBBC
:101FF000114038B90C48006808B9012000E0002001
:1020000009490860C6E700001800002014000020FD
:102010001E0000201C000020436C6561720000005F
:10202000C8000020CA0000208C02424210B50446BD
:10203000FD4800EB8400D0ED000A60EEA00A601EAF
:10204000F94901EB800090ED001A601E01EB800061
:10205000D0ED001A41EE210AA01E01EB800090EDA8
:10206000001AA01E01EB8000D0ED001A41EE210AFB
:10207000601C01EB800090ED001A601C01EB8000F9
:10208000D0ED001A41EE210AA01C01EB800090ED7A
:10209000001AA01C01EB8000D0ED001A41EE210ACD
:1020A000B0EE600A07F0E2FA10BD2DE9F04F2DED19
:1020B000028B85B00646884691461D469DED108AE6
:1020C000F0EE408AC246CDF810800024A8E0D74840
:1020D000008800EE100AB8EE400AF7EE000A60EE43
:1020E000200A00EE106AB8EE400A80EE801A00EE78
:1020F000104AB8EE400A21EE000ABCEEC00A10EE0B
:10210000100A80B20390B9F1000F14D0049800EBCC
:102110008400D0ED000A00EE105AB8EE400A00EE3E
:10212000E80AF8EE480A30EE200ABCEEC00A10EECB
:10213000100A87B214E03AF8140000EE100AF8EE24
:10214000400A00EE105AB8EE400A00EEE80AF8EE37
:10215000480A30EE200ABCEEC00A10EE100A87B220
:102160003946119A0398FEF77BFC002C56DDAF48E8
:10217000008800EE100AB8EE400AF7EE000A60EEA2
:10218000200A00EE106AB8EE400A80EE801A601E47
:1021900000EE100AB8EEC00A21EE000ABCEEC00A3A
:1021A00010EE100A80B20290B9F1000F16D0601E36
:1021B000049901EB8000D0ED000A00EE105AB8EE51
:1021C000400A00EEE80AF8EE480A30EE200ABCEEBB
:1021D000C00A10EE100A1FFA80FB16E0601E3AF8E3
:1021E000100000EE100AF8EE400A00EE105AB8EEA9
:1021F000400A00EEE80AF8EE480A30EE200ABCEE8B
:10220000C00A10EE100A1FFA80FB11983B4600909E
:102210005946DDE90202FFF70FF900BF601C84B2E6
:10222000B442FFF654AF05B0BDEC028BBDE8F08FB1
:1022300070B52DED0E8B8AB07D48FFF7E8FD4FF6A7
:10224000FF7000907B48048804EBD4704010401E5F
:1022500083B276480088401E82B200210846FEF70D
:102260003EFF7449088800EBD071491008EE101A3F
:10227000B8EE480ADFED700A80EE201AF0EE418ACF
:102280004FF478400021CDE900106A48048804EB3F
:10229000D4704310B0EE680A012263495002FFF780
:1022A00004FF6248008808F0DBFB41EC1E0B9FED49
:1022B000630B53EC102B08F023FC41EC1D0B9FED3E
:1022C000610B53EC102B08F0DDF841EC1C0B9FED7B
:1022D0005F0B53EC102B08F013FC41EC1A0B5D481C
:1022E000B0F9000008F098FB41EC1B0B53EC1A2BE3
:1022F00008F006FC41EC190B08F020FB85B24B48B6
:10230000008808F0ADFB41EC1E0B9FED4C0B53EC2D
:10231000102B08F0F5FB41EC1D0B9FED4A0B53EC25
:10232000102B08F0AFF841EC1C0B9FED480B53EC61
:10233000102B08F0E5FB41EC1A0B4648B0F9000001
:1023400008F06AFB41EC1B0B53EC1A2B08F0D8FB8E
:1023500041EC190B08F0F2FA86B21F2000903548C4
:10236000048804EBD4704010401E83B22A4600213A
:102370003046FFF761F838480088002853D11F2005
:10238000364908803348B0F9000008F045FB41ECBD
:102390001B0B9FED330B53EC102B08F0B1FB41EC02
:1023A0001A0B53EC1A2B30A102A805F0FDFC02AB6E
:1023B0000C22DC210A20FEF751FF2648B0F900006C
:1023C000FFF734FEB0EE40CA9FED2A0BB0EE409A04
:1023D000F0EE609A6FF0020418E01E48B0F90000B9
:1023E0002044114A02EB800090ED000A20EE000A22
:1023F00010EE101A084609F07DF841EC1A0B53EC68
:10240000192B07F00DFF41EC190B641C032CE4DBC6
:1024100051EC190B07F0A2FD0AEE100AB0EE4A0AC1
:1024200007F024F92AE03DE0203100201C000020C4
:10243000200100201E0000200000FA4400000000DF
:102440000000F03F0000000000009040000000008D
:1024500000000040800000208800002014000020C0
:1024600000000000C05C8540667265713A252E341C
:1024700066000000000000000000000010EE104A9E
:10248000204609F037F841EC1B0B53EC1B2BFEA147
:1024900002A805F089FC02AB0C22DC217820FEF7B3
:1024A000DDFE00BF0AB0BDEC0E8B70BD2DE9F0471C
:1024B0002DED0E8B0A279FEDF70B53EC102BF748F1
:1024C00090ED000B51EC100B08F0B9FC11D200BFDD
:1024D0009FEDF30B53EC102BF04890ED000B51ECFB
:1024E000100B07F0CFFF41EC1C0B08F0C3F90746B7
:1024F0001DE09FEDE80B53EC102BE84890ED000B2E
:1025000051EC100B08F09BFC10D29FEDE70B53EC45
:10251000102BE24890ED000B51EC100B07F0B2FFCE
:1025200041EC1C0B08F0A6F9074600E001279FEDDF
:10253000E08AE049088808F093FA41EC1B0BDD497A
:10254000088808F08DFA41EC190B012426E0D949DE
:1025500031F8140008F084FA41EC1C0B53EC1B2BEF
:1025600008F06DFC06D2D34931F8140008F078FA6F
:1025700041EC1B0BCF4931F8140008F071FA41EC23
:102580001C0B53EC192B08F07FFA06D2C94931F81D
:10259000140008F065FA41EC190B641CB4F5806F67
:1025A000D5DB53EC192B51EC1B0B08F0A1FCC24AF4
:1025B00003C21FED500BC14880ED000B002412E058
:1025C000BC4931F8140008F04BFA41EC1C0BBB4835
:1025D00090ED000B53EC102B51EC1C0B07F020FE80
:1025E000B64A03C2641CB4F5806FE9DB1FED6B0BC8
:1025F00053EC102BB14890ED000B51EC100B07F091
:1026000041FFAE4A03C200241EE018EE100A08F093
:1026100071FF41EC1E0BA94890ED000B53EC102B01
:1026200051EC1E0B07F0FCFD41EC1C0BA14931F8ED
:10263000140008F015FA41EC1D0B53EC1C2B08F0AC
:10264000FEFB00D203E0641CB4F5806FDDDB00BF4D
:102650001FED78AB4FF0000866E0661C1EE018EE38
:10266000100A08F047FF41EC1E0B944890ED000B58
:1026700053EC102B51EC1E0B08F012FC41EC1C0B20
:102680008C4931F8160008F0EBF941EC1D0B53ECC6
:102690001C2B08F0F9F900D203E0761CB6F5806F28
:1026A000DDDB00BF751C1EE018EE100A08F022FFEB
:1026B00041EC1E0B814890ED000B53EC102B51ECBC
:1026C0001E0B07F0ADFD41EC1C0B7A4931F81500EB
:1026D00008F0C6F941EC1D0B53EC1C2B08F0AFFBC6
:1026E00000D203E06D1CB5F5806FDDDB00BF281B59
:1026F00000EE100AB8EEC00AF7EE000A20EE200A3B
:10270000DFED6F0A80EE201A11EE109A484608F0AD
:10271000F1FE41EC1C0B53EC1A2B07F081FD41EC50
:102720001A0B2C4608F10108B84596DB384608F02C
:1027300073F941EC1C0B53EC1C2B51EC1A0B07F0FA
:10274000A1FE604A03C25F4890ED000B53EC102BD2
:102750001FEDC60B51EC100B07F094FE4F4A03C25D
:10276000BDEC0E8BBDE8F08700B589B0FFF79EFE8B
:102770001F2055490880494890ED000B53EC102B61
:1027800052A101A805F010FB01AB18226E210A200E
:10279000FEF764FD484890ED000B53EC102B4FA161
:1027A00001A805F001FB01AB1822AA210A20FEF7BF
:1027B00055FD09B000BDF0B52DED048B83B04B483D
:1027C0000088401C49490880012004F02DF8474842
:1027D0000088642802DB0020444908804FF47840D8
:1027E000394908804148008838B94FF08040008856
:1027F00018B90121880702F0B9FF3D480068012897
:1028000040D13A48008800283DD14FF6FF70009033
:1028100038480088401E83B237480088401E82B284
:1028200000210846FEF75BFC3248008808EE100ADB
:10283000B8EE480ADFED310A80EE201AF0EE418A48
:10284000FFF792FF154890ED000B53EC102B9FED16
:102850002C0B51EC100B07F015FE41EC190B08F096
:1028600009F804464FF478412248058805EBD570F5
:102870004010CDE900011F490D8805EBD5714F10BF
:102880001C4941E065E070E076616C75653A252E83
:10289000346600000000000000408F40A0000020CF
:1028A0000000000000409F40000000000000694060
:1028B0000AD7233C20010020A8000020B0000020FF
:1028C00000E62A49980000201400002041444331CA
:1028D00020667265713A252E346600007065616B62
:1028E00020746F20703A252E346600008800002086
:1028F0007C0000201E0000201C00002000007A4503
:1029000000000000F0B34A410E8806EBD6714B1070
:10291000A0B2B0EE680A0022FE49FFF7C6FB1F21F5
:10292000FD48058805EBD5704010CDE90001FA4956
:102930000D8805EBD5714F10F7490E8806EBD6715F
:102940004B10A0B2B0EE680A0022F449FFF7ADFBCD
:102950000BE0F3480068022802D1FFF769FC04E0AD
:10296000F048008808B900F0C3FC03B0BDEC048B4C
:10297000F0BD30B52DED028B83B04FF6FF700090A7
:10298000E548058805EBD5704010401E83B2E64847
:102990000088401E82B200210846FEF7A0FBDE49F7
:1029A000088800EBD071491008EE101AB8EE480AFA
:1029B0005FED2E0A80EE201AF0EE418A4FF480641B
:1029C0004FF478400021CDE90010D3490D8805EB84
:1029D000D5714B102046B0EE680A0022CF49FFF7B0
:1029E00064FB03B0BDEC028B30BD2DE9F04F2DED43
:1029F000108BADF62C4D4FF48070CDF8280C810073
:102A00000DF6280005F0A7FA4FF480610DF58560FA
:102A100005F0A1FA4FF480610AA805F09CFA00279E
:102A20000020099042F2107008904FF0000A70E206
:102A30000AF1010080B20790079808F011F841EC04
:102A40001C0B9FEDBA0B53EC102B08F059F841EC1E
:102A50001B0B002201211046B0EE4B0AF0EE6B0A70
:102A600003F071FF012003F0DFFE0121880702F06F
:102A70007DFE00BF4FF0804000880028FAD1A649B3
:102A8000088800EBD0714FEA610900EE109AF8EE69
:102A9000400A9FEDA81A80EE810A8DED060A3220C9
:102AA00005901F2000909C480088401E83B264223D
:102AB00000211046FEF7C0FC9648FFF7A8F9012454
:102AC000012010E09C4901EB840191ED000A9A4934
:102AD00001EB8001D1ED000AB4EEE00AF1EE10FA4C
:102AE00000D20446401CB0F5007FEBDB9FED938BDA
:102AF0006FF002081DE004EB0800002800DC16E07F
:102B000004EB08008C4A02EB800090ED000A20EEF6
:102B1000000A10EE101A084608F0ECFC41EC1B0B02
:102B200053EC182B07F07CFB41EC180B00BF08F1AD
:102B30000108B8F1030FDEDB51EC180B07F00EFAB9
:102B40000BEE100AB0EE4B0A06F090FD10EE108A64
:102B5000404608F0CFFC41EC180B7A4A02EBC40067
:102B600090ED000A10EE101A084608F0C3FC41EC84
:102B70001C0B6000401C734A02EB800090ED000AC1
:102B800010EE101A084608F0B5FC41EC1D0BB0EE33
:102B90004C1AF0EE6C1AB0EE4D0AF0EE6D0A06F02B
:102BA000F7FBB0EE40EAF0EE60EA9FED670B53EC06
:102BB000102B51EC1E0B07F0A3FF41EC1F0B9FEDF8
:102BC000640B53EC102B07F05DFC9FED630B53EC93
:102BD000102BCDE900019DED000B51EC100B07F01F
:102BE0001FFB9FED5F0B53EC102BCDE902019DED18
:102BF000020B51EC100B07F013FB41EC1B0B07F021
:102C0000ADF909EE900A4548FFF701F901240120CA
:102C100010E0494901EB840191ED000A464901EBBE
:102C20008001D1ED000AB4EEE00AF1EE10FA00D214
:102C30000446401CB0F5007FEBDB424A02EBC400C7
:102C400090ED000A10EE101A084608F053FC41EC13
:102C50001D0B6000401C3B4A02EB800090ED000A17
:102C600010EE101A084608F045FC41EC1E0BB0EEC1
:102C70004D1AF0EE6D1AB0EE4E0AF0EE6E0A06F046
:102C800087FBB0EE40FAF0EE60FA9FED2F0B53ECAD
:102C9000102B51EC1F0B07F033FF41EC1C0B9FED89
:102CA0002C0B53EC102B07F0EDFB41EC1B0B9FEDB5
:102CB0002A0B53EC102B07F0B3FA9FED290B53ECC2
:102CC000102BCDE900019DED000B51EC100B07F02E
:102CD000A7FACDE902019DED020B51EC100B07F0B4
:102CE0003DF909EE100A39EE690ADFED1F0AB4EE6C
:102CF000E00AF1EE10FA05D29FED1C0A39EE000A47
:102D0000B0EE409A089807F087FE41EC1B0B0DF5DA
:102D100000602DE0200100201E000020200900207E
:102D20007C000020880000201C0000200000000023
:102D3000000059400000FA4420310020000000004B
:102D4000000000002011002000000000008066400C
:102D500000000040FB2109400000000000805640B8
:102D600048E17A14AEC72440000048C20000B443D2
:102D700090ED0D0AB8EEC00ADFEDFE0A20EE200A43
:102D8000F0EE000A80EE201A11EE108A404608F09C
:102D9000B1FB41EC1D0B53EC182B08F081F841EC12
:102DA0001C0BB0EE4C0AF0EE6C0A06F055FCB0EECF
:102DB00040EAF0EE60EA53EC1B2B51EC1E0B07F0DF
:102DC00063FE2AD20DF5006090ED0D0AB8EEC00A40
:102DD000DFEDE80A20EE200AF0EE000A80EE201A6D
:102DE00011EE108A404608F085FB41EC1D0B53ECB8
:102DF000182B08F055F841EC1C0BB0EE4C0AF0EE25
:102E00006C0A06F029FCB0EE40BAF0EE60BA51EC64
:102E10001B0B07F02FFD0890099404EBD4714910A7
:102E20000DF6280252F8211049BB204604EBD07160
:102E300049100AAA42F827107F1C51EC180B07F022
:102E400019FD0146A04604EBD87040100DF628028B
:102E500042F82010B2EE040A29EE000AF2EE040A4B
:102E600009EEE00ABDEEC00A10EE102A204604EB7F
:102E7000D07149100DF5856343F8212047E0A04645
:102E800004EBD87149100DF6280252F8210007F022
:102E9000C3FD41EC1D0B53EC182B07F0C1F941ECBD
:102EA0001C0B9FEDB50B53EC102B07F0EBFA41EC2C
:102EB0001B0B07F0DFFCA34604EBDB7149100DF69A
:102EC000280242F82100204604EBD07252100DF582
:102ED000856353F8222000EE102AB8EEC00AF2EE05
:102EE000040A09EE200AF2EE040A09EEE00AF0EE06
:102EF000000A80EE201ABDEEC10A10EE103A2146FB
:102F000004EBD17252100DF5856C4CF822300AF1A9
:102F1000010ABAF1960FFFF68BAD4FF6FF700090E5
:102F2000974803889748028800210846FEF7D7F89B
:102F30000DF628010D9851F82010B81E0AAA52F873
:102F400020000DF6280252F82000081A642828DA1A
:102F500010460D9950F8214000EE104AB8EEC00A14
:102F6000DFED890A60EE200A40F22460001B00EECB
:102F7000100AB8EEC00A80EE801A11EE108A4046A0
:102F800008F0B8FA41EC180B53EC182B7FA16846F7
:102F900004F00AFF6B46182211463220FEF75EF954
:102FA00033E0099807F038FD41EC1D0B9FED7A0BDB
:102FB00053EC102B07F0A4FD41EC1C0B9FED780B9C
:102FC00053EC102B07F09CFD41EC1B0B53EC1B2B1F
:102FD0009FED750B51EC100B07F054FA41EC190BF7
:102FE0009FED730B53EC102B07F08AFD41EC180B8F
:102FF00053EC182B70A1684604F0D6FE6B461822DD
:1030000011463220FEF72AF900BF5D49088800EB1F
:10301000D0714D1000EE105AB8EE400ADFED690A8B
:1030200080EE20AA00EE105AB8EE400ADFED660AE4
:10303000C0EE20AA3E460024F7E00AA850F82480FB
:103040000DF6280050F8280008EE100A0DF58560EE
:1030500050F8280008EE900A4A48008800EE100A4E
:10306000B8EE400AF7EE000A60EE200A00EE106AA1
:10307000B8EEC00A80EE801A00EE104AB8EEC00A20
:1030800021EE000ABCEEC00A10EE100A1FFA80F909
:103090003B49088800EBD071491000EE101AB8EED9
:1030A000C00AF8EEC80A00EECA0ABCEEC00A10EE6A
:1030B000101A1FFA81FA32490888C11700EB917182
:1030C000891001EB410100EE101AB8EEC00AF8EECB
:1030D000E80A00EEAA0ABCEEC00A10EE101A89B285
:1030E00007914FF4784251464846FDF7B9FC002C51
:1030F0006CDD2448008800EE100AB8EE400AF7EEB6
:10310000000A20EE201A00EE106AB8EEC00AC1EEE6
:10311000000A601E00EE100AB8EEC00A20EE800A17
:10312000BCEEC00A10EE100A1FFA80FB1449088892
:1031300000EBD071491000EE101AB8EEC00A611E03
:103140000AAA52F821100DF6280252F8211000EEBA
:10315000901AF8EEE00A00EECA0ABCEEC00A10EEC1
:10316000101A89B206914FF4784053464A460090AF
:1031700058462CE0F4FDB43F000000000000004081
:103180001E0000201C0000203333C5425276616CC3
:1031900075653A252E3466008FC2F56825C7B040A4
:1031A0000000006066A65840000000000000F03FEC
:1031B0000000000065CDCD414376616C75653A2510
:1031C0002E34660000002F4500401C452CE0069977
:1031D000FEF732F919490888C11700EB917189107F
:1031E00001EB410100EE101AB8EEC00A611E0AAAF6
:1031F00052F821100DF5856252F8211000EE901A58
:10320000F8EEE00A00EEAA0ABCEEC00A10EE101AB0
:1032100089B205914FF4784000904A465846079B82
:103220000599FEF709F900BF641CB442FFF605AF2B
:103230000DF62C4DBDEC108BBDE8F08F1E0000206C
:1032400070472DE9F04F2DED028B81B0074689467E
:1032500090469B46A9EB070090FBF8F000F1010AAD
:103260000C98504504DA01B0BDEC028BBDE8F08F3C
:10327000002639E006FB087080B20090009807F045
:10328000EFFB41EC180B002201211046B0EE480A7A
:10329000F0EE680A03F057FB012003F0C5FA0121A4
:1032A000880702F063FA00BF4FF0804000880028D2
:1032B000FAD10024254600BF06E0FE4931F810107F
:1032C0000C1945F10005401CB0F5806FF5DB4FF49B
:1032D000806200232046294604F0EEFC04460D4699
:1032E0000BEBC60230C2761C5645C3DB00BFBAE703
:1032F0002DE9F04F2DED0A8BADF22C4D4FF480707F
:10330000CDF8280481000AA804F025FE00200990C9
:10331000824642F21070089064254FF000083AE0AF
:1033200008F101001FFA80FB0BFB05F007F074FBAE
:1033300041EC190B002201211046B0EE490AF0EED3
:10334000690A03F000FB0A2003F026FA012188072E
:1033500002F00CFA00BF4FF0804000880028FAD13C
:103360000026374600BF06E0D24931F810108E190A
:1033700047F10007401CB0F5806FF5DB4FF4806229
:1033800000233046394604F097FC06460AA941F866
:10339000286008F10108B8F1FF0FC1DD4FF6FF709A
:1033A0000090C5480388C548028800210846FDF7FB
:1033B00096FEDDF8200464380D9981427DDA0026FE
:1033C00062E0089807F028FB41EC1A0B0DF58060CD
:1033D00090ED090AB8EEC00ADFEDB90A20EE200A26
:1033E000B1EE001AC0EE010A0AA850F8260000EE5D
:1033F000100AB8EEC00A30EE600A10EE108A40469D
:1034000008F078F841EC1C0BB0EE4C0AF0EE6C0AB8
:1034100006F022F9B0EE40BAF0EE60BA53EC1A2B87
:1034200051EC1B0B07F030FB2DD20DF5806090EDB9
:10343000090AB8EEC00ADFEDA20A20EE200AB1EEBA
:10344000001AC0EE010A0AA850F8260000EE100A81
:10345000B8EEC00A30EE600A10EE108A404608F05E
:1034600049F841EC1B0BB0EE4B0AF0EE6B0A06F08C
:10347000F3F8B0EE40AAF0EE60AA51EC1A0B07F098
:10348000F9F90890B246761CFF2E9ADD9FED8D9AD1
:10349000B6EE008A00EE105AB8EEC00ADFED8A0AD6
:1034A00060EE200A0AF1010000EE100AB8EEC00A30
:1034B00060EE809A29EE090A00E045E0F0EE000A8D
:1034C00069EE200A00EE880AF1EE0C0A68EE200A86
:1034D00000EEC80AB1EE0C1AC0EE010A29EEA90AE4
:1034E00080EE801AB0EE41AAB0EE4A0A06F0BEF8AD
:1034F00010EE106A304607F0FDFF41EC1C0B9FED0B
:10350000730B53EC102B07F0FBFA41EC1B0B06F08E
:1035100025FD0746384607F0EDFF41EC1B0B9FEDFC
:103520006D0B53EC102B07F0EBFA41EC1A0B53EC3C
:103530001A2B6AA1684604F037FC6B461822114624
:103540003220FDF78BFEEAE00D99DDF82004081A21
:10355000C82825DA8A9E00EE106AB8EEC00ADFEDB0
:10356000590A60EE200A40F24A40801B00EE100A21
:10357000B8EEC00A80EE801A11EE107A384607F0D5
:10358000B9FF41EC190B53EC192B57A1684604F015
:103590000BFC6B46182211463220FDF75FFEBEE0A1
:1035A00000265EE0089807F037FA41EC190B9DED14
:1035B0000D0AB8EEC00ADFED420A20EE200AB0EE96
:1035C000001AC0EE010A0AA850F8260000EE100A00
:1035D000B8EEC00A30EE600A10EE107A384607F0F6
:1035E00089FF41EC1B0BB0EE4B0AF0EE6B0A06F0C4
:1035F00033F8B0EE40AAF0EE60AA53EC192B51EC70
:103600001A0B07F041FA2BD29DED0D0AB8EEC00A55
:10361000DFED2B0A20EE200AB0EE001AC0EE010A00
:103620000AA850F8260000EE100AB8EEC00A30EEE4
:10363000600A10EE107A384607F05CFF41EC1A0B76
:10364000B0EE4A0AF0EE6A0A06F006F8B0EE409ACA
:10365000F0EE609A51EC190B07F00CF90890B246A5
:10366000761CFF2E9EDD00EE105AB8EEC00ADFED8C
:10367000160A60EE200A0AF1010000EE100AB8EE08
:10368000C00A20EE800ADFED1B0A20EE200AF7EECA
:10369000000A80EE801A11EE106A304607F02AFF09
:1036A00041EC1A0B9FED140B53EC102B07F028FA8A
:1036B00026E00000200100201E0000201C00002049
:1036C000F4FDB43F6666C442DA0FC9400000000052
:1036D00080842E41CDCCCCCCCCCCEC3F4C76616CF4
:1036E00075653A252E3466005276616C75653A250B
:1036F0002E3466006666B8420000000065CDCD41FC
:1037000041EC190B53EC192B55A1684604F04CFB06
:103710006B46182211463220FDF7A0FD00BF534929
:10372000088800EBD0714FEA610900EE109AB8EEFC
:10373000400ADFED4F0AC0EE208A4FF48074002665
:103740007BE00AA850F8260008EE100A49480088D5
:1037500000EE100AB8EE400AF7EE000A20EE201A3A
:1037600000EE104AB8EEC00AC1EE000A00EE106A80
:10377000B8EEC00A20EE800ABCEEC00A10EE100AB5
:1037800087B23A49088800EBD071491000EE101A50
:10379000B8EEC00AF8EEC80A00EEE80ABCEEC00AAD
:1037A00010EE101A1FFA81F84FF47842414638465D
:1037B000FDF756F9002E3FDD2E48008800EE100A76
:1037C000B8EE400AF7EE000A60EE200A00EE104A5A
:1037D000B8EEC00A80EE801A701E00EE100AB8EE35
:1037E000C00A21EE000ABCEEC00A10EE100A1FFA51
:1037F00080FB1E49088800EBD071491000EE101ABA
:10380000B8EEC00A711E0AAA52F8211000EE901AF2
:10381000F8EEE00A00EEE80ABCEEC00A10EE101A5C
:1038200089B207914FF4784043463A460090584693
:103830000799FDF701FE00BF761CA64281DB00223E
:10384000012110469FED0C0B03F07DF84FF47A70C8
:1038500002F0EAFF0DF22C4DBDEC0A8BBDE8F08FB3
:103860004376616C75653A252E3466001E00002093
:1038700000002F451C0000200000000000408F4089
:1038800032490143324A1160704770B5002100236C
:103890000F22C4781CB32E4C246804F4E064C4F5F1
:1038A000E064C4F30721C1F10404E3B20A4144789F
:1038B0009C40E1B28478144021430C07210E254C32
:1038C00005786155047804F01F050124AC400578A3
:1038D0006D11AD0005F1E025C5F8004109E004785F
:1038E00004F01F050124AC401B4D0678761145F805
:1038F000264070BD194A0A400243154B1B1F1A602F
:10390000704739B1124A121D12680243104B1B1D39
:103910001A6006E00E4A121D126882430C4B1B1DF2
:103920001A607047042808D14FF0E021096941F07E
:1039300004014FF0E022116107E04FF0E021096936
:1039400021F004014FF0E022116170470000FA05F8
:103950000CED00E000E400E080E100E080FFFF1FEC
:1039600010B504469848844208D10121084600F069
:103970006AFE0021012000F066FE76E09348844252
:1039800008D10121022000F05EFE0021022000F09B
:103990005AFE6AE08E48844208D10121042000F0DA
:1039A00052FE0021042000F04EFE5EE08948844271
:1039B00008D10121082000F046FE0021082000F077
:1039C00042FE52E08448844208D10121102000F0D8
:1039D0003AFE0021102000F036FE46E07F48844287
:1039E00008D10121202000F02EFE0021202000F02F
:1039F0002AFE3AE07A48844208D10121402000F0B2
:103A000022FE0021402000F01EFE2EE07548844278
:103A100008D10121802000F016FE0021802000F056
:103A200012FE22E07048844208D10121801500F086
:103A30000AFE0021A01500F006FE16E06B48844245
:103A400008D10121401500F0FEFD0021601500F0B5
:103A5000FAFD0AE06648844207D10121001500F012
:103A6000F2FD0021201500F0EEFD10BDF0B50A4674
:103A700000210023002400BF3DE0012505FA01F3E9
:103A8000156805EA03049C4234D105684F000326FB
:103A9000BE40B543056015794E00B5400668354314
:103AA00005601579012D02D01579022D16D1856892
:103AB0004F000326BE40B543856055794E00B540A2
:103AC000866835438560456801268E40B54345606C
:103AD000456896798E40B6B235434560C5684F005B
:103AE0000326BE40B543C560D5794E00B540C668D3
:103AF0003543C560491C1029BFD3F0BD4FF6FF7197
:103B000001600021017141718171C171704708B577
:103B10004FF480320092009A0A430092009AC261E8
:103B2000C161009AC261C2690092C269009208BD77
:103B30000246002013690B400BB1012000E0002079
:103B400070470146086980B27047024600205369F9
:103B50000B400BB1012000E000207047014648698E
:103B600080B2704701837047418370470AB1018377
:103B700000E0418370474161704742694A404261B9
:103B80007047F0B5002300244D07ED0E02FA05F34F
:103B9000CE1000F1200555F826504E07F70E0F26DF
:103BA000BE40B543CF1000F1200646F82750CE1096
:103BB00000F1200555F8265045EA0304CE1000F127
:103BC000200545F82640F0BD0000024000040240F8
:103BD00000080240000C02400010024000140240A5
:103BE00000180240001C0240002002400024024055
:103BF0000028024030B943F2DB028100A1F1C0414C
:103C00000A6005E043F2D2028100A1F1C0410A60DE
:103C10006FF07042411C8900A1F1C0410A6081002F
:103C2000A1F1C041C1F804217047D0E9011211434C
:103C3000C268114302691143426911438269114309
:103C4000C2691143026A1143426A1143826A1143F5
:103C5000C26A1143026B114302689200A2F1C04292
:103C60001160816808290BD101688900A1F1C04168
:103C7000096841F0400201688900A1F1C0410A6071
:103C8000416B0968426B526841EA0211426B9268CB
:103C900041EA0221426B928941EA0241426B128A57
:103CA00041EA0251426B127D41EA0261426B926924
:103CB00011430268521C9200A2F1C0421160C16A15
:103CC000B1F5804F1BD1816B0968826B526841EA64
:103CD0000211826B926841EA0221826B128A41EAE8
:103CE0000251826B127D41EA0261826B926911433B
:103CF00002689200A2F1C042C2F8041107E06FF01E
:103D0000704201688900A1F1C041C1F804217047E7
:103D1000002101600221416000218160C1600161D8
:103D200041618161C16101624FF48051416249008A
:103D300081620021C1620163F84941638163704778
:103D400051B18200A2F1C042126842F00103820028
:103D5000A2F1C042136009E08200A2F1C0421268E1
:103D6000EF4B1A408300A3F1C0431A60704710283C
:103D70000AD118214FF020421166402151664FF0C0
:103D8000FC319166D16610E01821E64A11604021AD
:103D90004FF02042C2F884104FF0FC31E14A083263
:103DA00011604FF02042C2F88C10704730B50021EE
:103DB00000220023446844F0080485682C43C56849
:103DC0002C4305692C43456944EA4524856944EA46
:103DD0004531C4692468C5696D6844EA0524C5692C
:103DE0002D8944EA0544C5692D7B44EA0562046ACD
:103DF0002468056A6D6844EA0524056A2D8944EA49
:103E00000544056A2D7B44EA05630468102C05D13E
:103E10004FF020442166A266E36608E0C14C2160B1
:103E20004FF02044C4F88820BE4C0C34236030BDD1
:103E300010210160002141608160C1600161416128
:103E40008161FC21C2691160C2695160C2699160DF
:103E5000C269D160026A1160026A5160026A9160AF
:103E6000026AD160704799B1102808D14FF0204202
:103E7000126E42F004024FF020431A661DE0A94A78
:103E8000126842F004024FF02043C3F8802014E08F
:103E9000102809D14FF02042126EA14BDB1E1A40B0
:103EA0004FF020431A6608E09E4A12689C4BDB1EC6
:103EB0001A404FF02043C3F88020704799B1102872
:103EC00008D14FF02042126E42F040024FF02043E2
:103ED0001A661DE0934A126842F040024FF02043F8
:103EE000C3F8802014E0102809D14FF02042126E50
:103EF0008B4B3F3B1A404FF020431A6608E0894A3B
:103F00001268874B3F3B1A404FF02043C3F8802094
:103F1000704701460020102903D14FF02042506F16
:103F200002E0804A14321068704718207D49203121
:103F3000086000200906C1F8A4004FF0FC30794960
:103F400028310860091D0860091D08607047016874
:103F500041F01001426841EA4221826841EA42315F
:103F6000704A20321160C1680968C268526841EA2B
:103F70000221C268128941EA0241C268127B41EA09
:103F80000261684A28321160016909680269526851
:103F900041EA02210269128941EA02410269127B67
:103FA00041EA02615F4A2C32116041690968426945
:103FB000526841EA02214269128941EA024142699A
:103FC000127B41EA02614FF02042C2F8B010704704
:103FD0000021016041608160FC21C2681160C268FB
:103FE0005160C2689160C268D16002691160026963
:103FF0005160026991600269D16042691160426951
:104000005160426991604269D160704748B1454949
:104010002031096841F004014FF02042C2F8A0109D
:1040200009E04049203109683D4AD21E11404FF055
:104030002042C2F8A010704710B5F2B1102807D185
:104040004FF020435B6E0B434FF02044636632E039
:10405000B0F5807F08D1334B1B1D1B680B434FF01D
:104060002044C4F8843026E02E4B24331B680B43D5
:104070004FF02044C4F8A4301DE0102807D14FF0C1
:1040800020435B6E8B434FF02044636613E0B0F532
:10409000807F08D1234B1B1D1B688B434FF02044AE
:1040A000C4F8843007E01F4B24331B688B434FF068
:1040B0002044C4F8A43010BD10B5024600200023EF
:1040C000102A03D14FF02044636E09E0B2F5807FDF
:1040D00003D1144C241D236802E0124C24342368BD
:1040E00003EA01040CB1012000E0002010BD1028FB
:1040F00007D14FF02042526E8A434FF020435A6658
:1041000019E0B0F5807F0FD1064A121D12688A436C
:104110004FF02043C3F884200DE0000038D500089C
:10412000FEFF0F00800000A0234A12688A434FF070
:104130002043C3F8A420704770B502460020002336
:1041400000240025102A03D14FF02046736E08E0AA
:10415000B2F5807F03D1184E203E336801E0164E41
:10416000336803EA010403EAD10514B10DB101205B
:1041700000E0002070BD102808D14FF02042526EA0
:1041800022EAD1024FF020435A6614E0B0F5807F56
:1041900009D1094A203A126822EAD1024FF020439D
:1041A000C3F8842007E0044A126822EAD1024FF0E3
:1041B0002043C3F8A4207047A40000A0F948006879
:1041C00040F00100F74908600020F6490831086016
:1041D000F4480068F4490840F2490860F348091DB2
:1041E0000860F348EF4984310860F0481038091D31
:1041F0000860EC48006820F48020EA49086000204C
:10420000E8490C310860E7498C31086070470021AB
:10421000E44A921C117011460870704710B50146AF
:104220000022002300204A11012A02D1DD4C23681C
:1042300008E0022A03D1DB4C7034236802E0D94C39
:104240007434236801F01F02012494401C400CB117
:10425000012000E0002010BD38B5002000900024AF
:10426000002500BF3120FFF7D9FF05460098401C0C
:1042700000900098B0F5A04F01D0002DF2D0312071
:10428000FFF7CCFF08B1012400E00024204638BD30
:1042900001460020C34A106820F0F80040EAC1003F
:1042A00010607047C349086070470021BD4A7032F2
:1042B00011701170012802D004280AD104E00121F4
:1042C000B84A7032117005E00521B64A703211709B
:1042D00000E000BF00BF7047B7490860704770B585
:1042E000049C41EA82150126C6EB530645EA0645C1
:1042F000054345EA0465AB4E361D356070BDAD49DA
:1043000008667047820142EA0172A64B84331A6044
:104310007047A8498866704710B5830143EA016376
:1043200043EA02739F4C8834236010BDA14908679B
:104330007047A049C864704702460020994B083373
:10434000186820F0EC6042EA01031843954B0833EB
:104350001860704702460020924B0833186820F01E
:10436000784042EA010318438E4B083318607047C7
:10437000014600208B4A0832106820F003000843F1
:104380001060704787480830006800F00C007047E4
:1043900001460020834A0832106820F0F0000843EC
:1043A00010607047014600207E4A0832106820F4F1
:1043B000E05008431060704701460020794A0832F7
:1043C000106820F4604040EAC10010607047F0B50A
:1043D000002100220024022500260223714F083705
:1043E0003F6807F00C0121B1042905D0082937D115
:1043F00005E0724F076036E0714F076033E0694FA8
:104400003F1D3F68C7F38056664F3F1D3F6807F06A
:104410003F036EB16A4FB7FBF3F7DFF888C10CF1C9
:10442000040CDCF800C0CCF3881C07FB0CF40CE097
:10443000624FB7FBF3F7DFF86CC10CF1040CDCF84A
:1044400000C0CCF3881C07FB0CF4564F3F1D3F689F
:10445000C7F301477F1C7D00B4FBF5F7076002E05E
:10446000564F076000BF00BF4E4F08373F6807F048
:10447000F0010909534F7A5C0768D7404760494FFC
:1044800008373F6807F4E051890A4E4F7A5C476865
:10449000D7408760434F08373F6807F46041490BB6
:1044A000484F7A5C4768D740C760F0BD002100F4F0
:1044B0004072B2F5407F0AD13A4A0832116821F4BD
:1044C000F811414A02401143364A08321160354A18
:1044D00070321268C0F30B031A43324B70331A6008
:1044E000704735494439086070473349403908609E
:1044F000704736490860704701460020294A8C32CF
:10450000106820F01F004A1E1043264A8C321060AB
:10451000704701460020234A8C32106820F4F8507E
:104520004A1E40EA02201F4A8C3210607047014642
:1045300000201C4A8C32106820F4401008431060A0
:10454000704701460020174A8C32106820F4400062
:1045500008431060704701460020124A8C321068F0
:1045600020F44030084310607047194908607047D4
:1045700039B10C4A3032126802430A4B30331A60A8
:1045800006E0084A303212688243064B30331A6024
:104590007047F9B1034A343212680243014B343395
:1045A0001A601CE000380240FFFFF6EA10300024D9
:1045B0000030002000004742800E47420024F400F3
:1045C00000127A00B8000020FFFCFF0F5C01474298
:1045D000E01147428F4A126882438E4B1A6070473F
:1045E00039B18C4A121D126802438A4B1B1D1A6096
:1045F00006E0884A121D12688243864B1B1D1A6012
:10460000704739B1834A0C3212680243814B0C3334
:104610001A6006E07F4A0C32126882437D4B0C33ED
:104620001A60704739B17B4A103212680243794BE5
:1046300010331A6006E0774A103212688243754BD5
:1046400010331A60704739B1724A243A1268024333
:10465000704B243B1A6006E06E4A243A126882438B
:104660006C4B243B1A60704739B16A4A203A126891
:104670000243684B203B1A6006E0664A203A126803
:104680008243644B203B1A60704739B1614A1C3A3F
:10469000126802435F4B1C3B1A6006E05D4A1C3AFD
:1046A000126882435B4B1C3B1A60704739B1594A10
:1046B000143A12680243574B143B1A6006E0554AFD
:1046C000143A12688243534B143B1A60704739B155
:1046D000504A103A126802434E4B103B1A6006E0F3
:1046E0004C4A103A126882434A4B103B1A6070479A
:1046F00039B1484A1C3212680243464B1C331A60D7
:1047000006E0444A1C3212688243424B1C331A6052
:10471000704739B13F4A2032126802433D4B203383
:104720001A6006E03B4A203212688243394B20333C
:104730001A60704739B1374A243212680243354B48
:1047400024331A6006E0334A243212688243314B24
:1047500024331A60704739B12E4A2C321268024352
:104760002C4B2C331A6006E02A4A2C321268824302
:10477000284B2C331A60704739B1264A3032126800
:104780000243244B30331A6006E0224A303212686A
:104790008243204B30331A607047012808D11D49ED
:1047A0003C31096841F008011A4A3C32116007E0C7
:1047B00018493C31096821F00801164A3C32116061
:1047C000704739B1134A273A12780243114B273BFD
:1047D0001A7006E00F4A273A127882430D4B273BA6
:1047E0001A7070470B484030006840F080700949EB
:1047F00040310860704701460020064A283A126896
:104800000A400AB1012000E0002070470149263922
:10481000087070473438024010B50446FA488442A4
:1048200008D101211020FFF752FF00211020FFF7CF
:104830004EFF57E0F548844209D101214804FFF7B3
:1048400035FF00214FF40030FFF730FF4AE0F04819
:10485000844209D101218804FFF728FF00214FF489
:104860008020FFF723FF3DE0EA48844209D101217F
:10487000C804FFF71BFF00214FF40020FFF716FFCD
:1048800030E0E548844209D101210805FFF70EFF19
:1048900000214FF48010FFF709FF23E0DF48844236
:1048A00008D101212020FFF712FF00212020FFF76F
:1048B0000EFF17E0DA48844209D101218807FFF78B
:1048C000F5FE00214FF08040FFF7F0FE0AE0D548EA
:1048D000844207D101214005FFF7E8FE0021600571
:1048E000FFF7E4FE10BD2DE9FF4705460E46002404
:1048F000A14600BFA046B08900B100BF2C8A24F4B5
:104900004054F08804432C82AC8941F20C6084430B
:10491000B08831890843718908430443AC81AC8A6B
:1049200024F44074B0890443AC826846FFF74FFD1D
:10493000B548854202D0B948854202D1DDF80C90D5
:1049400001E0DDF80890A88900F4004040B109EBCF
:10495000C90000EB091031684900B0FBF1F707E02E
:1049600009EBC90000EB091031688900B0FBF1F7D1
:104970006420B7FBF0F004012009642101FB1078EA
:10498000A88900F4004040B1322000EBC800B0FB21
:10499000F1F000F00700044308E0322000EB0810BB
:1049A0006421B0FBF1F000F00F0004432C81BDE85E
:1049B000FF874FF41651016000218180C180018181
:1049C0000C21418100218181704710B502460020F1
:1049D000108A20F470600B884C8823438C88234312
:1049E000CC8823431843108210BD002101804180F0
:1049F0008180C180704721B1828942F40052828156
:104A000004E082894DF6FF731A4082817047028B61
:104A100002F47F420283028B0A430283704721B172
:104A2000828942F40042828103E08289C2F30E024D
:104A30008281704721B1828A42F40062828204E05E
:104A4000828A4FF2FF731A4082827047C1F30802D4
:104A50008280704701468888C0F308007047028A48
:104A60004FF6F0731A400282028A0A4302827047AC
:104A700021B1828942F00202828104E082894FF6EC
:104A8000FD731A408281704782894FF2FF731A408A
:104A9000828182890A4382817047028A4FF6DF73DE
:104AA0001A400282028A0A430282704721B1028AB6
:104AB00042F48042028204E0028A4BF6FF731A40FD
:104AC00002827047818941F001018181704721B1E3
:104AD000828A42F00802828204E0828A4FF6F773EB
:104AE0001A4082827047028BD2B20283028B42EA62
:104AF00001220283704721B1828A42F02002828221
:104B000004E0828A4FF6DF731A408282704721B137
:104B1000828A42F01002828204E0828A4FF6EF73AA
:104B20001A4082827047828A4FF6FB731A40828253
:104B3000828A0A438282704721B1828A42F002024D
:104B4000828204E0828A4FF6FD731A4082827047A7
:104B50001AB1838A0B43838202E0838A8B43838268
:104B60007047F0B50346002400260025002040F6DB
:104B70006A17B94200D100BF1846C1F3421401F0D0
:104B80001F06012707FA06F5012C01D10C3004E0BD
:104B9000022C01D1103000E014301AB107682F4305
:104BA000076002E00768AF430760F0BD02460020DF
:104BB000B1F5007F00D100BF13880B400BB101207D
:104BC00000E00020704701F40072B2F5007F00D1D0
:104BD00000BFCA430280704770B50246002400231C
:104BE0000025002040F66A16B14200D100BFC1F393
:104BF000421501F01F03012606FA03F3012D13D11C
:104C00009689334017E00000001001400044004046
:104C100000480040004C004000500040001401409B
:104C200000780040007C0040022D02D1168A3340FB
:104C300001E0968A33400C12012606FA04F4168825
:104C4000344013B10CB1012000E0002070BD10B55C
:104C50000022002340F66A14A14200D100BF0A12CC
:104C600001249440A3B2DC43048010BD10B501219F
:104C70000802FFF72CFD00214FF48070FFF727FD9D
:104C800010BD30B50246002000235068F84C20408B
:104C90000D790C6844EA0524204350609068F54C77
:104CA0002040D1E903542C438D682C434D7944EACC
:104CB000450420439060D06A20F470000C7D641E8F
:104CC000E4B2234340EA0350D06230BD00210160CA
:104CD000017141718160C1600161012101757047FD
:104CE0000021E54A1168E54A1140D0E900231A4342
:104CF00083681A43C3681A431143E14AC2F8041394
:104D000070470021016041608160C160704721B13E
:104D1000826842F00102826003E0826822F00102B0
:104D2000826070470A4600214168D64B1940114302
:104D3000416070474162826270470A4600214168C3
:104D400021F01F0111434160704738B1CA49096819
:104D500041F40001CA4AC2F8041306E0C6490968D2
:104D600021F40001C64AC2F80413704738B1C249A1
:104D7000096841F48001C24AC2F8041306E0BE4942
:104D8000096821F48001BE4AC2F804137047F0B5E7
:104D900004460D4600200021092D11DDE068A5F133
:104DA0000A0606EB4607072606FA07F18843A5F12F
:104DB0000A0606EB460603FA06F10843E0600CE03B
:104DC000206905EB4507072606FA07F1884305EB3E
:104DD000450603FA06F108432061072A0FDA606BE3
:104DE000561E06EB86071F2606FA07F18843561E55
:104DF00006EB860605FA06F10843606322E00D2AF9
:104E00000FDA206BD61F06EB86071F2606FA07F17E
:104E10008843D61F06EB860605FA06F10843206391
:104E200010E0E06AA2F10D0606EB86071F2606FADF
:104E300007F18843A2F10D0606EB860605FA06F196
:104E40000843E062F0BD816841F0804181607047B5
:104E5000014600208A6802F080420AB1012000E089
:104E60000020704721B1826842F48062826003E0D2
:104E7000826822F480628260704721B1826842F0C9
:104E80000202826003E0826822F0020282607047C0
:104E900010B50A4600210023416821F46041531EE9
:104EA00041EA4331416010BD21B1426842F40062E1
:104EB000426003E0426822F40062426070470146AB
:104EC000C86C80B270476C48001D0068704721B103
:104ED000826842F48072826003E0826822F4807209
:104EE0008260704721B1826842F40072826003E000
:104EF000826822F400728260704738B15E490968A6
:104F000041F400515E4AC2F8041306E05A490968A8
:104F100021F400515A4AC2F804137047F0B5044610
:104F20001546002000220026092911DDE068A1F1C4
:104F30000A0707EB470C072707FA0CF29043A1F189
:104F40000A0707EB470703FA07F21043E0600CE09B
:104F5000206901EB410C072707FA0CF2904301EBA3
:104F6000410703FA07F210432061A06BC0F301561A
:104F7000EF1C06F1010CA7EB0C0707EB870C1F27B2
:104F800007FA0CF29043EF1C06F1010CA7EB0C079B
:104F900007EB870701FA07F21043A063F0BD10B5D5
:104FA0000A4600210023816B21F44011531E41EA7F
:104FB0000351816310BD08B5002300930090009B4E
:104FC0000B440093009B1A6008BD0A4600218168CB
:104FD00021F470211143816070470A4600218168E5
:104FE00021F44011114381607047816841F48001D0
:104FF00081607047014600208A6802F480020AB18D
:10500000012000E00020704721B1426842F4806234
:10501000426003E0426822F480624260704721B13E
:10502000426842F48052426003E0426822F48052B7
:105030004260704708B5024600200090009201F1DE
:105040002800009B184400900098006880B208BDBA
:1050500010B50B460021D9B2012404FA01F11AB1AE
:1050600044680C43446002E044688C43446010BDD3
:10507000FFFEFFFCFDF7FFC004230140E030FCFF12
:1050800000200140FFFD3FFF0246002013680B4057
:105090000BB1012000E000207047CA430260704756
:1050A00070B502460020002300240B12556801262B
:1050B0008E4005EA060415681D4015B10CB10120AB
:1050C00000E0002070BD00220A12D3430360704745
:1050D00070B50446002500BF17E004F0800018B149
:1050E0000120ED49086002E00020EB4908606006FD
:1050F000040E0020E9490860012001F04DFB012069
:10510000E749C1F89402681CC5B2082DE5DB70BD03
:1051100070B50646002500240020E0490860E149FA
:10512000C1F88402DC49091F08603046FFF7D0FF50
:10513000062001F031FB0020D949C1F8940201207A
:1051400001F02AFB0120D549086001F025FB002071
:10515000D349C1F8940200BF15E04FF6FF7000EA92
:1051600044040020CD490860012001F015FB012016
:10517000CB49C1F89402C8487C38006808B1601C6B
:1051800084B2681CC5B2102DE7DB24110120C2498E
:10519000091F0860204670BD2DE9FE4380460027A8
:1051A000002406E04046FFF7B3FF2DF81400601C12
:1051B00084B2052CF6DB002416E0601C85B20FE0FB
:1051C0003DF814003DF81510884207DD3DF81460E5
:1051D0003DF815002DF814002DF81560681C85B2F7
:1051E000052DEDDB601C84B2042CE6DB00270124D6
:1051F00005E03DF81400384487B2601C84B2042CEA
:10520000F7DB032097FBF0F086B23046BDE8FE8363
:105210002DE9F04104460D46A3480078FFF7BCFF96
:105220000646A2480078FFF7B7FF0746322E01DB9B
:10523000322F02DA0020BDE8F08126802F80012085
:10524000F9E77FB504460D4602A903A8FFF7E0FF82
:10525000064616B9002004B070BD694601A8FFF7E4
:10526000D7FF06460EB90020F5E7BDF80400BDF8EB
:105270000C10884206DCBDF80C10BDF8040032307A
:1052800081420CDBBDF80C00BDF80410884236DC0E
:10529000BDF80410BDF80C00323081422FDABDF8A1
:1052A0000000BDF80810884206DCBDF80810BDF803
:1052B0000000323081420CDBBDF80800BDF8001060
:1052C00088421CDCBDF80010BDF808003230814275
:1052D00015DABDF80C10BDF80420881800EBD07169
:1052E000C1F34F012180BDF80810BDF800208818D7
:1052F00000EBD071C1F34F0129800120ABE7002002
:10530000A9E710B504464FF6FF706949088069495E
:10531000088069480068002848D124B16749684876
:10532000FFF78FFF34E065496548FFF78AFF78B3E0
:105330006448B0F9000000EE100AB8EEC00A6248F6
:1053400090ED001A5E48008800EE900AF8EE600AC0
:1053500001EE200ABCEEC00A10EE100A584908807F
:105360005A48B0F9000000EE100AB8EEC00A5848DA
:1053700090ED001A5148008800EE900AF8EE600A9D
:1053800001EE200ABCEEC00A10EE100A4B4908805C
:105390004B4800884F490880484800884E4908809B
:1053A0004E480078401C4D49087014E04B48007886
:1053B000022807DD424800883D4908803F480088B0
:1053C0003C4908800020454908704FF6FF7041496C
:1053D00008804149088010BD1CB501212720FFF736
:1053E000C7F80420009000208DF804008DF8060016
:1053F00003208DF8050001208DF807006946384824
:10540000FEF734FB4FF40060009069463548FEF724
:105410002DFB0320009001208DF8040069463048E0
:10542000FEF724FB2020009069462F48FEF71EFB64
:105430002E480078C0B190201B490870D0201B492D
:1054400008709FED2B0A204880ED000A9FED290A85
:105450001F4880ED000A4FF4AE701A4908806FF0C3
:1054600012001A49088016E0D0200F4908709020D9
:105470000E4908709FED200A134880ED000A9FED49
:105480001F0A134880ED000A6FF00A000D490880DA
:10549000C01F0E4908801CBD8482404294024042D5
:1054A0000000404200804042D0000020D100002097
:1054B000CC000020CE0000202C824242E2000020DE
:1054C000E0000020DC000020D4000020DE000020EE
:1054D000D8000020C8000020CA000020E4000020FE
:1054E0000004024000140240000002401A000020A4
:1054F0006452BCBD7BF5893DDA9F883D3ABABA3D1E
:1055000010B50446FE48844208D101210846FFF741
:10551000DEF800210120FFF7DAF89DE0B4F1804FBA
:1055200008D101210846FFF7C1F800210120FFF74B
:10553000BDF891E0F348844208D101210220FFF731
:10554000B5F800210220FFF7B1F885E0EE4884426B
:1055500008D101210420FFF7A9F800210420FFF75A
:10556000A5F879E0E948844208D101210820FFF735
:105570009DF800210820FFF799F86DE0E448844287
:1055800008D101211020FFF791F800211020FFF72A
:105590008DF861E0DF48844208D101212020FFF727
:1055A00085F800212020FFF781F855E0DA48844291
:1055B00008D101210220FFF78AF800210220FFF71D
:1055C00086F849E0D548844209D101210804FFF753
:1055D0007EF800214FF48030FFF779F83CE0D048A6
:1055E000844209D101214804FFF771F800214FF4EA
:1055F0000030FFF76CF82FE0CA48844209D101213E
:105600008804FFF764F800214FF48020FFF75FF86B
:1056100022E0C548844208D101214020FFF746F826
:1056200000214020FFF742F816E0C048844208D12C
:1056300001218020FFF73AF800218020FFF736F89B
:105640000AE0BB48844207D101218015FFF72EF8FC
:105650000021A015FFF72AF810BD00220288A84BF0
:1056600098420ED0AC4B98420BD0B0F1804F08D08E
:10567000A44B984205D0A44B984202D0A34B984229
:1056800004D14FF68F731A404B881A43A04B9842AF
:1056900007D0A04B984204D04FF6FF431A400B8925
:1056A0001A4302804B68C3620B880385944B98426F
:1056B00002D0994B984201D18B7A038601238382D1
:1056C00070474FF0FF31416000210180018141802E
:1056D000817270470185828270470A4600210188E5
:1056E0004FF68F7319401143018070474162704734
:1056F000C16270470146486A70470146088D70478D
:1057000021B1028842F00202028004E002884FF6D2
:10571000FD731A400280704721B1028842F00402F2
:10572000028004E002884FF6FB731A400280704743
:1057300021B1028842F08002028004E002884FF624
:105740007F731A400280704702884FF6F7731A4041
:10575000028002880A430280704702884FF6FF43A6
:105760001A40028002880A430280704721B10288F1
:1057700042F00102028004E002884FF6FE731A40F4
:105780000280704770B5002400220023058C4FF67C
:10579000FE7635400584028C8388048B4FF68F7526
:1057A0002C40B51E2C400D882C43751E2A408D8937
:1057B0002A434D882A43524DA84202D0564DA84252
:1057C00013D14FF6F7752A40CD892A434FF6FB7562
:1057D0002A408D882A434FF6FF652B404FF6FF5530
:1057E0002B400D8A2B434D8A2B43838004838D6885
:1057F0004563028470BD70B5002400220023058C2F
:105800004FF6EF7635400584028C8388048B48F68A
:10581000FF752C404FF6FF452C400D884FF6FF7664
:1058200006EA05252C434FF6DF752A408D8906EAE6
:1058300005152A434D8806EA05152A43304DA8422E
:1058400002D0354DA8421DD14FF67F752A40CD8933
:105850004FF6FF7606EA05152A434FF6BF752A4034
:105860008D8806EA05152A434FF6FF352B404FF287
:10587000FF752B400D8A06EA85052B434D8A06EA03
:1058800085052B43838004838D688563028470BD06
:1058900070B5002400220023058C4FF6FF663540CA
:1058A0000584028C8388848B4FF68F752C404FF6CD
:1058B000FC752C400D882C434FF6FF552A408D89EE
:1058C0004FF6FF7606EA05252A434D8806EA0525A8
:1058D0002A430B4DA84202D00F4DA84238D14FF2B7
:1058E000FF752A40CD894FF6FF7606EA05252A4343
:1058F0004FF6FF352A408D8806EA05252A4319E030
:10590000000001400004004000080040000C00407E
:10591000001000400014004000040140004001401D
:10592000004401400048014000180040001C0040B5
:10593000002000404EF6FF752B404DF6FF752B40C2
:105940000D8A06EA05152B434D8A06EA05152B43F9
:10595000838084838D68C563028470BD70B5002226
:1059600000230024058C4EF6FF7635400584038C19
:105970008488828B48F6FF752A404FF6FF452A40FF
:105980000D884FF6FF7606EA05252A434DF6FF758A
:105990002B408D8906EA05352B434D8806EA0535EF
:1059A0002B43FE4DA84202D0FD4DA84208D14BF634
:1059B000FF752C400D8A4FF6FF7606EA85152C43BD
:1059C000848082838D680564038470BD002101801A
:1059D0004180818081608181C181018241827047E3
:1059E00070B50346002000241846183001258D406C
:1059F000ACB21D8CA5431D8409B108290AD100EB66
:105A0000610005684FF68F763540056005681543DF
:105A100005600FE00D1FC5F34E052844056848F6E4
:105A2000FF763540056005684FF6FF7606EA0226E8
:105A30003543056070BD4163704781637047C16342
:105A40007047016470470A460021018B4FF68F733F
:105A500019401143018370470A460021018B48F623
:105A6000FF7319404FF6FF7303EA022319430183C2
:105A700070470A460021818B4FF68F7319401143FE
:105A8000818370470A460021818B48F6FF731940D5
:105A90004FF6FF7303EA02231943818370470A46D6
:105AA0000021018B4FF6F7731940114301837047B2
:105AB0000A460021018B4FF2FF7319404FF6FF7326
:105AC00003EA02231943018370470A460021818BB0
:105AD0004FF6F77319401143818370470A4600213E
