:020000040800F2
:10000000085600204D040008290400082D040008AB
:10001000310400083504000839040008000000001D
:100020000000000000000000000000003D04000887
:1000300041040008000000004504000849040008CD
:1000400067040008670400086704000867040008E4
:1000500067040008670400086704000867040008D4
:1000600067040008670400086704000867040008C4
:1000700067040008670400086704000867040008B4
:1000800067040008670400086704000867040008A4
:100090006704000867040008670400086704000894
:1000A0006704000867040008670400086704000884
:1000B00001230008792100083D2100086704000899
:1000C0006704000867040008670400086704000864
:1000D0006704000867040008670400086704000854
:1000E0006704000867040008670400086704000844
:1000F0006704000867040008670400086704000834
:100100006704000867040008670400086704000823
:100110006704000867040008670400086704000813
:10012000DD1F000867040008670400086704000872
:1001300067040008670400086704000867040008F3
:1001400067040008670400086704000867040008E3
:10015000670400086704000867040008197B0008AA
:1001600067040008670400086704000867040008C3
:1001700067040008670400086704000867040008B3
:10018000670400086704000800F002F800F0C9F8EE
:100190000AA090E8000C82448344AAF10107DA45E2
:1001A00001D100F0BEF8AFF2090EBAE80F0013F06B
:1001B000010F18BFFB1A43F0010318470413010095
:1001C00024130100103A24BF78C878C1FAD8520726
:1001D00024BF30C830C144BF04680C6070470000C1
:1001E0000023002400250026103A28BF78C1FBD840
:1001F000520728BF30C148BF0B6070474B1C012B12
:1002000098BF70472DE9F003911C9B08B1F804805A
:10021000B1F802900A8831F802CC8044814402444B
:100220008444D9F80070D8F800601568DCF8004004
:10023000C9F80060C8F80070CCF800501460D9F814
:100240000470D8F804605568DCF80440C9F804600C
:10025000C8F80470CCF80450546008315B1ED5D146
:10026000BDE8F00370474B1C012B98BF70472DE988
:10027000F003911C9B08B1F80480B1F802900A8841
:1002800031F802CC00EB580800EB590900EB5202A0
:1002900000EB5C0CD9F80070D8F800601568DCF849
:1002A0000040C9F80060C8F80070CCF80050146035
:1002B00008315B1EDFD1BDE8F003704766290CF002
:1002C0000182692908F04286642908F03F86752971
:1002D00008F03C866F2908F0D386782908F0FA8662
:1002E0000368DB0928BF41F08001632909F03F82E0
:1002F000E32909F05282002070471FB50CF024F961
:1003000009F084FA0400002000210AF0ABFD401C33
:100310006060002000210AF08FFDE0601FBD10B575
:1003200010BD09F0ABFB1146FFF7E7FF00F008F83E
:1003300009F05CFD03B4FFF7F2FF03BC09F014FE03
:100340004FF4A06004F0B6F907F008F900F0D6FE0B
:1003500002F0CAF94FF4E13007F084FB01F050FCE1
:1003600001F068FD01F0B4FD0920052101F058FFFE
:1003700007F0B6FA9FED080B00200121002207F0DC
:100380001FFB642007F0F6FA01F0E6FF02F0FCFA2A
:10039000FAE700BF00BF00BF000000000088B340C4
:1003A00070B588B042F20F7042F2CF0101F09AFEB0
:1003B0004FF6FF70032101F031FE40F28C00C2F2D3
:1003C0000000006864250DF1020400FB05F60A2018
:1003D0006E211822234601F0FFF944F2A320C0F257
:1003E0000F00864284BF48F2A065C0F2010505A057
:1003F00009A1B6FBF5F288BF0146204608F030FDA2
:1004000008B070BD667265713A25646B687A202009
:100410002020202000000000667265713A256420CB
:100420002020202020000000704700BFFEE700BF12
:10043000FEE700BFFEE700BFFEE700BF704700BF5A
:10044000704700BF704700BF7047000009488047F1
:1004500009480047FEE7FEE7FEE7FEE7FEE7FEE7A6
:10046000FEE7FEE7FEE7FEE704480549054A064BBE
:10047000704700008D04000889010008084500202D
:1004800008560020084700200847002082B04EF69A
:10049000885CCEF2000CDCF8002043F6000142F448
:1004A0007002C4F20201CCF800200A684FF6FF7017
:1004B00042F001020A6000228A600B68CFF6F66003
:1004C0001840086043F21000C2F20040486008681B
:1004D00020F480200860CA6001920092086840F40D
:1004E00080300860086800F4003000900198013006
:1004F0000190009818B90198B0F5A04FF2D10868A2
:10050000800354BF002001200090009801284BD1A7
:10051000086C40F08050086447F20000C4F200000C
:10052000026842F44042026088688860886840F44B
:1005300000408860886840F4A050886045F2084018
:10054000C0F240704860086840F080700860086839
:10055000800109D4086880015CBF08685FEA8010E8
:1005600002D408688001F2D540F20570C1F8000499
:10057000886820F003008860886840F00200886086
:10058000886800F00C0008280ED0886800F00C0085
:10059000082809D0886800F00C00082804D0886872
:1005A00000F00C000828EBD14FF000604CF8800CF4
:1005B00002B0704743F60400C4F20200416801F043
:1005C0000C0242F20041082AC0F2F40106D0042ACB
:1005D0001DD141F20021C0F27A0118E002680368DF
:1005E000520241F20022C0F27A0203F03F0358BFE8
:1005F0000A460168B2FBF3F20368C1F38811514364
:10060000C3F30142022303EB4202B1FBF2F140F2D9
:100610000402C2F20002116040684FF62803C0F3E2
:100620000310C0F60003185C21FA00F01060704758
:1006300081B0ADF80200ADF80010BDF8020041F63F
:10064000FE71C6F600410880BDF8000042F20001CC
:10065000C6F60041088001B0704700BF80B582B087
:10066000ADF80600BDF8060041F6FE71C6F6004181
:100670000880042006F080FF42F20000C6F6004029
:10068000008802B080BD00BF81B08DF80300FFE795
:100690009DF80300411E8DF8031008B1FFE7F7E74E
:1006A00001B0704744F2FC40C2F20000008841F6FD
:1006B000FE71C6F600410880704700BF41F6FE712A
:1006C000C6F6004129200880704700BF41F6FE7140
:1006D000C6F6004128200880704700BF84B0ADF8FE
:1006E0000E00ADF80C10ADF80A20ADF80830BDF8DA
:1006F0000E00BDF80A1008440138ADF80A00BDF834
:100700000C00BDF8081008440138ADF8080041F2AB
:10071000EC00C2F200000078002857D1FFE744F255
:10072000F200C2F20000008841F6631188424DD108
:10073000FFE744F2F400C2F200000088BDF80A109E
:10074000401ABDF80E10401AADF80E00BDF80C00AE
:10075000BDF8081008440138ADF8080044F2F6006E
:10076000C2F20000008841F6FE72C6F60042108018
:100770009DF80F0042F20001C6F600410191088089
:100780009DF80E000880BDF80E00BDF80A30184430
:100790000138000A0880BDF80E00BDF80A30184480
:1007A0000138C0B2088044F2F800C2F200000088AC
:1007B00010809DF80D0008809DF80C0008809DF8C1
:1007C000090008809DF8080008802DE044F2F6003A
:1007D000C2F20000008841F6FE72C6F600421080A8
:1007E0009DF80F0042F20001C6F60041009108801A
:1007F0009DF80E0008809DF80B0008809DF80A0007
:10080000088044F2F800C2F20000008810809DF8D1
:100810000D0008809DF80C0008809DF809000880F4
:100820009DF808000880FFE704B0704780B584B0E9
:100830008DF80F000020ADF80C00ADF80A0041F271
:10084000EC00C2F20000007801280AD1FFE744F270
:10085000F200C2F20000008849F24131884212D011
:10086000FFE741F2EC00C2F200000078002838D126
:10087000FFE744F2F200C2F20000008841F6631183
:1008800088422ED1FFE79DF80F000146019107280D
:1008900026D80199DFE801F004080C1014181C2078
:1008A00006208DF80F001BE007208DF80F0017E0E1
:1008B00004208DF80F0013E005208DF80F000FE0E5
:1008C00001208DF80F000BE000208DF80F0007E0ED
:1008D00003208DF80F0003E002208DF80F00FFE7E2
:1008E000FFE79DF80F0001460091072838D80099CE
:1008F000DFE801F004050C131A21282F30E0BDF8C1
:100900000C0040F08000ADF80C0029E0BDF80C00B0
:1009100040F04000ADF80C0022E0BDF80C0040F0C3
:10092000C000ADF80C001BE0BDF80C0040F020004A
:10093000ADF80C0014E0BDF80C0040F06000ADF81C
:100940000C000DE0BDF80C0040F0A000ADF80C006C
:1009500006E0BDF80C0040F0E000ADF80C00FFE749
:100960003620ADF80A0044F2F200C2F2000000881E
:1009700049F24131884207D1FFE7BDF80C0040F051
:100980000800ADF80C00FFE7BDF80A00BDF80C1038
:10099000FFF74EFE44F2F400C2F20000028844F277
:1009A000F000C2F20000038800210846FFF796FE1F
:1009B00004B080BD80B582B08DF807009DF80700B7
:1009C00000285DD1FFE741F2EC01C2F200010020F6
:1009D000087044F2F200C2F20000008849F241318E
:1009E000884220D1FFE744F2FC41C2F200012C20F2
:1009F000088044F2F601C2F200012A20088044F285
:100A0000F801C2F200012B20088044F2F401C2F286
:100A10000001F020088044F2F001C2F200014FF41E
:100A2000A07008802BE044F2F200C2F200000088BF
:100A300041F66311884221D1FFE744F2FC41C2F242
:100A400000012C20088044F2F601C2F200012B20A4
:100A5000088044F2F801C2F200012A20088044F222
:100A6000F401C2F200014FF4F070088044F2F0018A
:100A7000C2F200014FF448700880FFE7FFE75CE036
:100A800041F2EC01C2F200010120087044F2F200D0
:100A9000C2F20000008849F24131884220D1FFE7CC
:100AA00044F2FC41C2F200012C20088044F2F6011D
:100AB000C2F200012A20088044F2F801C2F20001CB
:100AC0002B20088044F2F401C2F200014FF4A07020
:100AD000088044F2F001C2F20001F02008802BE00F
:100AE00044F2F200C2F20000008841F6631188422D
:100AF00021D1FFE744F2FC41C2F200012C20088022
:100B000044F2F601C2F200012A20088044F2F80102
:100B1000C2F200012B20088044F2F401C2F200016D
:100B20004FF44870088044F2F001C2F200014FF423
:100B3000F0700880FFE7FFE7FFE70020FFF776FE91
:100B400002B080BD81B0ADF80200ADF8001044F2F3
:100B5000F200C2F20000008849F24131884221D1FE
:100B6000FFE744F2F600C2F20000008841F6FE7290
:100B7000C6F6004210809DF8030042F20001C6F65E
:100B8000004108809DF80200088044F2F800C2F29B
:100B90000000008810809DF8010008809DF800008A
:100BA000088076E044F2F200C2F20000008841F6CC
:100BB000631188426CD1FFE741F2EC00C2F2000001
:100BC000007818BBFFE744F2F400C2F2000001888D
:100BD000BDF80200C0430844ADF8020044F2F6003C
:100BE000C2F20000008841F6FE71C6F6004108809E
:100BF00042F20001C6F600410020088008809DF8FE
:100C0000030008809DF80200088020E044F2F6000E
:100C1000C2F20000008841F6FE71C6F6004108806D
:100C20009DF8030042F20001C6F6004108809DF8DD
:100C30000200088044F2F400C2F200000288013A87
:100C4000120A0A8000880138C0B20880FFE744F227
:100C5000F800C2F20000008841F6FE71C6F60041BD
:100C600008809DF8010042F20001C6F600410880AC
:100C70009DF80000088044F2F000C2F200000288F3
:100C8000013A120A0A8000880138C0B20880FFE7E2
:100C9000FFE701B0704700BF80B584B0ADF80C002D
:100CA000ADF80A100020ADF80800ADF80600ADF868
:100CB0000400BDF80C00BDF80A10FFF743FF41F631
:100CC000FE71C6F600412E20088042F20000C6F6F2
:100CD00000400088ADF8080044F2F200C2F20000C3
:100CE000008841F66311884205D1FFE7BDF808008E
:100CF000ADF80E0025E00220FFF7C6FC42F200002E
:100D0000C6F600400088ADF80400BDF80800C0B287
:100D1000ADF80600BDF806000002ADF80600BDF80B
:100D2000080000F47840BDF806204FF4FC6101EAA9
:100D300052110844BDF8041040EAD120ADF80E006D
:100D4000FFE7BDF80E0004B080BD00BF80B582B0E3
:100D5000ADF80600ADF80410BDF80600BDF80410AB
:100D6000FFF7F0FEFFF79EFC41F2E000C2F2000048
:100D7000008842F20001C6F60041088002B080BD42
:100D800080B582B0ADF80600ADF80410ADF80220D1
:100D9000BDF80600BDF80410FFF7D8FF44F2FC4090
:100DA000C2F20000008841F6FE71C6F600410880DC
:100DB000BDF8020042F20001C6F60041088002B010
:100DC00080BD00BF81B08DF8030041F6FE71C6F60C
:100DD0000041BE20088042F20001C6F60041052015
:100DE00008809DF80300088001200880FF2008800B
:100DF00000200880088001B0704700BF80B584B033
:100E0000ADF80E00002100910291019144F2F4002E
:100E1000C2F20000008844F2F002C2F2000212881E
:100E2000504301900846FFF78DFEFFF73BFC00980A
:100E30000290FFE70298019988420CD2FFE7BDF8C3
:100E40000E0042F20001C6F600410880FFE702985A
:100E500001300290EEE704B080BD00BF10B5B2B023
:100E600078200121129104F0CBF91299084604F080
:100E7000DFF912984FF4806130918DF8C4000021A1
:100E800010918DF8C610022109918DF8C5108DF8CA
:100E9000C70041F20040C4F2020030A9029103F001
:100EA00097FC0299099B109A12984CF2337CCDF86A
:100EB000C0C08DF8C4308DF8C620032201928DF891
:100EC000C5208DF8C70040F60040C4F2020004902F
:100ED00003F07EFC019A0299DDF824C0109B129861
:100EE0004FF6807ECDF8C0E08DF8C4C08DF8C630D6
:100EF0008DF8C5208DF8C70041F20000C4F2020051
:100F0000089003F065FC019A0299DDF824C0109B5B
:100F100012984FF0040ECDF80CE0CDF8C0E08DF83B
:100F2000C4C08DF8C6308DF8C5208DF8C70041F6D5
:100F30000000C4F202000A9003F04AFC019B0299EF
:100F40000A98DDF840C0129ADDF824E04FF480548E
:100F50000F9430948DF8C4E08DF8C6C08DF8C5307C
:100F60008DF8C72003F034FC049810990C220B92E2
:100F700003F0EAFC04980B9A129903F0E5FC03993C
:100F800004980B9A03F0E0FC04980B9A052103F0F7
:100F9000DBFC04980B9A08210D9103F0D5FC049812
:100FA0000B9A0921059103F0CFFC04980B9A0A21B2
:100FB000069103F0C9FC04980B9A0E21079103F0E7
:100FC000C3FC04980B9A0F210C9103F0BDFC089808
:100FD0000B9A07210E9103F0B7FC08980B9A0D9914
:100FE00003F0B2FC059908980B9A03F0ADFC069942
:100FF00008980B9A03F0A8FC08980B9A0B2103F0B1
:10100000A3FC08980B9A114603F09EFC08980B9AD3
:101010000D2103F099FC079908980B9A03F094FCB2
:1010200008980B9A0C9903F08FFC09990A980B9A6F
:1010300003F08AFC0A980B9A114603F085FCDDF850
:1010400030C00D9B0E9A0F991098CDF868C01B9078
:101050004FF03C0CCDF870C01D901E901F9020905A
:1010600013931490159216901790189019900622C9
:101070001192219222902390102224922590279061
:101080002690289029902A912B904FF480412C9102
:101090002D901AA82E9013A82F9021A803F082FC5F
:1010A0001198129903F0F8FC322006F0C7FA32B01A
:1010B00010BD00BF81B041F6FE71C6F60041D320DD
:1010C000088042F20000C6F600400188ADF8021028
:1010D0000188ADF802100188ADF80210BDF80210C9
:1010E0000902ADF802100188BDF802000843ADF80E
:1010F0000200BDF8020001B0704700BFF0B58DB02E
:10110000FFF7ACFEFFF7D6FF014644F2F200C2F251
:1011100000000180008849F24131884228D0FFE771
:1011200041F6FE71C6F60041A120088042F200019E
:10113000C6F600410A8844F2F200C2F200000280C2
:101140000A8802800288120202800A8801881143FC
:101150000180008845F26171884208D1FFE744F2BE
:10116000F201C2F2000141F663100880FFE7FFE7D9
:1011700044F2F200C2F20000008849F24131884294
:1011800016D1FFE740F21C11CAF200010C91086869
:1011900020F00F000860086820F47060086008689C
:1011A00040F003000860086840F400700860FFE742
:1011B00044F2F200C2F20000008849F24131884254
:1011C00040F0D480FFE741F6FE71C6F600410A9177
:1011D000CF20088042F20003C6F6004308930022A5
:1011E00009921A804FF0C10CA3F800C0302018807B
:1011F0004FF0ED0EA1F800E04FF0640EA3F800E010
:101200004FF0030EA3F800E04FF0120EA3F800E039
:101210004FF0810EA3F800E04FF0E80EA1F800E0D7
:101220004FF0850EA3F800E04FF0100EA3F800E099
:101230007A241C80CB240C8039241C802C241C8014
:101240001A8034241C8002241C80F7240C80202463
:101250001C80EA240C801A801A80C0240C801B2475
:101260001C80A1F800C001240B941C804FF0C50C19
:10127000A1F800C018801880C7200880B720188007
:1012800036200880482018803A2008805520188091
:10129000B12008801A801A201880B62008800A2001
:1012A00018804FF0A20CA3F800C04FF0F20CA1F888
:1012B00000C01A804FF0260CA1F800C01C804FF02F
:1012C000E00CA1F800C00F261E804FF02A0CA3F8F6
:1012D00000C028251D8008251D800E271F801D8029
:1012E00054251D80A9251D8043251D8018801E8042
:1012F0001A801A801A801A80E12008801A8015202E
:1013000018801720188007201880112018800625C3
:101310001D802B251D8056271F803C271F800527F9
:101320001F80A3F800E01E804FF03F0EA3F800E0FE
:10133000A3F800E01E800D801A801A801C80A3F89C
:1013400000E0A1F800C01A801A801A80EF221A80EB
:101350000880782006F072F90A9A0B9829211180EA
:1013600048F2A821C4F242210860ACE044F2F20045
:10137000C2F20000008841F66311884240F0A2806A
:10138000FFE741F6FE71C6F600410491E2200880B5
:1013900042F20000C6F6004005901D2101800224A3
:1013A000048004250580642006F0E6F8049A059977
:1013B000E020019010800120069008800A20029011
:1013C00006F03CF90198049A0599108003200390D7
:1013D00008800C2006F032F90298049A06991180D0
:1013E00006F02CF9039BDDF810C0059A0699E6205B
:1013F000ACF800002F201080FF20108010804FF0EC
:10140000B00EACF800E04FF0200EA2F800E04FF074
:10141000000ECDF81CE0A2F800E0138040F21F3669
:101420001680118040F2DF161680A2F800E0B42684
:10143000ACF80060158040F21F451580A2F800E06E
:101440002E251580A2F800E0A2F800E0A2F800E046
:10145000A2F800E0B625ACF8005014804FF40374F5
:101460001480A2F800E01724148015241480A2F838
:1014700000E0A2F800E0F024ACF80040138029243A
:10148000ACF80040D024ACF80040A2F800E0BE2444
:10149000ACF8004005241480FE2414801180A2F8CA
:1014A00000E0A2F800E0A2F800E04FF0B80EACF8BF
:1014B00000E013801180BA23ACF800301180FFF7F0
:1014C00081FCFFE7FFE70020FFF774FA4FF6FF709B
:1014D000FFF794FC0DB0F0BD80B584B0844606984B
:1014E000ADF80EC0ADF80C10ADF80A20ADF808301C
:1014F000ADF806000020ADF80000BDF80A00BDF808
:101500000E10401A0130ADF80000BDF80C00ADF827
:101510000400FFE7BDF80400BDF80810884228DC8D
:10152000FFE7BDF80E00BDF80410FFF70BFBFFF757
:10153000B9F80020ADF80200FFE7BDF80200BDF8E1
:10154000001088420EDAFFE7BDF8060042F2000103
:10155000C6F600410880FFE7BDF802000130ADF893
:101560000200EAE7FFE7BDF804000130ADF804002F
:10157000D0E704B080BD00BF80B584B0DDF818C0EE
:10158000ADF80E00ADF80C10ADF80A20ADF808303B
:10159000BDF80A00BDF80E10401A0130ADF8040085
:1015A000BDF80800BDF80C10401A0130ADF8060077
:1015B0000020ADF80200FFE7BDF80200BDF80610FC
:1015C000884235DAFFE7BDF80E00BDF80C10BDF813
:1015D0000220114489B2FFF7B5FAFFF763F8002043
:1015E000ADF80000FFE7BDF80000BDF80410884228
:1015F00017DAFFE70698BDF80210BDF80620BDF81F
:10160000003001FB023130F8110042F20001C6F651
:1016100000410880FFE7BDF800000130ADF8000090
:10162000E1E7FFE7BDF802000130ADF80200C3E7D3
:1016300004B080BD80B584B0ADF80E00ADF80C10DC
:101640008DF80B208DF80A30BDF80E00ADF80400BF
:101650009DF80A000C2804D1FFE70C208DF8090042
:1016600014E09DF80A00102804D1FFE710208DF83F
:1016700009000AE09DF80A00182804D1FFE730208D
:101680008DF8090000E0A4E0FFE7FFE79DF80B00FC
:1016900020388DF80B0000208DF80600FFE79DF83C
:1016A00006009DF80910884280F29380FFE79DF8BC
:1016B0000A000C2810D1FFE79DF80B0000EB400159
:1016C0004FF66400C0F6000000EB81009DF80610A4
:1016D000405C8DF8080029E09DF80A0010280ED122
:1016E000FFE79DF80B104FF6D840C0F6000000EB66
:1016F00001109DF80610405C8DF8080015E09DF87B
:101700000A00182810D1FFE79DF80B0000EB4001FC
:1017100040F2C820C0F6010000EB01109DF8061051
:10172000405C8DF80800FFE7FFE7FFE700208DF839
:101730000700FFE79DF80700072843DCFFE79DF857
:101740000800C00760B1FFE7BDF80E00BDF80C103F
:1017500041F2E002C2F200021288FFF711FB0BE037
:10176000BDF80E00BDF80C1040F20002C2F20002FB
:101770001288FFF705FBFFE79DF8080040088DF889
:101780000800BDF80E000130ADF80E00BDF80E00E7
:10179000BDF80410401A9DF80A10B0EB510F0AD1A1
:1017A000FFE7BDF80400ADF80E00BDF80C000130F5
:1017B000ADF80C0006E0FFE79DF8070001308DF85A
:1017C0000700B7E7FFE79DF8060001308DF8060037
:1017D00065E704B080BD00BF80B584B0ADF80E00F1
:1017E000ADF80C108DF80B200193FFE701980178FC
:1017F00000202029009008DBFFE7019801780020F5
:101800007F29B8BF01200090FFE70098C00708B308
:10181000FFE7BDF80E00BDF80C10019A12789DF894
:101820000B30FFF707FF9DF80B10BDF80E0000EB23
:101830005100ADF80E00BDF80E0044F2F401C2F202
:1018400000010988884201DBFFE703E001980130CD
:101850000190CBE704B080BD10B588B08C468646B9
:101860000B980A99ADF81EE0ADF81CC08DF81B204E
:101870000593ADF81210ADF8100041F2E002C2F28B
:10188000000201921088ADF80E0040F20001C2F291
:10189000000102910888ADF80C00BDF8120010801C
:1018A000BDF810000880BDF81E00BDF81C109DF8A2
:1018B0001B20059BFFF790FF019A0299BDF80E00CF
:1018C0001080BDF80C00088008B010BD82B08DF803
:1018D00007008DF8061001200090FFE79DF8060034
:1018E000411E8DF8061030B1FFE79DF807100098F3
:1018F00048430090F2E7009802B0704710B586B0F8
:101900008C46864609980899ADF816E0ADF814C0E3
:1019100004928DF80F308DF80E108DF80D0004989C
:10192000019000208DF80A00FFE7019880B1FFE7E1
:1019300001984CF6CD41CCF6CC41A0FB0110C0087B
:101940000190FFE79DF80A0001308DF80A00ECE7EE
:101950009DF80A009DF80F1088420DDDFFE7BDF8E5
:101960001600BDF814109DF80E2041F29843C0F601
:101970000103FFF731FF71E000208DF80C00FFE755
:101980009DF80C009DF80F10884266DAFFE79DF87D
:101990000C009DF80F109DF80A20891A884225DA5C
:1019A000FFE79DF80D0080B1FFE7BDF816209DF818
:1019B0000E3058089DF80C1010FB0120BDF81410D3
:1019C00080B23022FFF736FE0FE0BDF816209DF8FA
:1019D0000E3058089DF80C1010FB0120BDF81410B3
:1019E00080B22022FFF726FEFFE72FE00498009048
:1019F0009DF80F109DF80C00C0430844C1B20A20A6
:101A0000FFF764FF01460098B0FBF1F04CF6CD41C2
:101A1000CCF6CC41A0FB0121C90801EB8101A0EB70
:101A200041008DF80B00BDF816209DF80E305808C7
:101A30009DF80C1010FB0120BDF814109DF80B2030
:101A4000303280B2D2B2FFF7F5FDFFE7FFE79DF835
:101A50000C0001308DF80C0092E7FFE706B010BDD6
:101A600070B58AB09C4696460C460546119810996A
:101A70000F9A0E9BADF82650ADF82440CDF820E02B
:101A80008DF81FC08DF81E308DF81D20ADF81A108E
:101A9000ADF8180041F2E002C2F200020392108891
:101AA000ADF8160040F20001C2F20001049108886E
:101AB000ADF81400BDF81A001080BDF818000880B9
:101AC000BDF82600BDF82410089A9DF81F309DF837
:101AD0001EC09DF81D40EE46CEF80440CEF800C072
:101AE000FFF70CFF039A0499BDF816001080BDF8AB
:101AF000140008800AB070BD80B58AB084460C9886
:101B0000ADF826C0ADF82410ADF82220ADF8203095
:101B1000ADF81E00BDF82200BDF82610401A07F0EF
:101B2000C9FBADF81C00BDF82000BDF82410401A18
:101B300007F0C0FBADF81A00BDF82610BDF8222052
:101B40004FF0FF3091420146B8BF01210591BDF829
:101B50002410BDF820209142B8BF01200490BDF8A8
:101B60001C00BDF81A10401A0390FFE7BDF82610BC
:101B7000BDF8222001209142019009D1FFE7BDF874
:101B80002400BDF82010401A18BF01200190FFE783
:101B90000198C00788B3FFE7BDF82600BDF8241000
:101BA000BDF81E20FFF7ECF8039840000290029861
:101BB000BDF81A10494288420CDDFFE7BDF81A1043
:101BC0000398401A03900599BDF826000844ADF823
:101BD0002600FFE70298BDF81C1088420CDAFFE7E8
:101BE000BDF81C100398084403900499BDF8240024
:101BF0000844ADF82400FFE7B8E70AB080BD000054
:101C000010B582B020200121012403F0F9FA4FF42D
:101C1000707000904FF44070ADF8040041F2004045
:101C2000C4F2020069468DF8074002F0D1FD02B00F
:101C300010BD00BF40F2800C48F21822C2F2000C26
:101C40000023C4F242228CF80130D368B3B1936808
:101C5000A3B1536893B1136883B1BCF8040003289F
:101C600024BF9CF802008CF8010000208CF80300CF
:101C7000ACF804008CF80000704700BFD3688BB14B
:101C800093688BB153688BB112688AB19CF80220BB
:101C90009CF803309A4212D00020ACF804008CF873
:101CA00003207047012204E0022202E0032200E048
:101CB00004228CF802209CF803309A42ECD1BCF844
:101CC0000430013399B201291146ACF8043088BFC1
:101CD0000021002818BF11468CF800107047000042
:101CE00070B58CB001200121012503F089FA4FF471
:101CF0008070012103F0B4FAC02042F200040A907F
:101D00000320C4F201048DF82C00002604F5604085
:101D10000AA98DF82F6002F05BFD4FF4807001215D
:101D200003F0DAFA4FF48070002103F0D5FA4FF493
:101D3000A060CDE908604FF48030079006A80696B1
:101D400003F08EFD694620460096ADF804600296C9
:101D500004968DF8145003F04DFD2046012103F048
:101D60009FFD0CB070BD00BF10B542F20004C4F27C
:101D70000104014620460122042303F0C9FD204648
:101D800003F0F8FD2046022103F0D6FE0028F9D02A
:101D90002046BDE8104003F01FBE00BF10B590B054
:101DA00046F210444FF480000121C4F2020403F013
:101DB00027FA204605F016F8204605F0C5F9002858
:101DC000FAD142F24C01C4F20101029140F6E00165
:101DD0000020C2F20001CDE903104FF48061CDE98B
:101DE000051007914FF4006108914FF400510991DB
:101DF0004FF480710A914FF40031CDE90B100121AD
:101E00000190CDE90D100F9001A9204605F024F9AD
:101E100020461021012205F0E1F92046012105F0BC
:101E200055F93820C0F201100090684602F04CFCD1
:101E300010B010BD70B58CB0FFF7B0FF01200121CC
:101E4000012503F0DDF94FF48070012103F008FA59
:101E5000C02042F200040A900320C4F201048DF86D
:101E60002C00002604F560400AA98DF82F6002F0CE
:101E7000AFFC4FF4A060CDE908604FF480300790CC
:101E800006A8069603F0ECFC4FF0C06003904FF0FC
:101E900080500290694620460096ADF80460049692
:101EA0008DF8145003F0A6FC2046062101220123E0
:101EB00003F02EFD2046012103F0A2FD2046012162
:101EC00003F094FD2046012103F0EAFC0CB070BD44
:101ED000F0B59BB046F240454FF480000121C4F2BA
:101EE000020503F08DF9284604F07CFF284605F032
:101EF0002BF90028FAD142F200144FF00070C4F21E
:101F000001040C9004F14C000D9040F2E000C2F28C
:101F100000000E9000264FF48060CDE9100612906C
:101F20004FF4006013904FF4005014904FF4807001
:101F300015904FF40030CDE9160601270CA928466C
:101F40000F96CDE918761A9605F086F828460121F5
:101F500005F0BCF804200121042503F051F94FF4E9
:101F60000070012103F07CF903208DF82C0004F5AA
:101F700067400AA90A958DF82F6002F029FC4FF4FA
:101F8000A060CDE908604FF48030079006A806965F
:101F900003F066FC4FF0C06003904FF08050029059
:101FA000694620460096ADF8046004968DF81470DA
:101FB00003F020FC20460C210122012303F0A8FCA1
:101FC0002046012103F01CFD2046012103F00EFDF7
:101FD0002046012103F064FC1BB0F0BDB0B546F211
:101FE000104448F22005C4F20204C1F20005204664
:101FF000294605F015F9002808BFB0BDA5F5004138
:10200000204605F0CBF82046294605F03DF94FF073
:1020100080400021BDE8B04004F098BAB0B588B067
:1020200005464FF4C0600C4602F044FB1E20C0F28F
:102030000010059005A802F047FB0420012103F0E1
:1020400003F9ADF8144040F60004C4F2000406950C
:10205000002505A92046ADF81C50ADF816508DF8A6
:102060001E5004F0E1F90120C0F20C00039002A917
:1020700020460295ADF8105004F042FC20460121A4
:1020800004F0CAFD20460221002204F0B5FD2046DE
:1020900050210022002304F0FFFD2046002104F01F
:1020A0001FFA20460121012204F0A6FD204601214D
:1020B00004F04CFA0220012103F0A2F804F5FE34EA
:1020C00020460621022202F03FFC4020009040F210
:1020D0000230C0F2002001906946204602F078FBF1
:1020E00008B0B0BDB0B584B00C4605460220012151
:1020F00003F0AAF8ADF8044040F200440020C4F216
:102100000004ADF80600ADF80C0001A920460295C8
:1021100004F08AF920460121012204F06DFD2046D9
:10212000012104F013FA40F21D10C0F203100090D8
:10213000684602F0C9FA04B0B0BD00BF10B540F661
:102140000004C4F200042046012104F069FD0028C7
:1021500008BF10BD40F28802C2F2000210680121DF
:10216000431C42F21070834288BF00232046136054
:10217000BDE8104004F060BD10B540F20044C4F268
:1021800000042046012104F04BFD002808BF10BDCB
:1021900040F6240240F28801C4F20002C2F20001BB
:1021A00010680B6800EB0340800000234860636206
:1021B0000B60204601211360BDE8104004F03CBDD7
:1021C000B0B584B00C4605460120012103F03CF86F
:1021D0000020ADF80600ADF80C0001A94FF08040DA
:1021E0000295ADF8044004F01FF94FF08040202123
:1021F00004F0BAFD4FF080400121012204F0FCFC04
:102200004FF08040012104F0A1F940F21C10C0F20F
:1022100003100090684602F057FA04B0B0BD00BF4A
:10222000B0B584B00C4605460120012103F00CF83E
:102230000020ADF80600ADF80C0001A94FF0804079
:102240000295ADF8044004F0EFF84FF080402021F3
:1022500004F08AFD4FF080400121012204F0CCFC03
:102260004FF08040012104F071F904B0B0BD00BF0F
:1022700091ED001A91ED043A91ED054A31EE033AE1
:1022800033EE044A83EE043A00EE100A91ED022A7E
:10229000B8EE400A9FED175A9FED176A32EE404A9A
:1022A0009FED167AB0EEC44A22EE055A20EE066A79
:1022B00030EE420A36EE055AB4EE474A23EE000AE3
:1022C000F1EE10FAB8BFB0EE425A30EE050AB7EEA2
:1022D000002A32EE432A81ED020ABCEEC00A21EE4A
:1022E000021A10EE100A81ED001A81ED011A81ED3B
:1022F000033A70471904D63EF4FD143F00004842EB
:1023000080B54FF08040012104F08AFC012818BFFD
:1023100080BD0620FFF728FD41F2EA01C2F200016C
:102320000A8840F6E003C2F2000323F81200501CB2
:1023300082B2B2F5806F088007D30020088040F693
:10234000E000C2F2000000F0CBF84FF08040012125
:10235000BDE8804004F070BC80B50020FFF76AFC47
:10236000002003F0EFFD41F2E20044F2F401C2F27A
:102370000000C2F2000100880988884210D241F2B0
:10238000E601C2F200010988B1F58C7F08D9632803
:1023900022D840F28000C2F200000221017013E056
:1023A00040F28000C2F200000078032824D0022806
:1023B0000AD0012818BF80BD41F2EE00C2F2000031
:1023C00001880131018080BD41F2EE00C2F20000BF
:1023D00001880139018080BDB32807D840F2800010
:1023E000C2F2000001210170E6E700BF40F2800068
:1023F000C2F200000321017040F20800C2F20000A6
:1024000001684A1C0229C8BF0122026080BD00BFCA
:1024100040F28000C2F20000007803280CD00228AD
:1024200016D0012818BF704741F2EE00C2F200003A
:10243000018801310180704740F20800C2F20000BB
:1024400001684A1C0229C8BF01220260704700BF10
:1024500041F2EE00C2F200000188013901807047AC
:1024600080B52DED028B013801EE100A9FED1A2A7E
:10247000B8EEC11A9FED193A21EE021A81EE031A45
:10248000B0EE408A11EE100A09F07CFF41EC100B0F
:1024900008F016F851EC100B9FED0B0B53EC102BC2
:1024A00009F0A2FA9FED0A0B53EC102B08F05EFE28
:1024B00008F0FAFC00EE100A20EE080ABDEC028BD0
:1024C00080BD00BF00BF00BF000000000000E0BFF3
:1024D000000000000000E03FDA0FC9400080FF4329
:1024E00070B541F2F0021E300021C2F2000200235A
:1024F00030F81E6CD51800EE106A30F81C6CB8EE7F
:10250000400A85ED000A00EE106A30F81A6CB8EE49
:10251000400A85ED020A00EE106A30F8186CB8EE39
:10252000400A85ED040A00EE106A30F8166CB8EE29
:10253000400A85ED060A00EE106A30F8146CB8EE19
:10254000400A85ED080A00EE106A30F8126CB8EE09
:10255000400A85ED0A0A00EE106A30F8106CB8EEF9
:10256000400A85ED0C0A00EE106A30F80E6CB8EEE9
:10257000400A85ED0E0A00EE106A30F80C6CB8EED9
:10258000400A85ED100A00EE106A30F80A6CB8EEC9
:10259000400A85ED120A00EE106A30F8086CB8EEB9
:1025A000400A85ED140A00EE106A30F8066CB8EEA9
:1025B000400A85ED160A00EE106A30F8046CB8EE99
:1025C000400A85ED180A00EE106A30F8026CB8EE89
:1025D000400A85ED1A0A00EE106A30F8206BB8EE5A
:1025E000400A85ED1C0A00EE106A8033B8EE400AFE
:1025F000B3F5005F6960E9606961E9616962E96298
:102600006963E9636964E9646965E9656966E9665E
:10261000696785ED1E0AE9677FF46AAF41F2F0054C
:102620004CF2F870C2F20005C0F600002946002204
:102630000123002606F000F943F2F004C2F2000480
:10264000284621464FF4806205F08CFD9FED250A57
:1026500040F6FC70A11991ED011A91ED022A91ED5D
:10266000033A21EE001A91ED044A81ED011A22EE9F
:10267000001A81ED021A23EE001A91ED052A81ED70
:10268000031A24EE001A81ED041A22EE001A91EDCD
:10269000062A81ED051A22EE001A91ED072A81ED36
:1026A000061A22EE001A91ED082A81ED071A22EE91
:1026B000001A91ED092A81ED081A22EE001A91ED17
:1026C0000A2A81ED091A22EE001A91ED0B2A2C3606
:1026D00081ED0A1A22EE001A864281ED0B1AB9D159
:1026E00070BD00BF0000003B44F2F200C2F20000E7
:1026F000008849F24131884208BF03F0EBBC7047C3
:1027000010B54FF6FF70FEF779FB41F2E004C2F21C
:1027100000041F20208044F2F40044F2F001C2F2D1
:102720000000C2F20001008809882838123941F2FD
:102730009E4380B289B2C0F601031022FFF74CF825
:102740004FF47840208010BD2DE9F047044641F257
:10275000E000C2F20000028020460D46661CA71C65
:1027600004F1030AFEF7F2FA1FFA86F840462946FA
:10277000FEF7ECFA1FFA87F948462946FEF7E6FA13
:102780001FFA8AF630462946FEF7E0FA681C87B23F
:1027900020463946FEF7DAFA40463946FEF7D6FAC1
:1027A00048463946FEF7D2FA30463946FEF7CEFAA9
:1027B000A81C87B220463946FEF7C8FA404639467B
:1027C000FEF7C4FA48463946FEF7C0FA30463946A5
:1027D000FEF7BCFAE81C85B220462946FEF7B6FA99
:1027E00040462946FEF7B2FA48462946FEF7AEFAB9
:1027F00030462946BDE8F047FEF7A8BA40F28C24DF
:1028000041F2E20944F2F40841F2E60A44F2F00B24
:102810000027C4F24224C2F20009C2F20008C2F248
:10282000000AC2F2000B00BF002003F08BFBB9F8D6
:102830000050B8F80000854280F09480BAF800603B
:10284000BBF800108E4280F08D802838A84221DA33
:10285000A1F11200B0421DDA4FF6FF70FEF7CEFA7A
:1028600041F2E005C2F200051F202880B8F8000000
:10287000BBF800102838123941F29E4380B289B269
:102880001022C0F60103FEF7A7FF4FF4784028801E
:1028900068E000BF41F2E000C2F200004FF478416E
:1028A0000180284631466C1C05F1020A05F1030B34
:1028B000FEF74CFA1FFA84F948463146FEF746FA0D
:1028C0001FFA8AFA50463146FEF740FA1FFA8BFB90
:1028D00058463146FEF73AFA701C84B22846214623
:1028E000FEF734FA48462146FEF730FA50462146B4
:1028F000FEF72CFA58462146FEF728FAB01C84B29F
:1029000028462146FEF722FA48462146FEF71EFADF
:1029100050462146FEF71AFA58462146FEF716FAA7
:10292000F01C84B228462146FEF710FA484641F2D0
:10293000E2092146C2F20009FEF708FA504641F2C8
:10294000E60A2146C2F2000AFEF700FA584644F2AF
:10295000F00B214640F28C24C2F2000BC4F2422458
:10296000FEF7F4F901376FF032007843C1B28908FD
:1029700041EA8010C0B20C283FF656AF2068B0FA8A
:1029800080F0400920604FE7F0B581B02DED028B5B
:102990008AB040F29005C2F20005288841F2E004B6
:1029A000013081B2632988BF00202880C2F2000470
:1029B0004FF478410004218008D14FF08040008816
:1029C00020B94FF08040012103F0C0FD40F2080023
:1029D000C2F200000068022808D001280ED1288821
:1029E000C0B10AB0BDEC028B01B0F0BD0AB0BDECC5
:1029F000028B01B0BDE8F04000F0B6B9288800288D
:102A0000EFD10AB0BDEC028B01B0BDE8F04001F09F
:102A1000C3BA00BF44F2F40044F2F006C2F2000070
:102A2000C2F2000600883188013801394FF6FF777D
:102A300082B28BB2002000210097FEF74DFD308856
:102A40009FED311A00EE100AB8EE400A80EE018ABE
:102A500000F0B2FA1F2795ED020B278041F2B14139
:102A60000DF10A0453EC102BC0F60101204606F0CC
:102A7000F7F90A206E2118222346FEF7ADFE6A6898
:102A800041F2A441501C6860C0F60101204606F0E6
:102A9000E7F90A20AA2118222346FEF79DFE95EDAC
:102AA000020B9FED171B53EC102B51EC110B08F090
:102AB0008FFC08F085FE318884B24B0840F6E001B7
:102AC0004FF47845C2F2000120460022B0EE480AD9
:102AD0000093019500F04EF8308840F2E001430881
:102AE000C2F2000120460022B0EE480A009301978E
:102AF00000F040F80AB0BDEC028B01B0F0BD00BFA1
:102B000000000000F0B34A4100007A45B0B588B03B
:102B100000F052FA40F2900541F2E000C2F20005E6
:102B2000C2F200001F2195ED020B018041F2B1417C
:102B30000DF1020453EC102BC0F60101204606F003
:102B40008FF90A206E2118222346FEF745FE6A6897
:102B500041F2A441501C6860C0F60101204606F015
:102B60007FF90A20AA2118222346FEF735FE08B075
:102B7000B0BD00BF2DE9F0472DED088B82B00028D5
:102B800000F0EB808146B0EE408ADDE9120800EEED
:102B9000109AB8EE409A00EE103AB8EE40AA00EE55
:102BA000100A0E46002AB8EE40BA67D096ED000A29
:102BB000002020EE080A3AEE400A3BEE000ABDEE85
:102BC000C00A10EE101A4246FEF7DAF8B9F1010F0A
:102BD00000F0C38044F2F40A351F0124C2F2000A57
:102BE000BAF80000424600EE100AB8EE400A80EE45
:102BF000090AA0B201EE100AB8EE411A20EE010A4D
:102C000095ED021ABDEEC00A10EE106A21EE080A18
:102C10003AEE400A3BEE000ABDEEC00A10EE107A12
:102C200030463946FEF7ACF8BAF80000324600EEFE
:102C3000100AB8EE400A80EE090A601E01EE100A82
:102C4000B8EEC11A3B4620EE010A95ED011ABDEE21
:102C5000C00A10EE100A21EE080A3AEE400A3BEED6
:102C6000000ABDEEC00A10EE101A0435CDF800803F
:102C7000FEF742FF0134A145B2D16EE030884246F2
:102C800000EE100AB8EE400A20EE080A3AEE400ABA
:102C90003BEE000ABDEEC00A10EE101A0020FEF74F
:102CA0006FF8B9F1010F58D044F2F40AB51E0124AF
:102CB000C2F2000ABAF80000424600EE100AB8EE6E
:102CC000400A80EE090AA0B201EE100AB8EE411ADD
:102CD000A88820EE010ABDEEC00A10EE106A00EED0
:102CE000100AB8EE400A20EE080A3AEE400A3BEE1F
:102CF000000ABDEEC00A10EE107A30463946FEF7E3
:102D00003FF8BAF8000035F8021F00EE100AB8EEDE
:102D1000400A80EE090A601E01EE100AB8EEC11AE0
:102D200032463B46CDF8008020EE010ABDEEC00AD7
:102D300010EE100A00EE101AB8EE400A20EE080A53
:102D40003AEE400A3BEE000ABDEEC00A10EE101A41
:102D5000FEF7D2FE0134A145ACD102B0BDEC088B28
:102D6000BDE8F08700BF00BF2DE9F0472DED068BD1
:102D70008AB040F6E000C2F20000FFF7B1FB44F277
:102D8000F40644F2F004C2F20006C2F200043088F5
:102D900021884FF0FF3A01380AEB51014FF6FF72DC
:102DA00000928BB282B2002000210025FEF794FB36
:102DB00020889FED791A430800EE103AB8EE400AD9
:102DC00080EE010A43F2F008C2F200084FF478479F
:102DD0004FF400704146012200950197FFF7CAFEAB
:102DE00041F2EE09C2F20009B9F9000008F04CFD09
:102DF000054630880E4608F06BFD9FED630B53ECE3
:102E0000102B08F0F1FD02460B4608F0AFF92A46F8
:102E1000334608F0E9FD08F0D3FC21881F240AEBB3
:102E200051018BB2002102460094FEF765FE40F28C
:102E30009000C2F20000008820B10AB0BDEC068B01
:102E4000BDE8F08741F2E001B9F90000C2F20001EB
:102E50000C8008F019FD9FED4E0B53EC102B08F081
:102E6000C3FD0DF10A0502460B464CA1284605F0AC
:102E7000F7FF0A20DC210C222B46FEF7ADFCB9F946
:102E8000000008EB800616ED030A20EE000A10EEA3
:102E9000100A09F077FA16ED020A044620EE000A3D
:102EA00010EE100A0D4609F06DFA02460B46204658
:102EB000294608F05BF916ED010A044620EE000AE7
:102EC00096ED008A96ED019A96ED02AA10EE100A90
:102ED0000D4609F057FA02460B462046294608F0EF
:102EE00045F928EE080A044610EE100A0D4609F0CE
:102EF00049FA02460B462046294608F037F929EEE2
:102F0000090A044610EE100A0D4609F03BFA024683
:102F10000B462046294608F029F92AEE0A0A0446FB
:102F200010EE100A0D4609F02DFA02460B46204617
:102F3000294608F01BF907F0B7FF01EE100AB1EEC1
:102F4000C10AB4EE400AF1EE10FA17D610EE100ADC
:102F500009F018FA0DF10A0402460B4612A12046A8
:102F600005F07EFF7820DC210C222346FEF734FC9E
:102F70000AB0BDEC068BBDE8F08700BFB0EE410A99
:102F800007F002FBE2E700BF000000000000503F36
:102F900000000000C05C85400000FA446672657164
:102FA0003A252E346600000076616C75653A252E50
:102FB0003466000000BF00BF2DE9F04F81B02DED59
:102FC000048B82B040F6E00AC2F2000ABAF80000B0
:102FD000019008F07DFC41EC180B4FF00008B0EEBA
:102FE000489AF0EE689A00BF0AEB080BBBF80200A3
:102FF00008F06EFC81468A4655EC186B304629462F
:103000004A46534609F01EFA57EC194B0028204651
:1030100039464A4653461CBF55464E4609F0FDF90F
:10302000002818BF5746BBF8040018BF4C4608F0EC
:103030004FFC81468A46304629464A46534609F0A7
:1030400001FA0028204639464A4653461CBF5546D9
:103050004E4609F0E2F9002818BF5746BBF80600B3
:1030600018BF4C4608F034FC81468A463046294653
:103070004A46534609F0E6F90028204639464A46B2
:1030800053461CBF55464E4609F0C7F9002818BFE5
:103090005746BBF8080018BF4C4608F019FC81469B
:1030A0008A46304629464A46534609F0CBF900285D
:1030B000204639464A4653461CBF55464E4609F0FF
:1030C000ACF9002818BF5746BBF80A0018BF4C4699
:1030D00008F0FEFB81468A46304629464A4653465A
:1030E00009F0B0F90028204639464A4653461CBF2D
:1030F00055464E4609F091F9002818BF5746BBF8CF
:103100000C0018BF4C4608F0E3FB81468A46304667
:1031100029464A46534609F095F900282046394683
:103120004A4653461CBF55464E4609F076F90028DC
:1031300018BF5746BBF80E0018BF4C4608F0C8FB36
:1031400081468A46304629464A46534609F07AF96E
:103150000028204639464A4653461CBF55464E462F
:1031600009F05BF9002818BF5746BBF8100018BFDC
:103170004C4608F0ADFB81468A46304629464A4611
:10318000534609F05FF90028204639464A4653461F
:103190001CBF55464E4609F040F9002818BF574657
:1031A000BBF8120018BF4C4608F092FB81468A46D5
:1031B000304629464A46534609F044F9002820463D
:1031C00039464A4653461CBF55464E4609F025F936
:1031D000002818BF5746BBF8140018BF4C4608F02B
:1031E00077FB81468A46304629464A46534609F0CF
:1031F00029F90028204639464A4653461CBF554601
:103200004E4609F00AF9002818BF5746BBF81600C9
:1032100018BF4C4608F05CFB81468A46304629467A
:103220004A46534609F00EF90028204639464A46D8
:1032300053461CBF55464E4645EC186B09F0EDF859
:10324000002818BF574640F6E00A18BF4C4647EC26
:10325000194B08F1160840F2FE70C2F2000A8045D0
:103260007FF4C2AE3046294622463B4608F086FD32
:1032700041EC100B40F290080198C2F2000888ED72
:10328000040B08F025FB41EC180B002740F2FE79F7
:103290000AEB0706708808F01BFB02460B4651EC50
:1032A000180B07F063FF0446B0880D4608F010FBCA
:1032B00002460B462046294607F058FF0446F08890
:1032C0000D4608F005FB02460B462046294607F04E
:1032D0004DFF044630890D4608F0FAFA02460B46C7
:1032E0002046294607F042FF044670890D4608F043
:1032F000EFFA02460B462046294607F037FF044600
:10330000B0890D4608F0E4FA02460B4620462946ED
:1033100007F02CFF0446F0890D4608F0D9FA024662
:103320000B462046294607F021FF0446308A0D4609
:1033300008F0CEFA02460B462046294607F016FF53
:103340000446708A0D4608F0C3FA02460B46204632
:10335000294607F00BFF0446B08A0D4608F0B8FA7C
:1033600002460B462046294607F000FF0446F08A35
:103370000D4608F0ADFA02460B462046294607F0F6
:10338000F5FE41EC180B16374F4581D19FED420BEE
:1033900053EC102B08F028FB41EC100B40F6E0003A
:1033A000C2F2000088ED060BFFF79AF843F2F00135
:1033B000C2F2000101F11C020123012001EB800790
:1033C00097ED000A12ED061AB4EE410AF1EE10FA7A
:1033D000B8BF184601EB800797ED000A12ED051AF9
:1033E000B4EE410AF1EE10FAB8BF581C01EB8007A9
:1033F00097ED000A12ED041AB4EE410AF1EE10FA4C
:10340000B8BF981C01EB800797ED000A12ED031A74
:1034100012ED022AB4EE410AF1EE10FAB8BFD81C40
:1034200001EB800797ED000A12ED011AB4EE420A93
:10343000F1EE10FAB8BF181D01EB800797ED000AF6
:1034400092ED002AB4EE410AF1EE10FAB8BF581D11
:1034500001EB800797ED000A1C32B4EE420AF1EE50
:1034600010FAB8BF981D0733B3F5007FA6D108F056
:103470000BFA9FED0B0B53EC102B08F0B5FA41EC57
:10348000100B88ED020B02B0BDEC048B01B0BDE85F
:10349000F08F00BF00BF00BF000000000000503FE1
:1034A00000000000C05C8540B0B582B044F2F4007A
:1034B00044F2F004C2F20000C2F200040088218845
:1034C0004FF0FF32013802EB51014FF6FF720092CC
:1034D0008BB282B2002000210025FDF7FDFF20887D
:1034E0009FED0B1A430800EE103AB8EE400A80EE4A
:1034F000010A40F2E0014FF47844C2F200014FF4B7
:103500008060002200950194FFF734FB02B0B0BD4B
:1035100000007A4543F2F001C2F2000101EB8000A5
:1035200010ED011A90ED002A10ED020A90ED013A1B
:1035300021EE011A22EE022A90ED024A32EE011A21
:1035400020EE000A30EE010A23EE031A31EE000AE3
:1035500024EE041A31EE000AB1EEC01AB4EE411A9C
:10356000F1EE10FA7CBFB0EE410A704707F00CB8DC
:103570002DE9F04F81B02DED108BADF5466D0DF5B9
:1035800006604FF4806105F099FE0DF58C604FF4F4
:10359000806105F093FE18A84FF4806105F08EFE5F
:1035A00042F210709FED8A0B0E90002043F2F0095A
:1035B000059051EC100BC2F20009CDE9031044F262
:1035C000F00409F11C009FED84AB9FED85DB9FEDBE
:1035D00086EB9FED87FADFED878ADFED87FA4FF004
:1035E0008047C2F200040F90B6EE00BAFAEE04CAA9
:1035F000F2EE04BA0026002036E000BF08F044F9DD
:1036000002460B46DDE90A1007F0B0FD9FED7C0B8A
:1036100053EC102B08F0E8F908F0D2F80DF58C689F
:1036200008EB840191ED000A29EE2B1AB8EEC00ACE
:1036300031EE000A2CEE2B1A31EE400ABEEE001AD3
:1036400020EE010ABDEEC00A45F8240010EE100A73
:1036500048F824000C9844F2F004C2F200044FF041
:103660008047962800F09C8201300C9008F00CF9FD
:10367000DDE9033208F0B8F941EC100B002001211C
:10368000002204F09DF9012003F0D8FF4FF08040A4
:10369000012102F05BFF00BF388830B1388820B1CB
:1036A000388810B138880028F6D1208800210138E8
:1036B00083B2642064221F270097FEF71DFA40F6AC
:1036C000E000C2F20000FEF70BFF0F980124012179
:1036D00009EB840292ED000A10ED061AB4EE410ADD
:1036E000F1EE10FAB8BF0C4609EB840292ED000A25
:1036F00010ED051AB4EE410AF1EE10FAB8BF4C1CF9
:1037000009EB840292ED000A10ED041AB4EE410AAE
:10371000F1EE10FAB8BF8C1C09EB840292ED000A9E
:1037200010ED031A10ED022AB4EE410AF1EE10FA80
:10373000B8BFCC1C09EB840292ED000A10ED011A0F
:10374000B4EE420AF1EE10FAB8BF0C1D09EB840288
:1037500092ED000A90ED002AB4EE410AF1EE10FA63
:10376000B8BF4C1D09EB840292ED000A1C30B4EE88
:10377000420AF1EE10FAB8BF8C1D0731B1F5007F97
:10378000A6D1042C48DAB0EE4A9A032CF0EE6A9ADD
:103790004ED0B0EE4A9A022CF0EE6A9A5ADAB0EEA7
:1037A0004A9A012CF0EE6A9A66D0B0EE4A9A002C42
:1037B000F0EE6A9A72D5B0EE4A9AB0EE4A0A601CF0
:1037C000F0EE6A9AF0EE6A0A40F08C8078E000BF72
:1037D0000000000000005940000000000000000050
:1037E000000000000080564048E17A14AEC7244033
:1037F0000000B443000048C2F4FDB4BF00BF00BFE6
:10380000000000000000E03F000000000080664073
:1038100000000040FB21094009EB840010ED030A81
:1038200020EE000A10EE100A08F0ACFD41EC190B76
:1038300009EB840010ED020A20EE000A10EE100AD7
:1038400008F0A0FD02460B4651EC190B07F08EFC68
:1038500041EC190B09EB840010ED010A20EE000A7F
:1038600010EE100A08F08EFD02460B4651EC190BC3
:1038700007F07CFC41EC190B09EB840090ED000A89
:1038800020EE000A10EE100A08F07CFD02460B46FE
:1038900051EC190B07F06AFC41EC190B09EB8400A1
:1038A00090ED010A20EE000A10EE100A08F06AFD01
:1038B00002460B4651EC190B07F058FC41EC190B72
:1038C00009EB840090ED020A20EE000A10EE100AC7
:1038D00008F058FD02460B4651EC190B07F046FC68
:1038E00041EC100B51EC100B0D9607F0DDFA00EED9
:1038F000100AB1EEC08AB4EE488AF1EE10FA80F1F7
:10390000498141F2F005C2F2000505EBC4004068B0
:1039100008F038FD41EC190B55F8340008F032FD81
:1039200041EC110BB0EE490AF0EE690A06F0C8FC52
:1039300051EC100B1FED4C0B53EC102BCDE90A236F
:1039400008F052F81FED4E0B53EC102BCDE9082375
:1039500007F03EFD53EC1DBB5A46079307F006FCEB
:1039600053EC1E6B3246069307F000FC074640F20C
:10397000E000C2F200000C46FEF7B2FD0F984FF0D7
:10398000010A012109EB8A0292ED000A10ED061AE4
:10399000B4EE410AF1EE10FAB8BF8A4609EB8A028A
:1039A00092ED000A10ED051AB4EE410AF1EE10FA9C
:1039B000B8BF01F1010A09EB8A0292ED000A10ED8D
:1039C000041AB4EE410AF1EE10FAB8BF01F1020A8E
:1039D00009EB8A0292ED000A10ED031A10ED022A9B
:1039E000B4EE410AF1EE10FAB8BF01F1030A09EB97
:1039F0008A0292ED000A10ED011AB4EE420AF1EECD
:103A000010FAB8BF01F1040A09EB8A0292ED000A2C
:103A100090ED002AB4EE410AF1EE10FAB8BF01F1C0
:103A2000050A09EB8A0292ED000A1C30B4EE420A44
:103A3000F1EE10FAB8BF01F1060A0731B1F5007FC7
:103A4000A0D118EE100A08F09DFC054688463846BD
:103A5000214607F029FA41F2F004C2F2000404EB17
:103A6000CA0149680CEE100A084608F08BFC41ECCC
:103A7000190B54F83A0008F085FC41EC110BB0EE3C
:103A8000490AF0EE690A06F01BFCDDE90A2351EC55
:103A9000100B07F0A9FFDDE9082307F099FC079B4D
:103AA0005A4607F063FB069B324607F05FFB07F0C0
:103AB000FBF909EE100A0DF5006E39EE4C0A9EED89
:103AC0001B1AB4EE680A39EE0F0AF1EE10FAB8BF0D
:103AD000B0EE409AB8EEC10A20EE2F0A20EE0B0A93
:103AE00010EE100A08F04EFC02460B4628464146EE
:103AF0000B95CDF8288007F039FB05460C4651ECB4
:103B00001A0BDDF838B0C80F60F3DF74584607F0C1
:103B1000BBFE06460F462846214607F051FE80466A
:103B20002846214632463B4608F08CFC00282846B1
:103B3000214632463B4618BFC346CDF838B008F0A0
:103B400081FC00280AEBDA704FEA60040DF5066587
:103B500055F824000D9E18BF564600287FF44EAD40
:103B6000059918A8BDEEC80A40F8214010EE100AC9
:103B70002CEE2C0A29EE2B1A31EE000A0131BDEE93
:103B8000C00A059145F8240010EE100A0DF58C6866
:103B90005EE500BF06F0F8FCB0EE408AB1E600BF7B
:103BA00044F2F400C2F200000288238882464FF6F5
:103BB000FF77002000210097FDF78EFC059A18A9D9
:103BC00001EB82011B9851F8081C55F8200055F8AC
:103BD0002110411A642919DA00EE100A9FED9F1A8C
:103BE00040F22461B8EEC00A081A20EE010A01EE84
:103BF000100AB8EEC11A80EE010A10EE100A08F0A1
:103C0000C1FB02460B4696A120E000BF304607F0FC
:103C10003BFE9FED870B53EC102B07F0E5FE9FED6D
:103C2000860B53EC102B07F0DFFE9FED850B024651
:103C30000B4651EC100B07F0CBFB9FED830B53ECC5
:103C4000102B07F0D1FE02460B4681A10DF1420474
:103C5000204605F005F93220182118222346FDF7E9
:103C6000BBFD059E44F2F004012E0DF5066518AF6C
:103C7000C2F20004C0F2D28020889FED7C1A400876
:103C800000EE100AB8EE409A89EE018A1898B8EE54
:103C9000400A05EB800090ED001A0020B8EEC11A32
:103CA0004FF4784221EE081A30EE410ABDEEC00A08
:103CB00010EE101AFDF764F8012E00F0AF809FEDB2
:103CC0006C0A89EE009A00EE106AB8EEC0AA0026CF
:103CD000BAF80000721C00EE100AB8EE400A80EE3E
:103CE0000A0A07EB8600406801EE102A05EB800106
:103CF000B8EEC11A27880F927A0808EB8000AB460D
:103D000020EE010A91ED001ABDEEC00A10EE109AE5
:103D100000EE102AB8EEC11AB8EEC00A21EE081A59
:103D200030EE410ABDEEC00A90ED001A10EE105AB6
:103D3000484629464FF47842B8EEC1BAFDF720F85C
:103D4000BAF800002BEE092A00EE100AB8EE400A7D
:103D500080EE0A0AB80800EB400001EE100AB8EE47
:103D6000C11A32EE011ABDEEC11A11EE10AA01EE0F
:103D7000106AB8EEC11A208818A951F826804008A8
:103D800020EE010ABDEEC00A10EE107A00EE100A15
:103D90000BEB880090ED001AB8EE400AB8EEC11A9D
:103DA00021EE081A30EE410ABDEEC00A10EE101ADC
:103DB00038464A462B465D464FF4784BCDF800B066
:103DC000FDF79AFE20884A46800800EB400000EE8E
:103DD000100A0DF58C6000EB880090ED001AB8EE2B
:103DE000400AB8EEC11A21EE091A31EE000ABDEE02
:103DF000C00A10EE101A3846534644F2F40A0DF584
:103E00008C6818AFC2F2000ACDF800B0FDF774FE5E
:103E10000599B01C0F9E88427FF45AAF0DF5466D90
:103E2000BDEC108B01B0BDE8F08F00BF00BF00BF3C
:103E30008FC2F56825C7B0400000006066A65840F4
:103E4000000000000000F03F0000000065CDCD4103
:103E50004376616C75653A252E3466003333C5426E
:103E60005276616C75653A252E34660000002F4548
:103E700000401C4500000000704700BF2DE9F04FD6
:103E800081B08146A1EB09010A9891FBF2FA8245C3
:103E900080F27F80BAF1000F7BD440F6E0079046B5
:103EA0009B4600244FF08045C2F2000704FB0890B7
:103EB00080B207F00DFD41EC100B00200121002223
:103EC00003F07EFD012003F0B9FB4FF0804001219B
:103ED00002F03CFB288830B1288820B1288810B136
:103EE00028880028F6D10020002300223E5A3918E5
:103EF0009B194E8842F100029B198E8842F1000204
:103F00009B19CE8842F100029B190E8942F10002F2
:103F10009B194E8942F100029B198E8942F10002E1
:103F20009B19CE8942F100029B190E8A42F10002D0
:103F30009B194E8A42F100029B198E8A42F10002BF
:103F40009B19CE8A42F100029B190E8B42F10002AE
:103F50009B194E8B42F100029B198E8BC98B42F14B
:103F600000029B1942F100025B1800F1200042F1AF
:103F70000002B0F5006FB9D1980A40EA8250910A68
:103F80000BEBC4024BF83400544504F101045160BA
:103F90008CD101B0BDE8F08F2DE9F04F81B02DED4F
:103FA000088BADF5866D0DF1300A50464FF48061F7
:103FB0000DF22C4B05F082F940F6E00700254FF09A
:103FC00064084FF08046C2F2000700BF05F1010906
:103FD00009FB08F007F058FC41EC100B0020012110
:103FE000002203F0EDFC0A2003F0C6FA4FF08040F7
:103FF000012102F0ABFA00BF308830B1308820B127
:10400000308810B130880028F6D10020002300222B
:104010003C5A39181B194C8842F100021B198C8834
:1040200042F100021B19CC8842F100021B190C89D5
:1040300042F100021B194C8942F100021B198C89C4
:1040400042F100021B19CC8942F100021B190C8AB3
:1040500042F100021B194C8A42F100021B198C8AA2
:1040600042F100021B19CC8A42F100021B190C8B91
:1040700042F100021B194C8B42F100021B198C8B80
:10408000C98B42F100021B1942F100025B1800F1DA
:10409000200042F10002B0F5006FB9D1980A40EA61
:1040A00082504AF82500B9F5807F4D468ED144F202
:1040B000F40044F2F008C2F20000C2F200080288E4
:1040C000B8F800304FF6FF77002000210097FDF789
:1040D00003FADDF828140F98A1F16402904280F2EF
:1040E00001819BED000A9FED931AB8EEC00A20EE05
:1040F000010AB5EE001AAAF1100020EE018A029022
:1041000042F210754FF0000800200390DDF808B06F
:104110005BF8100F00EE100AB8EEC00A30EE480A45
:10412000B0EEC09A19EE100A08F02CF9074628469E
:104130008A4607F0A9FB06460C46BDEEC90A38467A
:1041400051463246234610EE109A08F07BF90028BB
:10415000384651463246234608BFA94608F072F950
:104160000028039818BF80469BED010A9BED02AA28
:10417000B8EEC00A30EE480AB0EEC0BA9BED039A22
:104180001BEE100ACDF808B008F0FCF8824648464D
:104190000E4607F079FB07460C46BDEECB0A5046AB
:1041A00031463A46234610EE105A08F04BF90028E3
:1041B000504631463A46234608BF4D4608F042F97C
:1041C000B8EECA0A30EE480AB0EEC0AA00281AEECD
:1041D000100ADDF80CB018BF0BF1010808F0D2F896
:1041E000814628468A4607F04FFB04460F46BDEE3F
:1041F000CA0A4846514622463B4610EE106A08F06D
:1042000021F900284846514622463B4608BF2E4623
:1042100008F018F9B8EEC90A30EE480AB0EEC09AB4
:10422000002819EE100A18BF0BF1020808F0AAF8CE
:10423000814630468A4607F027FB04460F46BDEE0E
:10424000C90A4846514622463B4610EE105A08F02D
:10425000F9F800284846514622463B4608BF3546F5
:1042600008F0F0F8002858460BF1040018BF0BF1D5
:104270000308B0F5807F03907FF448AF08F1010098
:1042800000EE100A9FEDF31AB8EEC00A20EE010A04
:104290009FEDF11A20EE000A81EE001AB1EEC10A7C
:1042A000B4EE400AF1EE10FA80F1CE819FEDEB1AE8
:1042B00020EE010A10EE100A08F064F89FEDEA0BF8
:1042C00053EC102B07F090FB0DF1120502460B4644
:1042D000F3A1284604F0C4FD3220182118222B46F1
:1042E00015E100BF411AC82926DA8C9840F24A41EC
:1042F00000EE100A9FEDE61A091AB8EEC00A20EE89
:10430000010A01EE101AB8EEC11A80EE010A10EE91
:10431000100A08F037F80DF1120402460B46DDA131
:10432000204604F09DFD3220182118222346FDF777
:1043300053FAF6E0F4FDB43F00EE100A9FEDCE1AFA
:10434000B8EEC00A20EE010AB6EE001A20EE018A8D
:10435000AAF1100642F2107500240020039000BF5D
:1043600056F8100F00EE100AB8EEC00A30EE480AF8
:10437000B0EEC09A19EE100A08F004F882462846FA
:10438000884607F081FA83460F46BDEEC90A5046BB
:1043900041465A463B4610EE109A08F053F8002862
:1043A000504641465A463B4608BFA94608F04AF8DF
:1043B0000028039818BF044696ED010A96ED02AA5C
:1043C000B8EEC00A30EE480AB0EEC0BA96ED039AD5
:1043D0001BEE100A07F0D6FF82464846884607F0D3
:1043E00053FA07460D46BDEECB0A504641463A46C3
:1043F0002B4610EE10BA08F025F80028504641462A
:104400003A462B4608BFCB4608F01CF8B8EECA0A5D
:1044100030EE480A00280398B0EEC0AA18BF441C2A
:104420001AEE100A07F0AEFF814658468A4607F09A
:104430002BFA05460F46BDEECA0A484651462A46A3
:104440003B4610EE108A07F0FDFF00284846514613
:104450002A463B4608BFD84607F0F4FFB8EEC90A23
:1044600030EE480A00280398B0EEC09A18BF841CAA
:1044700019EE100A07F086FF814640468A4607F08B
:1044800003FA83460F46BDEEC90A484651465A46CE
:104490003B4610EE105A07F0D5FF0028484651461B
:1044A0005A463B4608BF454607F0CCFF0028039814
:1044B00018BFC41C0430B0F5807F03907FF450AF68
:1044C000601C00EE100A9FED6D1AB8EEC00A9FED59
:1044D0006C2A20EE010A20EE020AB7EE001A81EEE5
:1044E000000A10EE100A07F04DFF9FED5D0B53EC34
:1044F000102B07F079FA0DF1120402460B4661A168
:10450000204604F0ADFC3220182118222346FDF786
:1045100063F944F2F0080DF1300A0DF22C4BC2F2AF
:104520000008B8F800009FED611A400800EE100A7C
:10453000B8EE400A80EE018A1BEDFF1A0020B8EEAB
:10454000C11A4FF47842002421EE081A30EE410AD5
:10455000BDEEC00A10EE101AFCF712FC9FED549A43
:1045600044F2F40BC2F2000BBBF8000004F10109A5
:1045700001EE100A00EE109AB8EE411A0AEB840719
:10458000B8EEC00A21EE091AB8F8000021EE000AC0
:1045900097ED011ABDEEC00A400810EE105A00EE69
:1045A000100AB8EEC11AB8EE400A21EE081A30EE31
:1045B000410ABDEEC00A10EE106A284631464FF49B
:1045C0007842FCF7DDFBBBF8000000EE104A01EE7C
:1045D000100AB8EE411AB8EEC00A21EE091AB8F86E
:1045E000001021EE000A97ED001ABDEEC00A49083E
:1045F00010EE100A00EE101AB8EEC11AB8EE400A1A
:1046000021EE081A30EE410ABDEEC00A10EE101A73
:104610002A4633464FF478470097FDF76DFAFE2C93
:104620004C46A1D19FED120B00200121002203F086
:10463000C7F94FF47A7003F001F80DF5866DBDEC03
:10464000088B01B0BDE8F08FB0EE410A05F09CFF89
:104650002CE600BF62141D444BECAD4400247449A9
:104660000000000065CDCD41CDCCCCCCCCCCEC3F16
:104670000000000000408F40F4FDB43F62141D4470
:104680006666B8424376616C75653A252E346600DD
:104690006666C4425276616C75653A252E346600B2
:1046A0004C76616C75653A252E34660000002F4506
:1046B0000000803B40F080604EF60C5140F0FD70F1
:1046C000CEF200010860704710B5C17800294EF2A3
:1046D0000011CEF200011DD04EF60C52CEF20002B7
:1046E0001268072323EA12220F23C2F1040C23FAD3
:1046F00002FE427884785FFA8CF390F800C09A400A
:1047000004EA0E031A43120101EB0C0383F80023A1
:1047100001E000BF80310078012300F01F0203FA9E
:1047200002F2C0F3421041F8202010BD4FF6807213
:10473000C1F6FF72114008434EF60851CEF2000157
:104740000860704700294EF61051CEF200010A6849
:104750000CBF22EA00001043086070474EF21001BF
:10476000CEF200010A68042822F0040208BF0432D5
:104770000A60704700F13E4000F1FF704FEAB02040
:104780000A2888BF704710B506A151F820400121C2
:10479000204600F071FD20460021BDE8104000F0E9
:1047A0006BBD00BF0100000002000000040000001B
:1047B0000800000010000000200000004000000081
:1047C0008000000000010000000200000004000062
:1047D0002DE9F047D1F800C0002302224FF0010E6E
:1047E0004FF0030810E000BFC46804EA0904C46085
:1047F000CC79C56894402C43C4600233102B02F17D
:10480000040208BFBDE8F0870EFA03F71CEA070FA1
:1048100030D0A2F1020A066808FA0AF46FEA040925
:1048200026EA040404600C79066804FA0AF5013CDF
:104830003543012C056013D8846804EA09048460B8
:104840004C798D79866804FA0AF4344384604468AC
:10485000BC43446005FA03F44568A4B22C434460A9
:10486000C46804EA0904C460CC79C56804FA0AF48F
:104870002C43C4605D1C0EFA05F71CEA070FBCD080
:10488000066808FA02F46FEA040926EA04040460E0
:104890000C79D0F800A004FA02F6013C46EA0A06B8
:1048A000012C0660A0D8846804EA090484604C796D
:1048B00091F806A086689440344384604468BC4301
:1048C00044600AFA05F44568A4B22C4344608BE7BF
:1048D0004FF6FF710022C0E90012704781B04FF41B
:1048E00080320092009A0A430092009AC261C1612C
:1048F0000099C161C1690091C069009001B0704721
:104900000069084018BF0120704700BF006980B2ED
:10491000704700BF4069084018BF0120704700BFC2
:10492000406980B2704700BF018370474183704780
:10493000002A0CBF41830183704700BF416170476B
:1049400042695140416170471C2303EA810C6FF0BA
:10495000030303EA510108440F23016A03FA0CF32D
:1049600099430162016A02FA0CF211430162704735
:104970004FF02041002819BF43F2D20241F8202015
:1049800043F2DB020A600421CAF200016FF07042B8
:1049900041F8202040F20411CAF2000141F8202021
:1049A000704700BF70B5D0E900CED0E9023200F107
:1049B000100672CE43EA0E031A43114321432943E2
:1049C000314300F120064CCED0E90B54114319437A
:1049D0003143294341EA04024FF0204141F82C20A1
:1049E0008268082A06D1026851F8223043F0400359
:1049F00041F82230416BD0F800C0D1E900E6D1E99E
:104A000002544EEA0616D1E9042346EA052646EA90
:104A10000446896946EA025242EA036211430422CB
:104A2000CAF2000242F82C10C16AB1F5804F0FD1D2
:104A3000816B91E84C00D1E9045442EA031242EA46
:104A40000622896942EA055242EA0462114301E002
:104A50006FF07041006840F20412CAF2000242F89E
:104A6000201070BD00210222C0E900124FF648025A
:104A70004FF4805C4FF40053C0F60002C0E902110D
:104A8000C0E90411C0E90611C0E9081CC0E90A31F7
:104A9000C0E90C128263704780B54FF0204E5EF87B
:104AA00020304FF6FE7C43F00102C0F20F0C0029CB
:104AB00008BF03EA0C024EF8202080BD60231028B6
:104AC000CAF2000308D11821184640F80C1B191D22
:104AD00003F1080208E000BF1820186203F1240166
:104AE00003F1280203F12C0040230B604FF0FC314E
:104AF00011600160704700BF2DE9F043D0E90092DA
:104B0000D0E90237D0E904651A433A43D0E90641B7
:104B10003243066A42EA452240F2600C42EA4437D8
:104B2000D1E900E3D1F80880C86874CECAF2000C5D
:104B3000B9F1100F47F0080106D1674647F80C1B82
:104B40000CF1080106E000BFCCF820100CF12801A0
:104B50000CF12C0742EA04224EEA032342EA054202
:104B600043EA084342EA066243EA006008603A60AA
:104B7000BDE8F08310210022C0E90012C0E9022242
:104B8000C0E904228261D0E90710FC22C1E90022B9
:104B9000C1E90222C0E90022C0E90222704700BF39
:104BA00051B1102840F26000CAF2000012D1016831
:104BB00041F0040101607047602110284FF6FB703E
:104BC000CAF20001C0F20F000AD10A681040086062
:104BD000704700BF016A41F004010162704700BFE5
:104BE0000A6A10400862704751B1102840F2600014
:104BF000CAF2000012D1016841F040010160704723
:104C0000602110284FF6BF70CAF20001C0F20F00F9
:104C10000AD10A6810400860704700BF016A41F07D
:104C200040010162704700BF0A6A10400862704785
:104C30007421CAF200012031102804BF7421CAF285
:104C400000010868704700BFA020CAF200001821C8
:104C50000160002141604FF0FC318160C160016161
:104C6000704700BF80B5D0E900C2D0E902314CEAFC
:104C7000422242EA433240F2A00C42F01002CAF251
:104C8000000CCCF80020D1E900E3D1E902214EEA82
:104C9000032343EA024242EA0161CCF808100169A9
:104CA000D1E900E3D1E902214EEA032343EA0242BB
:104CB00042EA0161CCF80C10406990E80E00C0682F
:104CC00041EA022141EA034141EA0060CCF81000C8
:104CD00080BD00BF0021C0E900118160D0E903124E
:104CE0004069FC23C1E90033C1E90233C2E9003362
:104CF000C2E90233C0E90033C0E90233704700BFA4
:104D0000A021CAF200010A684FF6FB7C42F00403BE
:104D1000C0F20F0C002808BF02EA0C030B607047BA
:104D200062B1B0F5807F17D010281DD16420CAF27F
:104D30000000026811430160704700BFB0F5807F3A
:104D40001AD0102820D16420CAF20000026822EA9A
:104D500001010160704700BF6420CAF20000026ACE
:104D600011430162704700BF6420CAF20000026C68
:104D700011430164704700BF6420CAF20000026A58
:104D800022EA0101016270476420CAF20000026C4D
:104D900022EA01010164704764221028CAF200026D
:104DA00004D0B0F5807F14BF403220321068084034
:104DB00018BF0120704700BF64221028CAF2000209
:104DC00004D0B0F5807F14BF403220321068884391
:104DD0001060704764221028CAF2000204D0B0F5B7
:104DE000807F14BF40322032106810EA010200EACE
:104DF000D10018BF0122002818BF012010407047C1
:104E000064221028CAF2000204D0B0F5807F14BFDB
:104E100040322032106820EAD10010607047000054
:104E200043F60000C4F2020001684FF6FF7341F040
:104E300001010160002181600268CEF6F6231A406C
:104E4000026043F21002C2F20042426043F20002EA
:104E5000C2F20002C0F8842002F18062C0F888200B
:104E6000026822F480220260C160C0F88C10704792
:104E700043F60201C4F2020100220A700870704772
:104E800081B043F60000C4F202000021009100BF8F
:104E90000168009A01320092009AB2F5A04F23D027
:104EA00011F4003120D10168009A01320092009A79
:104EB000B2F5A04F18D011F4003115D10168009A55
:104EC00001320092009AB2F5A04F0DD011F40031DA
:104ED0000AD10168009A01320092009AB2F5A04FFF
:104EE00002D011F40031D3D00068C0F3404001B0CB
:104EF000704700BF420943F60001012AC4F20201D3
:104F000003D0022A14BF74317031096800F01F0009
:104F100021FA00F000F00100704700BF43F60001E5
:104F2000C4F202010A6822F0F80242EAC0000860F6
:104F3000704700BF0021C4F247210860704700BFDE
:104F400043F67001C4F20201002201280A700A70BF
:104F500006D0042818BF704705200870704700BFAE
:104F600001200870704700BF40F68061C4F24721FD
:104F70000860704780B540F2000EDDF808C0CFF63B
:104F8000FF7E08430EEBC33340EA82106FF30F033A
:104F900040EA0C6043F604011843C4F202010860C1
:104FA00080BD00BF6021C4F247210860704700BF88
:104FB000090741EA801043F68401C4F20201086047
:104FC000704700BF6821C4F247210860704700BFE6
:104FD000090641EA801043F6880140EA0270C4F2F3
:104FE00002010860704700BF7021C4F247210860C9
:104FF000704700BF4C21C4F247210860704700BFD2
:1050000043F60802C4F202021368084323F0EC637B
:1050100018431060704700BF43F60802C4F2020252
:105020001368084323F0784318431060704700BFAB
:1050300043F60801C4F202010A6822F00302104399
:105040000860704743F60800C4F20200006800F0F0
:105050000C00704743F60801C4F202010A6822F00E
:10506000F00210430860704743F60801C4F20201E1
:105070000A6822F4E05210430860704743F60801C2
:10508000C4F202010A6822F4604242EAC0000860E9
:10509000704700BF10B543F60404C4F2020462680E
:1050A00002F00C0342F20042082BC0F2F40207D0D7
:1050B000042B21D141F20022C0F27A021CE000BF91
:1050C000D4F800C0236803F03F0E5FEA4C2341F29E
:1050D0000023C0F27A0358BF13462268B3FBFEFCDC
:1050E0002368C2F3881202FB0CFCC3F301430222C3
:1050F00002EB4302BCFBF2F2026063684FF6380138
:10510000C3F30313C0F60001CB5CDA40426063686E
:10511000C3F38223CB5C22FA03F383606368C3F397
:105120004233C95C22FA01F1C16010BD00F4407144
:10513000B1F5407F43F60801C4F2020109D10A68C3
:105140004FF6FF43C0F6FF7322F4F81203401A43F0
:105150000A608A6E6FF31F3010438866704700BF85
:1051600040F63C61C4F247210860704740F6406158
:10517000C4F247210860704740F25C11C4F2472135
:105180000860704743F68C01C4F202010A680138D6
:1051900022F01F0210430860704700BF43F68C01E5
:1051A000C4F202010A686FF0FF0322F4F85203EB25
:1051B000002010430860704743F68C01C4F20201DE
:1051C0000A6822F4401210430860704743F68C01CD
:1051D000C4F202010A6822F44002104308607047DA
:1051E00043F68C01C4F202010A6822F440321043F3
:1051F0000860704741F2E011C4F24721086070472F
:10520000002943F63001C4F202010A680CBF22EA09
:105210000000104308607047002943F63401C4F2CF
:1052200002010A680CBF22EA0000104308607047C0
:10523000002943F63801C4F202010A680CBF22EAD1
:105240000000104308607047002943F64001C4F293
:1052500002010A680CBF22EA000010430860704790
:10526000002943F64401C4F202010A680CBF22EA95
:105270000000104308607047002943F61001C4F293
:1052800002010A680CBF22EA000010430860704760
:10529000002943F61401C4F202010A680CBF22EA95
:1052A0000000104308607047002943F61801C4F25B
:1052B00002010A680CBF22EA000010430860704730
:1052C000002943F62001C4F202010A680CBF22EA59
:1052D0000000104308607047002943F62401C4F21F
:1052E00002010A680CBF22EA000010430860704700
:1052F000002943F65001C4F202010A680CBF22EAF9
:105300000000104308607047002943F65401C4F2BE
:1053100002010A680CBF22EA0000104308607047CF
:10532000002943F65801C4F202010A680CBF22EAC0
:105330000000104308607047002943F66001C4F282
:1053400002010A680CBF22EA00001043086070479F
:10535000002943F66401C4F202010A680CBF22EA84
:10536000000010430860704743F67001C4F2020168
:105370000A68012822F0080208BF08320A60704754
:10538000002943F60D01C4F202010A780CBF22EA9B
:10539000000010430870704743F67400C4F2020026
:1053A000016841F080710160704700BF43F60C0155
:1053B000C4F202010968084018BF0120704700BF0D
:1053C00043F60E01C4F202010870704780B547F23F
:1053D000FF71C4F2000188421EDC44F6FF31C4F2C2
:1053E0000001884236DC44F20041C4F200018842E8
:1053F00060D044F60001C4F20001884240F0888089
:105400004FF480200121FFF75BFF4FF48020002143
:10541000BDE88040FFF754BF40F6FF71C4F20101C0
:1054200088422FDC47F60001C4F2000188424DD0CB
:1054300047F60041C4F20001884269D14FF00040B4
:105440000121FFF73DFF4FF000400021BDE8804003
:10545000FFF736BF44F60041C4F20001884241D054
:1054600045F20001C4F20001884251D14FF480108E
:105470000121FFF725FF4FF480100021BDE8804097
:10548000FFF71EBF41F20041C4F20101884235D04E
:1054900041F20001C4F20101884218BF80BD102012
:1054A0000121FFF719FF10200021BDE88040FFF720
:1054B00013BF00BF4FF400300121FFF701FF4FF48D
:1054C00000300021BDE88040FFF7FABE4FF0804079
:1054D0000121FFF7F5FE4FF080400021BDE880403C
:1054E000FFF7EEBE4FF400200121FFF7E9FE4FF475
:1054F00000200021BDE88040FFF7E2BE202001210E
:10550000FFF7EAFE20200021BDE88040FFF7E4BE5F
:1055100080BD00BF70B584B00446008A0D46C988BE
:1055200020F4405008432082A0894EF6F311084031
:10553000A9882A896B89084310431843A081A08A4F
:10554000A98920F4407008436E46A0823046FFF7D8
:10555000A1FD41F2004144F48060C4F2010188429F
:1055600014BF06F1080006F10C000068B4F90C1035
:105570000122B1F1FF3FC8BF02222B681921484325
:1055800003FA02F1B0FBF1F048F21F51C5F2EB1142
:10559000A0FB01235A096FF0630302FB0300B4F977
:1055A0000C300326B3F1FF3FC8BF042600FA06F013
:1055B00000F13200A0FB01014FF00700C8BF0F202F
:1055C00000EA511040EA0210208104B070BD00BF13
:1055D0004FF4165100224FF4402380E80E008281E0
:1055E000704700BF80B5028A0B8822F4706C4A882D
:1055F000B1F804E043EA0C03C9881A4342EA0E02F8
:105600001143018280BD00BF0021416001607047ED
:105610008289002918BF012122F4005242EA413157
:1056200081817047028B22F0FF020283028B1143BB
:10563000018370478289002918BF01216FF3DF328F
:1056400042EAC13181817047828A002918BF012155
:1056500022F4006242EAC121818270476FF35F2128
:105660008180704780886FF35F207047028A22F044
:105670000F020282028A1143018270478289002947
:1056800018BF012122F0020242EA410181817047E4
:10569000828922F40062828182891143818170476C
:1056A000028A22F020020282028A1143018270479C
:1056B000028A002918BF012122F4804242EA813186
:1056C00001827047818941F001018181704700BFEB
:1056D000828A002918BF012122F0080242EAC10192
:1056E00081827047028BD2B20283028B42EA01218F
:1056F00001837047828A002918BF012122F020020D
:1057000042EA411181827047828A002918BF012133
:1057100022F0100242EA011181827047828A22F04F
:1057200004028282828A114381827047828A002920
:1057300018BF012122F0020242EA41018182704732
:10574000002A828A0CBF22EA01011143818270473C
:10575000C1F3421301F01F0C1421022B08BF1021CA
:10576000012B4FF0010308BF0C21002A03FA0CF2B1
:1057700043580CBF23EA02021A434250704700BF4D
:105780000088084018BF0120704700BFC94301804E
:10579000704700BFC1F34212022A07D0012A14BF8A
:1057A00000F1140200F10C0202E000BF00F110024F
:1057B0001288008801F01F03090ADA40C84010402F
:1057C00000F00100704700BF090A012202FA01F14E
:1057D000C94301807047000080B54FF480700121FB
:1057E000FFF77AFD4FF480700021BDE88040FFF79D
:1057F00073BD00BF10B542684FF6FF63CFF6FF439D
:1058000002EA030C0B680A7943EA0C0343EA02221A
:10581000426082684FF2FD73CCF2FF0302EA030E8E
:105820000A69D1E902C342EA0E024C791A4342EAFC
:105830000C0242EA44028260C26A097D22F47002CC
:105840000139C9B242EA0151C16210BD00210160B3
:105850008180C0E90211016101210175704700BF1B
:1058600080B542F2043CC4F2010CDCF8002043F2A3
:10587000E003CFF6FC7302EA030ED0E90031D0E971
:10588000022043EA0E03194311430843CCF80000F9
:1058900080BD00BF0021C0E90011C0E902117047BE
:1058A0008268002922F0010218BF0132826070472D
:1058B00042684FF6FF53CFF63F731A4011434160E1
:1058C000704700BF41628262704700BF426822F0A9
:1058D0001F0211434160704742F20431C4F20101DA
:1058E0000A68002822F4000218BF02F500020A60CC
:1058F000704700BF42F20431C4F201010A68002877
:1059000022F4800218BF02F580020A60704700BFCF
:10591000B0B501EB410C4FF0100E092988BFACF176
:105920001E0C88BF4FF00C0E50F80E40072505FAEC
:105930000CF5AC4303FA0CF32343062A40F80E306F
:1059400004D834306FF0040308E000BF0C2A87BF8E
:105950002C306FF0400330306FF0220302EB8202F4
:1059600005681A441F23934025EA03039140194315
:105970000160B0BD816841F080418160704700BF27
:105980008068C0F3807070478268002922F48062CA
:1059900018BF02F580628260704700BF82680029EC
:1059A00022F0020218BF02328260704742684EF253
:1059B0000003CFF6FF7322F4604203EB4131114341
:1059C000416070474268002922F4006218BF02F566
:1059D00000624260704700BFC06C80B2704700BF79
:1059E00042F20830C4F20100006870478268002962
:1059F00022F4807218BF02F580728260704700BF87
:105A00008268002922F4007218BF02F500728260D9
:105A1000704700BF42F20431C4F201010A68002855
:105A200022F4005218BF02F500520A60704700BF0E
:105A3000B0B501EB410C4FF0100E092988BFACF155
:105A40001E0C88BF4FF00C0E50F80E40072505FACB
:105A50000CF5AC4303FA0CF3234340F80E30836B90
:105A6000FC2565EA13552A440332D5B2AD0055FA38
:105A700082F21F259540AB43914019438163B0BD2D
:105A8000826B0023CFF6F07322F4401203EB015136
:105A900011438163704700BF81B0002300930090E1
:105AA0000098084400900098026001B0704700BF61
:105AB000826822F47022114381607047826822F468
:105AC0004012114381607047816841F48001816018
:105AD000704700BF8068C0F380507047426800295B
