:020000040800F2
:1000000048520020390400081D0400081F0400089D
:1000100023040008270400082B0400080000000047
:100020000000000000000000000000002F04000895
:100030003104000800000000330400083504000803
:100040005304000853040008530400085304000834
:100050005304000853040008530400085304000824
:100060005304000853040008530400085304000814
:100070005304000853040008530400085304000804
:1000800053040008530400085304000853040008F4
:1000900053040008530400085304000853040008E4
:1000A00053040008530400085304000853040008D4
:1000B0009D1C0008B11A00087F1A000853040008AC
:1000C00053040008530400085304000853040008B4
:1000D00053040008530400085304000853040008A4
:1000E0005304000853040008530400085304000894
:1000F0005304000853040008530400085304000884
:100100005304000853040008530400085304000873
:100110005304000853040008530400085304000863
:10012000ED180008530400085304000853040008A5
:100130005304000853040008530400085304000843
:100140005304000853040008530400085304000833
:100150005304000853040008530400085304000823
:100160005304000853040008530400085304000813
:100170005304000853040008530400085304000803
:10018000530400085304000800F002F800F0ACF833
:100190000AA090E8000C82448344AAF10107DA45E2
:1001A00001D100F0A1F8AFF2090EBAE80F0013F088
:1001B000010F18BFFB1A43F00103184788EE000037
:1001C000A8EE0000103A24BF78C878C1FAD85207C8
:1001D00024BF30C830C144BF04680C6070470000C1
:1001E0000023002400250026103A28BF78C1FBD840
:1001F000520728BF30C148BF0B6070474B1C012B12
:1002000098BF70472DE9F003911C9B08B1F804805A
:10021000B1F802900A8831F802CC8044814402444B
:100220008444D9F80070D8F800601568DCF8004004
:10023000C9F80060C8F80070CCF800501460D9F814
:100240000470D8F804605568DCF80440C9F804600C
:10025000C8F80470CCF80450546008315B1ED5D146
:10026000BDE8F00370474B1C012B98BF70472DE988
:10027000F003911C9B08B1F80480B1F802900A8841
:1002800031F802CC00EB580800EB590900EB5202A0
:1002900000EB5C0CD9F80070D8F800601568DCF849
:1002A0000040C9F80060C8F80070CCF80050146035
:1002B00008315B1EDFD1BDE8F0037047662909F005
:1002C000C387642906F0BE82002070471FB509F07D
:1002D00003FF06F035FE04000020002108F058FB63
:1002E000E0601FBD10B510BD06F046FF1146FFF7D8
:1002F000EDFF00F009F806F064FF03B4FFF7F2FF2A
:1003000003BC07F00BF800004FF4A06002F056FDAC
:1003100005F0A1FA00F008FD01F004FE01F0E8F894
:1003200001F00CFA01F058FA0521092001F01BFC3C
:1003300005F00EFB0022012110469FED280B05F071
:1003400076FB642005F051FB03E001F0FDFC02F0B8
:10035000DDFBFAE730B52DED028B89B042F2CF011B
:1003600042F20F7001F05FFB03214FF6FF7001F0C6
:10037000F7FA0024002003E01A4909680C44401CE5
:100380006428F9DB6420B4FBF0F41748006809F036
:10039000EDFD41EC180B53EC182B14A101A806F04D
:1003A0003DFA01AB18226E210A2000F06BFF42F2E9
:1003B0001070844209D94FF47A70B4FBF0F52A46E4
:1003C0000DA101A806F02AFA04E022460FA101A817
:1003D00006F024FA09B0BDEC028B30BD000000002D
:1003E000006AE8402C000020440000205650503A9B
:1003F000252E346600000000667265713A25646B34
:10040000687A20202020202000000000667265719C
:100410003A2564202020202020000000704700BFE3
:10042000FEE700BFFEE700BFFEE700BFFEE7704744
:1004300070477047704700000948804709480047E7
:10044000FEE7FEE7FEE7FEE7FEE7FEE7FEE7FEE784
:10045000FEE7FEE704480549054A064B70470000E1
:100460005505000889010008484100204852002035
:1004700048430020484300200CB500200190009024
:100480007648006840F480307449086000BF7348C3
:10049000006800F4003000900198401C0190009822
:1004A00018B90198B0F5A04FF1D16C48006800F47C
:1004B000003010B10120009001E000200090009871
:1004C000012846D165484030006840F080506349BB
:1004D000403108606248006840F44040604908606C
:1004E0005E48083000685D490831086008460068C9
:1004F00040F4004008600846006840F4A0500860DE
:100500005848091F0860081F006840F08070091FE4
:10051000086000BF5148006800F000700028F9D062
:1005200040F20570504908604C480830006820F0DF
:1005300003004A49083108600846006840F002009C
:10054000086000BF45480830006800F00C0008282B
:10055000F8D10CBD10B54548006840F4700043491F
:1005600008603E48006840F001003C4908600020F7
:100570003A4908310860394800683D490840374920
:1005800008603C48091D0860081F006820F48020AE
:10059000091F0860002031490C310860FFF76CFF2B
:1005A0004FF0006031498039086010BD70B50020FF
:1005B0000022022300240221284D08352D6805F071
:1005C0000C0020B1042806D0082834D107E02A4DB9
:1005D0002A4E356033E02A4D284E35602FE01F4DFE
:1005E0002D1D2D68C5F380541C4D2D1D2D6805F063
:1005F0003F0154B1224DB5FBF1F5184E361D36685A
:10060000C6F3881605FB06F209E01B4DB5FBF1F5B4
:10061000124E361D3668C6F3881605FB06F20F4DDE
:100620002D1D2D68C5F301456D1C6B00B2FBF3F564
:10063000124E356003E0104D104E356000BF00BF14
:10064000064D08352D68C5F303150E4E705D0B4D34
:100650002D68C540094E356070BD0000003802406D
:100660000070004008544007003C024088ED00E064
:10067000FFFFF6FE103000240024F40000000020EC
:1006800000127A0004000020F64A1080921C1180AB
:10069000704710B50446F3480480042005F0F0F8D4
:1006A000F048801C008810BD00BF011EA0F10102AF
:1006B000D0B2FAD17047EC480088EA490880704708
:1006C0002920E849088070472820E64908807047BB
:1006D00030B58418641EA2B2CC18641EA3B2E34CD9
:1006E00024786CBBE24C248841F66315AC4227D1D8
:1006F000E04C2488A41A241AA0B2CC18641EA3B219
:10070000DD4C2488D74D2C800412AD1C2C80C4B243
:100710002C808418641EC4F30F242C808418641E5B
:10072000E4B22C80D54C2488AD1E2C800C12AD1C5C
:100730002C80CCB22C801C122C80DCB22C8019E0D6
:10074000CD4C2488C74D2C800412AD1C2C80C4B223
:100750002C8014122C80D4B22C80C84C2488AD1E5E
:100760002C800C12AD1C2C80CCB22C801C122C8046
:10077000DCB22C8030BD70B5054600240026BB4895
:100780000078012805D1BA48008849F241318842F1
:1007900008D0B6480078F0B9B548008841F6631132
:1007A000884218D1082D15D2DFE805F00406080AA2
:1007B0000C0E101206250DE007250BE0042509E0BC
:1007C000052507E0012505E0002503E0032501E0FC
:1007D000022500BF00BF082D1CD2DFE805F004068B
:1007E000090C0F12151800BF14E044F0800411E04A
:1007F00044F040040EE044F0C0040BE044F0200458
:1008000008E044F0600405E044F0A00402E044F095
:10081000E00400BF00BF36269548008849F2413108
:10082000884201D144F0080421463046FFF72CFFEE
:10083000934803888F48028800210846FFF748FF45
:1008400070BD10B504468CBB0020884908708848EC
:10085000008849F24131884210D12C208249088019
:100860002A20854908802B2084490880F02081496E
:1008700008804FF4A0708249088049E07C480088D5
:1008800041F66311884243D12C20774908802B2000
:10089000794908802A20794908804FF4F070754919
:1008A00008804FF448707649088031E0FFE7012066
:1008B0006E4908706E48008849F24131884210D173
:1008C0002C20694908802A206B4908802B206B491D
:1008D00008804FF4A07067490880F02068490880BC
:1008E00016E06348008841F66311884210D12C203D
:1008F0005D4908802A20604908802B205F490880D4
:100900004FF448705B4908804FF4F0705C490880F0
:100910000020FFF730FF10BD554A128849F24133DD
:100920009A4212D1544A12884E4B1A8002129B1CD2
:100930001A80C2B21A80514A12889B1E1A800A126B
:100940009B1C1A80CAB21A8042E0494A128841F6BA
:1009500063139A423CD1454A12788AB9454A1288B3
:10096000521E121A90B2444A12883E4B1A8000223C
:100970009B1C1A801A8002121A80C2B21A8013E0DD
:100980003D4A1288374B1A8002129B1C1A80C2B251
:100990001A80384A1288521EC2F30F221A80354A32
:1009A0001278521ED2B21A80344A12882D4B1A8005
:1009B0000A129B1C1A80CAB21A80314A1288521E2F
:1009C000C2F30F221A802E4A1278521ED2B21A8017
:1009D00070473EB504460D460020029001900090FD
:1009E00029462046FFF798FF2E201E490880881CC4
:1009F000008802901E48008841F66311884202D1A7
:100A0000BDF808003EBD0220FFF74EFE1548801CD1
:100A100000880090BDF80800C0B20190BDF8040045
:100A20004FF6FF7101EA00200190BDF80800C012E6
:100A3000C002BDF80410891240EA4110BDF8001050
:100A400040EAE120DEE730B504460D46294620465F
:100A5000FFF762FFFFF72FFE0A4800880149891C53
:100A6000088030BDFE1F006C200000201A0000200E
:100A7000180000201C00002022000020240000207C
:100A80001E0000201400002070B505460E461446D6
:100A900031462846FFF7D7FFFE480088FE49088008
:100AA000881C048070BDBE21FB4A11800521921C68
:100AB00011801146088001211180FF211180002141
:100AC00011801180704770B5044600250026F34858
:100AD0000088F349098800FB01F600210846FFF76A
:100AE0001BFFFFF7E8FD00BF03E0EB48801C04801C
:100AF0006D1CB542F9D370BD00B59FB001217820BF
:100B000002F0D4FF0121084603F008F84FF480609A
:100B10001D9001208DF8780000208DF87A000220C9
:100B20008DF8790001208DF87B001DA9DD4802F0C9
:100B30003BFA4CF233701D9002208DF878000020B3
:100B40008DF87A0003208DF8790001208DF87B0064
:100B50001DA9D54802F028FA4FF680701D9002209A
:100B60008DF8780000208DF87A0003208DF8790048
:100B700001208DF87B001DA9CC4802F015FA042055
:100B80001D9002208DF8780000208DF87A00032057
:100B90008DF8790001208DF87B001DA9C44802F072
:100BA00003FA4FF480501D9002208DF87800002049
:100BB0008DF87A0003208DF8790001208DF87B00F4
:100BC0001DA9BB4802F0F0F90C220021B64802F042
:100BD00076FA0C220121B44802F071FA0C220421A9
:100BE000B14802F06CFA0C220521AF4802F067FA16
:100BF0000C220821AC4802F062FA0C220921AA4812
:100C000002F05DFA0C220A21A74802F058FA0C22E1
:100C10000E21A54802F053FA0C220F21A24802F03F
:100C20004EFA0C220721A14802F049FA0C220821B1
:100C30009E4802F044FA0C2209219C4802F03FFA37
:100C40000C220A21994802F03AFA0C220B2197480B
:100C500002F035FA0C221146944802F030FA0C22C8
:100C60000D21924802F02BFA0C220E218F4802F03F
:100C700026FA0C220F218D4802F021FA0C220221C3
:100C80008B4802F01CFA0C221146894802F017FA30
:100C90000F200790002008903C20099000200A9027
:100CA0000B900C900D9008200090002001900720E0
:100CB00002900020039004900590069006200E906C
:100CC00000200F901090102011900020129014908E
:100CD0001390159016904FF48050179000201890A4
:100CE0004FF48040199000201A9007A81B90CDF86F
:100CF00070D00EA802F037FA0121062002F0BEFAE9
:100D0000322004F005FE1FB000BDD321624A1180DD
:100D1000911C0888088808884FF6FF7101EA0020B6
:100D2000911C09880843704710B5FFF7E5FEFFF7EF
:100D3000ECFF604908800846008849F2413188424A
:100D400023D0A12054490880881C00885949088074
:100D50005148801C00880880084600884FF6FF71C3
:100D600001EA0020534908804B48801C008809880C
:100D70000843504908800846008845F2617188425E
:100D800003D141F663104B4908804A48008849F274
:100D9000413188421CD14848006820F00F004FF0D4
:100DA0002041C1F81C010846D0F81C0120F47060F5
:100DB000C1F81C010846D0F81C0140F00300C1F83E
:100DC0001C010846D0F81C0140F40070C1F81C0159
:100DD0003848008849F2413188426FD1CF202E49EE
:100DE00008800020891C0880C120088030200880ED
:100DF000ED20891E08806420891C0880032008805B
:100E00001220088081200880E820891E0880852023
:100E1000891C0880102008807A200880CB20891E39
:100E200008803920891C08802C2008800020088038
:100E30003420088002200880F720891E08802020A6
:100E4000891C0880EA20891E08800020891C0880EF
:100E50000880C020891E08801B20891C0880C120B2
:100E6000891E08800120891C0880C520891E0880F1
:100E70003020891C08800880C720891E0880B72080
:100E8000891C08803620891E08804820891C08801B
:100E90003A2014E020000020FE1F006C1C000020FF
:100EA0001E00002000140240000C0240001002400E
:100EB00000180240180000201C0100A082E0891EDA
:100EC00008805520891C0880B120891E08800020D8
:100ED000891C08801A200880B620891E08800A20F4
:100EE000891C0880A2200880F220891E088000202A
:100EF000891C08802620891E08800120891C088002
:100F0000E020891E08800F20891C08802A20088084
:100F100028200880082008800E20088008200880EB
:100F200054200880A9200880432008800A200880D7
:100F30000F20088000200880088008800880E120B9
:100F4000891E08800020891C088015200880172031
:100F500008800720088011200880062008802B20A8
:100F60000880562008803C2008800520088010203A
:100F700008800F2008803F20088008800F2008800C
:100F80002B20891E08800020891C088008800120F1
:100F900008803F2008802A20891E08800020891CA4
:100FA000088008800880EF2008801120891E0880B2
:100FB000782004F0ADFC2920FA4908800120FA4984
:100FC000086098E0F948008841F663118842F8D13A
:100FD000E220F44908801D20891C08800220088036
:100FE00004200880642004F04BFCE020ED490880D8
:100FF0000120891C08800A2004F08AFCE020E949CD
:1010000008800320891C08800C2004F081FC01204A
:10101000E44908800A2004F07BFCE620E1490880CE
:101020002F20891C0880FF2008800880B020891E9E
:1010300008802020891C0880002008800320088068
:1010400040F21F3008800120088040F2DF10088045
:1010500000200880B420891E08800420891C088094
:1010600040F21F400880002008802E2008800020C9
:101070000880088008800880B620891E0880022029
:10108000891C08804FF40370088000200880172016
:10109000088015200880002008800880F020891E24
:1010A00008800320891C08802920891E0880D02000
:1010B00008800020891C0880BE20891E0880052029
:1010C000891C0880FE2008800120088000200880FC
:1010D00008800880B820891E08800320891C0880A9
:1010E00001200880BA20891E08800120891C088000
:1010F000FF20FFF7D8FC0020FFF7A3FB4FF6FF709F
:10110000FFF7E1FC10BD2DE9F04F05460E461746EE
:101110009846DDF824A04FF0000B781B401C1FFA06
:1011200080FB344614E021462846FFF7F5FBFFF725
:10113000C2FA4FF0000907E09A48801CA0F800A00E
:1011400009F101001FFA80F9D945F5DB601C84B272
:101150004445E8DDBDE8F08F2DE9F84F07460D4620
:1011600090469946DDF828B0A8EB0700401C80B2F5
:101170000090A9EB0500401C1FFA80FA002416E03D
:10118000281981B23846FFF7C7FBFFF794FA00260B
:1011900008E004FB0A603BF810008249891C0880C3
:1011A000701C86B200988642F3DB601C84B2544502
:1011B000E6DBBDE8F88F2DE9FF4F074616461C46D3
:1011C000BB460C2C01D198460AE0102C01D1A04658
:1011D00006E0182C02D14FF0300801E0BDE8FF8F87
:1011E000A6F12000C6B2002548E00C2C07D106EB82
:1011F00046006F4901EB800010F8059010E0102CBC
:1012000005D16C4800EB061010F8059008E0182C8A
:1012100006D106EB4600684901EB001010F8059076
:101220004FF0000A24E009F0010030B16348028861
:1012300038460199FFF728FC05E0614802883846E6
:101240000199FFF721FC4FEA6909781C87B2A7EBE7
:101250000B0104EBD472B1EB620F05D15F4601982C
:10126000401C80B2019006E00AF1010000F0FF0A84
:10127000BAF1080FD7DB00BF681CC5B24545B4DB27
:1012800000BFABE7F0B506460F4615461C4611E019
:1012900022782B4639463046FFF78DFF284605EB6E
:1012A000D07106EB61018EB246480088864200DBB1
:1012B00006E0641C2078202802DB20787E28E7DD09
:1012C00000BFF0BD2DE9F04F04460D4616461F46FF
:1012D000DDE909893948B0F800A03948B0F800B014
:1012E0003648A0F800803648A0F800903B463246C9
:1012F00029462046FFF7C6FF3048A0F800A0304836
:10130000A0F800B0BDE8F08F10B50246012000E063
:1013100050430B1EA1F10104E1B2F9D110BD2DE93A
:10132000FF4F81B0074690461E460E9CC3464FF0C5
:10133000000906E00A20BBFBF0FB09F1010000F008
:10134000FF09BBF1000FF5D1B14508DD1EA3224610
:1013500038460299FFF796FF05B0BDE8F08F0025EB
:1013600053E0A6EB0900A84232DD0F9860B104EB10
:10137000D471491001FB057188B2234630220094D4
:101380000299FFF718FF3EE004EBD471491001FB0E
:10139000057188B22346202200940299FFF70BFFC3
:1013A00031E00000FE1F006CA882424218000020BD
:1013B0007CA30008F0A70008E0AD0008140000209E
:1013C000160000201C0000204552524F5200000021
:1013D000701B401EC1B20A20FFF796FFB8FBF0F069
:1013E0000A21B0FBF1F201FB120A04EBD47149109F
:1013F00001FB057188B20AF13001CAB2234600949C
:101400000299FFF7D8FE681CC5B2B542A9DB00BF40
:10141000A2E72DE9FF4F82B004460D461646DDE9EE
:101420001189109F3048B0F800A03048B0F800B0E3
:101430002D48A0F800802D48A0F800900F98CDE925
:101440000007324629462046059BFFF768FF2648DD
:10145000A0F800A02548A0F800B006B0BDE8F08FC5
:101460002DE9FC4F04460D4616461F46301B00284A
:1014700001DB014600E041421FFA81F8781B002899
:1014800001DB014600E041421FFA81F9B44201DA72
:10149000012001E04FF0FF300190BD4201DA012050
:1014A00001E04FF0FF300090A8EB090A16E0294652
:1014B00020460B9AFFF7E8FA4FEA4A0BC9F1000001
:1014C000834504DDAAEB090A0198204484B2C34590
:1014D00003DAC2440098284485B200BFB442E6D182
:1014E000BD42E4D1BDE8FC8F1400002016000020AE
:1014F0001CB50121202002F0D9FA4FF47070009041
:1015000000208DF8040003208DF8050001208DF8DF
:1015100007006946314801F047FD1CBD0021304AF3
:1015200011703049096861B12E49091F096841B13C
:101530002C490839096821B12A490C390968002960
:101540003CD12849096819B90121274A117016E0D0
:101550002449091F096819B90221234A11700EE0B4
:1015600020490839096819B903211F4A117006E09A
:101570001C490C39096811B904211B4A11701A4918
:1015800009781A4A1278914210D119490988491CE0
:10159000174A118014490978164A1170E8B914499C
:1015A0000988012919DD0021117016E00021104A77
:1015B00011800D4909780D4A11700EE00C49098817
:1015C000022903DD08490978054A11700021074AFC
:1015D0001170074A1180074A1170704700140240C9
:1015E00027000020248242422A0000202B000020F5
:1015F000280000202600002000B58DB001210846FB
:1016000002F054FA0121080202F0AAFAC0200B905D
:1016100003208DF8300000208DF833000BA9BD4861
:1016200001F0C2FC0121080202F0EFFA00214FF4A0
:10163000807002F0EAFA002007904FF4A0600A9050
:10164000002009904FF48030089007A802F0BCFBFE
:10165000002001908DF808008DF809000390059096
:1016600001208DF8180001A9AB4802F07EFB012192
:10167000A94802F0C0FB0DB000BD10B5044604231C
:1016800001222146A44802F0F6FBA34802F04FFCD9
:1016900000BF0221A04802F06BFD0028F9D09E484F
:1016A00002F081FC10BD00B591B00121880502F067
:1016B000FDF99A4803F0EAFD00BF984803F00FFFD8
:1016C0000028FAD1029094484C300390944804903A
:1016D000002005904FF480600690002007904FF4A2
:1016E000806008904000099080000A9040110B90A3
:1016F00040020C9000200D9001200E9000200F90D1
:10170000109002A9854803F063FE0122102183484E
:1017100003F025FF0121814803F094FE38208DF865
:10172000040000208DF8050001208DF806008DF8DA
:10173000070001A801F047FB11B000BD00B58DB056
:10174000FFF7B1FF0121084602F0B0F901210802BC
:1017500002F006FAC0200B9003208DF83000002024
:101760008DF833000BA96B4801F01EFC0020079098
:101770004FF4A0600A90002009904FF48030089048
:1017800007A802F021FB002001908DF808008DF8D9
:1017900009004FF0C06004904FF08050039000208B
:1017A000059001208DF8180001A95B4802F0DDFAD0
:1017B00001231A460621584802F05DFB01215648D4
:1017C00002F004FC0121544802F0F5FB01215248CB
:1017D00002F011FB0DB000BD00B59BB001218805E2
:1017E00002F064F94D48303003F050FD00BF4B4823
:1017F000303003F074FE0028F9D14FF000700C90E7
:1018000048480D9048480E9000200F904FF480609B
:101810001090002011904FF48060129040001390BF
:1018200080001490401115904002169000201790EF
:1018300001201890002019901A900CA937483030D8
:1018400003F0C6FD01213548303003F0FBFD0121D6
:10185000042002F02BF90121480202F081F9042052
:101860000A9003208DF82C0000208DF82F000AA983
:101870002E4801F099FB002006904FF4A0600990DB
:10188000002008904FF48030079006A802F09CFAE0
:10189000002000908DF804008DF805004FF0C06026
:1018A00003904FF0805002900020049001208DF8AA
:1018B000140069461B484C3802F057FA01231A46B7
:1018C0000C2118484C3802F0D6FA012115484C3842
:1018D00002F07CFB012113484C3802F06CFB012123
:1018E00010484C3802F087FA1BB000BD10B5104903
:1018F0000A4803F051FE60B10E49084803F01BFE90
:101900000B49064803F072FE00214FF0804002F0C0
:10191000A1FF10BD00000240002001401064024001
:10192000E80000204C210140E808002000080240A7
:10193000208000102000001008B54FF4C06001F0B6
:101940003DFA1E208DF8000000208DF801008DF872
:10195000020001208DF80300684601F034FA08BD4A
:1019600030B589B005460C46FFF7E6FF012104209B
:1019700002F0E5F80795ADF818400020ADF820001A
:10198000ADF81A008DF8220006A9594802F0D9FED8
:101990000020ADF80C00ADF80E000120ADF81000ED
:1019A0000C20ADF812000020ADF8140003A9504837
:1019B00003F09EFA01214E4803F078FB0022022139
:1019C0004B4803F05FFB00231A465021484803F0C0
:1019D000B9FB0021464802F0FDFE012211464448B1
:1019E00003F050FB0121424802F034FF01210220A4
:1019F00002F05CF8022206213E4801F060FB402024
:101A0000019002208DF8080003208DF809000020C5
:101A10008DF80A0002208DF80B0001A9354801F06D
:101A2000C3FA09B030BD7FB505460C46012102203E
:101A300002F085F80295ADF804400020ADF80600EC
:101A4000ADF80C0001A92C4802F07BFE01221146E2
:101A5000294803F017FB0121274802F0FBFE1D2057
:101A60008DF8000001208DF8010003208DF80200A0
:101A700001208DF80300684601F0A5F97FBD10B57F
:101A800001211B4803F015FB88B11C480068401C6D
:101A90001A4908600846006842F21071884202D96B
:101AA0000020164908600121114803F013FB10BD06
:101AB00010B50121104803F0FCFAC0B10C482430E5
:101AC00000680E4909684FF4803202FB0100800073
:101AD0000B49086000200849243108600749086064
:101AE0000349243108600121034803F0F3FA10BDD3
:101AF00000080040000402400004004038000020BC
:101B00002C0000207FB505460C460121084602F056
:101B100016F80295ADF804400020ADF80600ADF8C7
:101B20000C0001A94FF0804002F00BFE2021480676
:101B300003F060FB01221146900703F0A3FA012194
:101B4000880702F087FE1C208DF8000001208DF828
:101B5000010003208DF8020001208DF80300684683
:101B600001F031F97FBD3EB505460C46012108461E
:101B700001F0E5FF0195ADF800400020ADF802004E
:101B8000ADF8080069464FF0804002F0DAFD2021F0
:101B9000480603F02FFB01221146900703F072FA6A
:101BA0000121880702F056FE3EBD70B52DED088B71
:101BB00005460C4600EE105AB8EE400AF0EE409A88
:101BC000D4ED020A00EE105AB8EE400A30EEC00A18
:101BD00010EE101A084608F0C9F941EC1B0BB0EEE4
:101BE0004B0AF0EE6B0A06F073FAB0EE40AAF0EE84
:101BF00060AA9FED3C0B53EC102B51EC1A0B07F035
:101C00005AFE10D800EE105AB8EE400ADFED370A3F
:101C100020EE200AD4ED020A9FED351AB0EE408A7C
:101C200000EE818A01E094ED028AB0EE489A94EDCC
:101C3000000AD4ED040A30EE200A84ED010A94ED86
:101C4000010AD4ED050A30EE200AD4ED010A80EE37
:101C5000801A84ED031A94ED030AD4ED020A79EE9A
:101C6000E00AF0EE498A40EE208A94ED030AF7EE8E
:101C7000000A30EEC00AD4ED000A20EE200A84EDFE
:101C8000010A94ED010A84ED000AC4ED028ABCEE5B
:101C9000E80A10EE100ABDEC088B70BD10B50121EA
:101CA000880703F006FA01281AD10620FFF7E5FCA1
:101CB0001049114A128821F812000F480088401C70
:101CC0000D49088008460088B0F5806F04DB0020CD
:101CD0000880084800F0AFF80121880703F0FAF9FE
:101CE00010BD00000000000000004940F4FD143F5A
:101CF0001904D63EE80000205C0000202648007849
:101D0000012806D125480088401C00B223490880DC
:101D100019E021480078022806D120480088401E9A
:101D200000B21E4908800EE01B48007803280AD143
:101D30001B480068401C1A490860084600680328D0
:101D400001DD01200860704710B50020FFF7E6FBB9
:101D5000002002F04AFB1348008813490988884292
:101D600017DA12480088B0F58C7F12DD0D48008824
:101D7000642803DA0220084908700AE0094800884C
:101D8000B42803DA01200449087002E00320024964
:101D90000870FFF7B3FF10BD26000020A800002048
:101DA000A4000020C40000201C000020C600002069
:101DB00070B52DED0A8B0446B0EE408A601E00EE31
:101DC000100AB8EEC00ADFED4E0A20EE200ADFED61
:101DD0004D0A80EE201A11EE105A284608F0C6F877
:101DE00041EC1C0BB0EE4C0AF0EE6C0A06F00CF95C
:101DF000B0EE40BAF0EE60BA9FED430B53EC102BFF
:101E000051EC1B0B07F0B8FB41EC1A0B9FED3E0B9E
:101E100053EC102B07F080FD41EC190B06F0DAFDB6
:101E200008EE900A28EE880AF0EE408AB0EE680AC2
:101E3000BDEC0A8B70BD70B50546002014E035F886
:101E4000101000EE101AB8EE400A314A02EBC00141
:101E500081ED000A9FED2F0A012101EB400102EB09
:101E6000810181ED000A401CB0F5806FE7DB0024A2
:101E70000AE0274A02EBC401D1ED000AB0EE600A85
:101E8000A0B2FFF795FF641CB4F5806FF1DB01236E
:101E900000221F49204804F0ADF94FF480621F4929
:101EA0001B4803F03DFE01200EE01C4901EB8001C0
:101EB00091ED000ADFED1A0A80EE201A174901EBB6
:101EC000800181ED001A401CB0F5806FEDDB01262A
:101ED000012011E0114901EB860191ED000A0F4943
:101EE00001EB8001D1ED000AB4EEE00AF1EE10FA48
:101EF00000D20646411C08B2B0F5806FEADB70BD27
:101F0000DA0FC9400080FF43000000000000E03FFE
:101F1000E810002000000000CCBF0008E8300020DE
:101F20000000004410B54248008849F2413188421F
:101F300001D102F0C5FA10BD10B54FF6FF70FEF7E3
:101F4000C2FD1F203B4908803B4A1288123A91B2D9
:101F50003A4A1288283A90B239A31022FFF792F930
:101F60004FF478403349088010BD2DE9F041064612
:101F70000D46174600242F48078000BF18E0281997
:101F800081B23046FEF75FFD2A1991B2721C90B201
:101F9000FEF759FD2A1991B2B21C90B2FEF753FD1B
:101FA0002A1991B2F21C90B2FEF74DFD601CC4B22A
:101FB000042CE4DBBDE8F081002437E0002002F0CF
:101FC00014FA214800881D49098888421EDA1F48F2
:101FD000008819490988884218DA18480088283882
:101FE00019490988884209DA1348008812381749C4
:101FF0000988884202DAFFF79FFF07E04FF4784232
:102000001248018810480088FFF7AFFF601CC4B277
:10201000142094FBF0F100FB114038B90C48006823
:1020200008B9012000E0002009490860C6E7000067
:1020300018000020140000201E0000201C000020BA
:10204000436C656172000000C4000020C6000020DF
:102050008C0242422DE9F04F2DED028B85B00646F1
:10206000884691461D469DED108AF0EE408AC24694
:10207000CDF810800024A8E0FE48008800EE100A89
:10208000B8EE400AF7EE000A60EE200A00EE106A91
:10209000B8EE400A80EE801A00EE104AB8EE400A10
:1020A00021EE000ABCEEC00A10EE100A80B20390C6
:1020B000B9F1000F14D0049800EB8400D0ED000AB1
:1020C00000EE105AB8EE400A00EEE80AF8EE480AB0
:1020D00030EE200ABCEEC00A10EE100A87B214E0FF
:1020E0003AF8140000EE100AF8EE400A00EE105A1A
:1020F000B8EE400A00EEE80AF8EE480A30EE200A90
:10210000BCEEC00A10EE100A87B23946119A039845
:10211000FEF7BAFC002C56DDD648008800EE100A07
:10212000B8EE400AF7EE000A60EE200A00EE106AF0
:10213000B8EE400A80EE801A601E00EE100AB8EE7B
:10214000C00A21EE000ABCEEC00A10EE100A80B2EE
:102150000290B9F1000F16D0601E049901EB8000C7
:10216000D0ED000A00EE105AB8EE400A00EEE80A80
:10217000F8EE480A30EE200ABCEEC00A10EE100A53
:102180001FFA80FB16E0601E3AF8100000EE100AFD
:10219000F8EE400A00EE105AB8EE400A00EEE80AE7
:1021A000F8EE480A30EE200ABCEEC00A10EE100A23
:1021B0001FFA80FB11983B4600905946DDE9020268
:1021C000FFF74EF900BF601C84B2B442FFF654AF73
:1021D00005B0BDEC028BBDE8F08F2DE9F04F2DED81
:1021E000108BADF6244D4FF48070CDF81C0C81009F
:1021F0000DF61C0004F0E9FB4FF480610DF21C4069
:1022000004F0E3FB4FF4806107A804F0DEFB4FF01D
:10221000000AD3461FE20BF1010080B20690069837
:1022200007F05AF941EC1C0B9FED930B53EC102B6C
:1022300007F0A2F941EC1B0B002201211046B0EE81
:102240004B0AF0EE6B0A03F0F2FB012003F060FB97
:102250000121880702F0FEFA00BF4FF0804000889D
:102260000028FAD14FF6FF70009082480088401E87
:1022700082B28348038800210846FEF744FF804964
:10228000088800EBD0714FEA610900EE109AB8EEB1
:10229000400ADFED7C0A80EE20EA32274FF47840D6
:1022A0000021CDE900107649B1F8008008EBD87123
:1022B0004B103846B0EE4E0A00227349FFF7CAFEB3
:1022C0001F210020CDE900016D49B1F8008008EB25
:1022D000D8714B103846B0EE4E0A00226B49FFF71A
:1022E000B9FE1F20009066480088401E83B2642219
:1022F00000211046FFF7B4F86348FFF79CFD012466
:10230000012010E0624901EB840191ED000A60496F
:1023100001EB8001D1ED000AB4EEE00AF1EE10FA13
:1023200000D20446401CB0F5007FEBDB9FED598BDB
:102330006FF002081DE004EB0800002800DA16E048
:1023400004EB0800524A02EB800090ED000A20EEF8
:10235000000A10EE101A084607F008FE41EC1B0BAD
:1023600053EC182B06F098FC41EC180B00BF08F159
:102370000108B8F1030FDEDB51EC180B06F02AFB65
:102380000BEE100AB0EE4B0A05F0ACFE10EE108A10
:10239000404607F0EBFD41EC180B404A02EBC4004D
:1023A00090ED000A10EE101A084607F0DFFDCDE9A7
:1023B00000016000401C394A02EB800090ED000AE9
:1023C00010EE101A084607F0D1FD41EC1D0B9DEDF3
:1023D000001BB0EE4D0AF0EE6D0A05F015FD8DED17
:1023E000020B9FED2F0B53EC102B9DED020B51ECCC
:1023F000100B07F0C1F89FED2C0B53EC102BCDE91F
:1024000004019DED040B51EC100B06F077FD41EC3F
:102410001C0B9FED270B53EC102B06F03DFC41EC01
:102420001B0B9FED250B53EC102B06F035FC41ECFC
:102430001F0B06F0CFFA0AEE900A1448FFF7FBFCD8
:102440000124012010E0124901EB840191ED000A02
:102450000F4901EB8001D1ED000AB4EEE00AF1EE84
:1024600010FA00D20446401CB0F5007FEBDB0B4AAB
:1024700026E000001C0000200000000000407F401B
:102480001E0000200000FA44E8000020E8080020B8
:10249000E83000200000000000000000E8100020EC
:1024A000000000000080664000000040FB21094061
:1024B000000000000080564048E17A14AEC7244076
:1024C00002EBC40090ED000A10EE101A084607F067
:1024D0004DFDCDE902016000401CFB4A02EB80008B
:1024E00090ED000A10EE101A084607F03FFDCDE906
:1024F00000019DED021B9DED000B05F085FCB0EE8B
:1025000040CAF0EE60CA1FED1A0B53EC102B51ECD1
:102510001C0B07F031F81FED1C0B53EC102BCDE911
:1025200004019DED040B51EC100B06F0E7FC41ECAF
:102530001B0B1FED210B53EC102B06F0ADFB41ECF8
:102540001D0B1FED230B53EC102B06F0A5FB41ECEC
:102550001F0B06F03FFA09EE100A04EBD471491084
:102560000DF61C0252F8211051BB204604EBD0712D
:10257000491007AA42F82A100AF1010A51EC180B77
:1025800006F0B4FE0146A04604EBD87040100DF6EC
:102590001C0242F82010B2EE040A29EE000AF2EE04
:1025A000040A0AEEE00ABDEEC00A10EE101A204638
:1025B00004EBD07252100DF21C4343F8221048E095
:1025C000A04604EBD87149100DF61C0252F8210008
:1025D00006F05EFF41EC1D0B53EC182B06F05CFB84
:1025E00041EC1C0B9FEDB90B53EC102B06F086FC55
:1025F00041EC1B0B06F07AFE014604EBD470401050
:102600000DF61C02059442F82010204604EBD0720F
:1026100052100DF21C4353F8222000EE102AB8EE9F
:10262000C00AF2EE040A09EE200AF2EE040A0AEEEB
:10263000E00AF0EE000A80EE201ABDEEC10A10EEAC
:10264000103A214604EBD17252100DF21C4C4CF89A
:1026500022300BF1010BBBF5967FFFF6DCAD4FF698
:10266000FF7000909B4803889B4802880021084621
:10267000FEF749FD9749088800EBD0714D1000EE38
:10268000105AB8EE400ADFED950AC0EE209A00EE2F
:10269000105AB8EE400ADFED920A80EE20AA5646A4
:1026A0000024C9E007A850F824700DF61C0050F86B
:1026B000270008EE100A0DF21C4050F8270008EE23
:1026C000900A8548008800EE100AB8EE400AF7EE3E
:1026D000000A20EE201A00EE106AB8EEC00AC1EE21
:1026E000000A00EE104AB8EEC00A20EE800ABCEEE6
:1026F000C00A10EE100A1FFA80F87649088800EB2D
:10270000D071491000EE101AB8EEC00AF8EEC80AEF
:1027100000EEE90ABCEEC00A10EE101A1FFA81F9A9
:102720006C490888C11700EB9171891001EB4101D8
:1027300000EE101AB8EEC00AF8EEE80A00EE8A0AB7
:10274000BCEEC00A10EE101A89B206914FF478421E
:1027500049464046FEF798F9002C6CDD5E4800883B
:1027600000EE100AB8EE400AF7EE000A60EE200A0A
:1027700000EE106AB8EEC00A80EE801A601E00EE0D
:10278000100AB8EEC00A21EE000ABCEEC00A10EE34
:10279000100A1FFA80FB4F49088800EBD0714910DE
:1027A00000EE101AB8EEC00A611E07AA52F82110F6
:1027B0000DF61C0252F8211000EE901AF8EEE00A15
:1027C00000EEE90ABCEEC00A10EE101A89B20591BB
:1027D0004FF478404B464246009058460599FEF724
:1027E0003FFE3C490888C11700EB9171891001EB4D
:1027F000410100EE101AB8EEC00A611E07AA52F895
:1028000021100DF21C4252F8211000EE901AF8EE41
:10281000E00A00EE8A0ABCEEC00A10EE101A89B275
:1028200004914FF47840009042465846069B049924
:10283000FEF716FE00BF641CB442FFF633AF0DF680
:10284000244DBDEC108BBDE8F08F10B50446254833
:1028500000EB8400D0ED000A60EEA00A601E214962
:1028600001EB800090ED001A601E01EB8000D0EDBE
:10287000001A41EE210AA01E01EB800090ED001A23
:10288000A01E01EB8000D0ED001A41EE210A601C71
:1028900001EB800090ED001A601C01EB8000D0ED90
:1028A000001A41EE210AA01C01EB800090ED001AF5
:1028B000A01C01EB8000D0ED001A41EE210AB0EE21
:1028C000600A05F00FFC10BDE810002000000000B9
:1028D000000000401E0000201C00002000007A4480
:1028E0000000FA43E830002070B52DED0E8B8AB061
:1028F000FE48FFF7A0FA4FF6FF700090FC480488EE
:1029000004EBD4704010401E83B2FA480088401E89
:1029100082B200210846FEF7F6FBF549088800EB75
:10292000D071491008EE101AB8EE480ADFEDF20A2D
:1029300080EE201AF0EE418A4FF478400021CDE974
:102940000010EB48048804EBD4704310B0EE680A22
:102950000122EA495002FFF77DFBE648008806F0B5
:10296000BBFD41EC1E0B9FEDE60B53EC102B06F06C
:1029700003FE41EC1D0B9FEDE40B53EC102B06F016
:10298000BDFA41EC1C0B1FED2F0B53EC102B06F086
:10299000F3FD41EC1A0BDE48B0F9000006F078FDBB
:1029A00041EC1B0B53EC1A2B06F0E6FD41EC190B26
:1029B00006F000FD85B2CF48008806F08DFD41ECA1
:1029C0001E0B9FEDCF0B53EC102B06F0D5FD41EC09
:1029D0001D0B9FEDCD0B53EC102B06F08FFA41EC45
:1029E0001C0B1FED460B53EC102B06F0C5FD41EC04
:1029F0001A0BC748B0F9000006F04AFD41EC1B0B6A
:102A000053EC1A2B06F0B8FD41EC190B06F0D2FC82
:102A100086B21F200090B648048804EBD4704010A2
:102A2000401E83B22A4600213046FEF719FDB94800
:102A30000088002866D11F20B7490880B448B0F943
:102A4000000006F025FD41EC1B0B9FEDB40B53EC91
:102A5000102B06F091FD41EC1A0B53EC1A2BB1A18F
:102A600002A803F0DBFE02AB0C22DC210A20FEF7F9
:102A700009FCA748B0F90000FFF7E7FEB0EE40CA36
:102A80009FEDAB0BB0EE409AF0EE609A6FF002044F
:102A900018E09F48B0F900002044984A02EB8000FB
:102AA00090ED000A20EE000A10EE101A084607F01A
:102AB0005DFA41EC1A0B53EC192B06F0EDF841ECE2
:102AC000190B641C032CE4DB51EC190B05F082FF9D
:102AD0000AEE100AB0EE4A0A05F004FB10EE104AA6
:102AE000204607F043FA41EC1B0B53EC1B2B92A141
:102AF00002A803F093FE02AB0C22DC217820FEF743
:102B0000C1FB00BF0AB0BDEC0E8B70BDF0B52DED62
:102B1000028B83B07F480088401C7E4908800846AD
:102B200000881E2801DB002008804FF478407A4995
:102B300008807848008838B94FF08040008818B97C
:102B40000121880701F086FE7E480068012853D1E4
:102B50007048008800285BD14FF6FF7000906448F1
:102B60000088401E83B263480088401E82B2002164
:102B70000846FEF7C8FA5E48008808EE100AB8EE6C
:102B8000480A5FEDAA0A80EE201AF0EE418A64241A
:102B90004FF478415648058805EBD5704010CDE9D3
:102BA000000153490D8805EBD5714F1050490E882F
:102BB00006EBD6714B102046B0EE680A00224B4956
:102BC000FFF748FA1F214A48058805EBD5704010E9
:102BD000CDE9000146490D8805EBD5714F104449F8
:102BE0000E8806EBD6714B102046B0EE680A002224
:102BF0005549FFF72FFA0BE052480068022802D12E
:102C0000FFF772FE04E04348008808B9FFF7E5FAD1
:102C100003B0BDEC028BF0BD00B52DED028B89B089
:102C20004FF478403C49088048A318224FF48C7137
:102C30000A20FEF727FB46A318224FF48C7164206C
:102C4000FEF720FB43A318224FF48C71B420FEF74B
:102C500019FB1F20304908804048006807F086F9BA
:102C600041EC180B53EC182B3DA101A803F0D6FD45
:102C700001AB18226E210A20FEF704FB3C480068D5
:102C800007F074F941EC180B53EC182B39A101A88B
:102C900003F0C4FD01AB1822AA210A20FEF7F2FAC4
:102CA00009B0BDEC028B00BD30B52DED028B83B0B9
:102CB0004FF6FF7000900E48058805EBD570401068
:102CC000401E83B20B480088401E82B20021084695
:102CD000FEF719FA0649088800EBD071491008EE92
:102CE000101AB8EE480ADFED040A47E0E8000020B9
:102CF0001E0000201C0000200000FA44E8300020E4
:102D0000000000000000F03F0000000000009040C4
:102D1000A8000020AA0000201400002000000000ED
:102D2000C05C8540667265713A252E3466000000ED
:102D3000000000000000000076616C75653A252EE9
:102D400034660000A4000020E80800204445430049
:102D50004144440053544F50000000004400002000
:102D60004144433120564F4C3A252E346600000032
:102D70004800002049203A252E34660080EE201AB3
:102D8000F0EE418A4FF400744FF478400021CDE911
:102D9000001008490D8805EBD5714B102046B0EEA8
:102DA000680A00220449FFF755F903B0BDEC028B15
:102DB00030BD00001E000020E80800203249014319
:102DC000324A1160704770B5002100230F22C47889
:102DD0001CB32E4C246804F4E064C4F5E064C4F32E
:102DE0000721C1F10404E3B20A4144789C40E1B2F6
:102DF0008478144021430C07210E254C0578615539
:102E0000047804F01F050124AC4005786D11AD0075
:102E100005F1E025C5F8004109E0047804F01F053C
:102E20000124AC401B4D0678761145F8264070BD54
:102E3000194A0A400243154B1B1F1A60704739B1EB
:102E4000124A121D12680243104B1B1D1A6006E045
:102E50000E4A121D126882430C4B1B1D1A607047EC
:102E6000042808D14FF0E021096941F004014FF036
:102E7000E022116107E04FF0E021096921F004012F
:102E80004FF0E022116170470000FA050CED00E000
:102E900000E400E080E100E080FFFF1F10B5044681
:102EA0009848844208D10121084600F06AFE0021BA
:102EB000012000F066FE76E09348844208D10121AB
:102EC000022000F05EFE0021022000F05AFE6AE0BF
:102ED0008E48844208D10121042000F052FE0021D6
:102EE000042000F04EFE5EE08948844208D10121B2
:102EF000082000F046FE0021082000F042FE52E0CB
:102F00008448844208D10121102000F03AFE0021BB
:102F1000102000F036FE46E07F48844208D10121AF
:102F2000202000F02EFE0021202000F02AFE3AE0B2
:102F30007A48844208D10121402000F022FE00217D
:102F4000402000F01EFE2EE07548844208D1012189
:102F5000802000F016FE0021802000F012FE22E00A
:102F60007048844208D10121801500F00AFE00213A
:102F7000A01500F006FE16E06B48844208D101213E
:102F8000401500F0FEFD0021601500F0FAFD0AE09A
:102F90006648844207D10121001500F0F2FD0021AE
:102FA000201500F0EEFD10BDF0B50A46002100230B
:102FB000002400BF3DE0012505FA01F3156805EA8C
:102FC00003049C4234D105684F000326BE40B5433C
:102FD000056015794E00B5400668354305601579E2
:102FE000012D02D01579022D16D185684F000326D8
:102FF000BE40B543856055794E00B540866835437F
:103000008560456801268E40B543456045689679E0
:103010008E40B6B235434560C5684F000326BE40BA
:10302000B543C560D5794E00B540C6683543C56027
:10303000491C1029BFD3F0BD4FF6FF71016000217C
:10304000017141718171C171704708B54FF48032CF
:103050000092009A0A430092009AC261C161009AEC
:10306000C261C2690092C269009208BD0246002096
:1030700013690B400BB1012000E0002070470146AE
:10308000086980B270470246002053690B400BB1BB
:10309000012000E0002070470146486980B2704777
:1030A00001837047418370470AB1018300E0418387
:1030B00070474161704742694A4042617047F0B5CC
:1030C000002300244D07ED0E02FA05F3CE1000F1A7
:1030D000200555F826504E07F70E0F26BE40B54383
:1030E000CF1000F1200646F82750CE1000F1200541
:1030F00055F8265045EA0304CE1000F1200545F8A6
:103100002640F0BD000002400004024000080240DA
:10311000000C02400010024000140240001802405F
:10312000001C02400020024000240240002802400F
:1031300030B943F2DB028100A1F1C0410A6005E031
:1031400043F2D2028100A1F1C0410A606FF07042E7
:10315000411C8900A1F1C0410A608100A1F1C04178
:10316000C1F804217047D0E901121143C26811432C
:10317000026911434269114382691143C2691143D3
:10318000026A1143426A1143826A1143C26A1143BF
:10319000026B114302689200A2F1C0421160816883
:1031A00008290BD101688900A1F1C041096841F0EB
:1031B000400201688900A1F1C0410A60416B0968C1
:1031C000426B526841EA0211426B926841EA022165
:1031D000426B928941EA0241426B128A41EA0251F2
:1031E000426B127D41EA0261426B926911430268AF
:1031F000521C9200A2F1C0421160C16AB1F5804F29
:103200001BD1816B0968826B526841EA0211826BA3
:10321000926841EA0221826B128A41EA0251826B72
:10322000127D41EA0261826B926911430268920049
:10323000A2F1C042C2F8041107E06FF070420168C9
:103240008900A1F1C041C1F804217047002101604B
:103250000221416000218160C160016141618161A1
:10326000C16101624FF480514162490081620021D5
:10327000C1620163F84941638163704751B18200C3
:10328000A2F1C042126842F001038200A2F1C042E2
:10329000136009E08200A2F1C0421268EF4B1A40AD
:1032A0008300A3F1C0431A60704710280AD1182187
:1032B0004FF020421166402151664FF0FC3191667B
:1032C000D16610E01821E64A116040214FF02042FB
:1032D000C2F884104FF0FC31E14A083211604FF01F
:1032E0002042C2F88C10704730B500210022002324
:1032F000446844F0080485682C43C5682C4305697C
:103300002C43456944EA4524856944EA4531C4694A
:103310002468C5696D6844EA0524C5692D8944EAB5
:103320000544C5692D7B44EA0562046A2468056A80
:103330006D6844EA0524056A2D8944EA0544056A56
:103340002D7B44EA05630468102C05D14FF020441E
:103350002166A266E36608E0C14C21604FF020447C
:10336000C4F88820BE4C0C34236030BD10210160AD
:10337000002141608160C160016141618161FC2186
:10338000C2691160C2695160C2699160C269D1604D
:10339000026A1160026A5160026A9160026AD16039
:1033A000704799B1102808D14FF02042126E42F0B8
:1033B00004024FF020431A661DE0A94A126842F049
:1033C00004024FF02043C3F8802014E0102809D1F4
:1033D0004FF02042126EA14BDB1E1A404FF02043EB
:1033E0001A6608E09E4A12689C4BDB1E1A404FF09A
:1033F0002043C3F88020704799B1102808D14FF0BE
:103400002042126E42F040024FF020431A661DE047
:10341000934A126842F040024FF02043C3F88020E4
:1034200014E0102809D14FF02042126E8B4B3F3B25
:103430001A404FF020431A6608E0894A1268874B09
:103440003F3B1A404FF02043C3F8802070470146AD
:103450000020102903D14FF02042506F02E0804A33
:1034600014321068704718207D4920310860002010
:103470000906C1F8A4004FF0FC30794928310860F2
:10348000091D0860091D08607047016841F01001BE
:10349000426841EA4221826841EA4231704A203260
:1034A0001160C1680968C268526841EA0221C268B5
:1034B000128941EA0241C268127B41EA0261684A0C
:1034C00028321160016909680269526841EA0221E3
:1034D0000269128941EA02410269127B41EA0261F2
:1034E0005F4A2C321160416909684269526841EAB9
:1034F00002214269128941EA02414269127B41EA92
:1035000002614FF02042C2F8B01070470021016004
:1035100041608160FC21C2681160C2685160C2686C
:103520009160C268D16002691160026951600269EC
:1035300091600269D16042691160426951604269DB
:1035400091604269D160704748B1454920310968AE
:1035500041F004014FF02042C2F8A01009E04049B8
:10356000203109683D4AD21E11404FF02042C2F876
:10357000A010704710B5F2B1102807D14FF02043CA
:103580005B6E0B434FF02044636632E0B0F5807F02
:1035900008D1334B1B1D1B680B434FF02044C4F86C
:1035A000843026E02E4B24331B680B434FF020441D
:1035B000C4F8A4301DE0102807D14FF020435B6E03
:1035C0008B434FF02044636613E0B0F5807F08D151
:1035D000234B1B1D1B688B434FF02044C4F88430E1
:1035E00007E01F4B24331B688B434FF02044C4F883
:1035F000A43010BD10B5024600200023102A03D1CC
:103600004FF02044636E09E0B2F5807F03D1144C83
:10361000241D236802E0124C2434236803EA0104C9
:103620000CB1012000E0002010BD102807D14FF0A0
:103630002042526E8A434FF020435A6619E0B0F59B
:10364000807F0FD1064A121D12688A434FF0204333
:10365000C3F884200DE00000B0BF0008FEFF0F009B
:10366000800000A0234A12688A434FF02043C3F829
:10367000A420704770B502460020002300240025D6
:10368000102A03D14FF02046736E08E0B2F5807F18
:1036900003D1184E203E336801E0164E336803EA2A
:1036A000010403EAD10514B10DB1012000E00020AE
:1036B00070BD102808D14FF02042526E22EAD1028C
:1036C0004FF020435A6614E0B0F5807F09D1094AD3
:1036D000203A126822EAD1024FF02043C3F8842036
:1036E00007E0044A126822EAD1024FF02043C3F8EF
:1036F000A4207047A40000A0F948006840F0010031
:10370000F74908600020F64908310860F44800686D
:10371000F4490840F2490860F348091D0860F3487D
:10372000EF4984310860F0481038091D0860EC4802
:10373000006820F48020EA4908600020E8490C3144
:103740000860E7498C31086070470021E44A921C08
:10375000117011460870704710B501460022002311
:1037600000204A11012A02D1DD4C236808E0022A18
:1037700003D1DB4C7034236802E0D94C74342368E5
:1037800001F01F02012494401C400CB1012000E014
:10379000002010BD38B5002000900024002500BF97
:1037A0003120FFF7D9FF05460098401C0090009893
:1037B000B0F5A04F01D0002DF2D03120FFF7CCFFA3
:1037C00008B1012400E00024204638BD0146002055
:1037D000C34A106820F0F80040EAC100106070474A
:1037E000C349086070470021BD4A703211701170E2
:1037F000012802D004280AD104E00121B84A70321D
:10380000117005E00521B64A7032117000E000BF6A
:1038100000BF7047B7490860704770B5049C41EA23
:1038200082150126C6EB530645EA0645054345EADF
:103830000465AB4E361D356070BDAD4908667047F6
:10384000820142EA0172A64B84331A607047A8498C
:103850008866704710B5830143EA016343EA027347
:103860009F4C8834236010BDA14908677047A04968
:10387000C864704702460020994B0833186820F04E
:10388000EC6042EA01031843954B08331860704717
:1038900002460020924B0833186820F0784042EA34
:1038A000010318438E4B083318607047014600200F
:1038B0008B4A0832106820F00300084310607047FC
:1038C00087480830006800F00C007047014600206F
:1038D000834A0832106820F0F000084310607047F7
:1038E000014600207E4A0832106820F4E050084368
:1038F0001060704701460020794A0832106820F4B1
:10390000604040EAC10010607047F0B5002100221D
:103910000024022500260223714F08373F6807F074
:103920000C0121B1042905D0082937D105E0724FD7
:10393000076036E0714F076033E0694F3F1D3F6815
:10394000C7F38056664F3F1D3F6807F03F036EB1D7
:103950006A4FB7FBF3F7DFF888C10CF1040CDCF811
:1039600000C0CCF3881C07FB0CF40CE0624FB7FBE3
:10397000F3F7DFF86CC10CF1040CDCF800C0CCF3F9
:10398000881C07FB0CF4564F3F1D3F68C7F30147E7
:103990007F1C7D00B4FBF5F7076002E0564F07601F
:1039A00000BF00BF4E4F08373F6807F0F00109091C
:1039B000534F7A5C0768D7404760494F08373F68E4
:1039C00007F4E051890A4E4F7A5C4768D740876018
:1039D000434F08373F6807F46041490B484F7A5C12
:1039E0004768D740C760F0BD002100F44072B2F5CF
:1039F000407F0AD13A4A0832116821F4F811414A4D
:103A000002401143364A08321160354A703212685A
:103A1000C0F30B031A43324B70331A6070473549B9
:103A20004439086070473349403908607047364967
:103A30000860704701460020294A8C32106820F047
:103A40001F004A1E1043264A8C3210607047014600
:103A50000020234A8C32106820F4F8504A1E40EAB5
:103A600002201F4A8C3210607047014600201C4A19
:103A70008C32106820F440100843106070470146F3
:103A80000020174A8C32106820F440000843106070
:103A9000704701460020124A8C32106820F44030F2
:103AA00008431060704719490860704739B10C4AE3
:103AB0003032126802430A4B30331A6006E0084A7B
:103AC000303212688243064B30331A607047F9B1C6
:103AD000034A343212680243014B34331A601CE04B
:103AE00000380240FFFFF6EA1030002400300020CA
:103AF00000004742800E47420024F40000127A0082
:103B0000B3000020FFFCFF0F5C014742E011474279
:103B10008F4A126882438E4B1A60704739B18C4AC3
:103B2000121D126802438A4B1B1D1A6006E0884A68
:103B3000121D12688243864B1B1D1A60704739B1F3
:103B4000834A0C3212680243814B0C331A6006E040
:103B50007F4A0C32126882437D4B0C331A607047E7
:103B600039B17B4A103212680243794B10331A6024
:103B700006E0774A103212688243754B10331A60A0
:103B8000704739B1724A243A12680243704B243BA1
:103B90001A6006E06E4A243A126882436C4B243B5A
:103BA0001A60704739B16A4A203A12680243684B7A
:103BB000203B1A6006E0664A203A12688243644B52
:103BC000203B1A60704739B1614A1C3A12680243BF
:103BD0005F4B1C3B1A6006E05D4A1C3A1268824348
:103BE0005B4B1C3B1A60704739B1594A143A126852
:103BF0000243574B143B1A6006E0554A143A1268C8
:103C00008243534B143B1A60704739B1504A103A03
:103C1000126802434E4B103B1A6006E04C4A103AC1
:103C2000126882434A4B103B1A60704739B1484AC8
:103C30001C3212680243464B1C331A6006E0444AA9
:103C40001C3212688243424B1C331A60704739B1F0
:103C50003F4A2032126802433D4B20331A6006E08F
:103C60003B4A203212688243394B20331A60704736
:103C700039B1374A243212680243354B24331A6073
:103C800006E0334A243212688243314B24331A60EF
:103C9000704739B12E4A2C32126802432C4B2C3318
:103CA0001A6006E02A4A2C3212688243284B2C33D1
:103CB0001A60704739B1264A303212680243244BE9
:103CC00030331A6006E0224A303212688243204BB9
:103CD00030331A607047012808D11D493C3109680A
:103CE00041F008011A4A3C32116007E018493C31A2
:103CF000096821F00801164A3C321160704739B159
:103D0000134A273A12780243114B273B1A7006E0F8
:103D10000F4A273A127882430D4B273B1A7070479F
:103D20000B484030006840F080700949403108601D
:103D3000704701460020064A283A12680A400AB134
:103D4000012000E0002070470149263908707047C3
:103D50003438024010B501210802FFF756FF002158
:103D60004FF48070FFF751FF10BD30B502460020C0
:103D700000235068F84C20400D790C6844EA052473
:103D8000204350609068F54C2040D1E903542C4307
:103D90008D682C434D7944EA450420439060D06AF5
:103DA00020F470000C7D641EE4B2234340EA03500B
:103DB000D06230BD00210160017141718160C1603C
:103DC00001610121017570470021E54A1168E54A4A
:103DD0001140D0E900231A4383681A43C3681A4389
:103DE0001143E14AC2F804137047002101604160A9
:103DF0008160C160704721B1826842F00102826037
:103E000003E0826822F00102826070470A460021C6
:103E10004168D64B1940114341607047416282624C
:103E200070470A460021416821F01F01114341609B
:103E3000704738B1CA49096841F40001CA4AC2F85A
:103E4000041306E0C649096821F40001C64AC2F815
:103E50000413704738B1C249096841F48001C24A6D
:103E6000C2F8041306E0BE49096821F48001BE4A85
:103E7000C2F804137047F0B504460D460020002137
:103E8000092D11DDE068A5F10A0606EB46070726B5
:103E900006FA07F18843A5F10A0606EB460603FA7F
:103EA00006F10843E0600CE0206905EB45070726B2
:103EB00006FA07F1884305EB450603FA06F10843C5
:103EC0002061072A0FDA606B561E06EB86071F2655
:103ED00006FA07F18843561E06EB860605FA06F138
:103EE0000843606322E00D2A0FDA206BD61F06EB31
:103EF00086071F2606FA07F18843D61F06EB8606BB
:103F000005FA06F10843206310E0E06AA2F10D060D
:103F100006EB86071F2606FA07F18843A2F10D0675
:103F200006EB860605FA06F10843E062F0BD8168FB
:103F300041F0804181607047014600208A6802F0AC
:103F400080420AB1012000E00020704721B1826860
:103F500042F48062826003E0826822F480628260C0
:103F6000704721B1826842F00202826003E08268F9
:103F700022F002028260704710B50A460021002339
:103F8000416821F46041531E41EA4331416010BD54
:103F900021B1426842F40062426003E0426822F4C8
:103FA0000062426070470146C86C80B270476C483E
:103FB000001D0068704721B1826842F480728260FF
:103FC00003E0826822F480728260704721B18268C7
:103FD00042F40072826003E0826822F40072826020
:103FE000704738B15E49096841F400515E4AC2F831
:103FF000041306E05A49096821F400515A4AC2F8EC
:1040000004137047F0B50446154600200022002630
:10401000092911DDE068A1F10A0707EB470C072722
:1040200007FA0CF29043A1F10A0707EB470703FADE
:1040300007F21043E0600CE0206901EB410C072718
:1040400007FA0CF2904301EB410703FA07F2104321
:104050002061A06BC0F30156EF1C06F1010CA7EB29
:104060000C0707EB870C1F2707FA0CF29043EF1C95
:1040700006F1010CA7EB0C0707EB870701FA07F223
:104080001043A063F0BD10B50A4600210023816BE8
:1040900021F44011531E41EA0351816310BD08B55C
:1040A000002300930090009B0B440093009B1A6038
:1040B00008BD0A460021816821F470211143816006
:1040C00070470A460021816821F440111143816044
:1040D0007047816841F4800181607047014600208B
:1040E0008A6802F480020AB1012000E000207047D3
:1040F00021B1426842F48062426003E0426822F4E7
:1041000080624260704721B1426842F4805242604E
:1041100003E0426822F480524260704708B50246CC
:1041200000200090009201F12800009B18440090AC
:104130000098006880B208BD10B50B460021D9B2C6
:10414000012404FA01F11AB144680C43446002E00E
:1041500044688C43446010BDFFFEFFFCFDF7FFC0C8
:1041600004230140E030FCFF00200140FFFD3FFF41
:104170000246002013680B400BB1012000E0002034
:104180007047CA430260704770B5024600200023A2
:1041900000240B12556801268E4005EA06041568B6
:1041A0001D4015B10CB1012000E0002070BD0022BF
:1041B0000A12D3430360704770B50446002500BF60
:1041C00017E004F0800018B10120ED49086002E01A
:1041D0000020EB4908606006040E0020E9490860F1
:1041E000012001F04DFB0120E749C1F89402681C51
:1041F000C5B2082DE5DB70BD70B50646002500246C
:104200000020E0490860E149C1F88402DC49091F47
:1042100008603046FFF7D0FF062001F031FB002098
:10422000D949C1F89402012001F02AFB0120D549A7
:10423000086001F025FB0020D349C1F8940200BFBB
:1042400015E04FF6FF7000EA44040020CD490860F5
:10425000012001F015FB0120CB49C1F89402C848A8
:104260007C38006808B1601C84B2681CC5B2102D8F
:10427000E7DB24110120C249091F0860204670BDF8
:104280002DE9FE4380460027002406E04046FFF764
:10429000B3FF2DF81400601C84B2052CF6DB00245B
:1042A00016E0601C85B20FE03DF814003DF81510D3
:1042B000884207DD3DF814603DF815002DF8140024
:1042C0002DF81560681C85B2052DEDDB601C84B2ED
:1042D000042CE6DB0027012405E03DF814003844F7
:1042E00087B2601C84B2042CF7DB032097FBF0F04C
:1042F00086B23046BDE8FE832DE9F04104460D4606
:10430000A3480078FFF7BCFF0646A2480078FFF7F5
:10431000B7FF0746322E01DB322F02DA0020BDE85C
:10432000F08126802F800120F9E77FB504460D46F5
:1043300002A903A8FFF7E0FF064616B9002004B063
:1043400070BD694601A8FFF7D7FF06460EB90020E9
:10435000F5E7BDF80400BDF80C10884206DCBDF896
:104360000C10BDF80400323081420CDBBDF80C00AB
:10437000BDF80410884236DCBDF80410BDF80C000E
:10438000323081422FDABDF80000BDF808108842B3
:1043900006DCBDF80810BDF80000323081420CDBAD
:1043A000BDF80800BDF8001088421CDCBDF8001004
:1043B000BDF808003230814215DABDF80C10BDF8A6
:1043C0000420881800EBD071C1F34F012180BDF8A3
:1043D0000810BDF80020881800EBD071C1F34F0120
:1043E00029800120ABE70020A9E710B504464FF66D
:1043F000FF70694908806949088069480068002899
:1044000048D124B167496848FFF78FFF34E0654918
:104410006548FFF78AFF78B36448B0F9000000EE02
:10442000100AB8EEC00A624890ED001A5E48008893
:1044300000EE900AF8EE600A01EE200ABCEEC00A17
:1044400010EE100A584908805A48B0F9000000EEF2
:10445000100AB8EEC00A584890ED001A514800887A
:1044600000EE900AF8EE600A01EE200ABCEEC00AE7
:1044700010EE100A4B4908804B4800884F490880CD
:10448000484800884E4908804E480078401C4D49F5
:10449000087014E04B480078022807DD4248008885
:1044A0003D4908803F4800883C4908800020454934
:1044B00008704FF6FF70414908804149088010BDDF
:1044C0001CB501212720FFF7F1FA042000900020FD
:1044D0008DF804008DF8060003208DF805000120FA
:1044E0008DF8070069463848FEF75EFD4FF400601E
:1044F000009069463548FEF757FD032000900120E3
:104500008DF8040069463048FEF74EFD20200090EB
:1045100069462F48FEF748FD2E480078C0B190202C
:104520001B490870D0201B4908709FED2B0A2048BA
:1045300080ED000A9FED290A1F4880ED000A4FF424
:10454000AE701A4908806FF012001A49088016E010
:10455000D0200F49087090200E4908709FED200A66
:10456000134880ED000A9FED1F0A134880ED000AF2
:104570006FF00A000D490880C01F0E4908801CBD5D
:104580008482404294024042000040420080404207
:10459000CC000020CD000020C8000020CA00002070
:1045A0002C824242DE000020DC000020D8000020E7
:1045B000D0000020DA000020D4000020C400002039
:1045C000C6000020E0000020000402400014024069
:1045D000000002401A0000206452BCBD7BF5893DFA
:1045E000DA9F883D3ABABA3D10B50446FE48844287
:1045F00008D101210846FFF708FB00210120FFF741
:1046000004FB9DE0B4F1804F08D101210846FFF77B
:10461000EBFA00210120FFF7E7FA91E0F34884422A
:1046200008D101210220FFF7DFFA00210220FFF765
:10463000DBFA85E0EE48844208D101210420FFF72F
:10464000D3FA00210420FFF7CFFA79E0E948844249
:1046500008D101210820FFF7C7FA00210820FFF741
:10466000C3FA6DE0E448844208D101211020FFF72D
:10467000BBFA00211020FFF7B7FA61E0DF4884425F
:1046800008D101212020FFF7AFFA00212020FFF7F9
:10469000ABFA55E0DA48844208D101210220FFF745
:1046A000B4FA00210220FFF7B0FA49E0D54884426D
:1046B00009D101210804FFF7A8FA00214FF4803046
:1046C000FFF7A3FA3CE0D048844209D10121480415
:1046D000FFF79BFA00214FF40030FFF796FA2FE026
:1046E000CA48844209D101218804FFF78EFA0021CB
:1046F0004FF48020FFF789FA22E0C548844208D1B0
:1047000001214020FFF770FA00214020FFF76CFAEA
:1047100016E0C048844208D101218020FFF764FAE6
:1047200000218020FFF760FA0AE0BB48844207D1ED
:1047300001218015FFF758FA0021A015FFF754FA60
:1047400010BD00220288A84B98420ED0AC4B984274
:104750000BD0B0F1804F08D0A44B984205D0A44BA9
:10476000984202D0A34B984204D14FF68F731A405F
:104770004B881A43A04B984207D0A04B984204D0D4
:104780004FF6FF431A400B891A4302804B68C362FD
:104790000B880385944B984202D0994B984201D1E3
:1047A0008B7A03860123838270474FF0FF3141608B
:1047B00000210180018141808172704701858282E0
:1047C00070470A46002101884FF68F731940114344
:1047D0000180704741627047C16270470146486A74
:1047E00070470146088D704721B1028842F00202ED
:1047F000028004E002884FF6FD731A400280704781
:1048000021B1028842F00402028004E002884FF6DF
:10481000FB731A400280704721B1028842F0800287
:10482000028004E002884FF67F731A4002807047CE
:1048300002884FF6F7731A40028002880A4302800A
:10484000704702884FF6FF431A40028002880A43ED
:104850000280704721B1028842F00102028004E028
:1048600002884FF6FE731A400280704770B500242C
:1048700000220023058C4FF6FE7635400584028C1D
:104880008388048B4FF68F752C40B51E2C400D8805
:104890002C43751E2A408D892A434D882A43524D48
:1048A000A84202D0564DA84213D14FF6F7752A40C0
:1048B000CD892A434FF6FB752A408D882A434FF64F
:1048C000FF652B404FF6FF552B400D8A2B434D8A39
:1048D0002B43838004838D684563028470BD70B56B
:1048E000002400220023058C4FF6EF763540058426
:1048F000028C8388048B48F6FF752C404FF6FF45E9
:104900002C400D884FF6FF7606EA05252C434FF61E
:10491000DF752A408D8906EA05152A434D8806EA87
:1049200005152A43304DA84202D0354DA8421DD16D
:104930004FF67F752A40CD894FF6FF7606EA0515BA
:104940002A434FF6BF752A408D8806EA05152A438B
:104950004FF6FF352B404FF2FF752B400D8A06EACC
:1049600085052B434D8A06EA85052B438380048306
:104970008D688563028470BD70B500240022002319
:10498000058C4FF6FF6635400584028C8388848B46
:104990004FF68F752C404FF6FC752C400D882C433C
:1049A0004FF6FF552A408D894FF6FF7606EA05251A
:1049B0002A434D8806EA05252A430B4DA84202D01A
:1049C0000F4DA84238D14FF2FF752A40CD894FF6DE
:1049D000FF7606EA05252A434FF6FF352A408D88E3
:1049E00006EA05252A4319E00000014000040040C2
:1049F00000080040000C004000100040001400407F
:104A000000040140004001400044014000480140D2
:104A100000180040001C0040002000404EF6FF75CA
:104A20002B404DF6FF752B400D8A06EA05152B43EA
:104A30004D8A06EA05152B43838084838D68C56300
:104A4000028470BD70B5002200230024058C4EF650
:104A5000FF7635400584038C8488828B48F6FF7589
:104A60002A404FF6FF452A400D884FF6FF7606EAAA
:104A700005252A434DF6FF752B408D8906EA05353D
:104A80002B434D8806EA05352B43FE4DA84202D044
:104A9000FD4DA84208D14BF6FF752C400D8A4FF60C
:104AA000FF7606EA85152C43848082838D68056431
:104AB000038470BD002101804180818081608181FB
:104AC000C18101824182704770B5034600200024F5
:104AD0001846183001258D40ACB21D8CA5431D84AD
:104AE00009B108290AD100EB610005684FF68F76FD
:104AF000354005600568154305600FE00D1FC5F3DF
:104B00004E052844056848F6FF763540056005687F
:104B10004FF6FF7606EA02263543056070BD416315
:104B2000704781637047C1637047016470470A46EC
:104B30000021018B4FF68F73194011430183704799
:104B40000A460021018B48F6FF7319404FF6FF73A8
:104B500003EA02231943018370470A460021818B2F
:104B60004FF68F7319401143818370470A46002125
:104B7000818B48F6FF7319404FF6FF7303EA022357
:104B80001943818370470A460021018B4FF6F77362
:104B900019401143018370470A460021018B4FF2EF
:104BA000FF7319404FF6FF7303EA02231943018391
:104BB00070470A460021818B4FF6F7731940114365
:104BC000818370470A460021818B4FF2FF731940A1
:104BD0004FF6FF7303EA02231943818370470A46A5
:104BE0000021018B4FF6FB7319401143018370477D
:104BF0000A460021018B4FF6FF3319404FF6FF7331
:104C000003EA02231943018370470A460021818B7E
:104C10004FF6FB7319401143818370470A46002108
:104C2000818B4FF6FF3319404FF6FF7303EA0223DF
:104C30001943818370470A460021018B4FF67F7329
:104C400019401143018370470A460021018BC1F3CB
:104C50000E014FF6FF7303EA0223194301837047E5
:104C60000A460021818B4FF67F73194011438183DF
:104C700070470A460021818BC1F30E014FF6FF7386
:104C800003EA02231943818370470A460021018CFD
:104C90004FF6FD7319401143018470470A46002105
:104CA000018C4FF6F77319401143018470470A468F
:104CB0000021018C4FF6DF7319404FF6FF7303EAB2
:104CC00002131943018470470A460021018C4FF6F4
:104CD0007F7319404FF6FF7303EA021319430184EF
:104CE00070470A460021018C4FF6FF5319404FF6DA
:104CF000FF7303EA02231943018470470A46002127
:104D0000018C4FF2FF7319404FF6FF7303EA022341
:104D10001943018470470A460021018C4DF6FF7348
:104D200019404FF6FF7303EA0233194301847047B9
:104D300030B5002301248C40A3B2048C9C4304842E
:104D4000048C02FA01F5ADB22C43048430BD30B5B9
:104D5000002304248C40A3B2048C9C430484048C60
:104D600002FA01F5ADB22C43048430BD828B4FF2C0
:104D7000FF331A408283828B4FF6FF7303EA0123CD
:104D80001A4382837047F0B50C4615460021002275
:104D90000026078C4EF6FF7C07EA0C070784818B00
:104DA000028C4FF6FF7707EA043640F6FF4739409A
:104DB0004FF6FF7707EA052739434FF6FF7707EAF3
:104DC0000337394345F6FF773A4046F480573A4374
:104DD00081830284F0BD828B4FF6F3731A40828385
:104DE000828B0A4382837047F0B50C46154600213A
:104DF00000220026078C4FF6FF6C07EA0C07078499
:104E0000818B028C4FF6FF7707EA04264FF60C776A
:104E100039404FF6FF7707EA03172F4339434FF224
:104E2000FF573A4046F480773A4381830284F0BDCD
:104E3000028B4FF2FF331A400283028B4FF6FF734F
:104E400003EA01231A4302837047F0B50C46154666
:104E5000002100220026078C4FF6EF7C07EA0C07A2
:104E60000784018B028C4FF6FF7707EA041640F6A1
:104E7000FF4739404FF6FF7707EA033739434FF6CC
:104E8000FF7703E0000001400004014007EA052726
:104E900039434FF65F773A4046F010073A430183B3
:104EA0000284F0BD028B4FF6F3731A400283028B2B
:104EB0000A4302837047F0B50C46154600210022D4
:104EC000068C4FF6FE773E400684018B028C4FF62F
:104ED0000C7631407E1C06EA03162E4331434FF612
:104EE000F576324044F00106324301830284F0BD7E
:104EF00070B505460C46208850B92389A288618880
:104F00002846FFF7D8FFE1882846FFF7CBFF25E0CA
:104F1000208804280AD12389A28861882846FFF7BF
:104F200094FFE1882846FFF783FF17E020880828D0
:104F30000AD12389A28861882846FFF755FFE188B6
:104F40002846FFF748FF09E02389A28861882846A0
:104F5000FFF719FFE1882846FFF708FF70BD002121
:104F600001804180012181800021C1800181704741
:104F70002DE9F04105460C4600260127608808B956
:104F8000022600E00026A088012801D1022700E0C7
:104F900001272088A0B92389A28861882846FFF7C5
:104FA0008AFFE1882846FFF77DFF23893A4631468C
:104FB0002846FFF74AFFE1882846FFF739FF13E04C
:104FC0002389A28861882846FFF73FFFE1882846A9
:104FD000FFF72EFF23893A4631462846FFF76BFF3D
:104FE000E1882846FFF75EFFBDE8F0810146486B87
:104FF00070470146886B70470146C86B7047014691
:10500000086C70470A884B881A438B881A43CB88F0
:105010001A430B891A434B891A438B891A43A0F808
:10502000442070470021018041808180C18001813E
:1050300041818181704731B1B0F8442042F400428F
:10504000A0F8442005E0B0F84420C2F30E02A0F816
:105050004420704721B1828842F00402828004E03B
:1050600082884FF6FB731A408280704721B1828894
:1050700042F00102828004E082884FF6FE731A40FB
:10508000828070471AB183890B43838102E0838950
:105090008B43838170478182704702460020138AC8
:1050A0000B400BB1012000E000207047CA43028290
:1050B000704730B50246002000230024158A05EA17
:1050C0000103958905EA010413B10CB1012000E048
:1050D000002030BDCA430282704741EA0203A0F8B3
:1050E000483070471AB183890B43838102E083897A
:1050F0008B438381704721B1828842F0080282800D
:1051000004E082884FF6F7731A4082807047018965
:105110004FF6F8721140018170470A46002101895B
:105120004FF68F73194011430181704730B5044623
:105130000D4629462046FFF7F0FF208940F0070082
:10514000208130BD2DE9F04104460D4616461F462C
:10515000602D06D13B46012231462046FFF775FE01
:1051600005E03B46012231462046FFF7A4FE2946D2
:105170002046FFF7D2FF208940F007002081BDE8DC
:10518000F08130B50C4600210189C9B24FF6FF7598
:1051900005EA0325154325432943018130BD2DE947
:1051A000F04105460E4617469846002443463A46C7
:1051B00031462846FFF7E5FF2C894FF6F87004408A
:1051C00044F007044FF68F70044044F070042C81C3
:1051D000BDE8F081F0B504460D4616461F463B4635
:1051E000324629462046FFF7CCFF208940F4804014
:1051F0002081F0BD82884FF68F731A4082808288AA
:105200000A438280704702894FF6F8731A40028180
:1052100002890A430281704702894FF67F731A4060
:10522000028102890A4302817047F0B50C46154697
:105230001E460021002200230189028B038C4FF6B9
:10524000F877394021434FF6FC473A4040F20117C6
:105250003A434FF6DD773B404FF6FF7707EA0617F4
:105260002F433B43018102830384F0BD21B1828837
:1052700042F08002828004E082884FF67F731A40F9
:1052800082807047A0F8501070470000016821F03C
:10529000010101600021016041608160C160016124
:1052A00021214161DB49884204D13D21D94A103A8C
:1052B00091608CE0D7491831884205D14FF4746170
:1052C000D44A103A916082E0D2493031884205D107
:1052D0004FF47411CF4A103A916078E0CD494831CB
:1052E000884205D14FF07461CA4A103A91606EE06D
:1052F000C8496031884204D1C749C64A103AD160D2
:1053000065E0C4497831884204D1C449C14A103AA1
:10531000D1605CE0BF499031884204D1C049BD4AA8
:10532000103AD16053E0BB49A831884205D14FF013
:105330003D51B84A103AD16049E0BA49884204D197
:105340003D21B84A083A116041E0B6491831884217
:1053500005D14FF47461B34A083A116037E0B1499E
:105360003031884205D14FF47411AE4A083A1160C9
:105370002DE0AC494831884205D14FF07461A94A0B
:10538000083A116023E0A7496031884204D1A2495C
:10539000A44A121F11601AE0A2497831884204D150
:1053A0009E49A04A121F116011E09E499031884227
:1053B00004D19B499B4A121F116008E09949A8310A
:1053C000884204D14FF03D51964A121F1160704738
:1053D00010B500220268944B1A40CC680B68234336
:1053E0004C6923438C692343CC6923430C6A2343D0
:1053F0004C6A23438C6A23434C6B23438C6B2343BB
:105400001A430260426922F00702D1E90B342343B8
:105410001A4342610B6943604B6883608B68C360C9
:1054200010BD0021016041608160C1600161416186
:105430008161C161016241628162C1620163416354
:105440008163704721B1026842F00102026003E00B
:10545000026822F001020260704721B1026842F442
:105460000042026003E0026822F4004202607047DA
:1054700021B1026842F02002026003E0026822F0DB
:10548000200202607047416070470146486880B260
:10549000704722B1036843F40023036003E003680C
:1054A00023F4002303600161704721B1026842F4D4
:1054B0008022026003E0026822F4802202607047CA
:1054C0000AB1016100E0C1607047014600200A682E
:1054D00002F400220AB1012000E0002070470146DA
:1054E00000200A6802F001020AB1012000E0002059
:1054F0007047014600204A6902F03800704730B515
:1055000003460A4600200024464DAB4202D24149E0
:10551000103901E04349103902F000550DB14C68D3
:1055200000E00C68414D2C4004EA02050DB1012059
:1055300000E0002030BD02463A4B9A4202D2354884
:10554000103801E03748103801F000531BB1374BD9
:105550000B40C36002E0354B0B408360704710B5D1
:1055600001F080034BB122B1436943F080034361F2
:1055700003E0436923F08003436180290BD02AB103
:10558000036801F01E042343036004E0036801F094
:105590001E04A343036010BD70B502460020002422
:1055A0000025204EB24202D21A4B103B01E01D4BA7
:1055B000103B1F4E0E4036B11E2606EAD124166857
:1055C00006EA040502E0566906F0800501F000567F
:1055D0000EB15C6800E01C68144E344004EA010619
:1055E00016B10DB1012000E0002070BD02460D4B48
:1055F0009A4202D20748103801E00A48103801F0F8
:1056000000531BB1094B0B40C36002E0074B0B403A
:1056100083607047106002403D000020400F002072
:1056200000003D20106402403F801CF07D0F7D0F84
:105630003C0F3C0F0A460021DBE0D30B002B75D05A
:10564000102971D2DFE801F0080F161D242B323922
:1056500040464C52585E646A038823F4004303F5C5
:105660000043038060E0038823F4804303F5804314
:10567000038059E0038823F4005303F500530380AB
:1056800052E0038823F4805303F5805303804BE0FA
:10569000038823F4006303F50063038044E0038878
:1056A00023F4806303F5806303803DE0038823F4E3
:1056B000007303F50073038036E0038823F48073DE
:1056C00003F5807303802FE0038823F08003803389
:1056D000038029E0038823F040034033038023E064
:1056E000038823F02003203303801DE0038823F088
:1056F00010031033038017E0038823F008030833F6
:10570000038011E0038823F004031B1D03800BE0DA
:10571000038823F002039B1C038005E0038823F029
:1057200001035B1C038000BF5DE0FFE7102959D235
:10573000DFE801F0080D12171C21262B30353A3F07
:1057400044494E53038823F4004303804AE003880E
:1057500023F48043038045E0038823F4005303804F
:1057600040E0038823F4805303803BE0038823F464
:105770000063038036E0038823F48063038031E014
:10578000038823F4007303802CE0038823F48073E0
:10579000038027E0038823F08003038022E003884E
:1057A00023F0400303801DE0038823F020030380DF
:1057B00018E0038823F01003038013E0038823F02C
:1057C000080303800EE0038823F00403038009E04C
:1057D000038823F00203038004E0038823F001031D
:1057E000038000BF00BF4FF6FF7303EA42024B1C69
:1057F000D9B21029FFF621AF7047F0B51C4600263C
:1058000000250123C1F11007974202DAC1F1100708
:10581000FAB20E46002E0CDD05E0EF18BDB24FF6D1
:10582000FF7707EA4303371EA6F1010C0CF0FF06D1
:10583000F3D1D0F814C04FF6FF7797408F402F4335
:105840000CEA070CC0F814C0476904FA01FC47EAE7
:105850000C074761F0BD10B56FF00400FDF700FBC9
:105860001520394908700846007800EB4001C1EB6B
:10587000C0104FF6FF7101EAC0003449088010BD26
:105880000146314A12784A434FF0E0235A61002220
:105890009A611A46126942F001021A6100BF4FF084
:1058A000E022106900F001021AB100F48032002AEF
:1058B000F5D04FF0E022126922F001024FF0E02310
:1058C0001A6100229A6170470146204A12884A43B1
:1058D0004FF0E0235A6100229A611A46126942F0A1
:1058E00001021A6100BF4FF0E022106900F00102CE
:1058F0001AB100F48032002AF5D04FF0E02212698C
:1059000022F001024FF0E0231A6100229A617047F1
:1059100070B504464FF4077094FBF0F0C6B24FF434
:10592000077094FBF0F100FB114085B205E04FF4E5
:105930000770FFF7C9FF701EC6B2002EF7D115B170
:105940002846FFF7C1FF70BDE2000020E400002000
:105950001CB501214020FEF703F9382000900220F9
:105960008DF8050001208DF8040000208DF8060058
:1059700069466648FDF718FB1CBD002000E0401C8E
:105980000028FCD0704770B5044610215F48FDF731
:1059900087FB08215D48FDF783FB08215B48FDF785
:1059A00081FB00251AE004F4004020B12021574873
:1059B000FDF776FB03E020215448FDF773FBFFF76A
:1059C000DCFF10215148FDF76DFBFFF7D6FF1021DA
:1059D0004E48FDF765FB6400681CC5B2102DE2DB84
:1059E00008214A48FDF75CFB70BD70B5044644F4DD
:1059F0008855002618E010214448FDF753FB05F4B4
:105A0000004020B120214148FDF74AFB03E020215E
:105A10003E48FDF747FB6D0010213C48FDF740FB79
:105A2000FFF7ABFF701CC6B2102EE4DB70BD2DE992
:105A3000F0472DED068BB0EE408AF0EE608A074607
:105A40000C4691469FED320BB0EE40AAF0EE60AAF4
:105A5000B0EE489AF0EE689A9FED2F0B53EC102BA6
:105A600051EC190B03F04AFA41EC190B53EC1A2BC9
:105A700051EC190B03F080FD41EC190B51EC190BA3
:105A800003F034FC80464546C5F30D054FEAA836C1
:105A9000C6F30D0649F4404A4FF48070FFF773FFD8
:105AA0004FF40450FFF76FFF67B945F4804546F4A3
:105AB00080462846FFF767FF3046FFF764FF5046F1
:105AC000FFF761FF012F0CD145F4004546F4004675
:105AD0002846FFF758FF3046FFF755FF5046FFF7BF
