:020000040800F2
:10000000E03F002021040008050400080704000860
:100010000B0400080F04000813040008000000008F
:1000200000000000000000000000000017040008AD
:1000300019040008000000001B0400081D0400084B
:100040003B0400083B0400083B0400083B04000894
:100050003B0400083B0400083B0400083B04000884
:100060003B0400083B0400083B0400083B04000874
:100070003B0400083B0400083B0400083B04000864
:100080003B0400083B0400083B0400083B04000854
:100090003B0400083B0400083B0400083B04000844
:1000A0003B0400083B0400083B0400083B04000834
:1000B000691B00087D1900084B1900083B04000863
:1000C0003B0400083B0400083B0400083B04000814
:1000D0003B0400083B0400083B0400083B04000804
:1000E0003B0400083B0400083B0400083B040008F4
:1000F0003B0400083B0400083B0400083B040008E4
:100100003B0400083B0400083B0400083B040008D3
:100110003B0400083B0400083B0400083B040008C3
:10012000C11700083B0400083B0400083B0400081A
:100130003B0400083B0400083B0400083B040008A3
:100140003B0400083B0400083B0400083B04000893
:100150003B0400083B0400083B0400085D32000833
:100160003B0400083B0400083B0400083B04000873
:100170003B0400083B0400083B0400083B04000863
:100180003B0400083B04000800F002F800F0AFF860
:100190000AA090E8000C82448344AAF10107DA45E2
:1001A00001D100F0A4F8AFF2090EBAE80F0013F085
:1001B000010F18BFFB1A43F001031847D8F80000DD
:1001C000F8F80000103A24BF78C878C1FAD852076E
:1001D00024BF30C830C144BF04680C6070470000C1
:1001E0000023002400250026103A28BF78C1FBD840
:1001F000520728BF30C148BF0B6070474B1C012B12
:1002000098BF70472DE9F003911C9B08B1F804805A
:10021000B1F802900A8831F802CC8044814402444B
:100220008444D9F80070D8F800601568DCF8004004
:10023000C9F80060C8F80070CCF800501460D9F814
:100240000470D8F804605568DCF80440C9F804600C
:10025000C8F80470CCF80450546008315B1ED5D146
:10026000BDE8F00370474B1C012B98BF70472DE988
:10027000F003911C9B08B1F80480B1F802900A8841
:1002800031F802CC00EB580800EB590900EB5202A0
:1002900000EB5C0CD9F80070D8F800601568DCF849
:1002A0000040C9F80060C8F80070CCF80050146035
:1002B00008315B1EDFD1BDE8F003704766290AF004
:1002C000CF84642906F08A87782906F0C387002046
:1002D00070471FB50AF00CFC07F040FB040000203B
:1002E000002109F061F8E0601FBD10B510BD07F0F6
:1002F00051FC1146FFF7EDFF00F008F807F06FFC26
:1003000003B4FFF7F2FF03BC07F016FD4FF4A06043
:1003100002F0D6FF06F053F800F0FAFC01F0BEFE42
:1003200001F050FC01F0D8F802F0BEFD01F0FAF93E
:100330000521092001F07DFB03E001F003FD02F03F
:10034000F2F9FAE730B52DED028B89B042F2CF0118
:1003500042F20F7001F0CDFA03214FF6FF7001F069
:1003600065FA0024002003E0184909680C44401C89
:100370006428F9DB6420B4FBF0F4154800680AF047
:1003800001FB41EC180B53EC182B12A101A806F04D
:1003900011FF01AB18226E210A2000F067FF42F224
:1003A0001070844209D94FF47A70B4FBF0F52A46F4
:1003B0000BA101A806F0FEFE04E022460DA101A853
:1003C00006F0F8FE09B0BDEC028B30BD2C00002019
:1003D000440000205650503A252E3466000000009C
:1003E000667265713A25646B687A2020202020208F
:1003F00000000000667265713A25642020202020EC
:1004000020000000704700BFFEE700BFFEE700BF0E
:10041000FEE700BFFEE77047704770477047000077
:100420000948804709480047FEE7FEE7FEE7FEE788
:10043000FEE7FEE7FEE7FEE7FEE7FEE704480549C4
:10044000054A064B704700003D0500088901000879
:10045000E0390020E03F0020E03B0020E03B0020AE
:100460000CB50020019000907648006840F4803080
:100470007449086000BF7348006800F400300090C1
:100480000198401C0190009818B90198B0F5A04F50
:10049000F1D16C48006800F4003010B101200090E8
:1004A00001E0002000900098012846D165484030C6
:1004B000006840F08050634940310860624800683D
:1004C00040F44040604908605E48083000685D497B
:1004D000083108600846006840F40040086008469B
:1004E000006840F4A05008605848091F0860081FC1
:1004F000006840F08070091F086000BF5148006824
:1005000000F000700028F9D040F2057050490860F2
:100510004C480830006820F003004A490831086060
:100520000846006840F00200086000BF45480830F7
:10053000006800F00C000828F8D10CBD10B5454843
:10054000006840F47000434908603E48006840F08D
:1005500001003C49086000203A49083108603948E8
:1005600000683D490840374908603C48091D08605B
:10057000081F006820F48020091F0860002031490E
:100580000C310860FFF76CFF4FF000603149803993
:10059000086010BD70B50020002202230024022153
:1005A000284D08352D6805F00C0020B1042806D030
:1005B000082834D107E02A4D2A4E356033E02A4D11
:1005C000284E35602FE01F4D2D1D2D68C5F380543A
:1005D0001C4D2D1D2D6805F03F0154B1224DB5FB7A
:1005E000F1F5184E361D3668C6F3881605FB06F27F
:1005F00009E01B4DB5FBF1F5124E361D3668C6F30A
:10060000881605FB06F20F4D2D1D2D68C5F301451B
:100610006D1C6B00B2FBF3F5124E356003E0104D1C
:10062000104E356000BF00BF064D08352D68C5F37C
:1006300003150E4E705D0B4D2D68C540094E35609B
:1006400070BD0000003802400070004008544007B0
:10065000003C024088ED00E0FFFFF6FE1030002471
:100660000024F4000000002000127A0004000020A2
:10067000F64A1080921C1180704710B50446F3486A
:100680000480042005F0B0FEF048801C008810BDF6
:1006900000BF011EA0F10102D0B2FAD17047EC48B0
:1006A0000088EA49088070472920E8490880704797
:1006B0002820E6490880704730B58418641EA2B22D
:1006C000CC18641EA3B2E34C24786CBBE24C2488A3
:1006D00041F66315AC4227D1E04C2488A41A241AB1
:1006E000A0B2CC18641EA3B2DD4C2488D74D2C8058
:1006F0000412AD1C2C80C4B22C808418641EC4F378
:100700000F242C808418641EE4B22C80D54C2488DD
:10071000AD1E2C800C12AD1C2C80CCB22C801C1277
:100720002C80DCB22C8019E0CD4C2488C74D2C8065
:100730000412AD1C2C80C4B22C8014122C80D4B2B4
:100740002C80C84C2488AD1E2C800C12AD1C2C8033
:10075000CCB22C801C122C80DCB22C8030BD70B549
:10076000054600240026BB480078012805D1BA4878
:10077000008849F24131884208D0B6480078F0B983
:10078000B548008841F66311884218D1082D15D26A
:10079000DFE805F00406080A0C0E101206250DE02D
:1007A00007250BE0042509E0052507E0012505E004
:1007B000002503E0032501E0022500BF00BF082D4E
:1007C0001CD2DFE805F00406090C0F12151800BF53
:1007D00014E044F0800411E044F040040EE044F0E2
:1007E000C0040BE044F0200408E044F0600405E09D
:1007F00044F0A00402E044F0E00400BF00BF36264D
:100800009548008849F24131884201D144F00804FA
:1008100021463046FFF72CFF934803888F48028813
:1008200000210846FFF748FF70BD10B504468CBB99
:100830000020884908708848008849F24131884280
:1008400010D12C20824908802A20854908802B203D
:1008500084490880F020814908804FF4A0708249C3
:10086000088049E07C48008841F66311884243D102
:100870002C20774908802B20794908802A20794943
:1008800008804FF4F070754908804FF4487076493D
:10089000088031E0FFE701206E4908706E4800884B
:1008A00049F24131884210D12C20694908802A2020
:1008B0006B4908802B206B4908804FF4A070674972
:1008C0000880F0206849088016E06348008841F6F7
:1008D0006311884210D12C205D4908802A2060498C
:1008E00008802B205F4908804FF448705B490880DE
:1008F0004FF4F0705C4908800020FFF730FF10BD16
:10090000554A128849F241339A4212D1544A128808
:100910004E4B1A8002129B1C1A80C2B21A80514A96
:1009200012889B1E1A800A129B1C1A80CAB21A8057
:1009300042E0494A128841F663139A423CD1454A43
:1009400012788AB9454A1288521E121A90B2444A45
:1009500012883E4B1A8000229B1C1A801A800212B9
:100960001A80C2B21A8013E03D4A1288374B1A80AF
:1009700002129B1C1A80C2B21A80384A1288521E78
:10098000C2F30F221A80354A1278521ED2B21A8050
:10099000344A12882D4B1A800A129B1C1A80CAB244
:1009A0001A80314A1288521EC2F30F221A802E4A30
:1009B0001278521ED2B21A8070473EB504460D46D8
:1009C000002002900190009029462046FFF798FFF2
:1009D0002E201E490880881C008802901E4800882E
:1009E00041F66311884202D1BDF808003EBD0220E5
:1009F000FFF74EFE1548801C00880090BDF80800E7
:100A0000C0B20190BDF804004FF6FF7101EA00206A
:100A10000190BDF80800C012C002BDF80410891290
:100A200040EA4110BDF8001040EAE120DEE730B5B1
:100A300004460D4629462046FFF762FFFFF72FFECA
:100A40000A4800880149891C088030BDFE1F006CDF
:100A5000200000201A000020180000201C000020A8
:100A600022000020240000201E000020140000208E
:100A700070B505460E46144631462846FFF7D7FFA7
:100A8000FE480088FE490880881C048070BDBE2195
:100A9000FB4A11800521921C11801146088001211A
:100AA0001180FF211180002111801180704770B5E5
:100AB000044600250026F3480088F349098800FB16
:100AC00001F600210846FFF71BFFFFF7E8FD00BF16
:100AD00003E0EB48801C04806D1CB542F9D370BD67
:100AE00000B59FB00121782003F062FA0121084689
:100AF00003F096FA4FF480601D9001208DF8780085
:100B000000208DF87A0002208DF8790001208DF800
:100B10007B001DA9DD4802F0C9FC4CF233701D902A
:100B200002208DF8780000208DF87A0003208DF8DF
:100B3000790001208DF87B001DA9D54802F0B6FC94
:100B40004FF680701D9002208DF8780000208DF8FF
:100B50007A0003208DF8790001208DF87B001DA913
:100B6000CC4802F0A3FC04201D9002208DF87800F0
:100B700000208DF87A0003208DF8790001208DF88F
:100B80007B001DA9C44802F091FC4FF480501D90D9
:100B900002208DF8780000208DF87A0003208DF86F
:100BA000790001208DF87B001DA9BB4802F07EFC76
:100BB0000C220021B64802F004FD0C220121B448A9
:100BC00002F0FFFC0C220421B14802F0FAFC0C22D6
:100BD0000521AF4802F0F5FC0C220821AC4802F0D8
:100BE000F0FC0C220921AA4802F0EBFC0C220A219D
:100BF000A74802F0E6FC0C220E21A54802F0E1FC19
:100C00000C220F21A24802F0DCFC0C220721A14893
:100C100002F0D7FC0C2208219E4802F0D2FC0C22E4
:100C200009219C4802F0CDFC0C220A21994802F0CF
:100C3000C8FC0C220B21974802F0C3FC0C22114681
:100C4000944802F0BEFC0C220D21924802F0B9FC3F
:100C50000C220E218F4802F0B4FC0C220F218D488B
:100C600002F0AFFC0C2202218B4802F0AAFC0C22FD
:100C70001146894802F0A5FC0F200790002008903B
:100C80003C20099000200A900B900C900D900820B9
:100C90000090002001900720029000200390049013
:100CA0000590069006200E9000200F9010901020C6
:100CB00011900020129014901390159016904FF4FC
:100CC00080501790002018904FF480401990002019
:100CD0001A9007A81B90CDF870D00EA802F0C5FCA2
:100CE0000121062002F04CFD322005F0C5FB1FB0AB
:100CF00000BDD321624A1180911C088808880888A9
:100D00004FF6FF7101EA0020911C098808437047E3
:100D100010B5FFF7E5FEFFF7ECFF604908800846D5
:100D2000008849F24131884223D0A12054490880EB
:100D3000881C0088594908805148801C0088088018
:100D4000084600884FF6FF7101EA002053490880E9
:100D50004B48801C00880988084350490880084691
:100D6000008845F26171884203D141F663104B4916
:100D700008804A48008849F2413188421CD14848DD
:100D8000006820F00F004FF02041C1F81C01084618
:100D9000D0F81C0120F47060C1F81C010846D0F89E
:100DA0001C0140F00300C1F81C010846D0F81C01EA
:100DB00040F40070C1F81C013848008849F2413104
:100DC00088426FD1CF202E4908800020891C0880DE
:100DD000C120088030200880ED20891E0880642012
:100DE000891C088003200880122008808120088048
:100DF000E820891E08808520891C08801020088032
:100E00007A200880CB20891E08803920891C088020
:100E10002C200880002008803420088002200880D0
:100E2000F720891E08802020891C0880EA20891E5E
:100E300008800020891C08800880C020891E088046
:100E40001B20891C0880C120891E08800120891C64
:100E50000880C520891E08803020891C08800880F1
:100E6000C720891E0880B720891C08803620891E6B
:100E700008804820891C08803A2014E020000020C7
:100E8000FE1F006C1C0000201E0000200014024009
:100E9000000C024000100240001802401800002020
:100EA0001C0100A082E0891E08805520891C088052
:100EB000B120891E08800020891C08801A20088023
:100EC000B620891E08800A20891C0880A22008807C
:100ED000F220891E08800020891C08802620891E97
:100EE00008800120891C0880E020891E08800F20CE
:100EF000891C08802A200880282008800820088073
:100F00000E2008800820088054200880A92008802E
:100F1000432008800A2008800F20088000200880D5
:100F2000088008800880E120891E08800020891C34
:100F300008801520088017200880072008801120CD
:100F40000880062008802B200880562008803C203E
:100F5000088005200880102008800F2008803F208E
:100F6000088008800F2008802B20891E0880002020
:100F7000891C08800880012008803F2008802A20E2
:100F8000891E08800020891C088008800880EF20C6
:100F900008801120891E0880782005F06DFA29202C
:100FA000FA4908800120FA49086098E0F948008869
:100FB00041F663118842F8D1E220F44908801D20EF
:100FC000891C08800220088004200880642005F025
:100FD0000BFAE020ED4908800120891C08800A20D6
:100FE00005F04AFAE020E94908800320891C0880BE
:100FF0000C2005F041FA0120E44908800A2005F0A0
:101000003BFAE620E14908802F20891C0880FF2058
:1010100008800880B020891E08802020891C088054
:10102000002008800320088040F21F300880012043
:10103000088040F2DF10088000200880B420891E5C
:1010400008800420891C088040F21F40088000208E
:1010500008802E20088000200880088008800880F2
:10106000B620891E08800220891C08804FF4037076
:1010700008800020088017200880152008800020A4
:1010800008800880F020891E08800320891C0880C1
:101090002920891E0880D02008800020891C088013
:1010A000BE20891E08800520891C0880FE2008803B
:1010B000012008800020088008800880B820891E50
:1010C00008800320891C088001200880BA20891E1E
:1010D00008800120891C0880FF20FFF7D8FC002031
:1010E000FFF7A3FB4FF6FF70FFF7E1FC10BD2DE902
:1010F000F04F05460E4617469846DDF824A04FF0FF
:10110000000B781B401C1FFA80FB344614E021467C
:101110002846FFF7F5FBFFF7C2FA4FF0000907E09A
:101120009A48801CA0F800A009F101001FFA80F97C
:10113000D945F5DB601C84B24445E8DDBDE8F08F9D
:101140002DE9F84F07460D4690469946DDF828B040
:10115000A8EB0700401C80B20090A9EB0500401CE2
:101160001FFA80FA002416E0281981B23846FFF7EA
:10117000C7FBFFF794FA002608E004FB0A603BF87F
:1011800010008249891C0880701C86B20098864233
:10119000F3DB601C84B25445E6DBBDE8F88F2DE933
:1011A000FF4F074616461C46BB460C2C01D19846FD
:1011B0000AE0102C01D1A04606E0182C02D14FF015
:1011C000300801E0BDE8FF8FA6F12000C6B200257F
:1011D00048E00C2C07D106EB46006F4901EB80007C
:1011E00010F8059010E0102C05D16C4800EB0610AB
:1011F00010F8059008E0182C06D106EB4600684967
:1012000001EB001010F805904FF0000A24E009F0FF
:10121000010030B16348028838460199FFF728FC85
:1012200005E06148028838460199FFF721FC4FEA42
:101230006909781C87B2A7EB0B0104EBD472B1EB00
:10124000620F05D15F460198401C80B2019006E014
:101250000AF1010000F0FF0ABAF1080FD7DB00BF66
:10126000681CC5B24545B4DB00BFABE7F0B5064628
:101270000F4615461C4611E022782B46394630466B
:10128000FFF78DFF284605EBD07106EB61018EB2AA
:1012900046480088864200DB06E0641C207820284F
:1012A00002DB20787E28E7DD00BFF0BD2DE9F04F9E
:1012B00004460D4616461F46DDE909893948B0F84F
:1012C00000A03948B0F800B03648A0F80080364891
:1012D000A0F800903B46324629462046FFF7C6FF5D
:1012E0003048A0F800A03048A0F800B0BDE8F08F6A
:1012F00010B50246012000E050430B1EA1F101048D
:10130000E1B2F9D110BD2DE9FF4F81B007469046FB
:101310001E460E9CC3464FF0000906E00A20BBFBA8
:10132000F0FB09F1010000F0FF09BBF1000FF5D15E
:10133000B14508DD1EA3224638460299FFF796FF05
:1013400005B0BDE8F08F002553E0A6EB0900A842E8
:1013500032DD0F9860B104EBD471491001FB0571C7
:1013600088B22346302200940299FFF718FF3EE02E
:1013700004EBD471491001FB057188B22346202289
:1013800000940299FFF70BFF31E00000FE1F006C94
:10139000A88242421800002094AD000808B200085C
:1013A000F8B7000814000020160000201C000020E0
:1013B0004552524F52000000701B401EC1B20A201D
:1013C000FFF796FFB8FBF0F00A21B0FBF1F201FB4A
:1013D000120A04EBD471491001FB057188B20AF1BD
:1013E0003001CAB2234600940299FFF7D8FE681C68
:1013F000C5B2B542A9DB00BFA2E72DE9FF4F82B01D
:1014000004460D461646DDE91189109F3048B0F8B4
:1014100000A03048B0F800B02D48A0F800802D485A
:10142000A0F800900F98CDE90007324629462046E3
:10143000059BFFF768FF2648A0F800A02548A0F804
:1014400000B006B0BDE8F08F2DE9FC4F04460D4614
:1014500016461F46301B002801DB014600E04142D2
:101460001FFA81F8781B002801DB014600E04142A9
:101470001FFA81F9B44201DA012001E04FF0FF3098
:101480000190BD4201DA012001E04FF0FF300090F1
:10149000A8EB090A16E0294620460B9AFFF7E8FA5E
:1014A0004FEA4A0BC9F10000834504DDAAEB090AA3
:1014B0000198204484B2C34503DAC244009828440A
:1014C00085B200BFB442E6D1BD42E4D1BDE8FC8F95
:1014D00014000020160000201CB50121202002F07D
:1014E00067FD4FF47070009000208DF80400032019
:1014F0008DF8050001208DF807006946314801F09C
:10150000D5FF1CBD0021304A11703049096861B116
:101510002E49091F096841B12C490839096821B1D0
:101520002A490C39096800293CD12849096819B9A8
:101530000121274A117016E02449091F096819B9C9
:101540000221234A11700EE020490839096819B9AF
:1015500003211F4A117006E01C490C39096811B9B2
:1015600004211B4A11701A4909781A4A12789142CB
:1015700010D119490988491C174A11801449097862
:10158000164A1170E8B914490988012919DD0021AA
:10159000117016E00021104A11800D4909780D4A9A
:1015A00011700EE00C490988022903DD0849097809
:1015B000054A11700021074A1170074A1180074A35
:1015C000117070470014024027000020248242421C
:1015D0002A0000202B0000202800002026000020E8
:1015E00000B58DB00121084602F0E2FC012108029D
:1015F00002F038FDC0200B9003208DF83000002051
:101600008DF833000BA9794801F050FF0121080241
:1016100002F07DFD00214FF4807002F078FD002083
:1016200007904FF4A0600A90002009904FF480309A
:10163000089007A803F074F8002001908DF80800C6
:101640008DF809000390059001208DF8180001A97C
:10165000674803F036F80121654803F078F80DB0CB
:1016600000BD10B50446042301222146604803F062
:10167000AEF85F4803F007F900BF02215C4803F0B1
:1016800023FA0028F9D05A4803F039F910BD00B503
:1016900091B00121880502F08BFC564804F0AAFBAA
:1016A00000BF544804F0CFFC0028FAD10290504803
:1016B0004C30039050480490002005904FF4806017
:1016C0000690002007904FF4806008904000099039
:1016D00080000A9040110B9040020C9000200D9069
:1016E00001200E9000200F90109002A9414804F0B4
:1016F00023FC012210213F4804F0E5FC01213D4874
:1017000004F054FC38208DF8040000208DF805000A
:1017100001208DF806008DF8070001A801F0D5FD25
:1017200011B000BD00B58DB0FFF7B1FF0121084633
:1017300002F03EFC0121080202F094FCC0200B9054
:1017400003208DF8300000208DF833000BA92748C6
:1017500001F0ACFE002007904FF4A0600A9000203A
:1017600009904FF48030089007A802F0D9FF0020BC
:1017700001908DF808008DF809004FF0C0600490CA
:101780004FF0805003900020059001208DF8180044
:1017900001A9174802F095FF01231A4606211448B3
:1017A00003F015F80121124803F0BCF8012110489C
:1017B00003F0ADF801210E4802F0C9FF0DB000BDE5
:1017C00010B50E490B4804F09BFC70B10C49094858
:1017D00004F065FC0949074804F0BCFC00214FF007
:1017E000804003F0E3FC00F0E0FB10BD000002408D
:1017F0000020014010640240F4000020208000100E
:101800002000001008B54FF4C06001F059FD1E2003
:101810008DF8000000208DF801008DF802000120F5
:101820008DF80300684601F050FD08BD30B589B061
:1018300005460C46FFF7E6FF0121042002F001FCFB
:101840000795ADF818400020ADF82000ADF81A005B
:101850008DF8220006A9594803F01FFC0020ADF8BE
:101860000C00ADF80E000120ADF810000C20ADF812
:1018700012000020ADF8140003A9504803F0E4FF63
:1018800001214E4804F0BEF8002202214B4804F02A
:10189000A5F800231A465021484804F0FFF800211B
:1018A000464803F043FC01221146444804F096F8F0
:1018B0000121424803F07AFC0121022002F078FB6A
:1018C000022206213E4801F07CFE402001900220C9
:1018D0008DF8080003208DF8090000208DF80A001B
:1018E00002208DF80B0001A9354801F0DFFD09B099
:1018F00030BD7FB505460C460121022002F0A1FB58
:101900000295ADF804400020ADF80600ADF80C00DB
:1019100001A92C4803F0C1FB01221146294804F01B
:101920005DF80121274803F041FC1D208DF80000DF
:1019300001208DF8010003208DF8020001208DF8B0
:101940000300684601F0C1FC7FBD10B501211B48B2
:1019500004F05BF888B11C480068401C1A49086014
:101960000846006842F21071884202D900201649E8
:1019700008600121114804F059F810BD10B501218B
:10198000104804F042F8C0B10C48243000680E49F9
:1019900009684FF4803202FB010080000B490860A7
:1019A00000200849243108600749086003492431B0
:1019B00008600121034804F039F810BD0008004018
:1019C0000004024000040040380000202C000020E9
:1019D0007FB505460C460121084602F032FB029510
:1019E000ADF804400020ADF80600ADF80C0001A9E8
:1019F0004FF0804003F051FB2021480604F0A6F888
:101A000001221146900703F0E9FF0121880703F046
:101A1000CDFB1C208DF8000001208DF80100032073
:101A20008DF8020001208DF80300684601F04DFC9E
:101A30007FBD3EB505460C460121084602F001FB7C
:101A40000195ADF800400020ADF80200ADF80800A7
:101A500069464FF0804003F020FB2021480604F047
:101A600075F801221146900703F0B8FF012188079D
:101A700003F09CFB3EBD70B52DED088B05460C4672
:101A800000EE105AB8EE400AF0EE409AD4ED020A89
:101A900000EE105AB8EE400A30EEC00A10EE101AEE
:101AA000084608F06FFF41EC1B0BB0EE4B0AF0EE5E
:101AB0006B0A07F019F8B0EE40AAF0EE60AA9FEDAD
:101AC0003B0B53EC102B51EC1A0B08F000FC10D818
:101AD00000EE105AB8EE400ADFED360A20EE200A7A
:101AE000D4ED020A9FED341AB0EE408A00EE818AEE
:101AF00001E094ED028AB0EE489A94ED000AD4ED2C
:101B0000040A30EE200A84ED010A94ED010AD4EDB6
:101B1000050A30EE200AD4ED010A80EE801A84ED29
:101B2000031A94ED030AD4ED020A79EEE00AF0EE0E
:101B3000498A40EE208A94ED030AF7EE000A30EE5F
:101B4000C00AD4ED000A20EE200A84ED010A94EDCB
:101B5000010A84ED000AC4ED028ABCEEE80A10EE28
:101B6000100ABDEC088B70BD10B50121880703F089
:101B70004CFF012819D10620FFF773FD0F49104AC9
:101B8000128821F812000E480088401C0C49088079
:101B900008460088B0F5806F03DB0020088000F065
:101BA00004FA0121880703F041FF10BD0000000086
:101BB00000004940F4FD143F1904D63EF400002013
:101BC0005C0000201CB50121042002F0F1F94FF463
:101BD0005070009001208DF8040002208DF805005F
:101BE0006946554801F062FC4FF400600090002007
:101BF0008DF8040002208DF8050069464E4801F07A
:101C000055FC01204D4908601CBD30B50B46002134
:101C100000244A4D2C604A4DC5F8A4420124474D8A
:101C2000083D2C600024464DC5F8984200BF17E0DF
:101C30005C06230E03F0800424B101243F4D2D1DCA
:101C40002C6003E000243D4D2D1D2C6001243B4DF4
:101C5000083D2C6000243A4DC5F898424C1CE1B276
:101C60000729E5DBC2F12004A040002116E000F0C6
:101C7000004424B10124314D2D1D2C6003E00024CB
:101C80002E4D2D1D2C6001242C4D083D2C60002470
:101C90002B4DC5F8984240004C1CE1B29142E6DB66
:101CA0000124264D2C6030BD30B502460B46002184
:101CB00000200024214D2C600124214DC5F8A442B0
:101CC0001E4D083D2C6000241D4DC5F8984200BFF4
:101CD00017E05406220E02F0800424B10124174DAF
:101CE0002D1D2C6003E00024144D2D1D2C600124BB
:101CF000124D083D2C600024114DC5F898424C1C33
:101D0000E1B20729E5DB002110E0400001240B4D82
:101D1000083D2C6000240A4DC5F89842074C743CDD
:101D200024680CB140F001004C1CE1B29942ECDB9C
:101D30000124024D2C6030BD00080240A002414247
:101D40000000414210B52DED048B88B00020FFF754
:101D5000D9FB002002F0F5FF5E4800885E49098843
:101D6000884217DA5D480088B0F58C7F12DD59484B
:101D70000088642803DA0220594908700AE05548AF
:101D80000088B42803DA01205549087002E00320D6
:101D90005349087052480078012815D151480088ED
:101DA000B0F57A6F04DA4F4800880A304D49088050
:101DB0004C480188002003F08BFF4B480088401CF2
:101DC00000B2494908802CE045480078022818D123
:101DD00044480088C82805DD424800880A3841493F
:101DE000088002E000203F4908803E48018800202A
:101DF00003F06EFF3C480088401E00B23A4908805C
:101E00000FE03748007803280BD138480078C0F13C
:101E100001003649087036480068C0F101003449B5
:101E200008602F480078022803D02D480078012848
:101E300022D1002003F076FF04462E4890ED000AE0
:101E40009FED2D1AC0EE010A00EE104AB8EE400ACE
:101E500020EE808A18EE100A08F094FD41EC190B70
:101E600053EC192B25A1684605F0A4F96B461822FE
:101E700032210A20FFF7FAF91C480078A8B14FF484
:101E800078402249088022A1684605F093F96B4604
:101E900010221E210A20FFF7E9F91F201B490880A4
:101EA0000021084603F0C6FE10E01CA1684605F0BC
:101EB00081F96B4610221E210A20FFF7D7F91F2057
:101EC000124908800121002003F0B4FE08B0BDECE7
:101ED000048B10BDD00000201C000020D200002088
:101EE00026000020B4000020A8000020B60000203A
:101EF000A4000020B8000020000080454441432099
:101F0000564F4C3A252E3466000000001400002085
:101F10004441432053544F50000000002020202013
:101F20000000000070B52DED0A8B0446B0EE408A2B
:101F3000601E00EE100AB8EEC00ADFED4E0A20EE79
:101F4000200ADFED4D0A80EE201A11EE105A2846C5
:101F500008F018FD41EC1C0BB0EE4C0AF0EE6C0AD8
:101F600006F05EFDB0EE40BAF0EE60BA9FED430BB6
:101F700053EC102B51EC1B0B08F00AF841EC1A0B38
:101F80009FED3E0B53EC102B08F0D2F941EC190BEE
:101F900007F02CFA08EE900A28EE880AF0EE408A44
:101FA000B0EE680ABDEC0A8B70BD70B5002015E07C
:101FB000344931F8101000EE101AB8EE400A324AD7
:101FC00002EBC00181ED000A9FED300A012101EB17
:101FD000400102EB810181ED000A401CB0F5806FE9
:101FE000E6DB00240AE0284901EB8401D1ED000A78
:101FF000B0EE600AA0B2FFF795FF641CB4F5007F55
:10200000F1DB012300222049214804F0BFFD4FF4F9
:10201000806220491C4804F04FFA01200EE01D495F
:1020200001EB800191ED000ADFED1B0A80EE201A22
:10203000184901EB800181ED001A401CB0F5007FCA
:10204000EDDB0125012011E0124901EB850191ED45
:10205000000A104901EB8001D1ED000AB4EEE00A5C
:10206000F1EE10FA00D20546411C08B2B0F5007F2F
:10207000EADB70BDDA0FC9400080FF4300000000BA
:102080000000E03FF4000020F40800200000000001
:10209000E4C90008F42800200000004410B54248BC
:1020A000008849F24131884201D102F0B5FE10BDED
:1020B00010B54FF6FF70FEF7FAFC1F203B49088071
:1020C0003B4A1288123A91B23A4A1288283A90B2A0
:1020D00039A31022FFF7CAF84FF47840334908803B
:1020E00010BD2DE9F04106460D46174600242F4845
:1020F000078000BF18E0281981B23046FEF797FC30
:102100002A1991B2721C90B2FEF791FC2A1991B271
:10211000B21C90B2FEF78BFC2A1991B2F21C90B25D
:10212000FEF785FC601CC4B2042CE4DBBDE8F08142
:10213000002437E0002002F004FE214800881D49F9
:10214000098888421EDA1F48008819490988884290
:1021500018DA18480088283819490988884209DAA5
:1021600013480088123817490988884202DAFFF7B5
:102170009FFF07E04FF4784212480188104800881A
:10218000FFF7AFFF601CC4B2142094FBF0F100FB1A
:10219000114038B90C48006808B9012000E000205F
:1021A00009490860C6E7000018000020140000205C
:1021B0001E0000201C000020436C656172000000BE
:1021C000D0000020D20000208C0242422DE9F04FC6
:1021D0002DED0C8B87B000200590069003900490A5
:1021E00002900027804695E008F101001FFA80FB6D
:1021F0000121880702F0DAFF00BF4FF0804000881D
:102200000028FAD00125012011E0FB4901EB8501EE
:1022100091ED000AF84901EB8001D1ED000AB4EE1E
:10222000E00AF1EE10FA00D20546411C08B2B0F502
:10223000007FEADBF04800EB850090ED000ADFED5F
:10224000EF0A20EE200AF7EE000A80EE201ABDEE1B
:10225000C10A10EE109AE84901EB850191ED000AE0
:10226000DFEDE60A20EE200ABDEEC00A10EE100AED
:10227000C11700EB11410914A0EB014A504607F0C9
:1022800013FE41EC1C0B484607F00EFE41EC1D0B03
:10229000B0EE4C1AF0EE6C1AB0EE4D0AF0EE6D0A8C
:1022A00006F0BEFAB0EE40BAF0EE60BA9FEDD40B85
:1022B00053EC102B51EC1B0B07F06AFE41EC1A0B90
:1022C0009FEDD10B53EC102B07F024FB41EC190BC5
:1022D00007F08CF808EE900AC74901EB850191EDF3
:1022E000000ABDEEC00A10EE101A2846EA1705EBE8
:1022F0009272921005AB43F82210BDEEE80A10EE80
:10230000101AEA1705EB9272921003AB43F82210F1
:1023100008F10108B8F10A0FFFF666AF002008E0E7
:1023200005A951F8201019B102AAD055791C0FB295
:10233000401C0228F4DB4FF6FF700090B44805887B
:1023400005EBD5704010401E83B2B2480088401E95
:1023500082B200210846FEF7CAFEAD490888C117BF
:1023600000EB91718E1000EE106AB8EE400ADFEDBE
:10237000AA0A80EE208A3C46002584E0A548008811
:1023800000EE100AB8EE400AF7EE000A60EE200AEE
:1023900000EE104AB8EEC00A80EE801A00EE105A25
:1023A000B8EE400A21EE000ABCEEC00A10EE100A98
:1023B0001FFA80F896490888C11700EB91718910BF
:1023C00000EE101AB8EEC00A02A9495D05AA52F83B
:1023D000211000EE901AF8EEE00A00EEC80ABCEEFA
:1023E000C00A10EE101A1FFA81F94FF478424946DC
:1023F0004046FEF73DFB002D43DD8648008800EE99
:10240000100AB8EE400AF7EE000A20EE201A00EE9D
:10241000104AB8EEC00AC1EE000A681E00EE100AAB
:10242000B8EEC00A20EE800ABCEEC00A10EE100A18
:102430001FFA80FA76490888C11700EB917189105C
:1024400000EE101AB8EEC00A691E02AA515C05AA75
:1024500052F82110494200EE901AF8EEE00A00EE20
:10246000C80ABCEEC00A10EE101A1FFA81FB4FF426
:1024700078404B464246594600905046FEF7E4FFEE
:1024800000BF681C85B2A542FFF678AF002581E049
:102490006048008800EE100AB8EE400AF7EE000A25
:1024A00020EE201A00EE104AB8EEC00AC1EE000A73
:1024B00000EE105AB8EE400A20EE800ABCEEC00AC8
:1024C00010EE100A1FFA80F85149088800EBD0710D
:1024D000491000EE101AB8EEC00A02A9495D03AA1D
:1024E00052F8211000EE901AF8EEE00A00EEC80A49
:1024F000BCEEC00A10EE101A1FFA81F94FF47842B0
:1025000049464046FEF7B4FA002D41DD41480088B7
:1025100000EE100AB8EE400AF7EE000A60EE200A5C
:1025200000EE104AB8EEC00A80EE801A681E00EE77
:10253000100AB8EEC00A21EE000ABCEEC00A10EE86
:10254000100A1FFA80FA3249088800EBD07149104E
:1025500000EE101AB8EEC00A691E02AA515C03AA66
:1025600052F8211000EE901AF8EEE00A00EEC80AC8
:10257000BCEEC00A10EE101A1FFA81FB4FF478402F
:102580004B464246594600905046FEF75DFF00BF5D
:10259000681C85B2A542FFF67BAF07B0BDEC0C8B83
:1025A000BDE8F08F2DE9F0432DED028B81B04FF6A1
:1025B000FF7000901648048804EBD4704010401E51
:1025C00083B214480088401E82B200210846FEF7FC
:1025D0008EFD0F49088800EBD071491008EE101AE3
:1025E000B8EE480ADFED0D0A80EE201AF0EE418ABF
:1025F0001425002490E00000F4280020000000448E
:10260000000000000080664000000060FB210940DF
:102610001E0000201C0000200000FA4400588E45D7
:10262000FE48008800EE100AB8EE400AF7EE000AF5
:1026300060EE200A00EE105AB8EEC00A80EE801A52
:1026400000EE104AB8EE400A21EE000ABCEEC00AC5
:1026500010EE100A86B2F249088800EBD0714910DA
:1026600000EE101AB8EEC00AEE4931F8141000EE70
:10267000901AF8EE600A00EEE80ABCEEC00A10EE0E
:10268000101A8FB24FF4784239463046FEF7F0F90F
:10269000002C3FDDE148008800EE100AB8EE400A49
:1026A000F7EE000A60EE200A00EE105AB8EEC00AFB
:1026B00080EE801A601E00EE100AB8EEC00A21EE0D
:1026C000000ABCEEC00A10EE100A1FFA80F8D449C6
:1026D000088800EBD071491000EE101AB8EEC00A5D
:1026E000611ED04A32F8111000EE901AF8EE600A1E
:1026F00000EEE80ABCEEC00A10EE101A1FFA81F9CB
:102700004FF478403B463246494600904046FEF73B
:102710009BFE00BF601C84B2AC4281DB01B0BDEC0B
:10272000028BBDE8F08310B58AB0BF480088401C1A
:10273000BD490880084600881E2801DB002008806B
:102740004FF47840B9490880B9480068002830D073
:10275000B548008800282ED14FF6FF700090B04891
:102760000088401E83B2AD480088401E82B200211E
:102770000846FEF7BCFCFFF715FF002416E0E0B2A8
:102780000421FFF791FAAB4908550846025DAAA15A
:1027900002A804F00FFD04EB44008000C83081B2B1
:1027A00002AB0C220A20FEF761FD641C072CE6DB5D
:1027B00001E0FFF70BFD0AB010BD00B52DED028B57
:1027C00089B04FF47840994908809EA318224FF4AD
:1027D0008C710A20FEF74AFD9BA318224FF48C71DE
:1027E0006420FEF743FD99A318224FF48C71B420A6
:1027F000FEF73CFD1F208D4908809648006808F0D0
:10280000C1F841EC180B53EC182B93A101A804F06C
:10281000D1FC01AB18226E210A20FEF727FD924859
:10282000006808F0AFF841EC180B53EC182B8FA19F
:1028300001A804F0BFFC01AB1822AA210A20FEF770
:1028400015FD09B0BDEC028B00BD10B504468948EA
:1028500000EB8400D0ED000A60EEA00A601E8549FE
:1028600001EB800090ED001A601E01EB8000D0EDBE
:10287000001A41EE210AA01E01EB800090ED001A23
:10288000A01E01EB8000D0ED001A41EE210A601C71
:1028900001EB800090ED001A601C01EB8000D0ED90
:1028A000001A41EE210AA01C01EB800090ED001AF5
:1028B000A01C01EB8000D0ED001A41EE210AB0EE21
:1028C000600A06F01BF910BD2DE9F0412DED0E8BCD
:1028D0008EB04FF6FF7000905148048804EBD4701E
:1028E0004010401E83B24D480088401E82B2002135
:1028F0000846FEF7FCFB4A49088800EBD0714910F6
:1029000008EE101AB8EE480A5FEDBD0A80EE201AF4
:10291000F0EE418A0024D3E04048008807F0E8FA4E
:1029200041EC1E0B9FED540B53EC102B07F030FBCA
:1029300041EC1D0B9FED520B53EC102B06F0EAFF00
:1029400041EC1C0B9FED500B53EC102B07F020FBC0
:1029500041EC1A0B204607F0CBFA41EC1B0B53EC71
:102960001A2B07F015FB41EC190B07F02FFA85B273
:102970002B49088800EBD071491000EE101AB8EE10
:10298000C00A3C4901EB8401D1ED000A00EEE80ADF
:10299000BCEEC00A10EE101A8EB24FF478423146E7
:1029A0002846FEF765F8002C37DD1C48008807F044
:1029B0009FFA41EC1E0B9FED300B53EC102B07F0F0
:1029C000E7FA41EC1D0B9FED2E0B53EC102B06F09C
:1029D000A1FF41EC1C0B9FED2C0B53EC102B07F0CF
:1029E000D7FA41EC1A0B601E07F05EFA41EC1B0BA4
:1029F00053EC1A2B07F0CCFA41EC190B07F0E6F96F
:102A000087B20749088800EBD071491000EE101A10
:102A1000B8EEC00A611E174A3AE04FE01C000020E1
:102A20001E000020F4000020AA0000201400002056
:102A3000A4000020AC000020646174613A25237872
:102A400000000000444543004144440053544F50AB
:102A500000000000440000204144433120564F4C08
:102A60003A252E34660000004800002049203A250F
:102A70002E346600F4280020000000000000F03F23
:102A80000000000000009040000000000000004036
:102A900002EB8101D1ED000A00EEE80ABCEEC00AAB
:102AA00010EE101A1FFA81F84FF4784033462A4688
:102AB000414600903846FEF7C7FC00BF601C84B258
:102AC000B4F5007FFFF628AFD348008807F010FA6E
:102AD00041EC1E0B1FED180B53EC102B07F058FAAE
:102AE00041EC1D0B1FED1A0B53EC102B06F012FFDF
:102AF00041EC1C0B1FED1C0B53EC102B07F048FA9C
:102B000041EC1A0BC548B0F9000007F0CDF941ECD3
:102B10001B0B53EC1A2B07F03BFA41EC190B07F097
:102B200055F985B2BC48008807F0E2F941EC1E0B6C
:102B30001FED2F0B53EC102B07F02AFA41EC1D0B65
:102B40001FED310B53EC102B06F0E4FE41EC1C0B97
:102B50001FED330B53EC102B07F01AFA41EC1A0B54
:102B6000AE48B0F9000007F09FF941EC1B0B53ECA5
:102B70001A2B07F00DFA41EC190B07F027F986B272
:102B80001F200090A648048804EBD4704010401E1B
:102B900083B22A4600213046FEF756FCA148008841
:102BA00000287DD11F20A04908809C48B0F9000072
:102BB00007F07AF941EC1B0B9FED9C0B53EC102BAB
:102BC00007F0E6F941EC1A0B53EC1A2B99A106A871
:102BD00004F0F0FA06AB0C22DC210A20FEF746FBDB
:102BE0008E48B0F90000FFF730FEB0EE40CA9FED0E
:102BF000940BB0EE409AF0EE609A6FF0020418E089
:102C00008648B0F9000020448F4A02EB800090ED26
:102C1000000A20EE000A10EE101A084607F0B2FE75
:102C200041EC1A0B53EC192B06F042FD41EC190B49
:102C3000641C032CE4DB51EC190B06F0D7FB0AEE05
:102C4000100AB0EE4A0A05F059FF10EE104A20466D
:102C500007F098FE41EC1B0B53EC1B2B7BA106A845
:102C600004F0A8FA06AB0C22DC217820FEF7FEFA6D
:102C7000142101A804F0B6FB00241DE0601C07F03D
:102C800013F99FED750B53EC102B07F081F941EC14
:102C90001A0B53EC1A2B72A106A804F08BFA00E071
:102CA000B5E004EB44008000FA3081B206AB0C22A0
:102CB0000A20FEF7DBFA641C052CDFDB002435E07C
:102CC00004EB041101EB410101F13300FFF7BDFDFD
:102CD000DFED660A20EE200A01A800EB840080EDFB
:102CE000000A01A800EB840090ED000ADFED600A05
:102CF00020EE200ADFED5F0A80EE201A11EE107A36
:102D0000384607F03FFE41EC1A0B53EC1A2B5AA140
:102D100006A804F04FFA04EB44008000FA3081B2B8
:102D200006AB0C227820FEF7A1FA641C052CC7DB49
:102D30004FF478403C49088000254FF4805600202D
:102D400010E0504931F81010A94202DD4D4931F828
:102D500010504C4931F81010B14202DA494931F8AB
:102D60001060401CB0F5806FEBDBA81B00EE100A72
:102D7000B8EEC00ADFED440A20EE200A10EE101A69
:102D8000084607F0FFFD41EC1A0B53EC1A2B3FA14C
:102D900006A804F00FFA06AB0C22E6217820FEF715
:102DA00065FADDED020A60EEA00A9DED031ADDED85
:102DB000031A41EE210A9DED041ADDED041A41EEDD
:102DC000210A9DED051ADDED051A41EE210AB0EE4E
:102DD000600A05F093FEDDED010A80EE201A9FEDFA
:102DE0002E0A21EE000A10EE104A204607F0CAFD16
:102DF00041EC1A0B53EC1A2B28A106A804F0DAF9BF
:102E000006AB0C22E6210A20FEF730FA00BF0EB016
:102E1000BDEC0E8BBDE8F0811C000020A800002056
:102E20001E000020AA000020140000200000000066
:102E3000C05C8540667265713A252E3466000000DC
:102E40000000000000000000F428002076616C758E
:102E5000653A252E3466000000000000E905E140D7
:102E6000667265713A252E3266000000728AAE3FA6
:102E70009CA7324000007A44556F3A252E326656A0
:102E800000000000F4000020D1A7FA3A56702D701F
:102E90003A252E32665600000000C8425448443A93
:102EA000252E32662500000000B587B001210846B6
:102EB00001F07EF80121480701F0C3F810200590C9
:102EC00003208DF8180002208DF81B0005A9244866
:102ED00000F0ECFA00200190029003900220049090
:102EE00001A9002002F089FE0121002002F0A2FECB
:102EF0000021084602F0ECFE07B000BD70B52DEDD4
:102F0000048B0446204606F0F3FF41EC180B9FEDBE
:102F1000150B53EC102B51EC180B06F0FBFC41EC9D
:102F2000180B9FED120B53EC102B51EC180B07F004
:102F30002FF841EC190B9FED0F0B53EC102B06F003
:102F4000E9FC41EC180B51EC180B06F03FFF85B281
:102F50002946002002F0BCFEBDEC048B70BD0000D1
:102F6000000002400000000000408F400000000010
:102F70000000B0406666666666660A4000B587B0C7
:102F80000121202001F06EF80121042001F010F849
:102F90004020059002208DF8180000208DF81A00BE
:102FA00001208DF81B0003208DF8190005A9BB48EE
:102FB00000F07CFA8020059002208DF81800002097
:102FC0008DF81A0001208DF81B0003208DF81900E0
:102FD00005A9B24800F06AFA08220621AF4800F0BD
:102FE000F0FA08220721AD4800F0EBFA4FF4E13087
:102FF00001900020ADF80800ADF80A00ADF80C0013
:103000000C20ADF80E000020ADF8100001A9A44876
:1030100001F089F9012240F22551A14801F0C1FADD
:1030200001219F4801F007FA4FF4407000F048F981
:1030300047208DF8000000208DF801008DF8020077
:1030400001208DF80300684600F03FF907B000BD8D
:10305000F0B503460D461646002729460A2E03D032
:10306000002008702846F0BD33B9302001F8010B6C
:10307000002008702846F6E7002B03DA2D2001F81F
:10308000010B5B4242F210720DE093FBF2F404B9C3
:1030900037B104F1300001F8010B04FB12330127B2
:1030A0000A2092FBF0F2002AEFDC0020087028468C
:1030B000D9E70FB470B586B006460CA8019073E04E
:1030C0000B9800785C281CD10B98401C0B90007862
:1030D0006E2809D072280FD10D21304601F0D6F9A3
:1030E0000B98401C0B900BE00A21304601F0CEF902
:1030F0000B98401C0B9003E00B98401C0B9000BFFA
:103100004BE00B980078252840D10B98401C0B9081
:103110000078642818D0732833D1019810C8019022
:103120000BE02178304601F0B1F900BF4021304674
:1031300001F05CFA0028F9D0641C20780028F0D156
:103140000B98401C0B9020E0019820C801900A22A7
:1031500002A92846FFF77CFF02AC0BE0217830463D
:1031600001F094F900BF4021304601F03FFA0028F9
:10317000F9D0641C20780028F0D10B98401C0B90EB
:1031800003E00B98401C0B9000BF06E00B9810F872
:10319000011B0B90304601F079F900BF4021304609
:1031A00001F024FA0028F9D00B980078002887D184
:1031B00006B070BC5DF814FB70B504460D46E1B274
:1031C000374801F063F900BF4021354801F00EFA9D
:1031D0000128F9D1204670BD32490978012900D172
:1031E00070473149097849B9A52807D12E4A117885
:1031F0004A1C2D4B1A702D4A505418E02A49097860
:10320000002914DD284A11784A1C274B1A70274AD6
:10321000505419460978092909DB00211A46117012
:103220002249097A5A2902D101211E4A117000BF90
:10323000D6E71CB504461EA0006801901DA00068DA
:10324000009001A91648FFF734FF21461448FFF704
:1032500030FF69461248FFF72CFF1CBD10B540F245
:1032600025510F4801F0D8F9B8B10D4801F012F915
:10327000C4B211490878411C0F4A11700F490C540F
:1032800010460078802802DB00201146087040F2CA
:103290002551034801F0FBF900BF10BD00080240B2
:1032A00000140140BD000020BC000020F4380020C4
:1032B00003FC0000FC030000BE000020FD380020DD
:1032C00032490143324A1160704770B50021002332
:1032D0000F22C4781CB32E4C246804F4E064C4F5B7
:1032E000E064C4F30721C1F10404E3B20A41447865
:1032F0009C40E1B28478144021430C07210E254CF8
:1033000005786155047804F01F050124AC40057868
:103310006D11AD0005F1E025C5F8004109E0047824
:1033200004F01F050124AC401B4D0678761145F8CA
:10333000264070BD194A0A400243154B1B1F1A60F4
:10334000704739B1124A121D12680243104B1B1DFF
:103350001A6006E00E4A121D126882430C4B1B1DB8
:103360001A607047042808D14FF0E021096941F044
:1033700004014FF0E022116107E04FF0E0210969FC
:1033800021F004014FF0E022116170470000FA05BE
:103390000CED00E000E400E080E100E080FFFF1FB2
:1033A00010B504469848844208D10121084600F02F
:1033B0006AFE0021012000F066FE76E09348844218
:1033C00008D10121022000F05EFE0021022000F061
:1033D0005AFE6AE08E48844208D10121042000F0A0
:1033E00052FE0021042000F04EFE5EE08948844237
:1033F00008D10121082000F046FE0021082000F03D
:1034000042FE52E08448844208D10121102000F09D
:103410003AFE0021102000F036FE46E07F4884424C
:1034200008D10121202000F02EFE0021202000F0F4
:103430002AFE3AE07A48844208D10121402000F077
:1034400022FE0021402000F01EFE2EE0754884423E
:1034500008D10121802000F016FE0021802000F01C
:1034600012FE22E07048844208D10121801500F04C
:103470000AFE0021A01500F006FE16E06B4884420B
:1034800008D10121401500F0FEFD0021601500F07B
:10349000FAFD0AE06648844207D10121001500F0D8
:1034A000F2FD0021201500F0EEFD10BDF0B50A463A
:1034B00000210023002400BF3DE0012505FA01F3AF
:1034C000156805EA03049C4234D105684F000326C1
:1034D000BE40B543056015794E00B54006683543DA
:1034E00005601579012D02D01579022D16D1856858
:1034F0004F000326BE40B543856055794E00B54068
:10350000866835438560456801268E40B543456031
:10351000456896798E40B6B235434560C5684F0020
:103520000326BE40B543C560D5794E00B540C66898
:103530003543C560491C1029BFD3F0BD4FF6FF715C
:1035400001600021017141718171C171704708B53D
:103550004FF480320092009A0A430092009AC261AE
:10356000C161009AC261C2690092C269009208BD3D
:103570000246002013690B400BB1012000E000203F
:1035800070470146086980B27047024600205369BF
:103590000B400BB1012000E0002070470146486954
:1035A00080B2704701837047418370470AB101833D
:1035B00000E0418370474161704742694A4042617F
:1035C0007047F0B5002300244D07ED0E02FA05F315
:1035D000CE1000F1200555F826504E07F70E0F26A5
:1035E000BE40B543CF1000F1200646F82750CE105C
:1035F00000F1200555F8265045EA0304CE1000F1ED
:10360000200545F82640F0BD0000024000040240BD
:1036100000080240000C024000100240001402406A
:1036200000180240001C024000200240002402401A
:103630000028024030B943F2DB028100A1F1C04111
:103640000A6005E043F2D2028100A1F1C0410A60A4
:103650006FF07042411C8900A1F1C0410A608100F5
:10366000A1F1C041C1F804217047D0E90112114312
:10367000C2681143026911434269114382691143CF
:10368000C2691143026A1143426A1143826A1143BB
:10369000C26A1143026B114302689200A2F1C04258
:1036A0001160816808290BD101688900A1F1C0412E
:1036B000096841F0400201688900A1F1C0410A6037
:1036C000416B0968426B526841EA0211426B926891
:1036D00041EA0221426B928941EA0241426B128A1D
:1036E00041EA0251426B127D41EA0261426B9269EA
:1036F00011430268521C9200A2F1C0421160C16ADB
:10370000B1F5804F1BD1816B0968826B526841EA29
:103710000211826B926841EA0221826B128A41EAAD
:103720000251826B127D41EA0261826B9269114300
:1037300002689200A2F1C042C2F8041107E06FF0E3
:10374000704201688900A1F1C041C1F804217047AD
:10375000002101600221416000218160C16001619E
:1037600041618161C16101624FF480514162490050
:1037700081620021C1620163F8494163816370473E
:1037800051B18200A2F1C042126842F001038200EE
:10379000A2F1C042136009E08200A2F1C0421268A7
:1037A000EF4B1A408300A3F1C0431A607047102802
:1037B0000AD118214FF020421166402151664FF086
:1037C000FC319166D16610E01821E64A1160402173
:1037D0004FF02042C2F884104FF0FC31E14A083229
:1037E00011604FF02042C2F88C10704730B50021B4
:1037F00000220023446844F0080485682C43C5680F
:103800002C4305692C43456944EA4524856944EA0B
:103810004531C4692468C5696D6844EA0524C569F1
:103820002D8944EA0544C5692D7B44EA0562046A92
:103830002468056A6D6844EA0524056A2D8944EA0E
:103840000544056A2D7B44EA05630468102C05D104
:103850004FF020442166A266E36608E0C14C216077
:103860004FF02044C4F88820BE4C0C34236030BD97
:1038700010210160002141608160C16001614161EE
:103880008161FC21C2691160C2695160C2699160A5
:10389000C269D160026A1160026A5160026A916075
:1038A000026AD160704799B1102808D14FF02042C8
:1038B000126E42F004024FF020431A661DE0A94A3E
:1038C000126842F004024FF02043C3F8802014E055
:1038D000102809D14FF02042126EA14BDB1E1A4076
:1038E0004FF020431A6608E09E4A12689C4BDB1E8C
:1038F0001A404FF02043C3F88020704799B1102838
:1039000008D14FF02042126E42F040024FF02043A7
:103910001A661DE0934A126842F040024FF02043BD
:10392000C3F8802014E0102809D14FF02042126E15
:103930008B4B3F3B1A404FF020431A6608E0894A00
:103940001268874B3F3B1A404FF02043C3F880205A
:10395000704701460020102903D14FF02042506FDC
:1039600002E0804A14321068704718207D492031E7
:10397000086000200906C1F8A4004FF0FC30794926
:1039800028310860091D0860091D0860704701683A
:1039900041F01001426841EA4221826841EA423125
:1039A000704A20321160C1680968C268526841EAF1
:1039B0000221C268128941EA0241C268127B41EACF
:1039C0000261684A28321160016909680269526817
:1039D00041EA02210269128941EA02410269127B2D
:1039E00041EA02615F4A2C3211604169096842690B
:1039F000526841EA02214269128941EA0241426960
:103A0000127B41EA02614FF02042C2F8B0107047C9
:103A10000021016041608160FC21C2681160C268C0
:103A20005160C2689160C268D16002691160026928
:103A30005160026991600269D16042691160426916
:103A40005160426991604269D160704748B145490F
:103A50002031096841F004014FF02042C2F8A01063
:103A600009E04049203109683D4AD21E11404FF01B
:103A70002042C2F8A010704710B5F2B1102807D14B
:103A80004FF020435B6E0B434FF02044636632E0FF
:103A9000B0F5807F08D1334B1B1D1B680B434FF0E3
:103AA0002044C4F8843026E02E4B24331B680B439B
:103AB0004FF02044C4F8A4301DE0102807D14FF087
:103AC00020435B6E8B434FF02044636613E0B0F5F8
:103AD000807F08D1234B1B1D1B688B434FF0204474
:103AE000C4F8843007E01F4B24331B688B434FF02E
:103AF0002044C4F8A43010BD10B5024600200023B5
:103B0000102A03D14FF02044636E09E0B2F5807FA4
:103B100003D1144C241D236802E0124C2434236882
:103B200003EA01040CB1012000E0002010BD1028C0
:103B300007D14FF02042526E8A434FF020435A661D
:103B400019E0B0F5807F0FD1064A121D12688A4332
:103B50004FF02043C3F884200DE00000C8C90008DE
:103B6000FEFF0F00800000A0234A12688A434FF036
:103B70002043C3F8A420704770B5024600200023FC
:103B800000240025102A03D14FF02046736E08E070
:103B9000B2F5807F03D1184E203E336801E0164E07
:103BA000336803EA010403EAD10514B10DB1012021
:103BB00000E0002070BD102808D14FF02042526E66
:103BC00022EAD1024FF020435A6614E0B0F5807F1C
:103BD00009D1094A203A126822EAD1024FF0204363
:103BE000C3F8842007E0044A126822EAD1024FF0A9
:103BF0002043C3F8A4207047A40000A0F94800683F
:103C000040F00100F74908600020F64908310860DB
:103C1000F4480068F4490840F2490860F348091D77
:103C20000860F348EF4984310860F0481038091DF6
:103C30000860EC48006820F48020EA490860002011
:103C4000E8490C310860E7498C3108607047002171
:103C5000E44A921C117011460870704710B5014675
:103C60000022002300204A11012A02D1DD4C2368E2
:103C700008E0022A03D1DB4C7034236802E0D94CFF
:103C80007434236801F01F02012494401C400CB1DD
:103C9000012000E0002010BD38B500200090002475
:103CA000002500BF3120FFF7D9FF05460098401CD2
:103CB00000900098B0F5A04F01D0002DF2D0312037
:103CC000FFF7CCFF08B1012400E00024204638BDF6
:103CD00001460020C34A106820F0F80040EAC10005
:103CE00010607047C349086070470021BD4A7032B8
:103CF00011701170012802D004280AD104E00121BA
:103D0000B84A7032117005E00521B64A7032117060
:103D100000E000BF00BF7047B7490860704770B54A
:103D2000049C41EA82150126C6EB530645EA064586
:103D3000054345EA0465AB4E361D356070BDAD499F
:103D400008667047820142EA0172A64B84331A600A
:103D50007047A8498866704710B5830143EA01633C
:103D600043EA02739F4C8834236010BDA149086761
:103D70007047A049C864704702460020994B083339
:103D8000186820F0EC6042EA01031843954B0833B1
:103D90001860704702460020924B0833186820F0E4
:103DA000784042EA010318438E4B0833186070478D
:103DB000014600208B4A0832106820F003000843B7
:103DC0001060704787480830006800F00C007047AA
:103DD00001460020834A0832106820F0F0000843B2
:103DE00010607047014600207E4A0832106820F4B7
:103DF000E05008431060704701460020794A0832BD
:103E0000106820F4604040EAC10010607047F0B5CF
:103E1000002100220024022500260223714F0837CA
:103E20003F6807F00C0121B1042905D0082937D1DA
:103E300005E0724F076036E0714F076033E0694F6D
:103E40003F1D3F68C7F38056664F3F1D3F6807F030
:103E50003F036EB16A4FB7FBF3F7DFF888C10CF18F
:103E6000040CDCF800C0CCF3881C07FB0CF40CE05D
:103E7000624FB7FBF3F7DFF86CC10CF1040CDCF810
:103E800000C0CCF3881C07FB0CF4564F3F1D3F6865
:103E9000C7F301477F1C7D00B4FBF5F7076002E024
:103EA000564F076000BF00BF4E4F08373F6807F00E
:103EB000F0010909534F7A5C0768D7404760494FC2
:103EC00008373F6807F4E051890A4E4F7A5C47682B
:103ED000D7408760434F08373F6807F46041490B7C
:103EE000484F7A5C4768D740C760F0BD002100F4B6
:103EF0004072B2F5407F0AD13A4A0832116821F483
:103F0000F811414A02401143364A08321160354ADD
:103F100070321268C0F30B031A43324B70331A60CD
:103F20007047354944390860704733494039086063
:103F3000704736490860704701460020294A8C3294
:103F4000106820F01F004A1E1043264A8C32106071
:103F5000704701460020234A8C32106820F4F85044
:103F60004A1E40EA02201F4A8C3210607047014608
:103F700000201C4A8C32106820F440100843106066
:103F8000704701460020174A8C32106820F4400028
:103F900008431060704701460020124A8C321068B6
:103FA00020F440300843106070471949086070479A
:103FB00039B10C4A3032126802430A4B30331A606E
:103FC00006E0084A303212688243064B30331A60EA
:103FD0007047F9B1034A343212680243014B34335B
:103FE0001A601CE000380240FFFFF6EA103000249F
:103FF0000030002000004742800E47420024F400B9
:1040000000127A00BF000020FFFCFF0F5C01474256
:10401000E01147428F4A126882438E4B1A60704704
:1040200039B18C4A121D126802438A4B1B1D1A605B
:1040300006E0884A121D12688243864B1B1D1A60D7
:10404000704739B1834A0C3212680243814B0C33FA
:104050001A6006E07F4A0C32126882437D4B0C33B3
:104060001A60704739B17B4A103212680243794BAB
:1040700010331A6006E0774A103212688243754B9B
:1040800010331A60704739B1724A243A12680243F9
:10409000704B243B1A6006E06E4A243A1268824351
:1040A0006C4B243B1A60704739B16A4A203A126857
:1040B0000243684B203B1A6006E0664A203A1268C9
:1040C0008243644B203B1A60704739B1614A1C3A05
:1040D000126802435F4B1C3B1A6006E05D4A1C3AC3
:1040E000126882435B4B1C3B1A60704739B1594AD6
:1040F000143A12680243574B143B1A6006E0554AC3
:10410000143A12688243534B143B1A60704739B11A
:10411000504A103A126802434E4B103B1A6006E0B8
:104120004C4A103A126882434A4B103B1A6070475F
:1041300039B1484A1C3212680243464B1C331A609C
:1041400006E0444A1C3212688243424B1C331A6018
:10415000704739B13F4A2032126802433D4B203349
:104160001A6006E03B4A203212688243394B203302
:104170001A60704739B1374A243212680243354B0E
:1041800024331A6006E0334A243212688243314BEA
:1041900024331A60704739B12E4A2C321268024318
:1041A0002C4B2C331A6006E02A4A2C3212688243C8
:1041B000284B2C331A60704739B1264A30321268C6
:1041C0000243244B30331A6006E0224A3032126830
:1041D0008243204B30331A607047012808D11D49B3
:1041E0003C31096841F008011A4A3C32116007E08D
:1041F00018493C31096821F00801164A3C32116027
:10420000704739B1134A273A12780243114B273BC2
:104210001A7006E00F4A273A127882430D4B273B6B
:104220001A7070470B484030006840F080700949B0
:1042300040310860704701460020064A283A12685B
:104240000A400AB1012000E00020704701492639E8
:10425000087070473438024010B50446FA4884426A
:1042600008D101211020FFF752FF00211020FFF795
:104270004EFF57E0F548844209D101214804FFF779
:1042800035FF00214FF40030FFF730FF4AE0F048DF
:10429000844209D101218804FFF728FF00214FF44F
:1042A0008020FFF723FF3DE0EA48844209D1012145
:1042B000C804FFF71BFF00214FF40020FFF716FF93
:1042C00030E0E548844209D101210805FFF70EFFDF
:1042D00000214FF48010FFF709FF23E0DF488442FC
:1042E00008D101212020FFF712FF00212020FFF735
:1042F0000EFF17E0DA48844209D101218807FFF751
:10430000F5FE00214FF08040FFF7F0FE0AE0D548AF
:10431000844207D101214005FFF7E8FE0021600536
:10432000FFF7E4FE10BD2DE9FF4705460E460024C9
:10433000A14600BFA046B08900B100BF2C8A24F47A
:104340004054F08804432C82AC8941F20C608443D1
:10435000B08831890843718908430443AC81AC8A31
:1043600024F44074B0890443AC826846FFF74FFDE3
:10437000B548854202D0B948854202D1DDF80C909B
:1043800001E0DDF80890A88900F4004040B109EB95
:10439000C90000EB091031684900B0FBF1F707E0F4
:1043A00009EBC90000EB091031688900B0FBF1F797
:1043B0006420B7FBF0F004012009642101FB1078B0
:1043C000A88900F4004040B1322000EBC800B0FBE7
:1043D000F1F000F00700044308E0322000EB081081
:1043E0006421B0FBF1F000F00F0004432C81BDE824
:1043F000FF874FF41651016000218180C180018147
:104400000C21418100218181704710B502460020B6
:10441000108A20F470600B884C8823438C882343D7
:10442000CC8823431843108210BD002101804180B5
:104430008180C180704721B1828942F4005282811B
:1044400004E082894DF6FF731A4082817047028B27
:1044500002F47F420283028B0A430283704721B138
:10446000828942F40042828103E08289C2F30E0213
:104470008281704721B1828A42F40062828204E024
:10448000828A4FF2FF731A4082827047C1F308029A
:104490008280704701468888C0F308007047028A0E
:1044A0004FF6F0731A400282028A0A430282704772
:1044B00021B1828942F00202828104E082894FF6B2
:1044C000FD731A408281704782894FF2FF731A4050
:1044D000828182890A4382817047028A4FF6DF73A4
:1044E0001A400282028A0A430282704721B1028A7C
:1044F00042F48042028204E0028A4BF6FF731A40C3
:1045000002827047818941F001018181704721B1A8
:10451000828A42F00802828204E0828A4FF6F773B0
:104520001A4082827047028BD2B20283028B42EA27
:1045300001220283704721B1828A42F020028282E6
:1045400004E0828A4FF6DF731A408282704721B1FD
:10455000828A42F01002828204E0828A4FF6EF7370
:104560001A4082827047828A4FF6FB731A40828219
:10457000828A0A438282704721B1828A42F0020213
:10458000828204E0828A4FF6FD731A40828270476D
:104590001AB1838A0B43838202E0838A8B4383822E
:1045A0007047F0B50346002400260025002040F6A1
:1045B0006A17B94200D100BF1846C1F3421401F096
:1045C0001F06012707FA06F5012C01D10C3004E083
:1045D000022C01D1103000E014301AB107682F43CB
:1045E000076002E00768AF430760F0BD02460020A5
:1045F000B1F5007F00D100BF13880B400BB1012043
:1046000000E00020704701F40072B2F5007F00D195
:1046100000BFCA430280704770B5024600240023E1
:104620000025002040F66A16B14200D100BFC1F358
:10463000421501F01F03012606FA03F3012D13D1E1
:104640009689334017E0000000100140004400400C
:1046500000480040004C0040005000400014014061
:1046600000780040007C0040022D02D1168A3340C1
:1046700001E0968A33400C12012606FA04F41688EB
:10468000344013B10CB1012000E0002070BD10B522
:104690000022002340F66A14A14200D100BF0A1292
:1046A00001249440A3B2DC43048010BD10B5012165
:1046B0000802FFF72CFD00214FF48070FFF727FD63
:1046C00010BD30B50246002000235068F84C204051
:1046D0000D790C6844EA0524204350609068F54C3D
:1046E0002040D1E903542C438D682C434D7944EA92
:1046F000450420439060D06A20F470000C7D641E55
:10470000E4B2234340EA0350D06230BD002101608F
:10471000017141718160C1600161012101757047C2
:104720000021E54A1168E54A1140D0E900231A4307
:1047300083681A43C3681A431143E14AC2F8041359
:1047400070470021016041608160C160704721B104
:10475000826842F00102826003E0826822F0010276
:10476000826070470A4600214168D64B19401143C8
:10477000416070474162826270470A460021416889
:1047800021F01F0111434160704738B1CA490968DF
:1047900041F40001CA4AC2F8041306E0C649096898
:1047A00021F40001C64AC2F80413704738B1C24967
:1047B000096841F48001C24AC2F8041306E0BE4908
:1047C000096821F48001BE4AC2F804137047F0B5AD
:1047D00004460D4600200021092D11DDE068A5F1F9
:1047E0000A0606EB4607072606FA07F18843A5F1F5
:1047F0000A0606EB460603FA06F10843E0600CE001
:10480000206905EB4507072606FA07F1884305EB03
:10481000450603FA06F108432061072A0FDA606BA8
:10482000561E06EB86071F2606FA07F18843561E1A
:1048300006EB860605FA06F10843606322E00D2ABE
:104840000FDA206BD61F06EB86071F2606FA07F144
:104850008843D61F06EB860605FA06F10843206357
:1048600010E0E06AA2F10D0606EB86071F2606FAA5
:1048700007F18843A2F10D0606EB860605FA06F15C
:104880000843E062F0BD816841F08041816070477B
:10489000014600208A6802F080420AB1012000E04F
:1048A0000020704721B1826842F48062826003E098
:1048B000826822F480628260704721B1826842F08F
:1048C0000202826003E0826822F002028260704786
:1048D00010B50A4600210023416821F46041531EAF
:1048E00041EA4331416010BD21B1426842F40062A7
:1048F000426003E0426822F4006242607047014671
:10490000C86C80B270476C48001D0068704721B1C8
:10491000826842F48072826003E0826822F48072CE
:104920008260704721B1826842F40072826003E0C5
:10493000826822F400728260704738B15E4909686B
:1049400041F400515E4AC2F8041306E05A4909686E
:1049500021F400515A4AC2F804137047F0B50446D6
:104960001546002000220026092911DDE068A1F18A
:104970000A0707EB470C072707FA0CF29043A1F14F
:104980000A0707EB470703FA07F21043E0600CE061
:10499000206901EB410C072707FA0CF2904301EB69
:1049A000410703FA07F210432061A06BC0F30156E0
:1049B000EF1C06F1010CA7EB0C0707EB870C1F2778
:1049C00007FA0CF29043EF1C06F1010CA7EB0C0761
:1049D00007EB870701FA07F21043A063F0BD10B59B
:1049E0000A4600210023816B21F44011531E41EA45
:1049F0000351816310BD08B5002300930090009B14
:104A00000B440093009B1A6008BD0A460021816890
:104A100021F470211143816070470A4600218168AA
:104A200021F44011114381607047816841F4800195
:104A300081607047014600208A6802F480020AB152
:104A4000012000E00020704721B1426842F48062FA
:104A5000426003E0426822F480624260704721B104
:104A6000426842F48052426003E0426822F480527D
:104A70004260704708B5024600200090009201F1A4
:104A80002800009B184400900098006880B208BD80
:104A900010B50B460021D9B2012404FA01F11AB174
:104AA00044680C43446002E044688C43446010BD99
:104AB000FFFEFFFCFDF7FFC004230140E030FCFFD8
:104AC00000200140FFFD3FFF0246002013680B401D
:104AD0000BB1012000E000207047CA43026070471C
:104AE00070B502460020002300240B1255680126F1
:104AF0008E4005EA060415681D4015B10CB1012071
:104B000000E0002070BD00220A12D343036070470A
:104B100070B50446002500BF17E004F0800018B10E
:104B20000120ED49086002E00020EB4908606006C2
:104B3000040E0020E9490860012001F055FC012025
:104B4000E749C1F89402681CC5B2082DE5DB70BDC9
:104B500070B50646002500240020E0490860E149C0
:104B6000C1F88402DC49091F08603046FFF7D0FF16
:104B7000062001F039FC0020D949C1F89402012037
:104B800001F032FC0120D549086001F02DFC002025
:104B9000D349C1F8940200BF15E04FF6FF7000EA58
:104BA00044040020CD490860012001F01DFC0120D3
:104BB000CB49C1F89402C8487C38006808B1601C31
:104BC00084B2681CC5B2102DE7DB24110120C24954
:104BD000091F0860204670BD2DE9FE43804600276E
:104BE000002406E04046FFF7B3FF2DF81400601CD8
:104BF00084B2052CF6DB002416E0601C85B20FE0C1
:104C00003DF814003DF81510884207DD3DF81460AA
:104C10003DF815002DF814002DF81560681C85B2BC
:104C2000052DEDDB601C84B2042CE6DB002701249B
:104C300005E03DF81400384487B2601C84B2042CAF
:104C4000F7DB032097FBF0F086B23046BDE8FE8329
:104C50002DE9F04104460D46A3480078FFF7BCFF5C
:104C60000646A2480078FFF7B7FF0746322E01DB61
:104C7000322F02DA0020BDE8F08126802F8001204B
:104C8000F9E77FB504460D4602A903A8FFF7E0FF48
:104C9000064616B9002004B070BD694601A8FFF7AA
:104CA000D7FF06460EB90020F5E7BDF80400BDF8B1
:104CB0000C10884206DCBDF80C10BDF80400323040
:104CC00081420CDBBDF80C00BDF80410884236DCD4
:104CD000BDF80410BDF80C00323081422FDABDF867
:104CE0000000BDF80810884206DCBDF80810BDF8C9
:104CF0000000323081420CDBBDF80800BDF8001026
:104D000088421CDCBDF80010BDF80800323081423A
:104D100015DABDF80C10BDF80420881800EBD0712E
:104D2000C1F34F012180BDF80810BDF8002088189C
:104D300000EBD071C1F34F0129800120ABE70020C7
:104D4000A9E710B504464FF6FF7069490880694924
:104D5000088069480068002848D124B1674968483C
:104D6000FFF78FFF34E065496548FFF78AFF78B3A6
:104D70006448B0F9000000EE100AB8EEC00A6248BC
:104D800090ED001A5E48008800EE900AF8EE600A86
:104D900001EE200ABCEEC00A10EE100A5849088045
:104DA0005A48B0F9000000EE100AB8EEC00A5848A0
:104DB00090ED001A5148008800EE900AF8EE600A63
:104DC00001EE200ABCEEC00A10EE100A4B49088022
:104DD0004B4800884F490880484800884E49088061
:104DE0004E480078401C4D49087014E04B4800784C
:104DF000022807DD424800883D4908803F48008876
:104E00003C4908800020454908704FF6FF70414931
:104E100008804149088010BD1CB501212720FFF7FB
:104E2000C7F80420009000208DF804008DF80600DB
:104E300003208DF8050001208DF8070069463848E9
:104E4000FEF734FB4FF40060009069463548FEF7EA
:104E50002DFB0320009001208DF8040069463048A6
:104E6000FEF724FB2020009069462F48FEF71EFB2A
:104E70002E480078C0B190201B490870D0201B49F3
:104E800008709FED2B0A204880ED000A9FED290A4B
:104E90001F4880ED000A4FF4AE701A4908806FF089
:104EA00012001A49088016E0D0200F49087090209F
:104EB0000E4908709FED200A134880ED000A9FED0F
:104EC0001F0A134880ED000A6FF00A000D490880A0
:104ED000C01F0E4908801CBD84824042940240429B
:104EE0000000404200804042D8000020D90000204D
:104EF000D4000020D60000202C824242EA0000208C
:104F0000E8000020E4000020DC000020E600002093
:104F1000E0000020D0000020D2000020EC000020A3
:104F20000004024000140240000002401A00002069
:104F30006452BCBD7BF5893DDA9F883D3ABABA3DE3
:104F400010B50446FE48844208D101210846FFF707
:104F5000DEF800210120FFF7DAF89DE0B4F1804F80
:104F600008D101210846FFF7C1F800210120FFF711
:104F7000BDF891E0F348844208D101210220FFF7F7
:104F8000B5F800210220FFF7B1F885E0EE48844231
:104F900008D101210420FFF7A9F800210420FFF720
:104FA000A5F879E0E948844208D101210820FFF7FB
:104FB0009DF800210820FFF799F86DE0E44884424D
:104FC00008D101211020FFF791F800211020FFF7F0
:104FD0008DF861E0DF48844208D101212020FFF7ED
:104FE00085F800212020FFF781F855E0DA48844257
:104FF00008D101210220FFF78AF800210220FFF7E3
:1050000086F849E0D548844209D101210804FFF718
:105010007EF800214FF48030FFF779F83CE0D0486B
:10502000844209D101214804FFF771F800214FF4AF
:105030000030FFF76CF82FE0CA48844209D1012103
:105040008804FFF764F800214FF48020FFF75FF831
:1050500022E0C548844208D101214020FFF746F8EC
:1050600000214020FFF742F816E0C048844208D1F2
:1050700001218020FFF73AF800218020FFF736F861
:105080000AE0BB48844207D101218015FFF72EF8C2
:105090000021A015FFF72AF810BD00220288A84BB6
:1050A00098420ED0AC4B98420BD0B0F1804F08D054
:1050B000A44B984205D0A44B984202D0A34B9842EF
:1050C00004D14FF68F731A404B881A43A04B984275
:1050D00007D0A04B984204D04FF6FF431A400B89EB
:1050E0001A4302804B68C3620B880385944B984235
:1050F00002D0994B984201D18B7A03860123838297
:1051000070474FF0FF3141600021018001814180F3
:10511000817270470185828270470A4600210188AA
:105120004FF68F73194011430180704741627047F9
:10513000C16270470146486A70470146088D704752
:1051400021B1028842F00202028004E002884FF698
:10515000FD731A400280704721B1028842F00402B8
:10516000028004E002884FF6FB731A400280704709
:1051700021B1028842F08002028004E002884FF6EA
:105180007F731A400280704702884FF6F7731A4007
:10519000028002880A430280704702884FF6FF436C
:1051A0001A40028002880A430280704721B10288B7
:1051B00042F00102028004E002884FF6FE731A40BA
:1051C0000280704770B5002400220023058C4FF642
:1051D000FE7635400584028C8388048B4FF68F75EC
:1051E0002C40B51E2C400D882C43751E2A408D89FD
:1051F0002A434D882A43524DA84202D0564DA84218
:1052000013D14FF6F7752A40CD892A434FF6FB7527
:105210002A408D882A434FF6FF652B404FF6FF55F5
:105220002B400D8A2B434D8A2B43838004838D684A
:105230004563028470BD70B5002400220023058CF4
:105240004FF6EF7635400584028C8388048B48F650
:10525000FF752C404FF6FF452C400D884FF6FF762A
:1052600006EA05252C434FF6DF752A408D8906EAAC
:1052700005152A434D8806EA05152A43304DA842F4
:1052800002D0354DA8421DD14FF67F752A40CD89F9
:105290004FF6FF7606EA05152A434FF6BF752A40FA
:1052A0008D8806EA05152A434FF6FF352B404FF24D
:1052B000FF752B400D8A06EA85052B434D8A06EAC9
:1052C00085052B43838004838D688563028470BDCC
:1052D00070B5002400220023058C4FF6FF66354090
:1052E0000584028C8388848B4FF68F752C404FF693
:1052F000FC752C400D882C434FF6FF552A408D89B4
:105300004FF6FF7606EA05252A434D8806EA05256D
:105310002A430B4DA84202D00F4DA84238D14FF27C
:10532000FF752A40CD894FF6FF7606EA05252A4308
:105330004FF6FF352A408D8806EA05252A4319E0F5
:10534000000001400004004000080040000C004044
:1053500000100040001400400004014000400140E3
:10536000004401400048014000180040001C00407B
:10537000002000404EF6FF752B404DF6FF752B4088
:105380000D8A06EA05152B434D8A06EA05152B43BF
:10539000838084838D68C563028470BD70B50022EC
:1053A00000230024058C4EF6FF7635400584038CDF
:1053B0008488828B48F6FF752A404FF6FF452A40C5
:1053C0000D884FF6FF7606EA05252A434DF6FF7550
:1053D0002B408D8906EA05352B434D8806EA0535B5
:1053E0002B43FE4DA84202D0FD4DA84208D14BF6FA
:1053F000FF752C400D8A4FF6FF7606EA85152C4383
:10540000848082838D680564038470BD00210180DF
:105410004180818081608181C181018241827047A8
:1054200070B50346002000241846183001258D4031
:10543000ACB21D8CA5431D8409B108290AD100EB2B
:10544000610005684FF68F763540056005681543A5
:1054500005600FE00D1FC5F34E052844056848F6AA
:10546000FF763540056005684FF6FF7606EA0226AE
:105470003543056070BD4163704781637047C16308
:105480007047016470470A460021018B4FF68F7305
:1054900019401143018370470A460021018B48F6E9
:1054A000FF7319404FF6FF7303EA02231943018388
:1054B00070470A460021818B4FF68F7319401143C4
:1054C000818370470A460021818B48F6FF7319409B
:1054D0004FF6FF7303EA02231943818370470A469C
:1054E0000021018B4FF6F773194011430183704778
:1054F0000A460021018B4FF2FF7319404FF6FF73EC
:1055000003EA02231943018370470A460021818B75
:105510004FF6F77319401143818370470A46002103
:10552000818B4FF2FF7319404FF6FF7303EA02239A
:105530001943818370470A460021018B4FF6FB73A4
:1055400019401143018370470A460021018B4FF631
:10555000FF3319404FF6FF7303EA02231943018317
:1055600070470A460021818B4FF6FB7319401143A7
:10557000818370470A460021818B4FF6FF33194023
:105580004FF6FF7303EA02231943818370470A46EB
:105590000021018B4FF67F7319401143018370473F
:1055A0000A460021018BC1F30E014FF6FF7303EA97
:1055B00002231943018370470A460021818B4FF66D
:1055C0007F7319401143818370470A460021818B04
:1055D000C1F30E014FF6FF7303EA022319438183DF
:1055E00070470A460021018C4FF6FD7319401143A4
:1055F000018470470A460021018C4FF6F773194069
:105600001143018470470A460021018C4FF6DF7375
:1056100019404FF6FF7303EA0213194301847047E0
:105620000A460021018C4FF67F7319404FF6FF7335
:1056300003EA02131943018470470A460021018CD2
:105640004FF6FF5319404FF6FF7303EA0223194345
:10565000018470470A460021018C4FF2FF73194004
:105660004FF6FF7303EA02231943018470470A4689
:105670000021018C4DF6FF7319404FF6FF7303EACA
:10568000023319430184704730B5002301248C4054
:10569000A3B2048C9C430484048C02FA01F5ADB2DD
:1056A0002C43048430BD30B5002304248C40A3B2C5
:1056B000048C9C430484048C02FA01F5ADB22C43A3
:1056C000048430BD828B4FF2FF331A408283828B79
:1056D0004FF6FF7303EA01231A4382837047F0B544
:1056E0000C461546002100220026078C4EF6FF7C52
:1056F00007EA0C070784818B028C4FF6FF7707EAD5
:10570000043640F6FF4739404FF6FF7707EA052792
:1057100039434FF6FF7707EA0337394345F6FF77FA
:105720003A4046F480573A4381830284F0BD828B2D
:105730004FF6F3731A408283828B0A438283704749
:10574000F0B50C461546002100220026078C4FF6C6
:10575000FF6C07EA0C070784818B028C4FF6FF77FA
:1057600007EA04264FF60C7739404FF6FF7707EA31
:1057700003172F4339434FF2FF573A4046F48077DF
:105780003A4381830284F0BD028B4FF2FF331A400B
:105790000283028B4FF6FF7303EA01231A4302834D
:1057A0007047F0B50C461546002100220026078CF4
:1057B0004FF6EF7C07EA0C070784018B028C4FF64B
:1057C000FF7707EA041640F6FF4739404FF6FF77A8
:1057D00007EA033739434FF6FF7703E00000014043
:1057E0000004014007EA052739434FF65F773A4046
:1057F00046F010073A4301830284F0BD028B4FF656
:10580000F3731A400283028B0A4302837047F0B598
:105810000C46154600210022068C4FF6FE773E40CE
:105820000684018B028C4FF60C7631407E1C06EA12
:1058300003162E4331434FF6F576324044F001060D
:10584000324301830284F0BD70B505460C462088C2
:1058500050B92389A28861882846FFF7D8FFE188DC
:105860002846FFF7CBFF25E0208804280AD12389AA
:10587000A28861882846FFF794FFE1882846FFF751
:1058800083FF17E0208808280AD12389A28861882D
:105890002846FFF755FFE1882846FFF748FF09E053
:1058A0002389A28861882846FFF719FFE1882846E6
:1058B000FFF708FF70BD0021018041800121818038
:1058C0000021C180018170472DE9F04105460C4659
:1058D00000260127608808B9022600E00026A0887B
:1058E000012801D1022700E001272088A0B92389DF
:1058F000A28861882846FFF78AFFE1882846FFF7DB
:105900007DFF23893A4631462846FFF74AFFE18862
:105910002846FFF739FF13E02389A28861882846CB
:10592000FFF73FFFE1882846FFF72EFF23893A461D
:1059300031462846FFF76BFFE1882846FFF75EFFF8
:10594000BDE8F0810146486B70470146886B70479F
:105950000146C86B70470146086C70470A884B883F
:105960001A438B881A43CB881A430B891A434B89F5
:105970001A438B891A43A0F8442070470021018004
:1059800041808180C180018141818181704731B135
:10599000B0F8442042F40042A0F8442005E0B0F8FA
:1059A0004420C2F30E02A0F84420704721B182883F
:1059B00042F00402828004E082884FF6FB731A40B2
:1059C0008280704721B1828842F00102828004E027
:1059D00082884FF6FE731A40828070471AB183891D
:1059E0000B43838102E083898B43838170478182EB
:1059F000704702460020138A0B400BB1012000E0E3
:105A000000207047CA430282704730B5024600202A
:105A100000230024158A05EA0103958905EA01049B
:105A200013B10CB1012000E0002030BDCA43028256
:105A3000704741EA0203A0F8483070471AB18389E1
:105A40000B43838102E083898B438381704721B1BB
:105A5000828842F00802828004E082884FF6F77361
:105A60001A408280704701894FF6F8721140018117
:105A700070470A46002101894FF68F731940114380
:105A80000181704730B504460D4629462046FFF790
:105A9000F0FF208940F00700208130BD2DE9F04162
:105AA00004460D4616461F46602D06D13B46012290
:105AB00031462046FFF775FE05E03B4601223146A0
:105AC0002046FFF7A4FE29462046FFF7D2FF208993
:105AD00040F007002081BDE8F08130B50C46002180
